:020000040800F2
:1000000090470020712C0008DD030008DF03000882
:10001000E3030008E7030008EB030008000000000A
:10002000000000000000000000000000EF030008D6
:10003000F103000800000000F3030008F5030008C6
:100040008B2C00088B2C00088B2C00088B2C0008B4
:100050008B2C00088B2C00088B2C00088B2C0008A4
:100060008B2C00088B2C00088B2C00088B2C000894
:100070008B2C00088B2C00088B2C00088B2C000884
:100080008B2C00088B2C00088B2C00088B2C000874
:100090008B2C00088B2C00088B2C00088B2C000864
:1000A0008B2C00088B2C00088B2C00088B2C000854
:1000B0008B2C00088B2C00088B2C00088B2C000844
:1000C0008B2C00088B2C00088B2C00088B2C000834
:1000D0008B2C0008E72B00088B2C00088B2C0008C9
:1000E0008B2C00088B2C00088B2C00088B2C000814
:1000F0008B2C00088B2C00088B2C00088B2C000804
:100100008B2C00088B2C00088B2C00088B2C0008F3
:100110008B2C00088B2C00088B2C00088B2C0008E3
:100120008B2C00088B2C00088B2C00088B2C0008D3
:1001300000F002F800F03FF80AA090E8000C8244BA
:100140008344AAF10107DA4501D100F034F8AFF297
:10015000090EBAE80F0013F0010F18BFFB1A43F0A5
:100160000103184774C8000094C80000103A24BF67
:1001700078C878C1FAD8520724BF30C830C144BF0C
:1001800004680C607047000000230024002500264E
:10019000103A28BF78C1FBD8520728BF30C148BFEA
:1001A0000B607047642907F06D85002070471FB50C
:1001B0001FBD10B510BD07F027FF1146FFF7F7FF71
:1001C00000F0E4F807F045FF03B4FFF7F2FF03BCCB
:1001D00002F0ACFC2DE9F04F89B0A0200890B425C6
:1001E0006FF07F4004F088FB05F0E8FD052004F087
:1001F00047FB022004F0D0FB6F4804F0B3FB002063
:1002000004F080FBD2206FF01D0196231A46CDE941
:1002100000102946089805F08AF84FF47A7005F026
:10022000F7FD0024ACE004EB84016FF01D0202EB4B
:10023000410008F03EFE0746604A614B08F0A0FE10
:10024000824600225F4B08F0ADFCCDE9040108F0C6
:10025000BBFB0690089808F02CFE074688460698D7
:1002600009F0B8F8CDE9000108F092FA0022564BE7
:10027000CDE9020108F084FE3A464346CDE9040187
:1002800008F0D4FB824608F0E5FD0646284608F053
:1002900010FECDE90201069809F09CF8824608F0AC
:1002A0003BFB07460022484B08F06AFECDE90001FF
:1002B000DDE9022308F0BAFBCDE9040108F0CAFD2C
:1002C0008146204604EBD0714910B4EB410103D1C3
:1002D000052004F0D5FA02E0042004F0D1FA4946E2
:1002E000304603F0ACFE204604EBD0714910B4EB6D
:1002F000410144D1089808F0DCFDCDE902010698DF
:1003000009F068F8CDE9000108F042FA074600223A
:100310002E4B08F035FE8246DDE9022308F086FB0D
:10032000CDE9040108F096FD0646284608F0C1FD17
:10033000CDE90201069809F04DF8824608F0ECFA82
:1003400007460022224B08F01BFECDE90001DDE943
:10035000022308F06BFBCDE9040108F07BFD814628
:1003600004EB840042001BA107A807F043FC0C200B
:1003700004F008FB4A46314607A803F0CBFF641C93
:10038000172C7FF750AF09B0BDE8F08F10B50024EF
:1003900002F064FB00F01EF905F01DFD0E4804F0AC
:1003A000E1FA4FF47F0004F0A7FA05F007FDFFF72C
:1003B00011FF002010BD000094C800084AD8124D5B
:1003C000FB2109400080664000A061C000C05EC003
:1003D000004060C025640000D4B90008704700BF29
:1003E000FEE700BFFEE700BFFEE700BFFEE7704785
:1003F00070477047704700000CB5002001900090D6
:100400006B48006840F480306949086000BF684864
:10041000006800F4003000900198401C01900098A2
:1004200018B90198B0F5A06FF1D16148006810F4D7
:10043000003F02D00120009001E0002000900098D1
:10044000012842D15B48006840F01000594908601B
:100450000846006820F0030008600846006840F085
:1004600002000860524840685149486008464068A8
:1004700048600846406840F480604860084640682C
:1004800020F47C1048600846406840F4E81048605A
:100490000846006840F08070086000BF444800686B
:1004A00010F0007FFAD04248406820F00300404935
:1004B00048600846406840F00200486000BF3C4881
:1004C000406800F00C000828F9D10CBD10B5FFF70A
:1004D00093FF10BD10B53648006840F00100344964
:1004E0000860084640683449084031494860084679
:1004F0000068324908402E4908600846006820F428
:10050000802008600846406820F4FE0048604FF4F0
:100510001F008860FFF7DAFF4FF00060284908608D
:1005200010BD10B5002100200022214B5B6803F0B4
:100530000C0121B1042906D0082928D107E0214B5C
:10054000214C236027E01F4B1F4C236023E0184BF6
:100550005B6803F47010164B5B6803F4803202236F
:1005600003EB904022B9194B4343174C23600DE035
:100570000F4B5B6813F4003F04D0144B4343124C01
:10058000236003E00F4B43430F4C236003E00D4B0C
:100590000D4C236000BF00BF054B5B68C3F3031322
:1005A0000B4CE15C084B1B68CB40074C236010BD33
:1005B00000100240002002400000FFF8FFFFF6FE9E
:1005C00008ED00E000127A000000002000093D0064
:1005D0000400002008B50121482002F0EDFE202093
:1005E000ADF8000010208DF8030003208DF8020004
:1005F0006946094802F02AFC2021074802F0D1FC94
:100600002020ADF800006946044802F01FFC2021BC
:10061000024802F0C6FC08BD000C01400018014071
:10062000F84908807047F749891C08807047F548E9
:10063000801C00887047F34A1080921C118070471C
:1006400010B504462046FFF7EBFF052002F01FFA25
:10065000FFF7EDFF10BDEC48C079EA49088070470C
:10066000E849891C0880704730B5014601F01F0435
:10067000C1F34513CA0AE50205EB43151544A8B2B8
:1006800030BD00BF0100A0F10102D0B2FAD1704725
:1006900010B503460C46DC488088A0F5134141396B
:1006A00005D0D9488088A0F5D041043914D1D64965
:1006B000087AFFF7B5FF1812FFF7B5FFD8B2FFF7BA
:1006C000B2FFD149487AFFF7ABFF2012FFF7ABFF2B
:1006D000E0B2FFF7A8FF12E0CB488079012804D1EF
:1006E000C9480088401EC01A83B2C749087A194613
:1006F000FFF7A1FFC449487A2146FFF79CFF10BDD0
:100700002DE9F04105460E4600240027A046BE48CC
:100710000088A84203DDBC484088B04202DC0020CB
:10072000BDE8F08131462846FFF7B2FFB648808821
:10073000A0F51341413905D0B3488088A0F5D041D8
:10074000043903D12E20FFF76BFF02E02220FFF7D0
:1007500067FFAD488088A0F51341203902D10220FF
:10076000FFF78FFFA748801C008800B100240220FB
:10077000FFF787FFA348801C0488A3488088A0F562
:10078000134141390CD10220FFF77BFF9D48801CAB
:10079000B0F80080E7B24FF6FF7000EA072708E0E4
:1007A00099488088A0F5D041043902D19548801C31
:1007B000048895488088A0F51341253917D09248C0
:1007C0008088A0F58A41353911D08F488088A0F5FE
:1007D0008A4131390BD08C488088A0F5094189398C
:1007E00005D089488088A0F53541053901D12046DA
:1007F00096E785488088A0F51341413907D1E0127A
:10080000C002B91240EA411040EAE82088E72046D9
:10081000FFF72AFF84E700B57B488088A0F51341E5
:10082000413905D078488088A0F5D041043903D1FA
:100830002920FFF7F5FE04E040F273110720FFF7CF
:10084000FAFE00BD00B570488088A0F5134141391B
:1008500005D06D488088A0F5D041043903D1282007
:10086000FFF7DEFE03E000210720FFF7E4FE00BDF6
:10087000F0B50546002400276348807901281ED181
:1008800061488088A0F5D041043918D0082D15D2D0
:10089000DFE805F00406080A0C0E101206250DE02C
:1008A00007250BE0042509E0052507E0012505E003
:1008B000002503E0032501E0022500BF00BF5248E8
:1008C0008088A0F51341413905D04F488088A0F5B4
:1008D000D04104397CD1082D1CD2DFE805F0040694
:1008E000090C0F12151800BF14E044F0800411E049
:1008F00044F040040EE044F0C0040BE044F0200457
:1009000008E044F0600405E044F0A00402E044F094
:10091000E00400BF00BF362744F008043A4880884E
:10092000A0F5D041043901D144F0020421463846F3
:10093000FFF781FE14F0200F0DD0334800883249B4
:100940004988884214DA3048068840882E49088051
:10095000084646800CE02C4800882B49498888428C
:1009600006DD2948068840882749088008464680D1
:100970002549087AFFF754FE0020FFF754FE0020B7
:10098000FFF751FE20490988491EC1F30F20FFF7E8
:100990004AFE1D490978491EC8B2FFF744FE1A49AC
:1009A000487AFFF73DFE0020FFF73DFE0020FFF7ED
:1009B0003AFE15494988491EC1F30F20FFF733FE5F
:1009C00011498978491EC8B2FFF72DFE37E0FFE7CD
:1009D000082D21D2DFE805F004070A0D0F121A1DB9
:1009E00044F0300418E044F0100415E044F0200412
:1009F00012E000BF10E044F038040DE044F0280499
:100A00000AE00000FE07006CB000002044F018046B
:100A100002E044F0080400BF00BFFE488088A0F553
:100A20000941893904D1112746F24000044302E00C
:100A3000032744F4805421463846FFF7FCFDF0BDFF
:100A400030B504460D4629462046FFF721FEFFF744
:100A500002FEF1480088F149088030BD30B50346F8
:100A60000C461546EB488088A0F51341413905D066
:100A7000E8488088A0F5D041043914D1E549087AC6
:100A8000FFF7CEFD1812FFF7CEFDD8B2FFF7CBFD72
:100A9000E049487AFFF7C4FD2012FFF7C4FDE0B239
:100AA000FFF7C1FD12E0DB488079012804D1D94865
:100AB0000088401EC01A83B2D649087A1946FFF74B
:100AC000BAFDD449487A2146FFF7B5FDD148C0792F
:100AD000D249891E0880881C058030BD10B50446A7
:100AE000002C3DD1CB498871F02008804FF4A070D4
:100AF000488008468088A0F51341413905D0C54893
:100B00008088A0F5D041043914D12C20C149C87186
:100B10002A2008722B20487208468088A0F5D04110
:100B200004394ED14FF4A070BA4908804FF4F070E8
:100B3000488046E0B7488088A0F50941893907D147
:100B40002220B449C8714E2008724F20487238E004
:100B50002220B049C871202008722120487230E05C
:100B6000AC488088A0F5D04104392AD00120A94999
:100B700088714FF4A0700880F02048800846808873
:100B8000A0F51341413907D12C20A249C8712A2070
:100B900008722B20487214E09E488088A0F5094115
:100BA000893907D122209B49C8714F2008724E20F5
:100BB000487206E022209749C8712120087220203F
:100BC00048720020FFF754FE10BD10B594484069EC
:100BD00040F48070924948610846806940F00800FE
:100BE00088610846806940F0200088610846806975
:100BF00040F0400088610846806940F48070886158
:100C00008848006820F00F008649086008460068A0
:100C100040F0030008608448006884490840824925
:100C2000086008460068824908437F490860081F39
:100C3000006800F0FF20091F08600846006840F0C7
:100C4000BB1008607B48006800207A4908600846AD
:100C5000006840F0BB300860081F006820F070405A
:100C6000091F08600846006840F03040086072487C
:100C7000406820F47020704948600846406840F49D
:100C8000302048600846006820F00F0008600846E1
:100C9000006840F00B00086000204FF020418861A0
:100CA000C861664908604FF02040806940F4805078
:100CB0004FF0204188610846806940F48040886197
:100CC0000846806940F0100088610846C069C86124
:100CD0000846C06940F00100C8610846C06940F498
:100CE0007060C86155480068C1F81C01534800682D
:100CF000C1F81C010846D0F81C0140F44070C1F84E
:100D00001C010846806940F0010088614FF0320004
:100D100001F0E0FE01210020FFF78DFC322001F000
:100D2000D9FE0020FFF78CFC3A498880084680886D
:100D3000FF280ADB08468088A0F57F41FF3904D0F0
:100D400034488088B0F5134F4BD1D320FFF768FCAF
:100D5000FFF76DFCFFF76BFCFFF769FC2D498880FE
:100D6000084680884FF6FF7101EA002029498880F3
:100D7000FFF75DFC27498988084326498880084693
:100D80008088A0F5134141391BD0BF20FFF748FCF4
:100D9000FFF74DFCFFF74BFCFFF749FCFFF747FC63
:100DA0001C498880084680884FF6FF7101EA0020C0
:100DB00018498880FFF73BFC164989880843154984
:100DC000888014488088A0F51341413909D0114822
:100DD0008088A0F5D041043903D049F241300D4953
:100DE00088800C488088A0F5134141397ED1CF20FE
:100DF000FFF716FC0020FFF716FCC120FFF713FCDD
:100E00003020FFF710FCED20FFF70AFC6420FFF70D
:100E10000AFC15E0B0000020140000200008006C5F
:100E200000100240000C01400414014000F0FF00DB
:100E3000BB0B00BB04180140002001401C0100A0B6
:100E40000320FFF7F0FB1220FFF7EDFB8120FFF7F7
:100E5000EAFBE820FFF7E4FB8520FFF7E4FB102026
:100E6000FFF7E1FB7A20FFF7DEFBCB20FFF7D8FB93
:100E70003920FFF7D8FB2C20FFF7D5FB0020FFF728
:100E8000D2FB3420FFF7CFFB0220FFF7CCFBF7208B
:100E9000FFF7C6FB2020FFF7C6FBEA20FFF7C0FBE9
:100EA0000020FFF7C0FB0020FFF7BDFBC020FFF7CD
:100EB000B7FB1B20FFF7B7FBC120FFF7B1FB0120F9
:100EC000FFF7B1FBC520FFF7ABFB3020FFF7ABFB13
:100ED0003020FFF7A8FBC720FFF7A2FBB720FFF7E2
:100EE000A2FB3620FFF79CFB482000E0AEE0FFF7B6
:100EF0009AFB3A20FFF794FB5520FFF794FBB120B3
:100F0000FFF78EFB0020FFF78EFB1A20FFF78BFB0D
:100F1000B620FFF785FB0A20FFF785FBA220FFF72D
:100F200082FBF220FFF77CFB0020FFF77CFB2620F2
:100F3000FFF776FB0120FFF776FBE020FFF770FB61
:100F40000F20FFF770FB2A20FFF76DFB2820FFF72B
:100F50006AFB0820FFF767FB0E20FFF764FB082001
:100F6000FFF761FB5420FFF75EFBA920FFF75BFB57
:100F70004320FFF758FB0A20FFF755FB0F20FFF730
:100F800052FB0020FFF74FFB0020FFF74CFB002037
:100F9000FFF749FB0020FFF746FBE120FFF740FB8E
:100FA0000020FFF740FB1520FFF73DFB1720FFF760
:100FB0003AFB0720FFF737FB1120FFF734FB062031
:100FC000FFF731FB2B20FFF72EFB5620FFF72BFB03
:100FD0003C20FFF728FB0520FFF725FB1020FFF73B
:100FE00022FB0F20FFF71FFB3F20FFF71CFB3F20DA
:100FF000FFF719FB0F20FFF716FB2B20FFF710FB65
:101000000020FFF710FB0020FFF70DFB0120FFF78A
:101010000AFB3F20FFF707FB2A20FFF701FB002018
:10102000FFF701FB0020FFF7FEFA0020FFF7FBFAB5
:10103000EF20FFF7F8FA1120FFF7F2FA782001F01D
:1010400049FD2920FFF7ECFA01F00EBAFE4880882E
:10105000A0F5D04104397CD11120FFF7E1FA14202A
:1010600001F038FDD020FFF7DBFA0720FFF7DBFAAD
:101070004220FFF7D8FA1D20FFF7D5FAD120FFF75D
:10108000CFFA0020FFF7CFFA1A20FFF7CCFA092099
:10109000FFF7C9FAD220FFF7C3FA0120FFF7C3FA1E
:1010A0002220FFF7C0FAC020FFF7BAFA1020FFF79E
:1010B000BAFA3B20FFF7B7FA0020FFF7B4FA022094
:1010C000FFF7B1FA1120FFF7AEFAC520FFF7A8FA33
:1010D0000320FFF7A8FAC820FFF7A2FA0020FFF7C5
:1010E000A2FA2520FFF79FFA2120FFF79CFA05209E
:1010F000FFF799FA0020FFF796FA0A20FFF793FA14
:101100006520FFF790FA2520FFF78DFA7720FFF78B
:101110008AFA5020FFF787FA0F20FFF784FA0020A1
:10112000FFF781FAF820FFF77BFA0120FFF77BFA3F
:10113000FE20FFF775FA0020FFF775FA0220FFF78F
:1011400072FA2020FFF76CFA3620FFF769FA0820C0
:1011500000E02CE0FFF767FA3A20FFF761FA55202C
:10116000FFF761FA2B20FFF75BFA0020FFF75BFA2D
:101170000020FFF758FA0120FFF755FA3F20FFF74C
:1011800052FA2A20FFF74CFA0020FFF74CFA002011
:10119000FFF749FA0120FFF746FADF20FFF743FA8D
:1011A000782001F097FC2920FFF73AFA4CE7A6488F
:1011B0008088A0F5134125397ED147F6F001E5205E
:1011C000FFF739FA4FF480710120FFF734FA4FF43A
:1011D000E0610220FFF72FFA41F230010320FFF710
:1011E0002AFA00210420FFF726FA40F20221082003
:1011F000FFF721FA00210920FFF71DFA00210A203C
:10120000FFF719FA00210C20FFF715FA00210D2035
:10121000FFF711FA00210F20FFF70DFA002110202F
:10122000FFF709FA07211120FFF705FA0021122024
:10123000FFF701FA00211320FFF7FDF90021072035
:10124000FFF7F9F941F290611020FFF7F4F940F24D
:1012500027211120FFF7EFF99D211220FFF7EBF96D
:101260004FF4C8511320FFF7E6F925212920FFF795
:10127000E2F90D212B20FFF7DEF907213020FFF7DF
:10128000DAF940F203313120FFF7D5F9032132209A
:10129000FFF7D1F940F206213520FFF7CCF90821FC
:1012A0003620FFF7C8F940F206413720FFF7C3F9AF
:1012B0004FF44171382000E057E0FFF7BCF90721F7
:1012C0003920FFF7B8F940F202613C20FFF7B3F98B
:1012D00008213D20FFF7AFF900215020FFF7ABF9BF
:1012E000EF215120FFF7A7F900215220FFF7A3F9C2
:1012F00040F23F115320FFF79EF94FF42741602041
:10130000FFF799F901216120FFF795F900216A2083
:10131000FFF791F900218020FFF78DF9002181204E
:10132000FFF789F900218220FFF785F9002183204A
:10133000FFF781F900218420FFF77DF90021852046
:10134000FFF779F910219020FFF775F94FF4C0618C
:101350009220FFF770F940F233110720FFF76BF985
:1013600022210020FFF767F96EE637488088A0F554
:10137000134128396AD141F28F01EC20FFF75BF964
:1013800041F23421EF20FFF756F94FF4807101202C
:10139000FFF751F94FF4E0610220FFF74CF941F2F9
:1013A00030010320FFF747F900210420FFF743F93C
:1013B00040F202210820FFF73EF900210920FFF743
:1013C0003AF900210A20FFF736F901210C20FFF736
:1013D00032F900210D20FFF72EF900210F20FFF731
:1013E0002AF900211020FFF726F907211120FFF725
:1013F00022F900211220FFF71EF900211320FFF728
:101400001AF901210720FFF716F9322001F062FBDB
:1014100041F290411020FFF70EF940F227211120F0
:10142000FFF709F9322001F055FB8A211220FFF75E
:1014300002F9322001F04EFB4FF4D0511320FFF798
:10144000FAF80621292002E0B00000208AE0FFF728
:10145000F2F80D212B20FFF7EEF8322001F03AFBD5
:1014600000212020FFF7E7F800212120FFF7E3F813
:10147000322001F02FFB00213020FFF7DCF840F292
:1014800004613120FFF7D7F840F205313220FFF731
:10149000D2F800213520FFF7CEF840F6094136207A
:1014A000FFF7C9F84FF401713720FFF7C4F840F295
:1014B00001313820FFF7BFF840F207713920FFF7FC
:1014C000BAF800213C20FFF7B6F840F60A213D208B
:1014D000FFF7B1F8322001F0FDFA00215020FFF7AC
:1014E000AAF8EF215120FFF7A6F800215220FFF7BC
:1014F000A2F840F23F115320FFF79DF84FF4274127
:101500006020FFF798F801216120FFF794F800218F
:101510006A20FFF790F800218020FFF78CF8002167
:101520008120FFF788F800218220FFF784F800214E
:101530008320FFF780F800218420FFF77CF800214A
:101540008520FFF778F810219020FFF774F84FF40A
:10155000C0619220FFF76FF840F233110720FFF7C8
:101560006AF871E5FE488088A0F5134120397DD1E5
:101570000846FFF760F84FF480710120FFF75BF831
:101580004FF4E0610220FFF756F841F230010320EA
:10159000FFF751F800210420FFF74DF840F2022137
:1015A0000820FFF748F800210920FFF744F8002140
:1015B0000A20FFF740F801210C20FFF73CF800213A
:1015C0000D20FFF738F800210F20FFF734F8322004
:1015D00001F080FA40F201110720FFF72CF83220C9
:1015E00001F078FA4FF486511020FFF724F8072114
:1015F0001120FFF720F84FF488711220FFF71BF835
:101600004FF430611320FFF716F800212920FFF76F
:1016100012F844F210012B20FFF70DF800215020A2
:10162000FFF709F8EF215120FFF705F800215220BC
:10163000FFF701F840F23F115320FEF7FCFF4FF493
:101640001C516020FEF7F7FF01216120FEF7F3FF38
:1016500000216A20FEF7EFFF00218020FEF7EBFF5C
:1016600000218120FEF7E7FF002100E02DE082202D
:10167000FEF7E1FF00218320FEF7DDFF002184203B
:10168000FEF7D9FF00218520FEF7D5FF102190201D
:10169000FEF7D1FF00219220FEF7CDFF012193201C
:1016A000FEF7C9FF4FF488719520FEF7C4FF0021B3
:1016B0009720FEF7C0FF00219820FEF7BCFF40F204
:1016C00073110720FEF7B7FFBEE4A5488088A0F598
:1016D000134131397DD141F21401E720FEF7ABFF10
:1016E0004FF480710120FEF7A6FF4FF40071022035
:1016F000FEF7A1FF41F238010320FEF79CFF40F204
:1017000002210820FEF797FF00210920FEF793FF32
:1017100000210A20FEF78FFF00210C20FEF78BFF2F
:1017200000210D20FEF787FF00210F20FEF783FF29
:1017300000211020FEF77FFF07211120FEF77BFF1D
:1017400000211220FEF777FF00211320FEF773FF20
:10175000C82001F0BFF941F290611020FEF76BFF45
:1017600040F227211120FEF766FF322001F0B2F986
:101770000C211220FEF75FFF322001F0ABF94FF48D
:1017800000611320FEF757FF11212920FEF753FFB8
:101790000B212B20FEF74FFF322001F09BF9002197
:1017A0002020FEF748FF40F23F112120FEF743FFC3
:1017B00000213020FEF73FFF4FF483713120FEF708
:1017C0003AFF00213220FEF736FF4FF40171352039
:1017D00000E064E0FEF72FFF41F20A613620FEF7D9
:1017E0002AFF40F207713720FEF725FF4FF483717F
:1017F0003820FEF720FF40F207713920FEF71BFF6B
:1018000040F202413C20FEF716FF40F60F413D201A
:10181000FEF711FF00215020FEF70DFFEF215120B0
:10182000FEF709FF00215220FEF705FF40F23F11AD
:101830005320FEF700FF4FF41C516020FEF7FBFE23
:1018400001216120FEF7F7FE00216A20FEF7F3FE7A
:1018500000218020FEF7EFFE00218120FEF7EBFE45
:1018600000218220FEF7E7FE00218320FEF7E3FE41
:1018700000218420FEF7DFFE00218520FEF7DBFE3D
:1018800010219020FEF7D7FE4FF4C0619220FEF7A2
:10189000D2FE40F233110720FEF7CDFE86E4304839
:1018A0008088A0F5A84108397DD14FF480710120CE
:1018B000FEF7C1FE4FF4E0610220FEF7BCFE41F2EC
:1018C00030010320FEF7B7FE00210420FEF7B3FE2F
:1018D00040F207210820FEF7AEFE00210920FEF7A6
:1018E000AAFE00210A20FEF7A6FE00210C20FEF72A
:1018F000A2FE00210D20FEF79EFE00210F20FEF724
:101900009AFE142001F0E6F841F2B0611020FEF7D3
:1019100092FE01211120FEF78EFE01211720FEF715
:101920008AFE4FF49C711220FEF785FE4FF4006191
:101930001320FEF780FE09212920FEF77CFE0921F5
:101940002A20FEF778FE0021A420FEF774FE002175
:101950005020FEF770FEEF215120FEF76CFE01E0F3
:10196000B000002000215220FEF765FE40F23F113A
:101970005320FEF760FE4FF41C516020FEF75BFE23
:1019800001216120FEF757FE00216A20FEF753FE79
:1019900000218020FEF74FFE00218120FEF74BFE44
:1019A0000021822000E027E0FEF745FE0021832091
:1019B000FEF741FE00218420FEF73DFE0021852038
:1019C000FEF739FE13219020FEF735FE002192200C
:1019D000FEF731FE03219320FEF72DFE4FF48871B0
:1019E0009520FEF728FE40F273110720FEF723FE34
:1019F000322001F06FF8B7E4FE488088A0F5A851C6
:101A000005397DD10720FEF716FE322001F062F87D
:101A10004FF48E711220FEF70EFE0121A420FEF776
:101A20000AFE0F210820FEF706FE08210A20FEF715
:101A300002FE08210D20FEF7FEFD40F20771302066
:101A4000FEF7F9FD07213120FEF7F5FD40F20361B5
:101A50003220FEF7F0FD4FF4E0613320FEF7EBFD9E
:101A600040F202213420FEF7E6FD02213520FEF788
:101A7000E2FD41F60F713620FEF7DDFD40F2077101
:101A80003720FEF7D8FD00213820FEF7D4FD0021D5
:101A90003920FEF7D0FD40F207713A20FEF7CBFD6A
:101AA00000213B20FEF7C7FD07213C20FEF7C3FDC8
:101AB00000213D20FEF7BFFD322001F00BF801218F
:101AC0000720FEF7B8FD01211720FEF7B4FD3220F4
:101AD00001F000F84FF4BD511020FEF7ACFD40F2CC
:101AE00017211120FEF7A7FD4FF48F711220FEF78A
:101AF000A2FD4FF470611320FEF79DFD002100E070
:101B000094E02A20FEF797FD0A212920FEF793FD95
:101B10004FF49F711220FEF78EFD00215020FEF73A
:101B20008AFDEF215120FEF786FD00215220FEF7AD
:101B300082FD40F23F115320FEF77DFD4FF41C5112
:101B40006020FEF778FD01216120FEF774FD002181
:101B50006A20FEF770FD00218020FEF76CFD002159
:101B60008120FEF768FD00218220FEF764FD002140
:101B70008320FEF760FD00218420FEF75CFD00213C
:101B80008520FEF758FD13219020FEF754FD4FF4F9
:101B900040719220FEF74FFD05219320FEF74BFD8B
:101BA00000219520FEF747FD00219720FEF743FD19
:101BB00000219820FEF73FFD4FF480710120FEF7D1
:101BC0003AFD4FF4E0610220FEF735FD41F23801A5
:101BD0000320FEF730FD00210420FEF72CFD00213C
:101BE0000C20FEF728FD00210F20FEF724FD002128
:101BF0002020FEF720FD00212120FEF71CFD2121E1
:101C00000720FEF718FD142000F064FF6121072073
:101C1000FEF711FD142000F05DFF40F27311072064
:101C2000FEF709FD142000F055FF9AE47148808802
:101C3000A0F5354105397DD10846FEF7FCFC0021B1
:101C40000846FEF7F8FC00210846FEF7F4FC0021E8
:101C50000846FEF7F0FC0121A420FEF7ECFC14205E
:101C600000F038FF4FF41C516020FEF7E4FC40F216
:101C700002210820FEF7DFFC4FF405713020FEF74B
:101C8000DAFC43F215713120FEF7D5FC40F2046115
:101C90003220FEF7D0FC40F616613320FEF7CBFC75
:101CA00042F211213420FEF7C6FC4FF4A851352032
:101CB000FEF7C1FC48F207513620FEF7BCFC41F2AA
:101CC00007413720FEF7B7FC41F203413820FEF709
:101CD000B2FC20213920FEF7AEFC1A219020FEF73D
:101CE000AAFC00211020FEF7A6FC07211120FEF718
:101CF000A2FC00211220FEF79EFC00211320FEF71B
:101D00009AFC142000F0E6FE4FF4E6611020FEF786
:101D100092FC40F237111120FEF78DFC142000F0E8
:101D2000D9FE4FF4DC711220FEF785FC142000F080
:101D3000D1FE00E086E04FF470611320FEF77BFCDB
:101D400080212A20FEF777FC48212920FEF773FC2A
:101D5000142000F0BFFE4FF480710120FEF76BFCF1
:101D60004FF4E0610220FEF766FC41F238010320E7
:101D7000FEF761FC40F202210820FEF75CFC002126
:101D80000A20FEF758FC00210C20FEF754FC00212D
:101D90000D20FEF750FC30210E20FEF74CFC0021F8
:101DA0005020FEF748FCEF215120FEF744FC0021B3
:101DB0005220FEF740FC40F23F115320FEF73BFC5F
:101DC0004FF41C516020FEF736FC01216120FEF724
:101DD00032FC00216A20FEF72EFC11219020FEF734
:101DE0002AFC4FF4C0619220FEF725FC40F202412C
:101DF000932001E0B0000020FEF71DFC022194209A
:101E0000FEF719FC142000F065FE01210720FEF703
:101E100012FC142000F05EFE61210720FEF70BFC8F
:101E200040F273110720FEF706FC00212020FEF788
:101E300002FC00212120FEF7FEFB22210020FEF7FC
:101E4000FAFB11E3FE488088A0F5454105397DD1B4
:101E50000846FEF7F0FB00210846FEF7ECFB1420D5
:101E600000F038FE00210846FEF7E5FB0021084699
:101E7000FEF7E1FB00210846FEF7DDFB00210846E6
:101E8000FEF7D9FB0121A420FEF7D5FB142000F0BA
:101E900021FE4FF41C516020FEF7CDFB40F60601F9
:101EA0000820FEF7C8FB40F203713020FEF7C3FBA9
:101EB00001213120FEF7BFFB04213220FEF7BBFBDE
:101EC0004FF481713320FEF7B6FB4FF4407134209C
:101ED000FEF7B1FB40F203113520FEF7ACFB1F21EA
:101EE0003620FEF7A8FB40F203713720FEF7A3FB74
:101EF00001213820FEF79FFB04213920FEF79BFBD0
:101F000015219020FEF797FB4FF482611020FEF719
:101F100092FB40F247211120FEF78DFB4FF4DE715A
:101F20001220FEF788FB4FF460611320FEF783FB5D
:101F3000782000F0CFFD4FF480710120FEF77BFB8D
:101F40004FF400710220FEF776FB00E050E041F212
:101F500030010320FEF76FFB08210A20FEF76BFB20
:101F600000210C20FEF767FB20210E20FEF763FB0B
:101F700000210F20FEF75FFB00212020FEF75BFB16
:101F800000212120FEF757FB3D212A20FEF753FBBD
:101F9000142000F09FFD2D212920FEF74CFB00218D
:101FA0005020FEF748FB4DF2EF015120FEF743FBB6
:101FB00000215220FEF73FFB40F23F115320FEF775
:101FC0003AFB00216120FEF736FB00216A20FEF774
:101FD00032FB4FF440719220FEF72DFB0521932038
:101FE000FEF729FB4FF480710720FEF724FB3BE24C
:101FF00093488088A0F5094189397DD101210020CD
:10200000FEF719FB4AF6A4010320FEF714FB00219A
:102010000C20FEF710FB40F60C010D20FEF70BFB29
:102020004FF42C510E20FEF706FBB0211E20FEF7C8
:1020300002FB42F63F310120FEF7FDFA4FF4C0618A
:102040000220FEF7F8FA00211020FEF7F4FA46F21B
:1020500078011120FEF7EFFA00210520FEF7EBFAD8
:1020600000210620FEF7E7FA4EF61C711620FEF757
:10207000E2FA03211720FEF7DEFA40F233210720AF
:10208000FEF7D9FA00210B20FEF7D5FA00210F2028
:10209000FEF7D1FA00214120FEF7CDFA00214220BF
:1020A000FEF7C9FA00214820FEF7C5FA40F23F11B9
:1020B0004920FEF7C0FA00214A20FEF7BCFA0021B1
:1020C0004B20FEF7B8FA4FF46F414420FEF7B3FA05
:1020D00000214520FEF7AFFA40F23F114620FEF7FF
:1020E000AAFA40F207713020FEF7A5FA4FF4017109
:1020F0003120FEF7A0FA00E03DE04FF401713220FC
:10210000FEF799FA40F202513320FEF794FA40F2BA
:1021100007513420FEF78FFA4FF401713520FEF796
:102120008AFA4FF401713620FEF785FA40F2025127
:102130003720FEF780FA40F202313A20FEF77BFAB0
:1021400040F202313B20FEF776FA00212320FEF711
:1021500072FA00212420FEF76EFA4FF40041252088
:10216000FEF769FA00214F20FEF765FA00214E20A4
:10217000FEF761FA78E132488088A0F58A4131396A
:102180005DD101210020FEF756FA0A2000F0A2FCE2
:1021900041F228611020FEF74EFA0E211220FEF7C0
:1021A0004AFA40F639211320FEF745FA0A2000F0DA
:1021B00091FC40211120FEF73EFA50211520FEF738
:1021C0003AFA0A2000F086FC1E211220FEF733FAAC
:1021D0000A2000F07FFC4FF4B1511020FEF72BFADB
:1021E00042F639211320FEF726FA0A2000F072FC8D
:1021F0004FF480710120FEF71EFA4FF44071022067
:10220000FEF719FA41F238010320FEF714FA40F202
:1022100002210820FEF70FFA08210A20FEF70BFA28
:1022200000213020FEF707FA40F202413120FEF78C
:1022300002FA4FF483713220FEF7FDF902E05EE00E
:10224000B000002040F203513320FEF7F4F94FF4C0
:1022500082713420FEF7EFF940F201313520FEF7AC
:10226000EAF940F207713620FEF7E5F940F2053150
:102270003720FEF7E0F94FF402713820FEF7DBF962
:1022800040F60B713920FEF7D6F902214120FEF706
:10229000D2F94FF41C516020FEF7CDF901216120E5
:1022A000FEF7C9F94FF404719020FEF7C4F94FF41A
:1022B00085719220FEF7BFF904219320FEF7BBF948
:1022C0004FF48071A020FEF7B6F901210720FEF738
:1022D000B2F921210720FEF7AEF923210720FEF7EE
:1022E000AAF933210720FEF7A6F940F2331107209F
:1022F000FEF7A1F90021A020FEF79DF9B4E0FE4809
:102300008088A0F58A413539F8D130211520FEF7B3
:1023100092F910219A20FEF78EF920211120FEF764
:102320008AF943F228411020FEF785F90221122094
:10233000FEF781F941F238011320FEF77CF92820DD
:1023400000F0C8FB12210846FEF775F9282000F0BE
:10235000C1FB43F220411020FEF76DF943F2380132
:102360001320FEF768F9462000F0B4FB002130206E
:10237000FEF761F940F202413120FEF75CF940F2CC
:1023800007313220FEF757F94FF441713320FEF741
:1023900052F904213420FEF74EF940F20141352074
:1023A000FEF749F940F207713620FEF744F940F292
:1023B00005313720FEF73FF94FF4C2613820FEF7B0
:1023C0003AF94FF4C2613920FEF735F94FF48071C4
:1023D0000120FEF730F94FF440710220FEF72BF98F
:1023E00041F230010320FEF726F940F608010820EB
:1023F000FEF721F908210A20FEF71DF94FF41C51C0
:102400006020FEF718F901216120FEF714F94FF45E
:102410009F719020FEF70FF94FF480719220FEF724
:102420000AF94FF480719320FEF705F94FF44051FB
:10243000A020FEF700F91021A320FEF7FCF80121EF
:102440000720FEF7F8F821210720FEF7F4F82321F2
:102450000720FEF7F0F833210720FEF7ECF840F2F2
:1024600033110720FEF7E7F80020FEF737FB0120C5
:10247000A249086010BD70B5044600269E48058834
:102480004088454300210846FEF702F9FEF7E3F8CD
:1024900000BF02E09A480480761CAE42FAD370BDB9
:1024A0002DE9F04F05460E4617469846DDF824A064
:1024B0004FF0000B781B401C1FFA80FB344613E0E2
:1024C00021462846FEF7E4F8FEF7C5F84FF000096C
:1024D00006E05046FEF7A7F809F101001FFA80F95F
:1024E000D945F6DB601C84B24445E9DDBDE8F08FD8
:1024F0002DE9F84F07460D4690469946DDF828B07D
:10250000A8EB0700401C80B20090A9EB0500401C1E
:102510001FFA80FA002415E0281981B23846FEF728
:10252000B7F8FEF798F8002607E004FB0A603BF8CE
:10253000100073490880701C86B200988642F4DB54
:10254000601C84B25445E7DBBDE8F88F2DE9FF4FEE
:1025500084B081468A460020039002900698A0EB42
:1025600009050798A0EB0A06CDF80490CDF800A065
:10257000002D01DD012705E00DB9002702E04FF035
:10258000FF376D42002E02DD4FF0010806E016B95C
:102590004FF0000802E04FF0FF387642B54201DD0F
:1025A0002C4600E034464FF0000B21E0009A91B237
:1025B000019A90B2FEF744FA0398284403900298D7
:1025C000304402900398A04205DD0398001B03905D
:1025D0000198384401900298A04205DD0298001B42
:1025E00002900098404400900BF101001FFA80FB1C
:1025F000601C8345DADD08B0BDE8F08FF0B5044615
:102600000D4616461F462B46324629462046FFF702
:102610009DFF3B46224629462046FFF797FF3B4653
:10262000324639462046FFF791FF3B46324629465F
:102630003046FFF78BFFF0BD2DE9F04306460F460D
:102640009046002445460320A0EB48093CE07A1B55
:1026500091B2321990B2FEF7F3F93A1B91B27219A6
:1026600090B2FEF7EDF93A1991B2721990B2FEF7F5
:10267000E7F97A1991B2321990B2FEF7E1F97A19B5
:1026800091B2321B90B2FEF7DBF93A1991B2721B8C
:1026900090B2FEF7D5F97A1B91B2321B90B2FEF7D9
:1026A000CFF93A1B91B2721B90B2FEF7C9F9641CC4
:1026B000B9F1000F03DAA000801D814404E0601B23
:1026C00080000A3081446D1EAC42C0DDBDE8F0835D
:1026D0002DE9F84F05460F4690461E4600970948DB
:1026E000B0F80090A8F1200000F0FF080A98002838
:1026F00057D1002452E00000B00000208081214228
:102700000008006C140000200C2E07D108EB4800D4
:10271000CD4901EB800010F804A004E0CB4800EBA9
:10272000081010F804A04FF0000B31E01AF0800FF1
:1027300003D0C748A0F8009003E0C6480088C44909
:10274000088039462846FEF77BF94FEA4A604FEA8F
:10275000106A781C87B2C0480088A84204DCBC48D4
:10276000A0F80090BDE8F88F0098381AB0420BD15D
:10277000009F681C85B2B8480088A84203DCB448B2
:10278000A0F80090EEE706E00BF1010000F0FF0B6F
:10279000BBF1080FCADB00BF601CC4B2B442B3DB9C
:1027A00044E0002440E00C2E07D108EB4800A64985
:1027B00001EB800010F804A004E0A44800EB08102E
:1027C00010F804A04FF0000B28E01AF0800F03D09F
:1027D00039462846FEF734F94FEA4A604FEA106A54
:1027E000781C87B29C484088A84203DC9848A0F82F
:1027F0000090B7E70098381AB0420BD1009F681CD0
:1028000085B295480088A84203DC9148A0F8009062
:10281000A8E706E00BF1010000F0FF0BBBF1080F89
:10282000D3DB00BF601CC4B2B442BCDB8848A0F854
:10283000009000BF96E710B50246012000E050432B
:102840000B00A1F10104E1B2F9D110BD2DE9FF4F58
:1028500081B0074691461E460E9D4FF0000A0024A7
:1028600039E0301B401EC1B20A20FFF7E4FFB9FB7C
:10287000F0F00A21B0FBF1F201FB1208BAF1000FEF
:1028800016D1701EA04213DDB8F1000F0ED100204A
:10289000AB4605EBDB71491001FB0471009088B277
:1028A0002B4620220299FFF713FF12E04FF0010A96
:1028B0000020AB4605EBDB71491001FB0471009071
:1028C00088B208F13001CAB22B460299FFF700FF27
:1028D00000BF601CC4B2B442C3DB05B0BDE8F08FDA
:1028E0002DE9FF4F82B0064692461F46DDE90F48AC
:1028F0000020019000254DE0781B401EC1B20A2047
:10290000FFF799FFBAFBF0F00A21B0FBF1F201FBEF
:102910001209019850BB781EA84227DDB9F1000FBB
:1029200022D118F0800F0FD008F00100A34604EB6D
:10293000DB71491001FB0561009088B2234630220B
:102940000399FFF7C5FE0EE008F00100A34604EB73
:10295000DB71491001FB0561009088B223462022FB
:102960000399FFF7B5FE13E00120019008F0010084
:10297000A34604EBDB71491001FB0561009088B2AE
:1029800009F13001CAB223460399FFF7A1FE00BF47
:10299000681CC5B2BD42AFDB06B0BDE8F08F2DE9C3
:1029A000F84704460D4690469946DDE9096704F06C
:1029B000FF0A08EB04001FFA80F809EB05001FFA74
:1029C00080F916E0444502DB5446A81985B24D450E
:1029D00000DB14E0002000903A7833462946204678
:1029E000FFF776FE304606EBD07104EB61018CB246
:1029F0007F1C38787E2802DC38782028E2DA00BF95
:102A0000BDE8F88710B5FEF7E0F810BD01B5BDF8D8
:102A100000000F49088008BD01B5BDF800000D4950
:102A2000088008BD70B504460D4616463246294654
:102A30002046FEF713F870BD30B504460D46294612
:102A40002046FDF75DFE30BDDA9B00084EA0000871
:102A50001400002016000020B000002010B56FF018
:102A6000040000F075F92D4800682D49B0FBF1F025
:102A70002C4908700846007800EB4001C1EBC010FB
:102A80004FF6FF7101EAC0002749088010BD0146DA
:102A9000244A12784A434FF0E0235A6100229A6197
:102AA0001A46126942F001021A6100BF4FF0E0229B
:102AB000106910F0010F02D010F4803FF6D04FF0F3
:102AC000E022126922F001024FF0E0231A61002295
:102AD0009A6170470146144A12884A434FF0E02336
:102AE0005A6100229A611A46126942F001021A6183
:102AF00000BF4FF0E022106910F0010F02D010F477
:102B0000803FF6D04FF0E022126922F001024FF030
:102B1000E0231A6100229A61704700000000002043
:102B200000127A00180000201A000020014600BFA1
:102B3000704700BF4A4A128812F0400FFAD0C2B262
:102B4000474B1B1D1A80704710B586B00446012103
:102B500044F2040000F030FC414800F095FC4FF4D2
:102B60000070ADF8140003208DF8160018208DF8C1
:102B7000170005A93B4800F069F94FF48060ADF8F3
:102B8000140004208DF8170005A9364800F05EF9FE
:102B900025208DF8000003208DF801008DF802003B
:102BA00001208DF80300684600F087F801940020AA
:102BB000ADF80800ADF80A00ADF80C00ADF8100053
:102BC0000C20ADF80E0001A9254800F0A0FC012260
:102BD00040F22551224800F032FD0121204800F04A
:102BE00022FD06B010BD10B540F225511C4800F082
:102BF0000BFE10B31A4800F087FDC4B21A480088D3
:102C000010F4004F2BD11848008810F4804F0CD0DE
:102C10000A2C03D000201449088020E012480088C4
:102C200040F400401049088019E00D2C06D10E48F0
:102C3000008840F480400C49088010E00A48008871
:102C4000C0F30D0009490C5407480088401C064990
:102C5000088008460088C72801DD0020088010BDD4
:102C600000380140000801401C000020BA0000208C
:102C70000948804709480047FEE7FEE7FEE7FEE710
:102C8000FEE7FEE7FEE7FEE7FEE7FEE7044805494C
:102C9000054A064B70470000D504000831010008C2
:102CA0009041002090470020904300209043002056
:102CB00031490143314A1160704770B5002100234A
:102CC0000F22C4780CB32D4C246804F4E064C4F5DE
:102CD000E064210AC1F10403CA40447804FA03F114
:102CE0008478144021430901254C0678A1550478C5
:102CF00004F01F050124AC4005786D114FF0E0266B
:102D000006EB8505C5F8004109E0047804F01F05CD
:102D10000124AC401B4D0678761145F8264070BD65
:102D2000194A0A400243154B1B1F1A60704739B1FC
:102D3000124A121D12680243104B1B1D1A6006E056
:102D40000E4A121D126882430C4B1B1D1A607047FD
:102D5000042808D14FF0E021096941F004014FF047
:102D6000E022116107E04FF0E021096921F0040140
:102D70004FF0E022116170470000FA050CED00E011
:102D800000E400E080E100E080FFFF1F10B5044692
:102D9000CA48844208D10121042000F027FB002109
:102DA000042000F023FB46E0C548844208D10121FD
:102DB000082000F01BFB0021082000F017FB3AE080
:102DC000C048844208D10121102000F00FFB0021EF
:102DD000102000F00BFB2EE0BB48844208D10121FB
:102DE000202000F003FB0021202000F0FFFA22E069
:102DF000B648844208D10121402000F0F7FA0021B2
:102E0000402000F0F3FA16E0B148844208D10121D5
:102E1000802000F0EBFA0021802000F0E7FA0AE0C1
:102E2000AC48844207D10121801500F0DFFA00216F
:102E3000A01500F0DBFA10BD10B50121084600F026
:102E4000D5FA0021012000F0D1FA10BD2DE9F041A2
:102E5000024600250026002000230024002791F8C8
:102E600003C00CF00F0591F803C01CF0100F03D045
:102E700091F802C04CEA050591F800C0BCF1000FC2
:102E800031D0146800202BE04FF0010C0CFA00F355
:102E9000B1F800C00CEA03069E4220D183004FF037
:102EA0000F0C0CFA03F7BC4305FA03FC4CEA0404CC
:102EB00091F803C0BCF1280F06D14FF0010C0CFAB9
:102EC00000FCC2F814C00AE091F803C0BCF1480F3E
:102ED00005D14FF0010C0CFA00FCC2F810C0401CE8
:102EE0000828D1D31460B1F800C0BCF1FF0F34DD65
:102EF000546800202EE000F1080C4FF0010808FA99
:102F00000CF3B1F800C00CEA03069E4221D1830005
:102F10004FF00F0C0CFA03F7BC4305FA03FC4CEA24
:102F2000040491F803C0BCF1280F05D100F1080C8E
:102F300008FA0CF8C2F8148091F803C0BCF1480FED
:102F400007D100F1080C4FF0010808FA0CF8C2F89C
:102F50001080401C0828CED35460BDE8F0814FF6A5
:102F6000FF710180022181700421C1707047024607
:102F7000002093680B4201D0012000E00020704740
:102F80000146886880B2704702460020D3680B4231
:102F900001D0012000E0002070470146C86880B2DF
:102FA000704701617047416170470AB1016100E0FB
:102FB00041617047C16070474FF480320A438261BB
:102FC0008161826182698269704702460020424BBA
:102FD00018684FF68073184040EA021008433E4BD1
:102FE000186070473D49C8617047F0B50A46002334
:102FF00000240021002500F00046B6F1004F02D168
:10300000354EF16901E0344E7168C0F3034583B277
:1030100000F44016B6F5401F08D121F070612E4E25
:10302000766826F070662C4F7E6012E000F4801601
:10303000B6F5801F06D1032606FA05F4A14341F038
:10304000706106E0460D360103FA06F6B14341F021
:10305000706122B1460D360103FA06F6314300F0E5
:103060000046B6F1004F02D11B4EF16101E01A4E4D
:103070007160F0BD30B500228B071C0F0F2303FADF
:1030800004F2154B08338C1053F824309343124C40
:1030900008348D1044F8253023468C1053F8243022
:1030A0008C07240F00FA04F423430B4C08348D10D2
:1030B00044F8253030BD0A490860704700080140D7
:1030C000000C0140001001400014014000180140B4
:1030D000001C01400020014000000140000020428F
:1030E000DC002042DD48006840F00100DB49086058
:1030F00008464068DA490840D849486008460068F0
:10310000D8490840D54908600846006820F4802066
:1031100008600846406820F4FE0048604FF41F0035
:1031200088607047CD49096821F48031CB4A11602D
:103130001146096821F480211160B0F5803F03D069
:10314000B0F5802F0ED106E0C449096841F4803102
:10315000C24A116007E0C149096841F4A021BF4A91
:10316000116000E000BF00BF704710B501460022AB
:10317000002300204A11012A02D1B84C236806E03E
:10318000022A02D1B54C236A01E0B44C636A01F013
:103190001F02012494401C4201D0012000E00020C5
:1031A00010BD38B5002000900024002500BF31205C
:1031B000FFF7DBFF05460098401C00900098B0F533
:1031C000A06F01D0002DF2D03120FFF7CEFF08B163
:1031D000012400E00024204638BD014600209F4A1B
:1031E000106820F0F80040EAC100106070479E4966
:1031F0000860704702460020984B586820F47C1005
:1032000042EA01031843954B586070479649086697
:10321000704701460020914A506820F0030008439F
:10322000506070478D48406800F00C0070470146C0
:1032300000208A4A506820F0F00008435060704730
:1032400001460020854A506820F4E0600843506041
:10325000704701460020814A506820F4605040EADF
:10326000C1005060704729B17C4A527A02437B4BBF
:103270005A7204E0794A527A8243784B5A72704704
:103280007A490860704701460020744A506820F46B
:1032900040400843506070470021754A11706F4AE2
:1032A00082F82010012802D0042808D103E001216F
:1032B0006F4A117004E005216D4A117000E000BFF3
:1032C00000BF70476B49086070476449096A014351
:1032D000624A11627047674944390860704730B5E7
:1032E00000210022002400235C4D6D6805F00C01D4
:1032F00021B1042905D0082923D105E05E4D0560E0
:1033000022E05D4D05601FE0544D6D6805F47012BC
:10331000524D6D6805F48034022505EB92421CB9CC
:10332000564D554305600BE04C4D6D6815F4003F5C
:1033300003D0524D5543056002E04F4D55430560A3
:1033400002E04D4D056000BF00BF444D6D6805F0C3
:10335000F00109094A4D6B5C0568DD4045603F4D51
:103360006D6805F4E061090A454D6B5C4568DD4018
:1033700085603A4D6D6805F46051C90A404D6B5C3B
:103380004568DD40C560354D6D6805F44041890BE9
:103390003C4D6B5CC568B5FBF3F5056130BD29B1EB
:1033A0002E4A526902432D4B5A6104E02B4A52695E
:1033B00082432A4B5A61704729B1284A92690243D5
:1033C000264B9A6104E0254A92698243234B9A6115
:1033D000704729B1214AD2690243204BDA6104E0E7
:1033E0001E4AD26982431D4BDA61704729B11B4ADC
:1033F000D2680243194BDA6004E0184AD26882436B
:10340000164BDA60704729B1144A12690243134B14
:103410001A6104E0114A12698243104B1A61704725
:1034200014494039086070470F49C86470470B4918
:10343000C87170470948406A40F080700749486287
:10344000704701460020054A92680A4201D00120D7
:1034500000E0002070470149887270470010024068
:103460000000FFF8FFFFF6FE00004242D800424293
:10347000201002408004424200127A0000093D0000
:10348000240000203400002010B50446FB4884428C
:1034900009D101218803FFF7A9FF00214FF48040E3
:1034A000FFF7A4FF32E0F648844209D10121480425
:1034B000FFF7A9FF00214FF40030FFF7A4FF25E03C
:1034C000F048844209D101218804FFF79CFF0021C4
:1034D0004FF48020FFF797FF18E0EB48844209D1B2
:1034E0000121C804FFF78FFF00214FF40020FFF7F0
:1034F0008AFF0BE0E548844208D101210805FFF767
:1035000082FF00214FF48010FFF77DFF10BD2DE9F1
:10351000F04786B005460E460024A24600BFA146ED
:103520000027B08900B100BF2F462C8A4CF6FF70EF
:103530000440F08804432C82AC894EF6F31004401A
:10354000B08831890843718908430443AC81AC8A4F
:103550004FF6FF400440B0890443AC8201A8FFF756
:10356000BEFEC648874202D1DDF810A001E0DDF8BA
:103570000CA0A88910F4004F08D00AEBCA0000EB99
:103580000A1031684900B0FBF1F807E00AEBCA0005
:1035900000EB0A1031688900B0FBF1F86420B8FB39
:1035A000F0F004012009642101FB1089A88910F4BE
:1035B000004F08D0322000EBC900B0FBF1F000F062
:1035C0000700044308E0322000EB09106421B0FB3F
:1035D000F1F000F00F0004432C8106B0BDE8F08745
:1035E0004FF41651016000218180C18001810C21BE
:1035F000418100218181704710B502460020108A68
:103600004FF2FF0318400B884C8823438C882343D8
:10361000CC8823431843108210BD002101804180D3
:103620008180C180704721B1828942F40052828139
:1036300004E082894DF6FF731A4082817047F0B52D
:1036400003460024002600250020A1F510676A3FEC
:1036500000D100BF1846C1F3421401F01F06012734
:1036600007FA06F5012C01D10C3004E0022C01D13F
:10367000103000E014301AB107682F43076002E0F1
:103680000768AF430760F0BD1AB1838A0B4383829A
:1036900002E0838A8B4383827047028A4FF6F0737D
:1036A0001A400282028A0A430282704782894FF2DC
:1036B000FF731A40828182890A438281704721B157
:1036C000828942F00202828104E082894FF6FD7312
:1036D0001A4082817047028A4FF6DF731A400282D5
:1036E000028A0A430282704721B1028A42F4804270
:1036F000028204E0028A4BF6FF731A40028270478E
:10370000C1F308028280704701468888C0F3080030
:103710007047818941F0010181817047028BD2B2EB
:103720000283028B42EA012202837047028B02F479
:103730007F420283028B0A430283704721B1828A4F
:1037400042F02002828204E0828A4FF6DF731A4040
:103750008282704721B1828A42F01002828204E0A4
:10376000828A4FF6EF731A408282704721B1828AB3
:1037700042F00802828204E0828A4FF6F7731A4010
:103780008282704721B1828942F40042828103E043
:103790008289C2F30E028281704721B1828A42F48B
:1037A0000062828204E0828A4FF2FF731A408282B2
:1037B0007047828A4FF6FB731A408282828A0A43DC
:1037C0008282704721B1828A42F00202828204E042
:1037D000828A4FF6FD731A408282704702460020AB
:1037E000B1F5007F00D100BF13880B4201D001204A
:1037F00000E00020704701F40072B2F5007F00D1B4
:1038000000BFCA430280704770B5024600240023FF
:1038100000250020A1F510666A3E00D100BFC1F36B
:10382000421501F01F03012606FA03F3012D02D110
:103830009689334006E0022D02D1168A334001E01A
:10384000968A33400C12012606FA04F41688344096
:1038500013B10CB1012000E0002070BD10B50022B2
:103860000023A1F510646A3C00D100BF0A120124B4
:103870009440A3B2DC43048010BD00000038014036
:103880000044004000480040004C00400050004010
:1038900010B50146C1F3C402C1F38523C1F3C4448A
:1038A00004EB431000EBC22010BD4FF6FF707047D1
:1038B00002680B6803600A6070470146002901DD59
:1038C000084670474842FCE770B501460025C1F341
:1038D0000B01B1F5006F02DDA1F500610125B1F525
:1038E000806F01DDC1F500618C1101F03F00C0F176
:1038F0004002FB4830F8140000FB02F3402A07D0D6
:10390000F74E601C36F81000C2F1400600FB06338B
:1039100003F1200083090DB1584270BD1846FCE741
:1039200010B5044604F58060FFF7CEFF10BD30B53A
:10393000014689100B1101F00F04C4F11002E94C8B
:1039400034F9134004FB02F0102A07D0E54D5C1C4B
:1039500035F91440C2F1100504FB050000F108041C
:10396000E51704EB1575281130BD2DE9F04105462A
:103970000C460026002D01DA01266D42002C02DAE9
:1039800046F002066442AC4205DD20462C46054660
:1039900046F0040600BFA402284605EBD07104EBF4
:1039A000610494FBF5F42046FFF7C1FF074616F0CB
:1039B000040F01D0C7F5806716F0010F01D0C7F5DD
:1039C000006716F0020F01D0C7F580573846BDE8F2
:1039D000F0810146C448807D012806D0022811D01C
:1039E00003281CD0042842D12AE0881DC21700EB0E
:1039F00012721211A0EB02110C2901DA012070479A
:103A00000020FCE70846CA1701EB92729210A1EB66
:103A10008201022901DA0120F1E70020EFE71420FA
:103A200091FBF0F200FB12110C2901DA0120E6E70C
:103A3000102903DB122901DA0120E0E70020DEE78C
:103A4000182091FBF0F200FB12110C2901DA012081
:103A5000D5E7102903DB122901DA0120CFE7142969
:103A600003DB162901DA0120C9E70020C7E700209F
:103A7000C5E72DE9F05F81468A4616461F46DDF808
:103A800028B051464846FFF770FF804608F5806829
:103A90004046FFF745FF00FB06F44046FFF714FFE2
:103AA00000FB06F5002C04DAC4F5007080124042D9
:103AB00002E004F5007080120446002D04DAC5F51A
:103AC00000708012404202E005F500708012054649
:103AD0003C60CBF80050BDE8F09F70B504460D4641
:103AE0008148007D012804D12946204602F0DCF9F6
:103AF00009E07D48007D461E06EBD670421029463F
:103B0000204601F093FF70BD70B504460D4676481F
:103B1000407D10B1012806D104E029462046FFF778
:103B2000DCFF00E000BF00BF70BD2DE9FF4182B0A7
:103B300002990498401A019003990598401A009040
:103B40000027DDE90010084306D1DDE90201FFF797
:103B5000C4FF06B0BDE8F0810198FFF7AEFE06464F
:103B60000098FFF7AAFE86420CDA694601A8FFF723
:103B70009FFE03A902A8FFF79BFE05A904A8FFF773
:103B800097FE01270198FFF798FE019988420DD012
:103B900001984042019000984042009004A902A878
:103BA000FFF786FE05A903A8FFF782FE019800EB48
:103BB000D0714D100098002800DA6D424A48807D8F
:103BC00050BB002424E0009800FB0456002E01DDC9
:103BD000304600E0704247F6FF71884205DA0198EE
:103BE00096FBF0F00399084404E0019896FBF0F08E
:103BF0000399084480462FB902990819414602F0FA
:103C000053F904E002980119404602F04DF9641C92
:103C100001988442D7DD2DE0002428E0009800FBC5
:103C20000456002E01DD304600E0704247F6FF7179
:103C3000884205DA019896FBF0F00399084404E005
:103C4000019896FBF0F00399084480462046FFF760
:103C5000C0FE58B92FB902990819414602F024F95B
:103C600004E002980119404602F01EF9641C019814
:103C70008442D3DD00BF6CE72DE9F04F89B00646E2
:103C80000F4614461D461848007D012806D12B46D4
:103C9000224639463046FFF748FF84E0301B089043
:103CA000781B0790DDE9071008437BD001A80E4B75
:103CB00000901B7D5A1E791B301B02ABFFF7D9FE0B
:103CC0000298002812DD0299481C00EBD0714FEADF
:103CD0006108029800EBD0714FEA610A11E0000020
:103CE0003EA6000860A60008C43E0020029800EB33
:103CF000D0714FEA61080299481E00EBD0714FEA7B
:103D0000610A019800280BDD0199481C00EBD07175
:103D10004FEA6109019800EBD0714FEA610B0AE0AC
:103D2000019800EBD0714FEA61090199481E00EB40
:103D3000D0714FEA610B06EB080000B2ADF80C0041
:103D400007EB090000B2ADF80E00A6EB0A0000B2C6
:103D5000ADF81000A7EB0B0001B2ADF81210A4EB08
:103D60000A0000B2ADF81400A5EB0B0001B2ADF8EB
:103D7000161004EB080000B2ADF8180005EB0900BE
:103D800001B2ADF81A1000231A46042103A800F06E
:103D9000C8FB39463046FFF7B7FE29462046FFF7F5
:103DA000B3FE00BF00BF09B0BDE8F08F2DE9F041C0
:103DB00004460D4616461F46AC48006C0444AB480A
:103DC000406C0544A948006C0644A848406C074470
:103DD000002003F076FB50B100BF3B463246294637
:103DE0002046FFF749FF03F048FB0028F5D1BDE866
:103DF000F08170B504460D469C4AB2F92810B2F91C
:103E000026002B462246FFF737FF20B29749C88489
:103E100028B2088570BD02B2944BDA840AB21A85C2
:103E200070472DE9F0410446884616461F46254650
:103E3000B5F90220D119B5F900209019FFF7EBFF71
:103E400008E02D1DB5F90220D119B5F9002090190F
:103E5000FFF7CFFFA8F10100B0F10008F1DCB5F9E0
:103E60000000B4F90010884205D1B5F90200B4F998
:103E70000210884207D0B4F90220D119B4F9002009
:103E80009019FFF7B6FFBDE8F0812DE9F041064635
:103E90000F4614461D467548006C04447348406C38
:103EA0000544002003F00DFB50B100BF2B46224615
:103EB00039463046FFF7B5FF03F0DFFA0028F5D1A9
:103EC000BDE8F08170B504460D46684EB6F928602D
:103ED0007319664EB6F926603219644EB6F9281089
:103EE000B6F92600FFF7C8FE70BD604AD28C0244C6
:103EF00012B25E4BDA841A46128D0A4412B21A8547
:103F0000704770B504460D46002003F0DAFA40B160
:103F100000BF29462046FFF7D5FF03F0AEFA002880
:103F2000F7D129462046FFF7E0FF70BD70B5044683
:103F30000D464E4AB2F92810B2F926002B46224609
:103F4000FFF79AFE70BD70B504460D464748006CF9
:103F500004444648406C0544002003F0B2FA40B1E6
:103F600000BF29462046FFF7E1FF03F086FA00284C
:103F7000F7D129462046FFF74EFF70BD30B5054604
:103F80000C463A48006C05443848406C04442146CD
:103F90002846FFF740FF30BD2DE9F04107460D46AA
:103FA00016461C4632462946384601F0AAFF3246DC
:103FB0002146384601F0A5FF621E691C384602F012
:103FC00065F9621E691C304602F060F9BDE8F081B7
:103FD0002DE9FC4105460E46174698462348007DCC
:103FE000441E2248006C05442048406C06441F488B
:103FF000006C07441D48406C8044281B00B2ADF89B
:104000000000381900B2ADF80400301B00B2ADF862
:10401000020008EB040000B2ADF80600684603F0A9
:1040200050FA50B100BF43463A4631462846FFF7A2
:10403000B3FF03F022FA0028F5D1BDE8FC8170B58A
:1040400004460D460948006C04440848406C054489
:10405000002003F036FA40B100BF29462046FFF7A2
:104060003CFD03F00AFA0028F7D170BDC43E0020E1
:10407000B0F90020B1F900309A4201DA0A880280D2
:10408000B0F90220B1F902309A4201DA4A8842803E
:10409000B0F90420B1F904309A4201DD8A888280A7
:1040A000B0F90620B1F906309A4201DDCA88C28013
:1040B000704710B50346B1F90000B2F90040A042C4
:1040C00002DDB1F9000001E0B2F900001880B1F999
:1040D0000200B2F90240A04202DDB1F9020001E0A3
:1040E000B2F902005880B1F90400B2F90440A042CC
:1040F00002DDB2F9040001E0B1F904009880B1F9E1
:104100000600B2F90640A04202DDB2F9060001E065
:10411000B1F90600D880B3F90400B3F90040A04219
:1041200001DA002010BDB3F90600B3F90240A04245
:1041300001DA0020F6E70120F4E770B503460D46EA
:1041400002E003F8015B521E12B113F0030FF8D125
:104150009108A9B102F0030205EB054606EB06241F
:10416000184604E010C010C010C010C0091F042978
:10417000F8DA01E010C0491E0029FBD1034600BF58
:1041800002E003F8015B521E002AFAD170BD70B53F
:104190000446204600F0F3FD05463DB1284600F0F8
:1041A000F9FD064622460021FFF7C7FF284670BDED
:1041B0002DE9FC4704460CB9BDE8FC8701F0DAF8AC
:1041C00007464B48B0F9228001F0FBF80646484804
:1041D000808C801B00B24649888477E047F6FF71E7
:1041E000204601F04FF982465146204601F06AF917
:1041F00005463F4890F82C0000F00300012807D046
:10420000022807D1284605EBD0714FEA610904E086
:10421000A94602E04FF0000900BF00BF3448408CBF
:10422000A0EB090000B232494884ADF80000BDF8A7
:1042300000002844401E00B2ADF804000846808CFF
:10424000ADF80200BDF802003844401E00B2ADF8DF
:1042500006006A465146204601F054F9BDF80200B6
:10426000234988845146204600F0DAFB0444207834
:104270000A2802D020780D281ED11D4890F82C0065
:1042800000F00300012802D0022805D100BF0FFA78
:1042900088F01749488404E01548008C1449488484
:1042A00000BF00BF20780A280CD11148808C384408
:1042B00000B20F49888405E0BDF80000284400B230
:1042C0000B494884207800B903E0641C207800285A
:1042D00084D100BF0648808C304400B204498884F1
:1042E0000846B0F92C0020F00300888500BF63E782
:1042F000C43E002070B506460C46154620B204495F
:10430000488428B288843046FFF752FF70BD000011
:10431000C43E00202DE9F04104460D4616460949E9
:10432000B1F92C1041F0020000F02CFB0746324698
:1043300029462046FFF7DEFF384600F023FBBDE8A4
:10434000F0810000C43E002010B500240B48006836
:1043500020B10A480068804700B1012403F09BFAAD
:1043600000B10124204610BD10B5002400E0012456
:10437000FFF7EAFF0028FAD1204610BD58000020C0
:1043800070B504460E461546AC4205DA2A4631465B
:10439000204601F0B6FD04E022463146284601F0F1
:1043A000B0FD70BD2DE9F04304468C461546B5F9C5
:1043B0000200B3F90280404511DCB5F90210A142B8
:1043C00002DD0020BDE8F083B3F90220A24201DA49
:1043D0000020F7E7B5F90060B3F900700FE0B3F91A
:1043E0000210A14201DD0020ECE7B5F90220A24253
:1043F00001DA0020E6E7B3F90060B5F90070A7EB39
:104400000608A4EB010908FB09F0002804DDA2EB73
:10441000010800EB680007E0A2EB01084FF001097A
:10442000C9EB6808A0EB0800A2EB010890FBF8F8C4
:104430004644CCF800600120C4E701469748006874
:104440000C281DDA954A10680DE0421E944B33F992
:1044500012208A4200DA08E0421E914B33F8122003
:1044600023F81020401E0028EFD100BF0AB28C4B69
:1044700023F81020894A1268521C884B1A6000BF2A
:10448000704700208549086070472DE9F0470446D1
:1044900088464FF00009002600250DE0804830F9DD
:1044A00015702EB1E21904EB0900414601F029FD17
:1044B00086F00106B9466D1C784800688542EDDB40
:1044C000BDE8F0872DE9F04704460D4616461F4625
:1044D000DDE9088996EA070007D4444405EB0901A1
:1044E0002246204601F00DFD02E02046FFF7A5FF21
:1044F000BDE8F08770B5054600260DE009B1481EFD
:1045000000E0501E014605EB8100B0F902409C42DC
:1045100001D0204670BD761C501EB042EEDC18461D
:10452000F8E72DE9F04F87B00646894692461F46C8
:1045300040F6FF7006904042059000250CE006EB27
:104540008500B0F902400698844200DA0694059886
:10455000844200DD05946D1C4D45F0DB5148006937
:10456000D8B150480069B0F90600C11B05988142D6
:1045700005DA4C480069B0F90600C01B05904948AF
:104580000069B0F90200C11B0698814205DD45486B
:104590000069B0F90200C01B0690069C5BE0FFF7C3
:1045A00070FF002550E0A9F10100A84201DD681C60
:1045B00000E00020049006EB8500B0F902B00498FA
:1045C00006EB8000B0F90280A34524D1A0450CD1B0
:1045D000049B36F9233003EB0A02E11936F9253042
:1045E00003EB0A00FFF7CCFE2DE023464A4629469E
:1045F0003046FFF77FFF03900398A0420AD0A8EB54
:104600000403CDE900A703990A1B36F925002146CA
:10461000FFF758FF17E0A04515D0A04501DBA345E3
:1046200003DDA3450FDBA0450DDC049806EB8003FA
:1046300006EB850203A92046FFF7B4FE10B10398EC
:10464000FFF7FBFE00BF6D1C4D45ACDBE11950468A
:10465000FFF71BFF641C05988442A0DD07B0BDE88E
:10466000F08F2DE9F04106460F4614461D460D48D1
:10467000006C04440B48406C0544002002F021FF0C
:1046800050B100BF2B46224639463046FFF749FF5E
:1046900002F0F3FE0028F5D1BDE8F08138000020DB
:1046A00082010020C43E002010B501F01BFE04462C
:1046B000204610BD70B501F015FE054601F0C0FDA5
:1046C0000446204670BD10B501F00FFE044620469A
:1046D00010BD70B501F009FE054601F0B1FD0446BC
:1046E000204670BD014608B2134A908400207047EE
:1046F000014608B2104A50840020704770B5044645
:104700002046FFF7EFFF0546284670BD70B504460A
:104710002046FFF7EDFF0546284670BD70B50646FA
:104720000C463046FFF7E4FF05462046FFF7DAFF68
:104730000543284670BD0000C43E002010B570B38C
:1047400071B36AB3B1F90030B2F90040A34202DD9F
:10475000B2F9003001E0B1F900300380B1F9023064
:10476000B2F90240A34202DDB2F9023001E0B1F930
:1047700002304380B1F90430B2F90440A34202DDB3
:10478000B1F9043001E0B2F904308380B1F90630A8
:10479000B2F90640A34204DDB1F9063003E00CE0B3
:1047A00003E0B2F90630C38010BD09B10B4600E04A
:1047B00013461C6804605B68436000BFF4E778B18F
:1047C00003880B441BB2038083880B441BB2838095
:1047D000438813441BB24380C38813441BB2C38075
:1047E000704700002049086800211F4A1160704787
:1047F0001D49096809B91C490860704700B500BF28
:10480000FFF7F0FF0028FBD100BD184A106051608F
:104810000122174B1A60704770B5002414480068D5
:1048200098B113480068401E114908600F48056898
:104830004168284603F098F90C484068012802D1E5
:104840002846FFF7D5FF012400BF204670BD70B594
:1048500004460D462946204603F086F918B9294634
:104860002046FFF7D2FF70BD480000204000002026
:104870003C0000200749087D70470649487D704785
:104880000146044A107D117570470146014A507D6A
:1048900051757047C43E00200246B2F90200B1F9DA
:1048A0000630984213DCB1F90200B2F906309842A2
:1048B0000DDCB2F90000B1F90430984207DCB1F91F
:1048C0000000B2F90430984201DC0120704700205A
:1048D000FCE7000010B5044648220649204603F0D4
:1048E00094FA10BD10B5044648222146014803F051
:1048F0008CFA10BDC43E002010B50446204601F0DD
:10490000A5FC10BD10B50446204601F0AEFC10BD5C
:1049100010B50020FFF7F0FF6FF07F40FFF7F2FFC8
:104920000120FFF7ADFF002000F02CF8002000F080
:1049300033F8002000F00EF8054800F013F80020CE
:1049400000F018F810BD10B5FFF7E2FF10BD000031
:1049500088AD000870B50446204601F091FA05467E
:10496000284670BD0146024A906901B191617047C5
:10497000C43E00200146024A907D917570470000B8
:10498000C43E00200146034AB2F92C000AB2014B92
:104990009A857047C43E00200146034AB2F92A00B6
:1049A0000AB2014B5A857047C43E002070B50446D8
:1049B0003148C0694168204688470546284670BD91
:1049C00070B504462C48C0690168204688470546F2
:1049D000284670BD70B504460D462748C069294673
:1049E000C268204690470646304670BD10B5044662
:1049F0002148C06981682046884710BD70B50446CB
:104A000025681D48C06901682846884706461A4837
:104A1000C06941682846884705442560304670BD16
:104A20002DE9F04105460E46002707E01248C0690F
:104A30004168284688470446254427443000A6F1AB
:104A40000106F3D13846BDE8F0812DE9F041064674
:104A50000F464FF00008002508E07019064AD26999
:104A6000516888470446254408F10108AF42F4DC48
:104A70004046BDE8F0810000C43E002001460878B1
:104A80007047014600BF01207047014600BF01206A
:104A90007047024611700120704702480249C86100
:104AA0007047000084A60008C43E00200146C81CD0
:104AB00020F0030000B270470146E44800EBC1005B
:104AC000B0F90200704730B5E04901EBC0014988F8
:104AD00001B930BDDD4901EBC001B1F90220DC496B
:104AE000C989114409B2DA4BD98119468989891AD1
:104AF00009B299810021D54B03EBC0035980D34CF7
:104B000004EBC004A188D14C04EBC004E388CF4C73
:104B100004EBC304A18019B1CC4D05EBC105EB80BA
:104B2000CB494968491CCA4B596019460968491E56
:104B3000196000BFCDE7012107E0C44800EBC100C8
:104B4000408808B908B27047491CB1F5C47FF4DB4E
:104B50000020F8E730B50246002111E0BB4830F9EB
:104B60003100BA4D05EBC105B5F902502844B74DE7
:104B700035F933502C1A944201DB08B230BD194686
:104B8000B24800EBC1008388002BE7D1AF4830F971
:104B90003100AE4C04EBC104B4F90240204443F2AE
:104BA000D404201A904201DB08B2E7E74FF0FF304F
:104BB000E4E72DE9F04706464FF0FF39002438E0DE
:104BC000A24830F83400A14901EBC40149880844E7
:104BD0009E4931F83510081A0FFA80FAB24527DAE3
:104BE0009A4830F83400994901EBC40149880844D7
:104BF000964931F83510081A07B2C7B1934830F911
:104C00003500944900EB0108904901EBC501B1F969
:104C10000220A8EB0700414603F0B5F88B4830F8B6
:104C20003500C01B00B2894921F8350000BF00BF24
:104C30002C46864800EBC4008588002DC0D18348EF
:104C400030F93400814901EBC401B1F90210084484
:104C500043F2D401081AB04200DBA1460FFA89F0F2
:104C6000BDE8F08740F2871079494860886043F2D8
:104C7000D400C8810882002008608881042073491C
:104C800048800020088088800120734908707047A0
:104C900000B57148007808B9FFF7E4FF00BD70B5B2
:104CA0000646FFF7F5FF3046FFF700FF0646684867
:104CB000B0F90E00B04201DA002070BDFFF73BFFF3
:104CC000050000D1F9E73046FFF744FF0446601CB9
:104CD00003D13046FFF76DFF0446601C00D1ECE7BE
:104CE0005A4A32F83420594B03EBC4035B881A4408
:104CF00011B2564A02EBC4029088544A02EBC50234
:104D00005680524A22F8351002EBC50290800028E6
:104D100003DD4E4B03EBC003DD804C4B03EBC503BF
:104D2000DC804A4B03EBC4039D8049480068401C6B
:104D30004749086008464068401E48600846806849
:104D40004968884203DD42484068414988604048DC
:104D50008089304400B23E4988810846C089801B62
:104D600000B2C8810846B0F91000B1F90E108842AF
:104D700003DD3748C0893649088228469DE770B56B
:104D800004460CB9002070BD2046FFF788FF054699
:104D90002846F8E7014609B9002070472B4830F94A
:104DA00031002C4A1044F8E710B5FFF771FF28488E
:104DB000B0F90E0010BD2DE9F0410027FFF768FFA4
:104DC000002510E0214830F83500204901EBC501ED
:104DD000498808441D4931F83610081A04B2BC420B
:104DE00000DD27463546194800EBC5008688002EB1
:104DF000E8D1164830F83500144901EBC50149885F
:104E0000084443F2D401081A04B2BC4200DD27462C
:104E10003846BDE8F08110B504460CB9002010BD3D
:104E20002046FFF749FEFAE710B5044604B910BD65
:104E30002046FFF748FE00BFF9E710B50446B4F975
:104E40000000FFF7F1FF0020208010BD703200202D
:104E5000B03E00209C01002050000020F0B50B4621
:104E6000016803FB03F4161B944202D3002707607A
:104E7000F0BD00BF491C01FB01F5B542FAD34F1E3E
:104E8000076000BFF4E72DE9F05F07460C461546C2
:104E90001E46DDF828802146284604F0F7FB02D1A3
:104EA0002046BDE8F09F2146284604F0A9FD824631
:104EB0003146404604F0A4FD8346514604F024FBED
:104EC00081462146384604F09BFD8346494604F05E
:104ED00099FC8246314604F0A9FAE2E72DE9FF4F3A
:104EE0009DB006460C4692462D9FFD49087D03F075
:104EF000F7FF0022FB4BCDE9000103F097FD0022F4
:104F00004FF08043CDE9020103F04CFECDE90601EC
:104F1000504603F0CEFFCDE90401DDE9062304F09D
:104F20006FF9CDE9080103F04FFD1390EC49087DBE
:104F300003F0D6FF0022EB4BCDE9000103F076FD34
:104F400000224FF08043CDE9020103F02BFECDE9B2
:104F50000601504603F0ADFFCDE90401DDE906236B
:104F600003F064FDCDE9080103F02EFD12902A98AC
:104F700003F09FFFDC4ADD4BCDE9040104F000F8AB
:104F80000022DB4BCDE9060103F00CFECDE9080160
:104F900003F01AFD11902B9803F08BFFD24AD34BEC
:104FA000CDE9040103F0ECFF0022D14BCDE906016D
:104FB00003F0F8FDCDE9080103F006FD109011980B
:104FC00004F008FACDE9060103F0A6FCCDE90801DA
:104FD00003F0FAFC0F90109804F0FCF9CDE90601FB
:104FE00003F09AFCCDE9080103F0EEFC0E90119855
:104FF00004F0F0F9CDE9060103F0CAFBCDE90801A0
:1050000003F0E2FC0D90109804F0E4F9CDE90601FC
:1050100003F0BEFBCDE9080103F0D6FC0C90139918
:10502000084604F0EFFB834604F080FB0B901299D6
:10503000084604F0E7FB834604F078FB0A900F99DA
:10504000139804F0DFFB14900F99129804F0DAFB28
:1050500015900E99139804F0D5FB16900E9912989E
:1050600004F0D0FB17900D99139804F0CBFB189027
:105070000D99129804F0C6FB19900C99139804F03E
:10508000C1FB1A900C99129804F0BCFB1B90149869
:1050900004F0A0F9CDE9060103F00CFBCDE908010D
:1050A00003F0D8FE8146179804F094F9CDE9060183
:1050B00003F0C4FBCDE9080103F0CCFE804688482C
:1050C0000069B8B3012F19D185480069B0F906000D
:1050D000001B404505DA82480069B0F90600A0EBE4
:1050E00004087F480069B0F90200001B484505DD4F
:1050F0007B480069B0F90200A0EB0409781C19D1C3
:1051000077480069B0F90600001B484505DA744885
:105110000069B0F90600A0EB040971480069B0F914
:105120000200001B404505DD6D480069B0F9020032
:10513000A0EB0408002008900790454656E0294659
:1051400008A80B9AFFF78AFE294607A80A9AFFF7D4
:1051500085FE284604F00AFB0690159904F01EFB14
:1051600010D2284604F002FB059019980090189B75
:10517000DDE914120598FFF786FE069004F0BAFAEE
:10518000099001E007980990284604F0EFFA06908C
:10519000169904F003FC10D2284604F0E7FA0590B3
:1051A0001B9800901A9BDDE916120598FFF76BFE1D
:1051B000069004F09FFA834601E0DDF820B02C98B9
:1051C000002808DD099B9A1907FB05410BEB060037
:1051D00000F097FE09E0CBF100039A1907FB0541A7
:1051E000099B5B42981900F08CFE6D1E4D45A6DAB6
:1051F0002098209021B0BDE8F08F2DE9FF470746A9
:10520000884691469A46DDE90C4504F5B47405F5E7
:10521000B47503E0A4F5B474A5F5B475B4F5B47F22
:10522000F8DA00BF002D01DCBDE8FF875A2C15DA43
:10523000002C00DA00245A2D01DA284600E05A201A
:1052400006464FF0FF30012153464A46CDE900465D
:10525000CDE9021041463846FFF740FE5A3D5A3C20
:10526000002D00DCE0E75A2C18DA002C00DA0024CC
:105270005A2D01DA284600E05A2006464FF0FF3248
:10528000C4F15A00C6F15A01CDE901025346039216
:1052900000914A4641463846FFF720FE5A3D5A3CA7
:1052A000002D00DCC0E75A2C14DA002C00DA0024B0
:1052B0005A2D01DA284600E05A2006460120811EB8
:1052C00053464A46CDE90046CDE9021041463846EC
:1052D000FFF704FE5A3D5A3C002D0BDCA4E700000A
:1052E000C43E00200000F83F4AD8124DFB2109407F
:1052F000008066405A2C17DA002C00DA00245A2D60
:1053000001DA284600E05A2006460122C4F15A007C
:10531000C6F15A01CDE901025346039200914A4673
:1053200041463846FFF7DAFD5A3D5A3C7AE72DE907
:10533000FC4704460D4616461F46DDE90A890C481F
:10534000006C04440A48406C0544002002F0B9F89F
:1053500060B100BF3B46324629462046CDE9008970
:10536000FFF74BFF02F089F80028F3D1BDE8FC8776
:10537000C43E002029498969487D704700B5FFF780
:10538000F9FF2649898C084400B2244988840846DC
:10539000008C488400BD10B504460A2C02D1FFF7EA
:1053A000EDFF0DE00D2C0BD01C48806901682046F4
:1053B00088471B48006818B1204619490968884782
:1053C00010BD0020154991F82C1001F00C010429A2
:1053D00004D008290ED00C2913D104E00F498969A3
:1053E000097D481E0DE00D4A9269117D01EBD172D5
:1053F000501006E0094A9269117D01EBD1725010FC
:1054000000BF00BF704770B504460448806941681A
:10541000204688470546284670BD0000C43E00204F
:1054200060000020F7B50C4615466948006930B1A8
:10543000674908692946FFF72FFA00B9FEBD64489D
:105440008069006938B162488069006921468268D4
:105450000098904714E00FE06846FFF7CFFA064641
:105460005B4880690168304688475A48006818B12F
:105470003046584909688847601E041EECDA00BFB0
:1054800000BFDBE773B50D4600240098C0B150485B
:105490008069006938B14E488069006929464268D0
:1054A000009890477CBD08E06846FFF7A7FA0646DB
:1054B0000EB10A2E00D102E0641CAC42F4DB00BF46
:1054C0002046EFE773B50C4600250098C0B1404870
:1054D0008069006938B13E488069006921460268E8
:1054E000009890477CBD07E06846FFF787FA0646BC
:1054F0003046FFF788FF0544601E041EF4DA00BF43
:105500002846EFE77CB505460E461446324800684B
:1055100078B1002001F0D5FF002858D000BF6A46BE
:1055200031462846FFF77EFF01F0A7FF0028F6D19D
:105530004DE02068009060680190BDF800002449AB
:10554000B1F84010084400B2ADF80000BDF8020008
:105550001F49B1F84410084400B2ADF80200BDF88C
:1055600004001B49B1F84010084400B2ADF8040033
:10557000BDF806001649B1F84410084400B2ADF871
:105580000600684601F09DFF80B100BFBDF8000035
:105590000F494884BDF8020088846A46314628468F
:1055A000FFF740FF01F069FF0028EFD10848408C69
:1055B0000749B1F84010401A00B20549488408462E
:1055C000808CB1F84410401A00B2014988847CBD37
:1055D000C43E002060000020640000202DE9F04F50
:1055E0008BB005466D48B0F922000A906B48B0F9BF
:1055F00024A080698469B4F80C80A84509DCE0899E
:10560000A84206DBD4F80090A5EB08064FF0FF3760
:105610001DE0A068D4F80490A8B1B0F80080A845B7
:105620000DDC4188A9420ADB0288AA1A95B24168BA
:1056300001EB8501B1F90060B1F9027006E04FF0AD
:10564000FF36374602E04FF0FF36374600BF701C8A
:1056500077D052488069007DA17C48430990207C26
:1056600008904E488069007D07904C48B0F92AB0F8
:10567000584600F005FCC0B20690484A099806FB5F
:105680000090A17C0123CDE90231CDE9040210464E
:105690008069C07D11468969897DCDE90010514638
:1056A000DDE907320A9800F08BFC781C1BD04BF028
:1056B000020000F0E5FB394A099807FB0090A17C45
:1056C0000123CDE90231CDE9040210468069C07D95
:1056D00011468969897DCDE900105146DDE907321F
:1056E0000A9800F06DFC2D488069407D2B4989693E
:1056F000097D884221DDBBF1020F1ED08BF0040032
:1057000000F0BEFB25488069007DDFF890C0DCF822
:1057100018C09CF815C000FB0CA120488069407D92
:1057200000EB0A031D48806990F816E0DDF820C000
:105730000A980CFB0E0200F00EFC069800F0A0FB8D
:1057400000BF1648408C617C084400B2134948846D
:105750000BB0BDE8F08F014610488069826900BF38
:10576000507C704700BF02220A80704730B5044663
:10577000A26995898D4204DCD089884201DB012031
:1057800030BD93683BB11888884204DC5888884251
:1057900001DB0120F4E700BF0020F1E7C43E002058
:1057A00007E002888A4203DC42888A4200DB02E08A
:1057B00080680028F5D100BF70472DE9F04F87B011
:1057C00005465648B0F92A80014689698869294604
:1057D000FFF7E6FF0646002E76D03188691A70681A
:1057E00000EBC104A778404600F04AFB06904B4905
:1057F00001226068CDE90227CDE9040108468069ED
:10580000C07D8969897DDFF814C1CDE90010DCF81D
:1058100018C09CF814302278DFF800C1BCF92410BD
:10582000BCF9220000F0CCFB3C488069407D3B493C
:105830008969097D884237DD3848806990F817907A
:1058400036488069407D00FB09FA34488069007D54
:1058500000FB09FBB8F1020F25D0FEF73AFF0590D7
:10586000FEF728FF0490FFF74DF8DFF8B0C0BCF951
:1058700022C094F800E00CEB0E02DFF8A0C0BCF9E7
:1058800024C00CEB0A03DFF894C0BCF924C00CEB75
:105890000B01DFF888C0BCF9220000F05CFB059822
:1058A000FFF730F800BF00BF069800F0E9FA1B4888
:1058B000B0F922006178194A9269927D01FB0200D9
:1058C00000B21649488400BF07B0BDE8F08F70B53C
:1058D00004461249896988692146FFF761FF054638
:1058E0004DB12988611A686810F831000B4989693F
:1058F000897D484370BD0020FCE700BF01220A807B
:10590000704770B504460D462946A069FFF748FF69
:1059100006460EB1012070BD0020FCE7C43E002009
:105920002DE9F04105460E4617461C463119E81987
:1059300000F0BAFA3119E81B00F0B6FAF11928198B
:1059400000F0B2FAF11B281900F0AEFA7CB1311B5D
:10595000E81900F0A9FA311BE81B00F0A5FAF119CB
:10596000281B00F0A1FAF11B281B00F09DFABDE8EE
:10597000F0812DE9F04707468846144640F2C320DF
:1059800060434FF47A7190FBF1F000F1010904EBF0
:10599000D471491004FB041A2646002322464146CE
:1059A0003846FFF7BDFF012513E005FB05F006FBB8
:1059B0000600504506DD33462A4641463846FFF785
:1059C000AFFF761E33462A4641463846FFF7A8FF0A
:1059D0006D1C4D45E9DDBDE8F0877CB506460D46FA
:1059E0001446C948006C0644C748406C0544301B47
:1059F00000B2ADF80000301900B2ADF80400281B69
:105A000000B2ADF80200281900B2ADF806006846F1
:105A100001F057FD48B100BF224629463046FFF746
:105A2000A8FF01F02AFD0028F6D17CBD2DE9F04742
:105A300005468846164640F2C32070434FF47A71FB
:105A400090FBF1F000F1010906EBD671491006FB5D
:105A5000061A3446AA19A81B414600F052FA01273B
:105A600025E007FB07F004FB0400504512DD4C4520
:105A70000FDDEB195A1E08EB0401EB1B581C00F05C
:105A800040FAEB195A1EA8EB0401EB1B581C00F05E
:105A900038FA641E2A1908EB0701281B00F031FAB6
:105AA0002A19A8EB0701281B00F02BFA7F1C4F4591
:105AB000D7DDBDE8F08770B504460D46164692481E
:105AC000006C04449048406C0544002001F0F9FC4F
:105AD00048B100BF324629462046FFF7A7FF01F034
