:020000040800F2
:10000000981800205D5A0008F1020008F302000869
:10001000FF020008030300080703000800000000B7
:1000200000000000000000000000000001010008C6
:100030000B030008000000000D0300080F03000878
:10004000775A0008775A0008775A0008192E0008D6
:10005000775A0008775A0008392300084D23000812
:10006000612300087523000889230008371D000854
:10007000775A0008775A0008775A00085546000852
:1000800075440008775A0008775A0008775A000824
:10009000775A0008775A0008775A00089D2300080D
:1000A000775A0008775A0008775A0008775A0008EC
:1000B000775A0008772C0008C74F0008775A0008C5
:1000C000775A0008775A0008775A0008775A0008CC
:1000D000775A0008775A0008F7020008775A000894
:1000E0001B2400080F2E0008775A0008DFF80CD0F8
:1000F0000CF0D2FC004800478B090008981800203B
:100100001EF0040F0CBFEFF30880EFF3098004F03A
:1001100079BF00000CB50020019000906B4800688A
:1001200040F480306949086000BF6848006800F406
:10013000003000900198401C0190009818B9019877
:10014000B0F5A06FF1D16148006810F4003F02D013
:100150000120009001E0002000900098012842D189
:100160005B48006840F01000594908600846006884
:1001700020F0030008600846006840F002000860B4
:1001800052484068514948600846406848600846FF
:10019000406840F4806048600846406820F47C1065
:1001A00048600846406840F4E81048600846006827
:1001B00040F08070086000BF4448006810F0007F85
:1001C000FAD04248406820F00300404948600846A1
:1001D000406840F00200486000BF3C48406800F0C2
:1001E0000C000828F9D10CBD10B5FFF793FF10BD26
:1001F00010B53648006840F00100344908600846F0
:10020000406834490840314948600846006832492E
:1002100008402E4908600846006820F480200860E5
:100220000846406820F4FE0048604FF41F008860D4
:10023000FFF7DAFF4FF000602849086010BD10B5E5
:10024000002100200022214B5B6803F00C0121B14A
:10025000042906D0082928D107E0214B214C23602E
:1002600027E01F4B1F4C236023E0184B5B6803F40F
:100270007010164B5B6803F48032022303EB90404E
:1002800022B9194B4343174C23600DE00F4B5B68B9
:1002900013F4003F04D0144B4343124C236003E09B
:1002A0000F4B43430F4C236003E00D4B0D4C236079
:1002B00000BF00BF054B5B68C3F303130B4CE15C4D
:1002C000084B1B68CB40074C236010BD0010024058
:1002D000002002400000FFF8FFFFF6FE08ED00E0FE
:1002E00000127A000000002000093D0004000020F8
:1002F000704700BFFEE710B504F00AFA10BD00BF5A
:10030000FEE700BFFEE700BFFEE77047704770479B
:100310002DE9F041074602F071FDF8490968441AD9
:1003200020460BF064FE05462A460B460020F449A1
:100330000BF0DDFDF34A03C202F060FDEF490860F7
:10034000BDE8F08110B505F0E2FAEF4800680A2137
:10035000B0FBF1F201FB120018B9EC4903C901F03E
:10036000E2FAE9480068401C02D1E749086004E06D
:10037000E5480068401CE449086010BD10B504461B
:10038000204600F069FC10BD2DE9FF4101F0EEFCB4
:1003900002F0A6FC4FF4165003F09DFE4FF41650E9
:1003A00003F0D8FE04F09EF908F0DDF801F0D4FA6D
:1003B00005F068FAAFF23B00D549086004F022FF6F
:1003C000D448D5490860AFF283026421002004F0CC
:1003D000ACFDD24801F0A0FFD048AFF2CB03012220
:1003E0001146D0F8C440CE48A047CE4803F047FE9F
:1003F000CC480022CC49D0F8C43004209847C948E2
:100400000022C949D0F8C43005209847C74903C91C
:100410000BF019FE0446C648CDE90240C54803C8A2
:10042000CDE90001C448C5490CC803C903F0A9FAC5
:10043000BF48C34AC349836CB4489847C248006860
:100440000BF0C4FD04460D46BF48006840420BF067
:10045000BDFD0646B64822462B46D0F854C030466D
:10046000E04704F0F5FD02E0B8A00CF01FFD04F039
:100470002EFE0028F8D10822B14904F03FFE0822E0
:10048000B649142004F03AFE0822B549282004F0A9
:1004900035FE0022B34BAA4903C90BF015FE02D268
:1004A0000020B14901E0A64903C9A54A03C20022C0
:1004B000AE4BA34903C90BF0F3FD02D20020AA49B9
:1004C00001E09F4903C99E4A03C20022A84BA449E8
:1004D00003C90BF0F9FD02D20020A54901E0A049B3
:1004E00003C99F4A03C20022A24B9C4903C90BF0D7
:1004F000D7FD02D200209F4901E0984903C9974ADD
:1005000003C202E09CA00CF0D1FC01F062FD0028C7
:10051000F8D100F02BFEBDE8FF812DE9F0418A48BB
:1005200000680BF053FD064632460B46854903C969
:100530000BF0DDFC04460D460022134620462946FA
:100540000BF0C2FD1CD290480078C8B98F4A904B7E
:10055000204629460BF059FC04460D462046294604
:100560000BF0C6FD06466F483146D0F8C82005207E
:1005700090476C480021D0F8C8200420904722E022
:1005800084480078F8B985F00045804A804B2046C1
:1005900029460BF03AFC06467C4A7F4B0BF08EFB5B
:1005A00004460D465F480021D0F8C820052090473A
:1005B000204629460BF09CFD06465A483146D0F8A5
:1005C000C82004209047BDE8F0817CB5594803C895
:1005D000CDE900015648C46C574858490CC803C9B6
:1005E000A047574849490CC803C90BF008FC04460A
:1005F00000226A4B0BF068FD0BD3514843490CC8ED
:1006000003C90BF0FCFB04460022654B0BF048FDD0
:100610001BD24748816D002088473C4848490CC898
:1006200003C90BF0ECFB0546002213460BF04CFD12
:1006300001D2642001E06FF0630004460BF0C6FCB9
:10064000404A03C2FFF769FF03E03948816D01208A
:1006500088473749486C80477CBD70B501F0D6FCAF
:100660002A4A03C24F4829490CC803C90BF0C7FBEB
:1006700004460022494B0BF027FD0BD34948234980
:100680000CC803C90BF0BBFB04460022444B0BF023
:1006900007FD13D20022444B424903C90BF000FD71
:1006A0000CD20022314B3F4903C90BF00DFD05D29E
:1006B0003C48D0E90010154AC2E900101348D0E9BF
:1006C0000010384AC2E900100022384B0F4903C914
:1006D0000BF0FAFC03D201202B49087002E0002045
:1006E000294908700022204B084903C90BF0D8FCA7
:1006F0005ED20120274908705DE0000088000020DC
:1007000000408F40800000208C000020200000204E
:100710000402002009190008840100208003002041
:10072000000C0140B00200200050C34648000020E9
:100730004804002040000020380000203000002045
:1007400018000020280000205800002032344330D8
:1007500032204552524F52210A0000007000002002
:10076000780000200080564000003E400000144009
:1007700000C052400000F03F445331384232302034
:100780004552524F52210A00680000209A999999C7
:100790009999E93F690000209999C93F00002440D8
:1007A000000024C0600000200040554000805140FF
:1007B00000207E4908707E487E490CC803C90BF0B2
:1007C00083FC08D201F0DCF87B480078A8B901204E
:1007D0007949087011E0794876490CC803C90BF0D3
:1007E0005FFC08D201F0D3F87348007828B90120E3
:1007F0007149087001E001F0D1F870BD70B56D4924
:1008000003C900F0FDFF6E4903C901F033F800226F
:1008100013466C4903C90BF057FC06D26A4A6B4B6E
:10082000684903C90BF0F1FA01E0002001460446D3
:1008300001F003F870BD2DE9FC4102F0DFFA6449D4
:100840000968401AB0F57A7F03D900215C4A11602B
:10085000516002F0D3FA5F490968401AB0F57A7F17
:1008600047D902F0CBFA5B4908605B480068002872
:100870003DD1504803C859A2CDE900010121022011
:1008800002F04DFD00F055FC4D4903C900F044FC59
:100890000022584B474903C90BF029FB05460022AB
:1008A000554B0BF0B2FA07460BF0AEFB04462B2378
:1008B00022462921002007F08BFD042007F0E6FDE9
:1008C00000224C4B3B4903C90BF011FB05460022AB
:1008D000494B0BF09AFA07460BF096FB04462B2384
:1008E0007F22292107F074FD002007F0CFFDBDE82D
:1008F000FC8102F083FA41490968401AB0F57A6F29
:1009000041D902F07BFA3D4908602A4903C933A264
:10091000CDE900010121022002F001FD00F009FCF7
:10092000274903C900F0F8FB0022324B214903C9D3
:100930000BF0DDFA054600222F4B0BF066FA074656
:100940000BF062FB04462B2322462921002007F0EE
:100950003FFD042007F09AFD0022264B154903C9EC
:100960000BF0C5FA05460022234B0BF04EFA074662
:100970000BF04AFB04462B237F22292107F028FD98
:10098000002007F083FD00BFB1E7FFF7FDFC0CE09E
:10099000FFF763FEFFF719FE28B1FFF7BEFDFFF773
:1009A0002DFFFFF748FF00F014FCF1E7690000207D
:1009B000780000202000002090000020700000201F
:1009C00080000020280000201F85EB51B81EC53F85
:1009D0008800002094000020A4000020496E70755B
:1009E000743A252E3266202020202020202020202E
:1009F00020000000000059400000604098000020E6
:100A0000FC48007808B920207047FA48007802288E
:100A100008D1F9484078F849097801EB810100EBE9
:100A2000410001E0F4480078C0B2EDE7F1480078F9
:100A3000052838D2DFE800F00306091220004FF045
:100A4000FF307047EC480078FBE7EB484078EA4914
:100A5000097801EB810100EB4100F2E7E6480078FC
:100A600064214843E449497801EB810100EB4100EE
:100A7000E14989780844E4E7DF4800784FF47A7167
:100A80004843DD49497801EBC10202EB011100EB5B
:100A90008100D949897801EB810100EB4100D649F9
:100AA000C9780844CDE74FF0FF30CAE7D148007855
:100AB000012812D1D0480078092805DACE480078FC
:100AC000401CCD49087023E00020CB49087001206C
:100AD00048700220C74908701AE0C74840780928C2
:100AE00005DAC5484078401CC349487010E0002032
:100AF000C149487008460078401C087008460078D4
:100B00000A2805D10120BB4908700020BA490870A5
:100B10007047B8480078012809D1B7480078002804
:100B20001CDDB5480078401EB349087016E0B24895
:100B30004078002805DDB0484078401EAE49487036
:100B40000CE00920AC49487008460078401E087047
:100B50000846007810B90120A6490870704770B5A2
:100B600004460D46592C1ED1A248007800281ADDF3
:100B7000A0490978022908D19F4949789E4A1278EC
:100B800002EB820201EB420101E09B490978084631
:100B90000BF01CFAC5E9000100209649087097493E
:100BA0000860012070BD502C01D04E2C38D19448E3
:100BB000007868BB8F48007850BB012090490870CE
:100BC000D5E9002110460BF03EFA8E490870084620
:100BD0000078092807DA084600788749087001205C
:100BE0008449087012E0874800780A2190FBF1F0F0
:100BF00081490870834800780A2190FBF1F201FBDB
:100C000012007D49487002207A4908700020C9E727
:100C1000502C02D1FFF74AFF1CE0FFF77AFF19E0E2
:100C2000422C17D0592C15D0A4B1502C12D04E2CD8
:100C300010D070480078022801D10020B2E7A4F15A
:100C40003000C1B26B4802780078401C694B1870C4
:100C5000694881540020A5E710B504462CB16A48C4
:100C600004700120694908700BE004F078FC6649C3
:100C700008700846007800B910BD0120634908706B
:100C800000BF6148007842283FD1002059490870D0
:100C90005A480068B0F5827F04D058480068B0F523
:100CA000017F03D1002055490860E5E753480068FB
:100CB000000E06D05148006820F07F404F49086080
:100CC00022E04E480068C0F3074030B14B4800684E
:100CD00020F47F004949086016E048480068C0F3E6
:100CE000072030B14548006820F47F404349086040
:100CF0000AE04248006810F0FF0F05D03F48006846
:100D000020F0FF003D490860B6E73C480068000E4F
:100D10004ED03D480078592824D136480078002824
:100D200020DD34480078022808D133484078324921
:100D3000097801EB810100EB410001E02E480078C9
:100D400033490A780978491C314B1970314901EB54
:100D5000820148800020274908704FF4827027499B
:100D60000860D7E1284800784228FAD02648007861
:100D70005928F6D0244800780028F2D0224800787C
:100D80005028EED0204800784E28EAD01948007844
:100D9000022800D170E71C4800783038C1B21548ED
:100DA00002780078401C134B187013488154B1E14D
:100DB00012480068C0F30740002871D0124800783C
:100DC000592846D10B480078002842DDFFF72EFE57
:100DD000401C35D00E48007800281DDDFFF726FEA8
:100DE0000B490978491E0B4A32F92110884213DC5D
:100DF00027E00000B1000020A9000020A40000208E
:100E0000A8000020D0000020A1000020B900002090
:100E1000B8000020A8040020FFF708FE00B2FC493B
:100E2000FC4A127821F82200FB48006820F07F403D
:100E3000F94908600846006840F08070086004E0E6
:100E400000BF4FF48270F44908600020F349087035
:100E500060E1F34800784228A9D0F1480078592889
:100E6000A5D0EF4800780028A1D0ED4800785028A0
:100E70009DD0EB4800784E2899D0E84800780428A7
:100E800000D1F9E6E64800783038C2B2E34801788C
:100E90000078401CE14B1870E24842543AE1FFE709
:100EA000DD480068C0F3072000287BD0DA480068DE
:100EB000C0B2012804D003284BD0042848D156E002
:100EC000D5480068C0F30720012802D002283ED18F
:100ED0001FE0D549D2480078FFF741FEC0B1D248A3
:100EE000D0E90010D14AC2E900100022D04BCF490E
:100EF00003C90BF0D5F802D20020CD4901E0CB495F
:100F000003C9CA4A03C20822C849142004F007F9D9
:100F10001DE0C549C2480078FFF721FEB0B1C249C3
:100F200003C9C44A03C20022C34BC24903C90BF020
:100F3000CBF802D20020C04901E0BE4903C9BD4A36
:100F400003C20822BB49282004F0E9F800BF00BF13
:100F50004FE0B1480068C0F30720012805D1B74928
:100F6000AF480078FFF7FBFD00BF00BF00BFAA48F5
:100F70000068C0F30720012804D0022835D00328D8
:100F800035D133E0A648007859280CD1A248006832
:100F900020F47F00A04908600846006840F48030D3
:100FA000086021E026E09E480078322809D1A44854
:100FB0000078012818DDA2480078401EA04908707A
:100FC00012E097480078382803D0954800783528F3
:100FD0000AD19B4800788F490978884204DA9848FA
:100FE0000078401C9649087001E000E000BF00BF97
:100FF00000BF8FE08848006810F0FF0F6DD0864872
:101000000068C0B2012806D002281BD0032825D0D2
:10101000042861D145E082480078312803D0804817
:10102000007832280DD17C48006820F47F407A494E
:1010300008607B4800783038096841EA002076492A
:10104000086049E07F4976480078FFF788FD20B1C5
:1010500008227C49002004F062F83DE070480078E6
:10106000312812D17848816D002088476A4800688D
:1010700020F47F4068490860694800783038096882
:1010800041EA0020644908600AE065480078322897
:1010900006D16D48816D0120884700205E490860B7
:1010A0001AE05F480078312807D05D480078322880
:1010B00003D05B48007833280DD15748006820F4EE
:1010C0007F4055490860564800783038096841EA41
:1010D00000205149086000BF1CE0514800783128C9
:1010E0000BD04F480078322807D04D48007833287D
:1010F00003D04B48007834280CD14748006820F0D2
:10110000FF004549086046480078303809680843C0
:101110004149086000BFAFE57CB504460D464BA2CF
:101120004FF001014FF00400CDE9004502F0F7F85F
:101130007CBD2DE9FC4100221346404903C90AF059
:10114000C3FF02D23D4903C901E000200146064623
:10115000454A464B0AF059FE044645A2CDE9000136
:101160000121032002F0DBF8BDE8FC811FB507F088
:10117000EDF9344803C845A2CDE900010121084634
:1011800002F0CDF8474803C847A2CDE9000101218C
:10119000022002F0C4F8FFF7CCFF494903C9FFF76A
:1011A000BBFF244803C8CDE90201204803C845A27B
:1011B000CDE900010121052002F0B1F845A201218D
:1011C000072002F0ACF84AA20121082002F0A7F89B
:1011D0001FBD2DE9FC474C48007808B9BDE8FC87E5
:1011E0000D48006840F20312811A90420AD00ADCCE
:1011F000032809D009DC20B1012807D0022806D134
:10120000AAE0A0E0C1E088E0B9E07FE09EE0FBE07A
:10121000A8040020B8000020A4000020B100002095
:10122000A1000020A9000020C800002070000020BC
:101230000000F03F7800002000C05240280000204D
:10124000A0000020180000204804002046616E28FD
:1012500052504D293A252E32672020202020202070
:1012600020202020000000001F85EB51B81EC53F44
:101270004865617465722857293A252E3267202007
:1012800020202020202020202000000054617267B0
:1012900065743A252E326620202020202020202030
:1012A0000000000020000020496E7075743A252E61
:1012B0003266202020202020202020202000000036
:1012C00080000020416C61726D3A252E32662C251B
:1012D0002E326600202020202020202020202020C8
:1012E000202020202020202020202020202020001E
:1012F000312E414C4D322E544D50332E504F5734D9
:101300002E504C4F54000000B900002004284FD04C
:10131000A0F58070013877D150E040F20122881AA0
:10132000914272D008DC012972D0FE2959D0A1F572
:1013300080710139EFD1BBE0B0F57E4F67D0BE4977
:101340004018E8D15BE1FFF711FF6FE1BBA201217B
:10135000072001F0E4FF69E1BFA20121072001F0AD
:10136000DEFFC4480078002808DDFFF749FB04468B
:101370002346C1A24021072001F0D1FF56E1C1A2BE
:101380000121072001F0CBFF50E1C6A20121072077
:1013900001F0C5FFB7480078002808DDFFF730FBF3
:1013A00004462346C6A24021072001F0B8FF3DE1D4
:1013B000C7A20121072001F0B2FF37E1C8A2012135
:1013C000072001F0ACFFAB480078002808DDFFF7EC
:1013D00017FB04462346C9A24021072001F09FFFC6
:1013E00024E1C9A20121072001F099FFA14800785A
:1013F000002808DDFFF704FB04462346C9A240216C
:10140000072001F08CFF11E10CE1E4E000E0E3E0F3
:1014100007F09CF8C7A0C8A3C9A201210090084604
:1014200001F07DFF0120C949086027E0C748006836
:10143000C74909780844801EC64901EB8000B0F90D
:101440000200C2490968C24A12781144891EC14A81
:1014500032F92110CDE90010BC480068BC49097878
:101460000844431EBCA20121B8480068401C01F09A
:1014700056FFB6480068401CB4490860B948007877
:10148000B3490978401A401C062806DAB5480078A6
:10149000AF490978401A401C00E00620AB490968B2
:1014A0008842C3DAB0A20121082001F038FFBDE074
:1014B00007F04CF8AB480078012805DAAFA201210B
:1014C000072001F02CFFB1E0B1A25A21082001F061
:1014D00026FFA4480078012818D19E49B1F90200DE
:1014E0000AF074FD80464FF06632AB4B0AF08DFC7B
:1014F00006460022A94B0AF085FC04460AF084FD4A
:1015000082467F22002106F0FDFE8FE09549097892
:10151000491E904A32F92110B2F90020881A0AF0C7
:1015200055FD044622460B4600209D490AF0DFFC8B
:101530009C4A03C20120854908603EE0834909684E
:10154000491E844A32F92110B2F90020881A0AF0A3
:101550003DFD064693480CC830460AF056FC04464A
:101560000AF052FD01B279480068401E8E4A22F806
:10157000201076490968491E764A02EB8101B1F9CB
:1015800002000AF023FD8046884A894B0AF03DFCA0
:1015900006460022874B0AF035FC04460AF034FD6B
:1015A00001B26A480068401E7F4A02EB8000418019
:1015B00066480068401C65490860644800686949DD
:1015C00009788842BADD00231A46664801787648D1
:1015D00006F0DFFE2AE029E077A20121082001F0D1
:1015E0009EFE24480078002808DDFFF71FFA044615
:1015F000234679A24021082001F091FE16E078A24E
:101600000121082001F08BFE1A480078002808DD2F
:10161000FFF7F6F9044623466FA24021082001F0A7
:101620007EFE03E000207549087000BF00BF002067
:101630007249087000BFD1E50002FFFE43686F6F7A
:1016400073653A20312E4D696E20322E4D6178201F
:101650002020202020202000496E70757420546DB9
:10166000703A202020202020202020202020202010
:1016700020202000B10000202564202020202020F0
:1016800020000000312E496E70757420322E417595
:10169000746F2020202020202020202020202020A7
:1016A00020202000496E70757420506F773A2020FA
:1016B000202020202020202020202020202020004A
:1016C0002564202020202020202020202020000011
:1016D000312E43666720322E53746172740000000D
:1016E000496E707574204D696E3A202020202020AC
:1016F00020202020202020202020200025642020C1
:101700002020202020200000496E707574204D613B
:10171000783A202020202020202020202020202057
:101720002020200025642020202020202020202090
:1017300000000000544D500054696D650000000029
:101740004E6F2E253873253873000000B40000203A
:10175000A0000020A804002025642E202538642540
:1017600038640000B800002050726573732059205F
:10177000746F20496E707574000000004E6F6E65C6
:101780002056616C75652053657420202020000070
:1017900054617267657400006666E63F0000504061
:1017A00000C05F40C000002070050020295C8FC28F
:1017B000F528E43F00804F40496E707574205469ED
:1017C0006D653A202020202020202020202020206D
:1017D0002020202000000000256420202020000080
:1017E000496E70757420544D503A202020202020DE
:1017F000202020202020202020202000B9000020B0
:101800003EB504460D464FF000008DF808004FF03D
:101810003C0002F0DBFC012002F0D8FC2F2002F09B
:10182000D5FC6A462046294603F0E0FF684602F0F0
:10183000DBFC3E2002F0CAFC3EBD3EB504460D4630
:101840004FF000008DF808004FF03C0002F0BEFCA5
:10185000032002F0BBFC2F2002F0B8FC6A462046B1
:10186000294603F0C3FF684602F0BEFC3E2002F0AA
:10187000ADFC3EBD3EB504460D464FF000008DF870
:1018800008004FF03C0002F0A1FC022002F09EFC98
:101890002F2002F09BFC6A462046294603F0A6FF53
:1018A000684602F0A1FC3E2002F090FC3EBD0146DD
:1018B0002548807A884203D02348007B884201D1A2
:1018C000422070472048C07A884201D15920F8E769
:1018D0001D48407B884201D15020F2E71A48807BA6
:1018E000884201D14E20ECE7002209E01648805CD6
:1018F000884203D102F13000C0B2E2E7501CC2B20C
:101900000A2AF3DBFF20DCE770B504460F492046C6
:1019100003F000FD30B10D494878FFF7C8FF0546D8
:10192000FFF79AF970BD3EB504460D464FF0000032
:101930008DF808006A462046294603F057FF69469D
:1019400003A00BF0B3FA3EBDD1000020E000002060
:101950003C25733E3E00000008B50121102005F033
:1019600057F84FF4C060ADF8000010208DF8030068
:1019700003208DF802006946174804F02DFD08BDCC
:1019800010B54FF48061144804F0D1FD10BD10B5BE
:101990004FF40071104804F0CAFD10BD10B54FF4AB
:1019A00000710D4804F0C5FD4FF480610A4804F051
:1019B000C0FD10BD08B50121042005F029F8102054
:1019C000ADF800008DF8030001208DF80200694693
:1019D000024804F001FD08BD00100140000801406C
:1019E0000146102929D2DFE801F0080A0C0E101276
:1019F0001416181A1C1E20222426D5487047D448D5
:101A0000FCE7D348FAE7D248F8E7D148F6E7D048F0
:101A1000F4E7CF48F2E7CE48F0E7CE48EEE7CD480E
:101A2000ECE7CD48EAE7CC48E8E7CB48E6E7CA4828
:101A3000E4E7C948E2E7C848E0E70020DEE70146FE
:101A4000102929D2DFE801F0080A0C0E1012141632
:101A5000181A1C1E20222426012070470220FCE7B1
:101A60000420FAE70820F8E71020F6E72020F4E742
:101A70004020F2E78020F0E70120EEE70220ECE7CB
:101A80000120EAE70220E8E70420E6E70820E4E78F
:101A90001020E2E72020E0E70020DEE770B5002517
:101AA0000022002619E0AD4909680968885DFFF742
:101AB00097FF0446A648844202D102F001020AE0E0
:101AC000A448844202D102F0020204E0A248844207
:101AD00001D102F00402701CC6B2A048006800796F
:101AE000B042E0DC12F0010F01D045F0040512F025
:101AF000020F01D045F0080512F0040F01D045F0A7
:101B00001005284670BD10B5002094490968487139
:101B10000121934804F0B5F810BD024600210BE006
:101B20008E4800680068405C904203D18D4830F8D0
:101B300011007047481CC1B288480068007988428B
:101B4000EEDC0020F5E700B58DB00121084604F079
:101B500052FF854804F02AFA81484C3002908148AF
:101B60000390002004907D480068007905900020D3
:101B700006908020079040000890800009907748E8
:101B80000068807908B1202000E000200A904FF41E
:101B900080500B9000200C9002A9734804F0A8FA22
:101BA00001220221704804F0DAFA0B208DF80400BB
:101BB00000208DF805008DF8060001208DF8070043
:101BC00001A803F062FF0121674804F0BCFA0DB0E0
:101BD00000BD70B586B0054660480560AFF2C5002F
:101BE0005E490968C860AFF2E1005C490968886035
:101BF000FFF754FF40F400760121304604F008FF5F
:101C00004FF4004004F06BFE00242CE053480068C1
:101C10000068005D102801D1012000E000204F493C
:101C200009680968095D112901D1012100E000213D
:101C3000084300D015E0494909680968085DFFF7C5
:101C4000FEFEADF8000000208DF80300434909684E
:101C50000968085DFFF7C4FE0646694604F0BCFB50
:101C600000BF601CC4B23D4800680079A042CDDCD2
:101C70003B4803F073FF0020019001208DF808001D
:101C80003648006880798DF809004FF46020039091
:101C9000002004903148006800798DF8140001A9F3
:101CA0002F4803F082FF002422E02C4800680068DF
:101CB000005D102801D1012000E0002027490968BB
:101CC0000968095D112901D1012100E000210843C3
:101CD00002D0012004F026F9601CC2B21F4800683F
:101CE0000068015D07231E4803F0F7FF601CC4B2C3
:101CF0001A4800680079A042D7DCFFF724FF0121D1
:101D0000174803F089FF0121154803F07AFF1448B2
:101D100003F099FF00BF124803F09AFF0028FAD1A0
:101D20000F4803F09FFF00BF0D4803F0A0FF0028FD
:101D3000FAD106B070BD10B5022004F03DFA30B102
:101D40000120064909684871022004F048FA10BDD4
:101D500000080140000C014000100140E400002098
:101D600000240140380600200800024010B56FF042
:101D7000040003F0D5FE2D4800682D49B0FBF1F0BA
:101D80002C4908700846007800EB4001C1EBC010F8
:101D90004FF6FF7101EAC0002749088010BD0146D7
:101DA000244A12784A434FF0E0235A6100229A6194
:101DB0001A46126942F001021A6100BF4FF0E02298
:101DC000106910F0010F02D010F4803FF6D04FF0F0
:101DD000E022126922F001024FF0E0231A61002292
:101DE0009A6170470146144A12884A434FF0E02333
:101DF0005A6100229A611A46126942F001021A6180
:101E000000BF4FF0E022106910F0010F02D010F473
:101E1000803FF6D04FF0E022126922F001024FF02D
:101E2000E0231A6100229A61704700000000002040
:101E300000127A00E8000020EA00002010B5914866
:101E4000406820F470408F4948600846406840F47C
:101E50004050486000208C49086040F2EE20FFF7B7
:101E60009EFF01208949C1F8AC010F20FFF797FFC1
:101E700010BD10B500248348406820F470408149AB
:101E800048600846406840F40040486004E0601C38
:101E9000C4B20120FFF783FF7D48006808B1C82C59
:101EA000F5DBC82C01DB012010BD002404E0601C20
:101EB000C4B20120FFF773FF7548006808B9F02C21
:101EC000F5DBF02C01DB0120EEE70020ECE710B59C
:101ED0006C48406820F470406A4948600846406891
:101EE00040F4405048600020674908604FF002000D
:101EF000FFF755FF01206549C1F8AC016148406812
:101F000020F470405F4948600846406840F4004053
:101F100048600C20FFF743FF5D48006808B10124CA
:101F200000E000243220FFF73AFF204610BD70B5D4
:101F30000026012508E0FFF7CAFF0446E00140EA59
:101F40006600C6B2681CC5B2082DF4DD304670BD0F
:101F500070B504464B48406820F4704049494860D9
:101F60000846406840F440504860012522E004F0F3
:101F70000106641076B10020434908604FF002006A
:101F8000FFF70DFF01204149C1F8AC013C20FFF7EC
:101F900006FF0DE000203C4908604FF03C00FFF7D1
:101FA000FEFE01203949C1F8AC010220FFF7F7FE1F
:101FB000681CC5B2082DDADD70BD10B5FFF73EFF15
:101FC000FFF757FFCC20FFF7C3FF4420FFF7C0FF08
:101FD00010BD08B50121042004F01AFD4FF4006083
:101FE000ADF8000010208DF8030002208DF80200EB
:101FF0006946284804F0F0F94FF40061254804F0E0
:1020000096FAFFF71BFFFFF734FF08BD2DE9F05FDD
:10201000FFF7D3FFFFF712FFFFF72BFFCC20FFF7EF
:1020200097FFBE20FFF794FFFFF781FF8146FFF780
:102030007EFF0646072E07DDF043C6B26FEA0900B1
:1020400000F0FF09002700E00127B0464FEA082012
:102050000FFA80F808EB09000FFA80F8404609F003
:10206000B5FF824600220C4B09F0CFFE04460D4618
:102070001FB120462946BDE8F09F204685F000416B
:10208000F9E7000000200140AC012142000021429C
:102090002C012142000801400000B03F002281884D
:1020A00002E04910531CDAB211F0010FF9D0FE4BD7
:1020B00043F8220070470146FC4A881A91421AD020
:1020C00009DCFB48081810D0B0F5806F0FD0B0F5D0
:1020D000006F18D10DE0B0F5806F0ED0B0F5006F35
:1020E0000DD0B0F5406F0ED10BE0002070470120FD
:1020F000FCE70220FAE70320F8E70420F6E70520D2
:10210000F4E70620F2E70020F0E7014631B10129AB
:1021100006D0022906D0032908D105E028207047FF
:102120004820FCE74820FAE72820F8E70020F6E7F7
:102130000146DE4A881A91421AD009DCDC480818A8
:1021400010D0B0F5806F0FD0B0F5006F19D10DE051
:10215000B0F5806F0ED0B0F5006F0DD0B0F5406FC8
:102160000FD10BE0042070470820FCE71020FAE7AD
:102170002020F8E74020F6E78020F4E74FF4807055
:10218000F1E70020EFE7014631B1012906D002292D
:1021900006D0032908D105E0082070470C20FCE791
:1021A0001020FAE71020F8E70020F6E701460020AB
:1021B00002E04910421CD0B211F0010FF9D0704773
:1021C0000146102916DC04290ED004DC012907D0B1
:1021D000022916D106E0082908D0102911D107E0FC
:1021E000062070470720FCE70820FAE70920F8E7F7
:1021F0000A20F6E7B1F5007F01DC1720F1E728207F
:10220000EFE70020EDE72DE9FF4706460C461546AF
:102210001F46A848006890F8C00000EB4000A549A0
:10222000096841F82060A348006890F8C00000EBFE
:102230004000A049096801EB800084809D48006847
:1022400090F8C00000EB40009A49096801EB80005B
:1022500085719848006890F8C00000EB40009549EF
:10226000096801EB800087609249096891F8C01005
:1022700001EB41018F4A126802EB8100FFF70EFF6C
:102280008C48006890F8C000401C8A49096881F8B1
:10229000C0003046FFF74CFF8046012104F0B8FB38
:1022A0002846FFF732FF8DF80F0003208DF80E004F
:1022B000ADF80C4003A9304604F08EF82046FFF735
:1022C00075FF80463046FFF7F6FE8146414604F032
:1022D00097F9019400208DF808002846FFF753FF76
:1022E0008DF8090001208DF80A0001A803F094FF81
:1022F0002046FFF765FFC0B28DF8000001208DF881
:10230000010000208DF8020001208DF803006846CE
:1023100003F0BBFBBDE8FF8710B5044665480460C9
:10232000AFF21D10C4F8C400002084F8C0000121E1
:10233000084604F06DFB10BD10B55B4A10681268CA
:1023400091688847012003F0DEFF10BD10B5564AA2
:102350005068526891688847022003F0D4FF10BD8E
:1023600010B5514A9068926891688847042003F03C
:10237000CAFF10BD10B54C4AD068D2689168884732
:10238000082003F0C0FF10BD10B5474A106912695C
:1023900091688847102003F0B6FF10BD10B546487D
:1023A000006800F47874C4F3401038B13E4A5069B4
:1023B000526991688847202003F0A5FFC4F380107C
:1023C00038B1394A9069926991688847402003F092
:1023D0009AFFC4F3C01038B1334AD069D26991680A
:1023E0008847802003F08FFFC4F3002040B12E4ABD
:1023F000106A126A916888474FF4807003F083FF77
:10240000C4F3402040B1284A506A526A9168884714
:102410004FF4007003F077FF10BD10B52648006838
:1024200000F47C44C4F3802040B11F4A906A926A51
:10243000916888474FF4806003F065FFC4F3C020C3
:1024400040B1194AD06AD26A916888474FF4006057
:1024500003F059FFC4F3003040B1134A106B126B04
:10246000916888474FF4805003F04DFFC4F340302B
:1024700040B10D4A506B526B916888474FF4005041
:1024800003F041FFC4F3803040B1074A906B926B78
:10249000916888474FF4804003F035FFC4F3C030A3
:1024A00098B1014AD06B09E05C060020001401409D
:1024B00000F8FEBFEC00002014040140D26B9168CC
:1024C00088474FF4004003F01EFF10BD01460A2963
:1024D00001DA042070470820FCE701460A2901DAE6
:1024E000FE487047FE48FCE7014610292FD2DFE87E
:1024F00001F0080B0E111416181A1C1E2022242697
:10250000282B4FF4807070474FF40070FBE74FF4B6
:102510008060F8E74FF40060F5E70120F3E7022060
:10252000F1E70420EFE70820EDE74020EBE780200B
:10253000E9E70120E7E70220E5E74020E3E7802024
:10254000E1E74FF48070DEE74FF40070DBE7FF2037
:10255000D9E70146042901DAE2487047082902DA7E
:102560004FF08040F9E70C2901DADF48F5E7DF4852
:10257000F3E70146042902DA4FF4006070470829A6
:1025800001DA0120FAE70C2901DA0220F6E704203B
:10259000F4E70146042901DA1B207047082901DA13
:1025A0001C20FAE70C2901DA1D20F6E71E20F4E7CB
:1025B0000146CA1701EB92729210B1EB820201D16F
:1025C00002207047481EC21700EB92729210B0EBC7
:1025D000820201D10420F4E7881EC21700EB927238
:1025E0009210B0EB820201D10820EAE7C81EC217A0
:1025F00000EB92729210B0EB820201D11020E0E762
:102600000020DEE70146CA1701EB92729210B1EB8F
:10261000820201D100207047481EC21700EB92725F
:102620009210B0EB820201D10420F4E7881EC21799
:1026300000EB92729210B0EB820201D10820EAE71F
:10264000C81EC21700EB92729210B0EB820201D149
:102650000C20E0E70020DEE7014631B1012906D079
:10266000022906D0032908D105E000207047022086
:10267000FCE70020FAE70220F8E70020F6E7024630
:10268000002110E0C1EBC100994B1B6813F830002A
:10269000904206D1C1EBC100954B1B6803EBC00013
:1026A0007047481CC1B29248006890F88C03884279
:1026B000E8DC0020F4E770B504460D462046FFF73D
:1026C00048FF0646E11704EB91718910B4EB8101D4
:1026D00004D12946304605F087F825E0601EC11771
:1026E00000EB91718910B0EB810104D1294630468D
:1026F00005F08CF818E0A01EC11700EB917189104D
:10270000B0EB810104D12946304605F099F80BE081
:10271000E01EC11700EB91718910B0EB810103D16C
:102720002946304605F0A6F870BD00B502461046B1
:10273000FFF70FFF0346D11702EB91718910B2EB3F
:10274000810101D1988E00BD501EC11700EB91711F
:102750008910B0EB810101D1188FF4E7901EC117E9
:1027600000EB91718910B0EB810101D1988FEAE7FC
:10277000D01EC11700EB91718910B0EB810102D11D
:10278000B3F84000DFE70020DDE72DE9F04F8BB024
:1027900081468A4615461E464846FFF7EAFE8346AE
:1027A0005348006890F88C03C0EBC000504909689A
:1027B00001EBC0044E48006890F88C03401C4C4963
:1027C000096881F88C0384F8009000214948C4E925
:1027D0000810C4E9025684F818A000202061606146
:1027E000012000FA09F04449096808434249086099
:1027F000012000FA09F0096808433F490860BBF569
:10280000006F04D10121584604F002F903E00121D0
:10281000584604F00AF94846FFF758FE07460121DA
:1028200004F0F6F82078FFF75FFEADF81800207E80
:1028300008B9012000E00020217E022901D10121F8
:1028400000E00021084303D028208DF81B0002E09F
:1028500048208DF81B0003208DF81A002078FFF720
:102860003CFE074606A903F0B7FD4FF6FF70ADF832
:1028700010002A4633460020204909F0C6FA0746D0
:1028800000221F4B09F0BBFACDE9000109F0DBFB88
:1028900080B2ADF80C000020ADF81200ADF80E00CB
:1028A0004846FFF756FE074603A904F08FFA48464C
:1028B000FFF7A8FEADF81C00207EFFF7CDFEADF8B7
:1028C0001E000120ADF820000020ADF82200ADF878
:1028D00024004846FFF73DFE074613E0000801408C
:1028E000000C0140002C01400004004000080040A2
:1028F000F80000200000F0BFF0000020000052406F
:102900000000F03F07A904F0F4FC4846FFF741FE41
:10291000C0B28DF8080000208DF809008DF80A007B
:1029200001208DF80B0002A803F0AFF84846FFF72E
:1029300010FEE54988420DD119208DF808000020CD
:102940008DF809008DF80A0001208DF80B0002A80F
:1029500003F09BF84846FFF72BFE80B240F00107DA
:102960004846FFF7F6FD80460122394604F0A5FDF2
:102970004846FFF7EEFD0746012104F083FD484677
:10298000FFF7E7FD0746012105F056F80BB0BDE85B
:10299000F08F30B505460C462846FFF770FE0461FF
:1029A00030BD30B505460C462846FFF768FE446149
:1029B00030BDC6490860AFF22D21C44A1268C2F882
:1029C00080130021C14A126882F88C13AFF23D01D6
:1029D000BE4A1268C2F88413AFF23901BB4A1268CA
:1029E000C2F8881370470146B94800EB011000781F
:1029F00000F08000704710B504462046FFF73FFE08
:102A00000146006A496A10BD2DE9F04F87B00646BD
:102A1000AF4800EB061400EB061000F10409AC48C7
:102A200000EB061000F1080AA94800EB061000F1BF
:102A30000C0B3046FFF78DFD05903046FFF71FFE6B
:102A40000546287E08B9012000E00020297E0229E1
:102A500001D1012100E00021084306D00020ADF89B
:102A600010000220ADF8120005E00020ADF81200C1
:102A70000220ADF81000207810F0800F75D10121F0
:102A8000059804F0C8FFB8B1207800F04000218814
:102A900001F4807108430FD0207810F0010F08D0A6
:102AA000206840F08000206000218A48C5E90810B5
:102AB00002E02068401C20603046FFF779FD87B2B5
:102AC0003946059804F0A7FF00284ED0207810F072
:102AD000400F4BD0287E022801D1012000E00020C9
:102AE000297E032901D1012100E00021084312D0F1
:102AF000206820F040002060206840F48070206052
:102B00003046FFF712FE217801F0010100EB014091
:102B1000CAF8000024E0206840F0800020603046C1
:102B2000FFF703FE217801F0010100EB0140CAF834
:102B30000000DAF80010D9F80020881A09F057FAD6
:102B4000CDE90201D5E902733A4609F05EF9C5E91B
:102B50000801286910B128462969884700202060AB
:102B6000BDF810103046FFF7A6FD61E0208810F494
:102B7000807F4DD03046FFF7D8FD0746207800F023
:102B8000010007EB0040CBF80000BDF81210304602
:102B9000FFF791FDDBF80010D9F80020881A09F042
:102BA00026FACDE90201D5E90201CDE90001DDE90E
:102BB000022309F02AF9C5E90801DAF80010D9F86A
:102BC0000020881A09F013FACDE90201D5E90201C3
:102BD000CDE90001DDE9022309F017F9C5E90C018F
:102BE000D5E90801CDE90201D5E90C01CDE90001E3
:102BF000DDE9022309F07BF9C5E90A01286910B172
:102C0000284629698847C9F80070402020600FE0F5
:102C1000002020603046FFF788FDC9F800002068DA
:102C200040F040002060BDF812103046FFF743FD31
:102C30000022284BD5E90871384609F031FA0FD146
:102C4000686910B128466969884700202060BDF88E
:102C500010103046FFF72FFD00211F48C5E908106E
:102C60003046FFF7A5FC87B23946059804F0E4FE2C
:102C700007B0BDE8F08F10B518480088C0F30020F9
:102C800010B10820FFF7C0FE14480088C0F34020B0
:102C900010B10920FFF7B8FE10480088C0F380206B
:102CA00010B10A20FFF7B0FE0C480088C0F3C02026
:102CB00010B10B20FFF7A8FE0820FFF74AFC0446DE
:102CC000012104F0B9FE10BD002C0140F8000020E5
:102CD0009C06002000408FC00000F0BFF0000020E4
:102CE00008B501214FF0C05003F09FFE012003F012
:102CF000CAFC4FF4407003F014FE012003F017FEED
:102D000003F04AFF03F050FF03F0F7FE3E2003F00C
:102D10001DFF03F041FF002003F00BFF03F03CFF19
:102D20004FF6FF704449088003F036FF4FF6FF70FE
:102D30004149091D088003F02FFF0121022003F003
:102D4000CFFE3D481C38008800F002003A491C398B
:102D5000088003F021FF03F0D9FE29208DF8000040
:102D600000208DF801008DF8020001208DF803008D
:102D7000684602F08AFE03208DF8000000208DF8DE
:102D800001008DF8020001208DF80300684602F072
:102D90007CFE08BD2DE9F04107460C462648001F81
:102DA000008825490839098800EB0140C51903F05E
:102DB000F3FE03F0A2FE2048001F00881E490839D8
:102DC000098800EB01461C49091F0E8003F0E4FE50
:102DD000300C19490839088003F0DEFE280C16492A
:102DE000088003F0D9FE1449091D0D8003F0D4FEBC
:102DF00003F08CFE11480460BDE8F0810E48001F0E
:102E000000880D490839098800EB0140704710B56A
:102E1000022003F0FDFE10BD10B5022003F0E8FE15
:102E2000012808D1022003F0F3FE0448006810B125
:102E300002480068804710BD20280040FC000020A8
:102E40000122FE4B1A604FF0000118E00022FC4BFB
:102E50001A6010F0800F04D00122A3F104031A605D
:102E600002E00022F74B1A604FF00102F44B1A60A7
:102E70004FEA40624FEA126001F10102D1B2082923
:102E8000E4DB70470022ED4B1A60114617E0002288
:102E9000EB4B1A6010F0800F03D00122E94B1A604F
:102EA00002E00022E74B1A604FF00102E44B1A6087
:102EB0004FEA40624FEA126001F10102D1B20829E3
:102EC000E5DB70472DE9F04105460C4605F1AF0002
:102ED000C6B2601EC4B204F00F07102000EB141835
:102EE0003046FFF7CFFF4046FFF7CCFF3846FFF7ED
:102EF000C9FFBDE8F0812DE9F043804689461746B9
:102F00001D4600240020D0490860ADB9A7F120007B
:102F100000EB4000CD4901EB400449464046FFF735
:102F2000D1FF002605E02078FFF78AFF641C701CA3
:102F3000C6B2062EF7DB05E0012D03D12078FFF79E
:102F40007FFF641C0120C0490860BDE8F0832DE9C3
:102F5000FF4F804614461F46DDF8349000250026BA
:102F6000BA46A3460020B849086040460199FFF7D9
:102F7000A9FFB9F1000F1BD111E02078203800EB38
:102F80004000B24901EB4006002505E03078FFF72C
:102F900057FF761C681CC5B2062DF7DB641C207831
:102FA000002842D0381EA7F10101CFB2E5DC3CE099
:102FB000B9F1010F39D10FE020782038A44901EB95
:102FC0000016002505E03078FFF73AFF761C681CF4
:102FD000C5B2082DF7DB641C207820B1381EA7F19C
:102FE0000101CFB2E8DC08F10101C8B20199FFF795
:102FF00069FF5C46574611E020782038944901EB80
:10300000001000F10806002505E03078FFF718FFF2
:10301000761C681CC5B2082DF7DB641C207820B133
:10302000381EA7F10101CFB2E6DC01208649086015
:10303000BDE8FF8F2DE9F0470746884614461D4638
:103040000026A946A24600207F490860414638462E
:10305000FFF738FF0AE0002605E02078FFF7F0FED2
:10306000641C701CC6B2102EF7DB1034281EA5F1AC
:103070000101CDB2EFDC791CC8B24146FFF722FF57
:103080000AF110044D460AE0002605E02078FFF71B
:10309000D7FE641C701CC6B2102EF7DB1034281E3D
:1030A000A5F10101CDB2EFDC012067490860BDE860
:1030B000F0872DE9FF4F84B0814616461C46DDE9B6
:1030C00012AB119F00200190029003900025A046B2
:1030D0000B2C00DD0B24002F19DD00250FE00A204A
:1030E000B6FBF0F100FB11603030611EC9B20C4636
:1030F00001AA50540A20B6FBF0F6681CC5B2BD42C6
:10310000EDDB2E21601EC0B2044601AA11540DE071
:103110000A20B6FBF0F100FB11603030611EC9B22D
:103120000C4601AA50540A20B6FBF0F6002CEFDC46
:10313000BAF1010F14D1B81CA8EB000000F0FF0891
:1031400000250AE001A8405D302803D1202001A914
:10315000485500E003E0681CC5B24545F2DB00BFFE
:103160000C2301AACDF800B048460599FFF7EFFE01
:1031700008B0BDE8F08F70B5044600250026002099
:10318000314908604FF001050FE001212846FFF7A3
:1031900099FE012605E014F8010BFFF751FE701CA3
:1031A000C6B2812EF7DB681CC5B2092DEDDB01200C
:1031B0002549086070BD30B50020234908600446E9
:1031C00015E004F1B001C8B2FFF75CFE1020FFF774
:1031D00059FE0020FFF756FE002504E00020FFF70F
:1031E0002FFE681CC5B2802DF8DB601CC4B2082C11
:1031F000E7DB01201449086030BD08B5FEF7B6FDD5
:103200000121102003F004FC4FF4F870ADF8000029
:1032100010208DF8030001208DF8020069460D484A
:1032200003F0DAF80020084908600B49C1F894015E
:103230004FF01400FEF7B3FD01200FE09001224291
:10324000A00122429C01224298012242A8D80008F3
:10325000D0DA0008001001400000224293490860C3
:103260004FF01400FEF79BFDE220FFF70BFE052058
:10327000FEF795FD2C20FFF705FE0520FEF78FFDDC
:103280002E20FFF7FFFD0520FEF789FD2F20FFF719
:10329000F9FD0520FEF783FD2520FFF7F3FD8120D2
:1032A000FFF7F0FD1620FFF7EDFDA220FFF7EAFD86
:1032B000C820FFF7E7FDA020FFF7E4FD4020FFF75F
:1032C000E1FDAF20FFF7DEFD01207949C1F898014B
:1032D000FFF771FF08BD0FB410B5B4B0CC2101A841
:1032E00008F0C8FC002437A80090C92101A8009B61
:1032F000369A09F0EBFD06E02146621CD4B201AA21
:10330000505C04F0EBFFC82C03DA01A8005D002834
:10331000F2D10020009034B010BC5DF814FB0FB463
:10332000F0B5B5B006460C46CC2102A808F0A2FCC8
:1033300000253DA80190C92102A8019B3C9A09F0F3
:10334000C5FD2146304605F091F80AE02B466F1C7A
:10335000FDB202AFFA5CE1B2F0B20023FFF7CBFDA1
:10336000A41DC82D03DA02A8405D0028EED100207C
:10337000019035B0F0BC5DF814FB70B502460C4608
:103380001146D01702EBD06040114A4D05EB0415F1
:1033900055F820001346D51702EBD5656D11A2EB49
:1033A00045164FF00045F540284201D0012070BD80
:1033B0000020FCE72DE9F04704460D469046002723
:1033C0002846E91705EB5171C9104FEAC109B8F158
:1033D000000F20D0E21704EBD2625211354B03EB01
:1033E000051353F822202146E31704EBD3635B1146
:1033F000A4EB431C4FF0004323FA0CF31A4320467E
:10340000E31704EBD3635B11DFF8A8C00CEB051CDA
:103410004CF823201FE0E21704EBD2625211254B37
:1034200003EB051353F822202146E31704EBD36383
:103430005B11A4EB431C4FF0004323FA0CF39A43B7
:103440002046E31704EBD3635B11DFF868C00CEB95
:10345000051C4CF82320072609E009EB060120464D
:10346000FFF78BFF074306B903E07F00761E002EAF
:10347000F3DA00BF002010490860AA464FEAE5725F
:1034800005EB52724FEAE20202F10102D0B204F1FE
:103490000102D1B2FFF716FDF8B2FFF7D1FC01200F
:1034A0000349C1F89801BDE8F08700009401224269
:1034B000000022429C070020980122422DE9FC5F77
:1034C00004460D4616461F46DDE90C894FF0000202
:1034D00013462046294608F0E3FD0DD3002213468B
:1034E0003046394608F0DCFD06D30022134640463C
:1034F000494608F0D5FD01D2BDE8FC9FFD480068B3
:1035000030C0FC480068C0E90267FA480068C0E9BA
:103510000489F8490968886A08F069FD0022F64BB9
:10352000CDE9000108F0E3FC82468B46F34830C049
:1035300052465B463046394608F067FCF04A03C203
:1035400052465B464046494608F0D1FCED4A03C26C
:10355000E84800688069012817D1E8480CC80020B5
:10356000014608F04CFCE54A03C2E5480CC80020BF
:10357000014608F044FCE24A03C2E2480CC80020BD
:10358000014608F03CFCDF4A03C200BFB4E72DE966
:10359000F0478246BAF1000F25DDD6490968886AEE
:1035A00008F025FD06460F46504608F00FFD804600
:1035B00032463B4608F09BFC04460D4622462B460D
:1035C000CF4903C908F021FCCD4A03C222462B464D
:1035D000CC4903C908F08BFCCA4A03C2C54800683D
:1035E000C0F828A000BFBDE8F0872DE9F05F0446D1
:1035F0000D4616461F4632463B462046294608F0F1
:1036000063FD01D8BDE8F09FBA480068C0E90C45E9
:10361000B8480068C0E90E67B648006890F84000F6
:10362000002850D0B3480068D0E90E83B148006844
:10363000016AD1E900A14246504608F045FD09D291
:10364000AC480068D0E90E10AA4A1268126AC2E9B2
:10365000001016E0A7480068D0E90C83A548006870
:10366000016AD1E900A14246504608F019FD08D28E
:10367000A0480068D0E90C109E4A1268126AC2E99C
:1036800000109C480068D0E90E8342469E4903C959
:1036900008F01AFD07D297480068D0E90E109A4A40
:1036A000C2E900100FE093480068D0E90C8342465D
:1036B000954903C908F0F4FC05D28E480168D1E9A8
:1036C0000C01914A03C200BF9CE770B500208E4AEE
:1036D0001060506087480068C069D0E900108B4ACC
:1036E000C2E9001083480068D0E90E4322468649AB
:1036F00003C908F0E9FC06D27E480168D1E90E0151
:10370000814A03C210E07B480068D0E90C4322469E
:103710007D4903C908F0C4FC06D276480068D0E9A8
:103720000C10794AC2E9001070BD70B50446012C36
:1037300000D100E0002005466E48006890F8400087
:1037400008B9012000E00020A84201D1FFF7BDFF29
:103750006848006880F8405070BD664B1B68D861AF
:10376000644B1B681962634B1B685A62704710B543
:1037700004466048006890F84000E0B15D48006889
:103780008069A04217D05D480CC80020014608F0AF
:1037900036FB5A4A03C25A480CC80020014608F0BA
:1037A0002EFB574A03C257480CC80020014608F0B8
:1037B00026FB544A03C24F480068846110BD2DE9BE
:1037C000F04F89B04B48006890F8400018B90020CD
:1037D00009B0BDE8F08FFFF711FB07904C4907983F
:1037E0000968401A069043480068816A0698814239
:1037F0007ED840480068C069C0C83E480068406A3A
:1038000003C832463B46CDE9040108F0F8FA804689
:10381000894642464B463A4903C908F0F6FACDE9D3
:10382000040139480CC8049808F048FA364A03C223
:1038300030480068C16B806B02460B46CDE904013D
:10384000314903C908F040FC07D22A480068D0E992
:103850000E102D4AC2E9001013E026480068416BA3
:10386000006B02460B46CDE90401274903C908F065
:1038700017FC06D21F480068D0E90C10224AC2E9A2
:10388000001022480CC83046394608F0B8FA824683
:103890008B4652465B461B4903C908F0B6FA4246BE
:1038A0004B46CDE90401154903C908F0AEFACDE94C
:1038B000000115480CC8009808F000FACDE9020193
:1038C000DDE9042308F09BFA04460D461148C0E9DF
:1038D00000890D4903C90C4A03C20F49C1E900AB75
:1038E00000220E4B2046294608F0DAFB19D217E0D9
:1038F00045E000003001002000408F40180100200A
:1039000020010020280100200801002010010020D3
:10391000000100203801002040010020008056C036
:1039200000BF43480068C16B806B02460B46CDE97F
:1039300004012046294608F0C7FB04D23C48006831
:10394000D0E90E4510E03A480168D1E90C01024681
:103950000B46CDE904012046294608F0A1FB03D21D
:1039600033480068D0E90C4531480068006A30C02F
:103970003048C0C0304907980860012028E700207F
:1039800026E72DE9FC5F04460D4616461F46DDE995
:103990000EABDDE90C892648C0F800B00068C0F81D
:1039A00028A032463B4620462946CDE90089FFF74C
:1039B00085FDAFF2F5101E4909684864AFF2035067
:1039C0001B490968C864AFF2592019490968C865DC
:1039D000AFF27920164909688864AFF2B120144922
:1039E00009688865AFF2FD30114909684865AFF292
:1039F00061400F490968086500200D490968886120
:103A000001200B49096881F8400000210B48084A51
:103A10001268C2E90E100A48054A1268C2E90C1081
:103A2000FFF7ECF9A0EB0A0003490860BDE8FC9F32
:103A300030010020100100200001002000E06F4054
:103A400000E06FC001460A2901DA0420704708200F
:103A5000FCE701460A2901DAFE487047FE48FCE708
:103A6000014610292FD2DFE801F0080B0E111416C1
:103A7000181A1C1E20222426282B4FF48070704711
:103A80004FF40070FBE74FF48060F8E74FF40060FC
:103A9000F5E70120F3E70220F1E70420EFE7082033
:103AA000EDE74020EBE78020E9E70120E7E702208F
:103AB000E5E74020E3E78020E1E74FF48070DEE7B0
:103AC0004FF40070DBE7FF20D9E70146042901DA53
:103AD000E2487047082902DA4FF08040F9E70C29E4
:103AE00001DADF48F5E7DF48F3E70146042902DAA7
:103AF0004FF400607047082901DA0120FAE70C2929
:103B000001DA0220F6E70420F4E770B504460D461A
:103B10002046FFF7DAFF0646E11704EB91718910A2
:103B2000B4EB810104D12946304603F08CF925E03D
:103B3000601EC11700EB91718910B0EB810104D1B7
:103B40002946304603F0C1F918E0A01EC11700EB6A
:103B500091718910B0EB810104D12946304603F000
:103B600001FA0BE0E01EC11700EB91718910B0EB78
:103B7000810103D12946304603F03FFA70BD70B58C
:103B800004460D462046FFF7A0FF0646E11704EB6A
:103B900091718910B4EB810104D12946304603F0BC
:103BA000A1FD25E0601EC11700EB91718910B0EBFB
:103BB000810104D12946304603F09DFD18E0A01E86
:103BC000C11700EB91718910B0EB810104D1294636
:103BD000304603F09DFD0BE0E01EC11700EB917134
:103BE0008910B0EB810103D12946304603F099FDDD
:103BF00070BD00B50346187AFFF767FF0246974885
:103C0000824202D10020984900BDB2F1804F02D11A
:103C100000209549F8E79248824202D1002092495B
:103C2000F2E79048824202D100208F49ECE7002061
:103C30000146E9E700B50346187AFFF746FF02465A
:103C40008648824202D10020884900BDB2F1804FEF
:103C500002D100208549F8E78148824202D1002044
:103C60008249F2E77F48824202D100207F49ECE797
:103C700000200146E9E72DE9F04F87B082468B46E8
:103C8000584608F0F9F906460F46DAF8000008F041
:103C9000F3F9CDE900015046FFF7CCFF8046DDE99E
:103CA000002308F024F932463B46CDE9020108F032
:103CB000ACF8044608F0C7F980B205909AF80800FD
:103CC000FFF703FF04909AF80800C11700EB917109
:103CD0008910B0EB810108D19AF80800FFF7F5FED2
:103CE0000446059903F066FE37E09AF80810481E6E
:103CF000C11700EB91718910B0EB810108D19AF8DE
:103D00000800FFF7E2FE0446059903F055FE24E0A3
:103D10009AF80810881EC11700EB91718910B0EB5A
:103D2000810108D19AF80800FFF7CFFE04460599F3
:103D300003F044FE11E09AF80810C81EC11700EB0A
:103D400091718910B0EB810107D19AF80800FFF753
:103D5000BCFE0446059903F033FE07B0BDE8F08FC2
:103D60002DE9F04F8DB00446207AFFF7BEFE814664
:103D7000B9F5006F04D10121484602F049FE03E085
:103D80000121484602F051FE207AFFF75BFE05460E
:103D9000012102F03DFE207AFFF762FEADF82C0013
:103DA00018208DF82F0003208DF82E00207AFFF7C1
:103DB00050FE05460BA902F00FFB206808F05CF9E5
:103DC00082468B462046FFF735FF054652465B4646
:103DD00008F08DF8074608F036F980B2ADF82400F7
:103DE0002046FFF706FF07460022214B08F007F8A0
:103DF000054608F028F980B2ADF820000020ADF8A3
:103E00002600ADF82200207AFFF75FFE054608A9DC
:103E100002F0DCFF207AFFF758FE1049884206D1F5
:103E20006020ADF810000020ADF8140002E0602022
:103E3000ADF810000120ADF81200606808F01CF920
:103E400082468B46206808F017F905460E46204644
:103E500010E0000000080140000C0140002C01406F
:103E600000040040000800400000524080842E41C1
:103E70000000F03FFFF7DEFE07462A46334608F013
:103E800036F852465B46CDE9000107F0BEFFCDE9AA
:103E9000020108F0D8F880B2ADF816000020ADF8A5
:103EA0001800207A04A9FFF730FE207AFFF70DFEF4
:103EB0000546012103F0E6FA207AFFF706FE7A496B
:103EC000884202D1012103F0E9FA207AFFF7FDFDD3
:103ED0000546002103F0D6FB207A0021FFF74FFEB4
:103EE0000DB0BDE8F08F2DE9FC4781468A460024DD
:103EF00044E004EB44006D49096801EB8000007A5E
:103F0000484539D104EB44006849096841F820A0CC
:103F100004EB4401654A126852F8210008F0ACF83D
:103F200005460E4604EB4401604A126802EB81002C
:103F3000FFF780FE07462A46334607F0D8FFCDE953
:103F4000000108F080F882B24846FFF7BEFD828586
:103F500004EB4402554B1B6803EB8202516804EBEF
:103F60004402524B1B6803EB8200FFF784FE484675
:103F7000FFF7ABFD00218184601CC4B24B48006890
:103F800090F8C000A042B4DCBDE8FC8770B50546DF
:103F90000E46002400BF1AE004EB440043490968C0
:103FA00001EB8000007AA8420FD104EB44003F49A6
:103FB000096801EB8000466004EB44013B4A12684B
:103FC00002EB81003146FFF756FE601CC4B2374851
:103FD000006890F8C000A042DEDC70BD2DE9F04121
:103FE00004460E46174600250CE005EB45002F4918
:103FF000096801EB8000007AA04201D1BDE8F081A0
:10400000681CC5B22948006890F8C000A842ECDCE2
:104010002648006890F8C00000EB4000234909687A
:1040200041F820602148006890F8C00000EB400093
:104030001E49096801EB800047601C48006890F841
:10404000C00000EB40001949096801EB80000472D0
:104050001649096891F8C01001EB4101134A126832
:1040600002EB8100FFF77CFE1048006890F8C0006A
:10407000401C0E49096881F8C00000BFBEE70B492B
:1040800008600021094A126882F8C010AFF2B3013B
:1040900040F8C41FAFF20B114160AFF2B51181605F
:1040A000A0F1C40070470000002C01405001002026
:1040B000014600BF704770B504460D4600BF402161
:1040C000224803F067FE0028F9D0E1B21F4803F050
:1040D000F3FD204670BD10B586B00446012144F2C0
:1040E000040002F095FC194803F0AAFC4FF400709C
:1040F000ADF8140003208DF8160018208DF8170075
:1041000005A9134802F068F94FF48060ADF8140077
:1041100004208DF8170005A90D4802F05DF90194FF
:104120000020ADF80800ADF80A00ADF80C00ADF8BD
:1041300010000C20ADF80E0001A9044803F0C3FCE8
:104140000121024803F04BFD06B010BD00380140CC
:104150000008014010B586B004460121480402F071
:1041600064FC0121042002F053FC574803F068FC72
:104170000420ADF8140003208DF8160018208DF8E7
:10418000170005A9514802F027F90820ADF81400DE
:1041900004208DF8170005A94C4802F01DF9019480
:1041A0000020ADF80800ADF80A00ADF80C00ADF83D
:1041B00010000C20ADF80E0001A9434803F083FC69
:1041C0000121414803F00BFD06B010BD10B50446B7
:1041D00000BF40213C4803F0DDFD0028F9D0214616
:1041E000394803F069FD10BD70B50446002504E0B0
:1041F00029466D1C605CFFF7E9FF605D0028F7D180
:1042000070BD70B50446002504E029466D1C605C55
:10421000FFF7DCFF605D0028F7D10A20FFF7D6FF2B
:1042200070BD0FB410B5B4B0002437A80090C921F8
:1042300001A8009B369A08F049FE06E02146621C60
:10424000D4B201AA505CFFF7C1FFC82C03DA01A861
:10425000005D0028F2D10020009034B010BC5DF861
:1042600014FB10B500BF2021174803F093FD002870
:10427000F9D01548001D0088C0B210BD0FB430B58C
:10428000B5B000250EE0FFF7ECFF04460D2C01D081
:104290000A2C03D1002002A9485504E028466D1CD1
:1042A00002A90C54EFE700BF39A8019002A8019AB7
:1042B000389907F0EBFC054600200190284635B000
:1042C00030BC5DF814FB00000044004000080140D1
:1042D00070490A680968491C6E4B19606E49885C10
:1042E00019460968322907DB00211A4611606B491B
:1042F00009683231694A1160704770B506460D464B
:104300006749096848688047A84200DA70BD002400
:1043100015E0604801680068401C5E4A10605E4815
:10432000405C305510460068322807DB00201146FB
:1043300008605A480068323058490860641CAC4232
:10434000E7DB00BFE2E75748016F574800683230AB
:10435000401A524909684F4A12681144401A3228DB
:1043600001D3002070470120FCE74E48016F4E4802
:1043700000683230411A49480068464A12681044C1
:10438000081A704700B58DB00121084602F033FBD2
:1043900044486C3001F00AFE444802903E480390C5
:1043A0000020049032200590002006908020079085
:1043B00000200890099020200A90C0010B90002056
:1043C0000C9002A937486C3001F092FE01220221C4
:1043D00034486C3001F0C3FE012240213348001FF5
:1043E00003F02EFC10208DF8040000208DF805004D
:1043F0008DF8060001208DF8070001A801F045FBAB
:10440000012128486C3001F09EFE0DB000BD23480C
:104410000068204909680844704721490860AFF2E4
:10442000B5011F4A12685160AFF2E5011C4A1268DB
:104430001161AFF263111A4A12689160AFF245112F
:10444000174A1268D160AFF2C301154A12681160B1
:10445000AFF24501124A12685161704770B50546C6
:104460000C462046FFF7D9FF2846FFF773FE206869
:10447000804770BD10B54FF4001001F09DFE40B1B3
:10448000094800683230084908604FF4001001F014
:10449000A6FE10BD580100209C0B00205C010020EE
:1044A000640100200000024060010020044400403C
:1044B00070490A680968491C6E4B19606E49885C2E
:1044C00019460968322907DB00211A4611606B4939
:1044D00009683231694A1160704770B506460D4669
:1044E0006749096848688047A84200DA70BD00241F
:1044F00015E0604801680068401C5E4A10605E4834
:10450000405C305510460068322807DB0020114619
:1045100008605A480068323058490860641CAC4250
:10452000E7DB00BFE2E75748C16D5748006832300B
:10453000401A524909684F4A12681144401A3228F9
:1045400001D3002070470120FCE74E48C16D4E4862
:1045500000683230411A49480068464A12681044DF
:10456000081A704700B58DB00121084602F043FAE1
:104570004448583001F01AFD444802903E480390E8
:1045800000200490322005900020069080200790A3
:1045900000200890099020200A90C0010B90002074
:1045A0000C9002A93748583001F0A2FD01220221E7
:1045B0003448583001F0D3FD012240213348001F18
:1045C00003F03EFB0F208DF8040000208DF805005D
:1045D0008DF8060001208DF8070001A801F055FABA
:1045E00001212848583001F0AEFD0DB000BD234830
:1045F0000068204909680844704721490860AFF203
:10460000B5011F4A12685160AFF2E5011C4A1268F9
:104610001161AFF263111A4A12689160AFF245114D
:10462000174A1268D160AFF2C301154A12681160CF
:10463000AFF24501124A12685161704770B50546E4
:104640000C462046FFF7D9FF2846FFF744FD2068B7
:10465000804770BD10B54FF4003001F0ADFD40B1A2
:10466000094800683230084908604FF4003001F012
:10467000B6FD10BD68010020CE0B00206C010020AB
:104680007401002000000240700100200438014045
:1046900010B5FA4800785F280DD1F8480B3001F0CA
:1046A00057F8F74A03C20120F64908700822F44976
:1046B000002000F034FD10BD10B5044640F2255135
:1046C000F14803F07DFB01280AD1EF4803F0F8FA26
:1046D000207040F22551EC4803F09CFB012010BDF6
:1046E0000020FCE708B526208DF8000000208DF89A
:1046F00001008DF8020001208DF80300684601F0EA
:10470000C4F9012240F22551DF4803F074FA08BDD4
:1047100038B56846FFF7D0FF00B938BDDB480078F0
:10472000052873D005DC17D2DFE800F01773CDF54C
:10473000F40008286BD004DC062869D007280BD1C8
:1047400090E209287CD0FF28F9D19DF800003C2890
:1047500002D10020CD4908708FE39DF800002F287A
:1047600003D10120C949087045E09DF800003E28AA
:104770001AD1FFF78DFFFF20C44908700020C449FB
:104780000870C44908700AE00020C349C14A127881
:1047900041F82200BF480078401CBE490870BD485F
:1047A00000780A28F0DB26E0BB48B849097850F8C1
:1047B000210028B9B6480078401CB549087000E0CF
:1047C00000BF9DF80010B448B04A127850F822207B
:1047D000AE4B1B7850F82300401CAF4BAB4C2478F9
:1047E00043F82400A948007800EB400303EBC00025
:1047F000A24B18448154A848A449097850F82100D4
:104800000B2802DBFF20A149087036E378E182E241
:10481000CFE19DF800002F2803D102209B490870AA
:1048200046E09DF800003E281BD1FFF731FFFF2036
:1048300096490870002096490870964908700BE068
:10484000C2E200219448934A127840F8221091481D
:104850000078401C8F4908708E4800780A28F0DBE9
:1048600026E08D488949097850F8210028B9884800
:104870000078401C8649087000E000BF9DF80010D9
:104880008548824A127850F82220804B1B7850F8D5
:104890002300401C804B7D4C247843F824007B4847
:1048A000007800EB400303EBC000744B18448154C4
:1048B00079487649097850F821000B2802DBFF205F
:1048C00072490870D9E29DF800002F2803D1032017
:1048D0006E49087047E09DF800003E281CD1FFF7A4
:1048E000D7FEFF20694908700020694908706949AE
:1048F00008700AE000206849664A127841F82200F0
:1049000064480078401C63490870624800780A28AF
:10491000F0DB28E08BE031E05F485C49097850F833
:10492000210028B95A480078401C5949087000E015
:1049300000BF9DF800105848544A127850F82220C1
:10494000524B1B7850F82300401C534B4F4C24789B
:1049500043F824004D48007800EB400303EBC0000F
:10496000464B184481544C484849097850F8210076
:104970000B2802DBFF20454908707EE29DF800000D
:104980002F2803D104204149087045E09DF800001C
:104990003E281AD1FFF77CFEFF203C49087000201A
:1049A0003B4908703B4908700AE000203A49394AFF
:1049B000127841F8220037480078401C35490870C9
:1049C000344800780A28F0DB26E033482F4909787C
:1049D00050F8210028B92E480078401C2C49087056
:1049E00000E000BF9DF800102B48284A127850F8CC
:1049F0002220264B1B7850F82300401C264B234CCA
:104A0000247843F824002148007800EB400303EBAE
:104A1000C0001A4B184481541F481C49097850F8AB
:104A200021000B2802DBFF201849087025E29DF8C1
:104A300000002F2803D105201449087055E09DF887
:104A400000003E282AD1FFF723FEFF200F490870FF
:104A500000200F4908700F4908700AE000200E4935
:104A60000C4A127841F822000A480078401C094993
:104A70000870084800780A28F0DB36E0000C0020B7
:104A800018000020B90000200044004078010020F8
:104A9000790100207A010020700C0020F848F949C3
:104AA000097850F8210028B9F7480078401CF649E9
:104AB000087000E000BF9DF80010F148F14A12783C
:104AC00050F82220EF4B1B7850F82300401CEC4B91
:104AD000EC4C247843F82400EA48007800EB4003CB
:104AE00003EBC000E94B18448154E548E5490978D7
:104AF00050F821000B2802DBFF20E2490870BCE1DE
:104B00009DF800002F2803D10620DE49087045E0FB
:104B10009DF800003E281AD1FFF7BAFDFF20D949C1
:104B200008700020D8490870D94908700AE00020B0
:104B3000D349D74A127841F82200D5480078401C62
:104B4000D3490870D24800780A28F0DB26E0CC4828
:104B5000CC49097850F8210028B9CB480078401C8E
:104B6000C949087000E000BF9DF80010C448C54A5C
:104B7000127850F82220C34B1B7850F82300401CB9
:104B8000BF4BC04C247843F82400BE48007800EBAB
:104B9000400303EBC000BD4B18448154B848B949E9
:104BA000097850F821000B2802DBFF20B549087076
:104BB00063E19DF800002F2803D10720B149087058
:104BC00045E09DF800003E281AD1FFF761FDFF2067
:104BD000AC4908700020AC490870AD4908700AE083
:104BE0000020A749AA4A127841F82200A848007874
:104BF000401CA7490870A64800780A28F0DB26E088
:104C00009F48A049097850F8210028B99E480078AB
:104C1000401C9D49087000E000BF9DF800209848A6
:104C20009849097850F82110964B1B7850F82300CA
:104C3000401C934B934C247843F82400914800780F
:104C400000EB400303EBC000904B184442548C48E7
:104C50008C49097850F821000B2802DBFF20894994
:104C600008700AE19DF800002F2803D1082085492B
:104C7000087045E09DF800003E281AD1FFF708FDB6
:104C8000FF208049087000207F4908708049087023
:104C90000AE000207A497E4A127841F822007C48D6
:104CA0000078401C7A490870794800780A28F0DBBF
:104CB00026E073487349097850F8210028B97248F2
:104CC0000078401C7049087000E000BF9DF800109B
:104CD0006B486C4A127850F822206A4B1B7850F8C7
:104CE0002300401C664B674C247843F82400654839
:104CF000007800EB400303EBC000644B1844815480
:104D00005F486049097850F821000B2802DBFF203A
:104D10005C490870B1E09DF800002F2803D10920FC
:104D20005849087045E09DF800003E281AD1FFF769
:104D3000AFFCFF20534908700020534908705449C4
:104D400008700AE000204E49514A127841F82200CA
:104D50004F480078401C4E4908704D4800780A289A
:104D6000F0DB26E046484749097850F8210028B989
:104D700045480078401C4449087000E000BF9DF899
:104D800000103F483F4A127850F822203D4B1B78D4
:104D900050F82300401C3A4B3A4C247843F8240046
:104DA0003848007800EB400303EBC000374B184451
:104DB000815433483349097850F821000B2802DB2D
:104DC000FF203049087058E09DF800003E2803D0CD
:104DD0009DF800002F281AD1FFF75AFCFF2029491F
:104DE0000870002028490870294908700AE000214D
:104DF0002348274A127840F8221025480078401CA2
:104E000023490870224800780A28F0DB26E01C4875
:104E10001C49097850F8210028B91B480078401C2B
:104E20001949087000E000BF9DF80020144815499A
:104E3000097850F821301349097850F82100401CB6
:104E40000F49104C247841F824000E48007800EBFC
:104E5000400101EBC0000D490844C25409480078E4
:104E6000FF2809D006480749097850F821000B2887
:104E700002DBFF200349087000BF00BF00BF4CE405
:104E8000700C00207801002079010020000C002027
:104E90007A01002001465648814201D1C014704772
:104EA000B1F1804F01D10120F9E75248814201D18F
:104EB0000220F4E75048814201D10420EFE70020AE
:104EC000EDE701464A48814201D119207047B1F10E
:104ED000804F01D11C20F9E74648814201D11D20B5
:104EE000F4E74548814201D11E20EFE70020EDE7BD
:104EF000014611B1012905D102E041F61F4070477A
:104F00004720FCE70020FAE7024612B1012A0AD145
:104F100006E001EB81000123C3EB400080B2704743
:104F2000481E80B2FBE70020F9E72DE9FF41064665
:104F30000F4614463048FFF7ADFF0546B5F5006F44
:104F400004D10121284601F063FD03E00121284638
:104F500001F06BFD39463046FFF7D6FFADF808008B
:104F60003046FFF7C5FFADF804000020ADF80A0099
:104F7000ADF8060001A9204801F028FF1E48FFF700
:104F8000A0FFC0B28DF8000000208DF801008DF860
:104F9000020001208DF80300684600F076FD012232
:104FA0001146154802F089FA0121134802F044FD28
:104FB000124804600121104802F064FABDE8FF8144
:104FC0000F480068704710B50C48006810B10B48D6
:104FD000006880470A480068401C09490860064884
:104FE0001030008820F0010003491031088010BD06
:104FF000002C014000040040000800407C0100201B
:10500000800100202DE9F0410446A06910F8028CCF
:1050100025686768B8F1030F09D0B8F1040F0AD00A
:10502000B8F1050F0AD0B8F1060F0CD109E03878B5
:10503000A847064607E0A847064604E03878A84790
:1050400001E0A84700BF00BF26600020BDE8F08156
:1050500010B502F0F9FE10BD10B50446E1B2A02073
:1050600003F047F810BD70B504460D46E1B22A467C
:10507000A02003F023F870BD2DE9F04105460E464F
:105080001746002409E0E20026FA02F2D1B22A19FA
:1050900090B2FFF7E8FF601CC4B2BC42F3DBBDE88E
:1050A000F0812DE9F04107460C460026002509E075
:1050B00036023919491B491E88B2FFF7CDFF064455
:1050C000681CC5B2A542F3DB3046BDE8F08110B5DF
:1050D000FF20FFF7C1FF0446552C01D1002010BD71
:1050E0005521FF20FFF7BFFFFF20FFF7B5FF044664
:1050F000552C01D10020F2E70120F0E770B50646FB
:105100000C46154608E03046721C96B2FFF7A4FF25
:1051100004F8010B681E85B2002DF4D170BD70B586
:1051200005460C46164606E021782846FFF79BFF09
:10513000681C85B2641C3000A6F101018EB2F3D167
:1051400070BD00002DE9F0478246DB48D0F8C8006A
:10515000642809D3D948006810B1D848006880474E
:105160000020D549C1F8C800DAE90C21104606F044
:105170006AFFD149D1F8C810CF4A22F81100DAE904
:105180000C432246DAE90861304606F038FE8046D4
:1051900006F059FF81B2C848D0F8C800401CC64A82
:1051A00022F810101046D0F8C800801C1146C1F833
:1051B000C800BDE8F08710B50446C148006818B1C2
:1051C000BD48BF49096888470020BB49C1F8C800ED
:1051D00010BD10B50446BB484FF07C51D0F8C82034
:1051E0000C2090472046FCF7DAFD10BD10B50446B0
:1051F000B4480021D0F8C8200C2090472046FCF786
:10520000CEFD10BD10B5B048FDF7D3FBAE4800226F
:10521000AE4B0321D0F880430B20A047AA48AFF241
:10522000DB01D0F884230B209047A748AFF2790127
:10523000D0F888230B20904700209F49C1F8C80070
:105240009F4908609D49086010BD10B59D48FEF754
:1052500016FF9C4800229E49D0F8C4300C20984785
:1052600010BD70B50446002509E034F81500FFF7BD
:10527000B0FF691C34F81100FFF7B8FFAD1CD4F87B
:10528000C800A842F1D870BD10B58B48FFF7E9FF00
:1052900010BD70B504460D46CC2632462946204640
:1052A00006F0C1FC70BD0246B2F59B7F0DDD40F2F9
:1052B0002A30824209DA40F29650814205DD40F2FE
:1052C0008A70814201DA01207047B2F59B7F0ADDC6
:1052D00040F22A30824206DAB1F59B7F03DD81423B
:1052E00001DA0020F0E7FF20EEE7024642F22E202E
:1052F00082420DDD42F22240824209DA41F29A00F6
:10530000814205DD41F28E20814201DA01207047A1
:105310000020FCE73FB504460D46002003900290B4
:1053200001900090D4F8C800422807D261882088F4
:10533000FFF7DBFF10B9002004B030BD022310E0FE
:105340009DF80C004006000E03905A1C34F8121011
:1053500034F81300FFF7A7FF9DF80C1008430390E3
:105360009B1C122BECDB122310E09DF8080040067A
:10537000000E02905A1C34F8121034F81300FFF794
:1053800092FF9DF80810084302909B1C222BECDB37
:105390009DF80C00C043C0B29DF80810884201D0AF
:1053A0000020C9E7222310E09DF804004006000E0B
:1053B00001905A1C34F8121034F81300FFF773FFF1
:1053C0009DF80410084301909B1C322BECDB322328
:1053D00010E09DF800004006000E00905A1C34F8C2
:1053E000121034F81300FFF75EFF9DF80010084319
:1053F00000909B1C422BECDB9DF80400C043C0B224
:105400009DF80010884201D0002095E79DF80C001F
:1054100028709DF80400687001208DE770B504467F
:10542000002517E014F0800F08D04FF40C70FFF740
:10543000D0FE4FF4D260FFF7D9FE07E04FF40C70B6
:10544000FFF7C7FE4FF40C70FFF7D0FE6006040EA6
:10545000681CC5B2082DE5DB70BD1FB50446207879
:1054600003902078C043C0B20290607801906078C9
:10547000C043C0B2009042F22830FFF7AAFE41F2CA
:105480009410FFF7B3FE9DF80C00FFF7C7FF9DF8DF
:105490000800FFF7C3FF9DF80400FFF7BFFF9DF86A
:1054A0000000FFF7BBFF4FF40C70FFF792FE4FF4C4
:1054B000D260FFF79BFE1FBDF8100020880100207E
:1054C00084010020980C0020680D00200000F03FAF
:1054D0000070144738B501210C2001F099FA00241E
:1054E00013E0964800EBC4008088ADF8000010205F
:1054F0008DF8030003208DF80200904951F8340024
:10550000694600F069FF601CC4B2042CE9DB00248A
:1055100013E08B4800EBC4008088ADF80000482001
:105520008DF8030003208DF80200854951F83400FE
:10553000694600F051FF601CC4B2032CE9DB002473
:105540000AE07E4A02EBC40291887C4A52F8340099
:1055500000F0EDFF601CC4B2042CF2DB38BD70B566
:105560000026002447E0754A02EBC4029188734A82
:1055700052F8340000F0DDFF00252FE0704A02EB06
:10558000C50291886E4A52F8350000F0B6FF18BB8C
:105590001420FCF727FC6A4A02EBC5029188684A8E
:1055A00052F8350000F0A9FFB0B9032000FB045009
:1055B000401CC6B20A2E03DA06F13000C0B270BD3C
:1055C0000A2E01D15920FAE70B2E01D13020F6E73F
:1055D0000C2E01D14220F2E7681CC5B2032DCDDBB1
:1055E000564A02EBC4029188544A52F8340000F043
:1055F0009EFF601CC4B2042CB5DB0020DFE738B589
:1056000001210C2001F004FA002413E04B4800EBC8
:10561000C4008088ADF8000010208DF8030003203E
:105620008DF80200454951F83400694600F0D4FE77
:10563000601CC4B2042CE9DB002413E0404800EBFA
:10564000C4008088ADF8000048208DF803000320D6
:105650008DF802003A4951F83400694600F0BCFE6A
:10566000601CC4B2032CE9DB00240AE0334A02EBDD
:10567000C4029188314A52F8340000F058FF601C8F
:10568000C4B2042CF2DB38BD70B5002429E02B4AEB
:1056900002EBC4029188294A52F8340000F049FF15
:1056A000002511E0264A02EBC5029188244A52F8EF
:1056B000350000F022FF28B9032000FB0450401CF5
:1056C000C0B270BD681CC5B2032DEBDB1B4A02EBF8
:1056D000C4029188194A52F8340000F028FF601C77
:1056E000C4B2042CD3DBFF20EBE710B515480078DB
:1056F000012802D002281FD109E0FFF7C5FF124997
:105700000870FF2802D002200E49087014E0FFF74D
:10571000BBFF0D49097888420DD101200949087065
:10572000FF20094908700948006820B10846007840
:1057300006490968884700BF00BF10BD8C010020E2
:10574000AC010020C9010020C8010020C4010020D4
:105750002DE9FF47824600200290012001900020A1
:1057600000900420039010E003981AF800003038ED
:10577000DDE9011200FB01200290019800EB80009E
:10578000400001900398401E039003980028EBDA34
:10579000012001900720039010E003981AF8000000
:1057A0003038DDE9002100FB01200090019800EB7A
:1057B0008000400001900398401E03900398052844
:1057C000EBDA009806F002FC064600222B4B06F0AE
:1057D0008EFB04460D46029806F0F8FB80462246F2
:1057E0002B4606F06BFA04B0BDE8F0872DE9F047D0
:1057F00086B00746884616463846414606F004FC01
:10580000814642F21074484606F0E0FB3A464346B1
:10581000CDE9000106F0F6FA0022194BCDE90201AC
:1058200006F0F3FACDE9040106F0EEFB824600250E
:105830000CE099FBF4F03030705599FBF4F004FB68
:1058400010990A2094FBF0F4681C05B2042DF0DDD9
:105850004FF47A7405250CE09AFBF4F03030705563
:105860009AFBF4F004FB10AA0A2094FBF0F4681CE5
:1058700005B2072DF0DD06B0BDE8F08700408F408F
:105880000088C34038B501210C2001F0C1F8002484
:1058900013E06D4800EBC4008088ADF800001020D4
:1058A0008DF8030001208DF80200674951F834009B
:1058B000694600F091FD601CC4B2042CE9DB0024B1
:1058C00013E0624800EBC4008088ADF80000482077
:1058D0008DF8030001208DF802005C4951F8340076
:1058E000694600F079FD601CC4B2032CE9DB00249A
:1058F0000AE0554A02EBC4029188534A52F8340038
:1059000000F015FE601CC4B2042CF2DB38BD0EB5ED
:105910000020029053E04C4A9DF8083002EBC3028D
:105920009188494A9DF8083052F8330000F001FE92
:10593000002001902AE0454A9DF8043002EBC302A2
:105940009188424A9DF8043052F8330000F0D5FDAA
:10595000B8B99DF804009DF80810032202FB01006D
:105960003130C0B20090384A9DF8083002EBC302D3
:105970009188354A9DF8083052F8330000F0D7FD81
:1059800024E09DF80400401CC0B201909DF8040082
:105990000328D0DB2C4A9DF8083002EBC302918823
:1059A000294A9DF8083052F8330000F0C0FD1E204F
:1059B000FCF7F5F99DF80800401CC0B202909DF874
:1059C00008000428A7DB0020009000BF9DF800001D
:1059D0001F49097848409DF8001008401D4908708B
:1059E0009DF800001A4908701A48007850B31A4808
:1059F000006838B3174800783A2804D1592016496E
:105A0000096888471EE0134800783B2804D13020FD
:105A100011490968884715E00E4800783C2804D1F0
:105A200042200D49096888470CE00A480078392867
:105A300008DC08480078302804DB0648007806496E
:105A4000096888470EBD0000CC010020EC01002051
:105A500009020020080200200402002006488047B6
:105A600006480047FEE7FEE7FEE7FEE7FEE7FEE743
:105A7000FEE7FEE7FEE7FEE7F1010008ED000008A3
:105A800031490143314A1160704770B5002100234C
:105A90000F22C4780CB32D4C246804F4E064C4F5E0
:105AA000E064210AC1F10403CA40447804FA03F116
:105AB0008478144021430901254C0678A1550478C7
:105AC00004F01F050124AC4005786D114FF0E0266D
:105AD00006EB8505C5F8004109E0047804F01F05D0
