:020000040800F2
:1000000058660020753B00082503000827030008F8
:100010002B0300082F030008330300080000000032
:10002000000000000000000000000000873B000806
:100030003703000800000000390300083B030008F4
:100040008F3B00088F3B00088F3B00085D150008C0
:100050008F3B00088F3B0008790A00088D0A0008D2
:10006000A10A0008B50A0008C90A0008D706000856
:100070008F3B00088F3B00088F3B0008615F000842
:10008000835F00088F3B00088F3B00088F3B000810
:100090008F3B00088F3B00088F3B0008DD0A0008FB
:1000A0008F3B0008C76400088F3B00088F3B0008A7
:1000B000EB640008B91300080F6500088F3B0008C7
:1000C0008F3B00088F3B00088F3B00088F3B0008E8
:1000D0008F3B0008A55F0008D55F00088F3B000834
:1000E0005B0B0008531500088F3B00088F3B00088E
:1000F0008F3B00088F3B00088F3B00088F3B0008B8
:100100008F3B00088F3B00088F3B00088F3B0008A7
:100110008F3B00088F3B00088F3B00088F3B000897
:100120008F3B00088F3B00088F3B00088F3B000887
:10013000DFF810D00BF008FE0BF07EF80048004707
:100140003D030008586600200CB500200190009087
:100150006B48006840F480306949086000BF684817
:10016000006800F4003000900198401C0190009855
:1001700018B90198B0F5A06FF1D16148006810F48A
:10018000003F02D00120009001E000200090009884
:10019000012842D15B48006840F0100059490860CE
:1001A0000846006820F0030008600846006840F038
:1001B000020008605248406851494860084640685B
:1001C00048600846406840F48060486008464068DF
:1001D00020F47C1048600846406840F4E81048600D
:1001E0000846006840F08070086000BF444800681E
:1001F00010F0007FFAD04248406820F003004049E8
:1002000048600846406840F00200486000BF3C4833
:10021000406800F00C000828F9D10CBD10B5FFF7BC
:1002200093FF10BD10B53648006840F00100344916
:10023000086008464068344908403149486008462B
:100240000068324908402E4908600846006820F4DA
:10025000802008600846406820F4FE0048604FF4A3
:100260001F008860FFF7DAFF4FF000602849086040
:1002700010BD10B5002100200022214B5B6803F067
:100280000C0121B1042906D0082928D107E0214B0F
:10029000214C236027E01F4B1F4C236023E0184BA9
:1002A0005B6803F47010164B5B6803F48032022322
:1002B00003EB904022B9194B4343174C23600DE0E8
:1002C0000F4B5B6813F4003F04D0144B4343124CB4
:1002D000236003E00F4B43430F4C236003E00D4BBF
:1002E0000D4C236000BF00BF054B5B68C3F30313D5
:1002F0000B4CE15C084B1B68CB40074C236010BDE6
:1003000000100240002002400000FFF8FFFFF6FE50
:1003100008ED00E000127A000000002000093D0016
:1003200004000020704700BFFEE700BFFEE700BFEB
:10033000FEE700BFFEE7704770477047C0B000F0AF
:10034000E5F90C49684606F0F4F803F0D3FB0A4AD5
:100350000A21684606F074F906F079FCFF2006F0E1
:10036000B9FA06F067FC00F009F801E006F07AFA45
:10037000FCE70000A80300206D6A00087047000039
:100380000146102929D2DFE801F0080A0C0E1012EC
:100390001416181A1C1E20222426D5487047D4484B
:1003A000FCE7D348FAE7D248F8E7D148F6E7D04867
:1003B000F4E7CF48F2E7CE48F0E7CE48EEE7CD4885
:1003C000ECE7CD48EAE7CC48E8E7CB48E6E7CA489F
:1003D000E4E7C948E2E7C848E0E70020DEE7014675
:1003E000102929D2DFE801F0080A0C0E10121416A9
:1003F000181A1C1E20222426012070470220FCE728
:100400000420FAE70820F8E71020F6E72020F4E7B8
:100410004020F2E78020F0E70120EEE70220ECE741
:100420000120EAE70220E8E70420E6E70820E4E705
:100430001020E2E72020E0E70020DEE770B500258D
:100440000022002619E0AD4909680968885DFFF7B8
:1004500097FF0446A648844202D102F001020AE056
:10046000A448844202D102F0020204E0A24884427D
:1004700001D102F00402701CC6B2A04800680079E5
:10048000B042E0DC12F0010F01D045F0040512F09B
:10049000020F01D045F0080512F0040F01D045F01D
:1004A0001005284670BD10B50020944909684871B0
:1004B0000121934803F071FC10BD024600210BE0BE
:1004C0008E4800680068405C904203D18D4830F847
:1004D00011007047481CC1B2884800680079884202
:1004E000EEDC0020F5E700B58DB00121084604F0F0
:1004F0000EFB854803F0E6FD81484C3002908148B0
:100500000390002004907D48006800790590002049
:10051000069080200790400008908000099077485E
:100520000068807908B1202000E000200A904FF494
:1005300080500B9000200C9002A9734803F064FED9
:1005400001220221704803F096FE0B208DF8040072
:1005500000208DF805008DF8060001208DF80700B9
:1005600001A803F01EFB0121674803F078FE0DB0DF
:1005700000BD70B586B0054660480560AFF2C500A5
:100580005E490968C860AFF2E1005C4909688860AB
:10059000FFF754FF40F400760121304604F0C4FA1E
:1005A0004FF4004004F027FA00242CE05348006880
:1005B0000068005D102801D1012000E000204F49B3
:1005C00009680968095D112901D1012100E00021B4
:1005D000084300D015E0494909680968085DFFF73C
:1005E000FEFEADF8000000208DF8030043490968C5
:1005F0000968085DFFF7C4FE0646694603F078FF08
:1006000000BF601CC4B23D4800680079A042CDDC48
:100610003B4803F02FFB0020019001208DF80800DB
:100620003648006880798DF809004FF46020039007
:10063000002004903148006800798DF8140001A969
:100640002F4803F03EFB002422E02C48006800689D
:10065000005D102801D1012000E000202749096831
:100660000968095D112901D1012100E00021084339
:1006700002D0012003F0E2FC601CC2B21F480068F7
:100680000068015D07231E4803F0B3FB601CC4B281
:100690001A4800680079A042D7DCFFF724FF012147
:1006A000174803F045FB0121154803F036FB1448B9
:1006B00003F055FB00BF124803F056FB0028FAD1A7
:1006C0000F4803F05BFB00BF0D4803F05CFB002804
:1006D000FAD106B070BD10B5022003F0F9FD30B1BB
:1006E0000120064909684871022003F004FE10BD8C
:1006F00000080140000C01400010014014000020DF
:1007000000240140A40100200800024010B56FF051
:10071000040003F091FA2D4800682D49B0FBF1F078
:100720002C4908700846007800EB4001C1EBC0106E
:100730004FF6FF7101EAC0002749088010BD01464D
:10074000244A12784A434FF0E0235A6100229A610A
:100750001A46126942F001021A6100BF4FF0E0220E
:10076000106910F0010F02D010F4803FF6D04FF066
:10077000E022126922F001024FF0E0231A61002208
:100780009A6170470146144A12884A434FF0E023A9
:100790005A6100229A611A46126942F001021A61F6
:1007A00000BF4FF0E022106910F0010F02D010F4EA
:1007B000803FF6D04FF0E022126922F001024FF0A4
:1007C000E0231A6100229A617047000000000020B7
:1007D00000127A00180000201A00002000228188F0
:1007E00002E04910531CDAB211F0010FF9D0FE4BB0
:1007F00043F8220070470146FC4A881A91421AD0F9
:1008000009DCFB48081810D0B0F5806F0FD0B0F5A8
:10081000006F18D10DE0B0F5806F0ED0B0F5006F0D
:100820000DD0B0F5406F0ED10BE0002070470120D5
:10083000FCE70220FAE70320F8E70420F6E70520AA
:10084000F4E70620F2E70020F0E7014631B1012984
:1008500006D0022906D0032908D105E028207047D8
:100860004820FCE74820FAE72820F8E70020F6E7D0
:100870000146DE4A881A91421AD009DCDC48081881
:1008800010D0B0F5806F0FD0B0F5006F19D10DE02A
:10089000B0F5806F0ED0B0F5006F0DD0B0F5406FA1
:1008A0000FD10BE0042070470820FCE71020FAE786
:1008B0002020F8E74020F6E78020F4E74FF480702E
:1008C000F1E70020EFE7014631B1012906D0022906
:1008D00006D0032908D105E0082070470C20FCE76A
:1008E0001020FAE71020F8E70020F6E70146002084
:1008F00002E04910421CD0B211F0010FF9D070474C
:100900000146102916DC04290ED004DC012907D089
:10091000022916D106E0082908D0102911D107E0D4
:10092000062070470720FCE70820FAE70920F8E7CF
:100930000A20F6E7B1F5007F01DC1720F1E7282057
:10094000EFE70020EDE72DE9FF4706460C46154688
:100950001F46A848006890F8C00000EB4000A54979
:10096000096841F82060A348006890F8C00000EBD7
:100970004000A049096801EB800084809D48006820
:1009800090F8C00000EB40009A49096801EB800034
:1009900085719848006890F8C00000EB40009549C8
:1009A000096801EB800087609249096891F8C010DE
:1009B00001EB41018F4A126802EB8100FFF70EFF45
:1009C0008C48006890F8C000401C8A49096881F88A
:1009D000C0003046FFF74CFF8046012104F0A4F828
:1009E0002846FFF732FF8DF80F0003208DF80E0028
:1009F000ADF80C4003A9304603F07AFD2046FFF71E
:100A000075FF80463046FFF7F6FE8146414603F00B
:100A100083FE019400208DF808002846FFF753FF5D
:100A20008DF8090001208DF80A0001A803F080FC70
:100A30002046FFF765FFC0B28DF8000001208DF859
:100A4000010000208DF8020001208DF803006846A7
:100A500003F0A7F8BDE8FF8710B5044665480460B9
:100A6000AFF21D10C4F8C400002084F8C0000121BA
:100A7000084604F059F810BD10B55B4A10681268BA
:100A800091688847012003F0CAFC10BD10B5564A92
:100A90005068526891688847022003F0C0FC10BD7E
:100AA00010B5514A9068926891688847042003F015
:100AB000B6FC10BD10B54C4AD068D2689168884722
:100AC000082003F0ACFC10BD10B5474A106912694C
:100AD00091688847102003F0A2FC10BD10B546486D
:100AE000006800F47874C4F3401038B13E4A50698D
:100AF000526991688847202003F091FCC4F380106C
:100B000038B1394A9069926991688847402003F06A
:100B100086FCC4F3C01038B1334AD069D2699168F9
:100B20008847802003F07BFCC4F3002040B12E4AAC
:100B3000106A126A916888474FF4807003F06FFC66
:100B4000C4F3402040B1284A506A526A91688847ED
:100B50004FF4007003F063FC10BD10B52648006828
:100B600000F47C44C4F3802040B11F4A906A926A2A
:100B7000916888474FF4806003F051FCC4F3C020B3
:100B800040B1194AD06AD26A916888474FF4006030
:100B900003F045FCC4F3003040B1134A106B126BF4
:100BA000916888474FF4805003F039FCC4F340301B
:100BB00040B10D4A506B526B916888474FF400501A
:100BC00003F02DFCC4F3803040B1074A906B926B68
:100BD000916888474FF4804003F021FCC4F3C03093
:100BE00098B1014AD06B09E0C8010020001401400F
:100BF00000F8FEBF1C00002014040140D26B916875
:100C000088474FF4004003F00AFC10BD01460A2952
:100C100001DA042070470820FCE701460A2901DABE
:100C2000FE487047FE48FCE7014610292FD2DFE856
:100C300001F0080B0E111416181A1C1E202224266F
:100C4000282B4FF4807070474FF40070FBE74FF48F
:100C50008060F8E74FF40060F5E70120F3E7022039
:100C6000F1E70420EFE70820EDE74020EBE78020E4
:100C7000E9E70120E7E70220E5E74020E3E78020FD
:100C8000E1E74FF48070DEE74FF40070DBE7FF2010
:100C9000D9E70146042901DAE2487047082902DA57
:100CA0004FF08040F9E70C2901DADF48F5E7DF482B
:100CB000F3E70146042902DA4FF40060704708297F
:100CC00001DA0120FAE70C2901DA0220F6E7042014
:100CD000F4E70146042901DA1B207047082901DAEC
:100CE0001C20FAE70C2901DA1D20F6E71E20F4E7A4
:100CF0000146CA1701EB92729210B1EB820201D148
:100D000002207047481EC21700EB92729210B0EB9F
:100D1000820201D10420F4E7881EC21700EB927210
:100D20009210B0EB820201D10820EAE7C81EC21778
:100D300000EB92729210B0EB820201D11020E0E73A
:100D40000020DEE70146CA1701EB92729210B1EB68
:100D5000820201D100207047481EC21700EB927238
:100D60009210B0EB820201D10420F4E7881EC21772
:100D700000EB92729210B0EB820201D10820EAE7F8
:100D8000C81EC21700EB92729210B0EB820201D122
:100D90000C20E0E70020DEE7014631B1012906D052
:100DA000022906D0032908D105E00020704702205F
:100DB000FCE70020FAE70220F8E70020F6E7024609
:100DC000002110E0C1EBC100994B1B6813F8300003
:100DD000904206D1C1EBC100954B1B6803EBC000EC
:100DE0007047481CC1B29248006890F88C03884252
:100DF000E8DC0020F4E770B504460D462046FFF716
:100E000048FF0646E11704EB91718910B4EB8101AC
:100E100004D12946304604F073FD25E0601EC11759
:100E200000EB91718910B0EB810104D12946304665
:100E300004F078FD18E0A01EC11700EB9171891035
:100E4000B0EB810104D12946304604F085FD0BE06A
:100E5000E01EC11700EB91718910B0EB810103D145
:100E60002946304604F092FD70BD00B5024610469A
:100E7000FFF70FFF0346D11702EB91718910B2EB18
:100E8000810101D1988E00BD501EC11700EB9171F8
:100E90008910B0EB810101D1188FF4E7901EC117C2
:100EA00000EB91718910B0EB810101D1988FEAE7D5
:100EB000D01EC11700EB91718910B0EB810102D1F6
:100EC000B3F84000DFE70020DDE72DE9F04F8BB0FD
:100ED00081468A4615461E464846FFF7EAFE834687
:100EE0005348006890F88C03C0EBC0005049096873
:100EF00001EBC0044E48006890F88C03401C4C493C
:100F0000096881F88C0384F8009000214948C4E9FD
:100F10000810C4E9025684F818A00020206160611E
:100F2000012000FA09F04449096808434249086071
:100F3000012000FA09F0096808433F490860BBF541
:100F4000006F04D10121584603F0EEFD03E00121BA
:100F5000584603F0F6FD4846FFF758FE07460121C4
:100F600003F0E2FD2078FFF75FFEADF81800207E69
:100F700008B9012000E00020217E022901D10121D1
:100F800000E00021084303D028208DF81B0002E078
:100F900048208DF81B0003208DF81A002078FFF7F9
:100FA0003CFE074606A903F0A3FA4FF6FF70ADF822
:100FB00010002A463346002020490AF004FA07466A
:100FC00000221F4B0AF0F9F9CDE900010AF0E9FA15
:100FD00080B2ADF80C000020ADF81200ADF80E00A4
:100FE0004846FFF756FE074603A903F07BFF484635
:100FF000FFF7A8FEADF81C00207EFFF7CDFEADF890
:101000001E000120ADF820000020ADF82200ADF850
:1010100024004846FFF73DFE074613E00008014064
:10102000000C0140002C014000040040000800407A
:10103000280000200000F0BF2000002000005240E7
:101040000000F03F07A904F0E0F94846FFF741FE31
:10105000C0B28DF8080000208DF809008DF80A0054
:1010600001208DF80B0002A802F09BFD4846FFF717
:1010700010FEE64988420DD119208DF808000020A5
:101080008DF809008DF80A0001208DF80B0002A8E8
:1010900002F087FD4846FFF72BFE80B240F00107C3
:1010A0004846FFF7F6FD80460122394604F091FAE2
:1010B0004846FFF7EEFD0746012104F06FFA484667
:1010C000FFF7E7FD0746012104F042FD0BB0BDE844
:1010D000F08F30B505460C462846FFF770FE0461D8
:1010E00030BD30B505460C462846FFF768FE446122
:1010F00030BDC7490860AFF22D21C54A1268C2F859
:1011000080130021C24A126882F88C13AFF23D01AD
:10111000BF4A1268C2F88413AFF23901BC4A1268A0
:10112000C2F8881370470146BA4800EB01100078F6
:1011300000F08000704710B504462046FFF73FFEE0
:101140000146006A496A10BD2DE9F04F87B0064696
:10115000B04800EB061400EB061000F10409AD489E
:1011600000EB061000F1080AAA4800EB061000F197
:101170000C0B3046FFF78DFD05903046FFF71FFE44
:101180000546287E08B9012000E00020297E0229BA
:1011900001D1012100E00021084306D00020ADF874
:1011A00010000220ADF8120005E00020ADF812009A
:1011B0000220ADF81000207810F0800F76D10121C8
:1011C000059804F0B4FCC0B1207800F040002188FC
:1011D00001F48071084310D0207800F0200020280E
:1011E00008D1206840F08000206000218A48C5E9CD
:1011F000081002E02068401C20603046FFF778FDB0
:1012000087B23946059804F092FC00284ED0207829
:1012100010F0400F4BD0287E022801D1012000E0C1
:101220000020297E032901D1012100E0002108438B
:1012300012D0206820F040002060206840F48070C8
:1012400020603046FFF711FE217801F0200100EB0D
:101250000140CAF8000024E0206840F080002060CF
:101260003046FFF702FE217801F0200100EB01403B
:10127000CAF80000DAF80010D9F80020881A0AF03D
:1012800083F9CDE90201D5E902733A460AF09BF8E9
:10129000C5E90801286910B1284629698847002056
:1012A0002060BDF810103046FFF7A5FD61E02088F2
:1012B00010F4807F4DD03046FFF7D7FD07462078E9
:1012C00000F0200007EB0040CBF80000BDF8121042
:1012D0003046FFF790FDDBF80010D9F80020881A9F
:1012E0000AF052F9CDE90201D5E90201CDE9000188
:1012F000DDE902230AF067F8C5E90801DAF8001011
:10130000D9F80020881A0AF03FF9CDE90201D5E9A1
:101310000201CDE90001DDE902230AF054F8C5E934
:101320000C01D5E90801CDE90201D5E90C01CDE9AF
:101330000001DDE902230AF0B8F8C5E90A012869CD
:1013400010B1284629698847C9F8007040202060FC
:101350000FE0002020603046FFF787FDC9F800004D
:10136000206840F040002060BDF812103046FFF7C2
:1013700042FD0022284BD5E9087138460AF02AF9C7
:101380000FD1686910B1284669698847002020603C
:10139000BDF810103046FFF72EFD00211F48C5E9AB
:1013A00008103046FFF7A4FC87B23946059804F0D0
:1013B000CFFB07B0BDE8F08F10B519480088C0F327
:1013C000002010B10820FFF7BFFE15480088C0F3C9
:1013D000402010B10920FFF7B7FE11480088C0F384
:1013E000802010B10A20FFF7AFFE0D480088C0F33F
:1013F000C02010B10B20FFF7A7FE0820FFF749FC23
:101400000446012104F0A4FB10BD0000002C0140A3
:10141000280000200802002000408FC00000F0BF1C
:101420002000002008B501214FF0C05003F089FBD7
:10143000012003F0B4F94FF4407003F0FEFA0120EC
:1014400003F001FB03F034FC03F03AFC03F0E1FB92
:101450003E2003F007FC03F02BFC002003F0F5FB1B
:1014600003F026FC4FF6FF704449088003F020FC8F
:101470004FF6FF704149091D088003F019FC012156
:10148000022003F0B9FB3D481C38008800F0020040
:101490003A491C39088003F00BFC03F0C3FB2920F8
:1014A0008DF8000000208DF801008DF80200012069
:1014B0008DF80300684602F074FB03208DF80000ED
:1014C00000208DF801008DF8020001208DF8030046
:1014D000684602F066FB08BD2DE9F04107460C4660
:1014E0002648001F008825490839098800EB01407B
:1014F000C51903F0DDFB03F08CFB2048001F0088BA
:101500001E490839098800EB01461C49091F0E8055
:1015100003F0CEFB300C19490839088003F0C8FBF2
:10152000280C1649088003F0C3FB1449091D0D80DF
:1015300003F0BEFB03F076FB11480460BDE8F081C8
:101540000E48001F00880D490839098800EB01404A
:10155000704710B5022003F0E7FB10BD10B5022064
:1015600003F0D2FB012808D1022003F0DDFB044880
:10157000006810B102480068804710BD2028004074
:101580002C000020F84908807047F749891C088022
:101590007047F548801C00887047F34A1080921C01
:1015A0001180704710B504462046FFF7EBFF052079
:1015B000FFF7C5F8FFF7EDFF10BDEC48C079EA4929
:1015C00008807047E849891C0880704730B501469B
:1015D00001F01F04C1F34513CA0AE50205EB4315E8
:1015E0001544A8B230BD00BF0100A0F10102D0B285
:1015F000FAD1704710B503460C46DC488088A0F548
:101600001341413905D0D9488088A0F5D04104392B
:1016100014D1D649087AFFF7B5FF1812FFF7B5FFC6
:10162000D8B2FFF7B2FFD149487AFFF7ABFF2012DB
:10163000FFF7ABFFE0B2FFF7A8FF12E0CB488079DD
:10164000012804D1C9480088401EC01A83B2C74986
:10165000087A1946FFF7A1FFC449487A2146FFF7E7
:101660009CFF10BD2DE9F04105460E4600240027E1
:10167000A046BE480088A84203DDBC484088B0426E
:1016800002DC0020BDE8F08131462846FFF7B2FFBA
:10169000B6488088A0F51341413905D0B348808809
:1016A000A0F5D041043903D12E20FFF76BFF02E0F3
:1016B0002220FFF767FFAD488088A0F5134120394D
:1016C00002D10220FFF78FFFA748801C008800B1DD
:1016D00000240220FFF787FFA348801C0488A3484A
:1016E0008088A0F5134141390CD10220FFF77BFF20
:1016F0009D48801CB0F80080E7B24FF6FF7000EA0A
:10170000072708E099488088A0F5D041043902D124
:101710009548801C048895488088A0F51341253998
:1017200017D092488088A0F58A41353911D08F486A
:101730008088A0F58A4131390BD08C488088A0F58B
:101740000941893905D089488088A0F53541053996
:1017500001D1204696E785488088A0F5134141399C
:1017600007D1E012C002B91240EA411040EAE82075
:1017700088E72046FFF72AFF84E700B57B4880888A
:10178000A0F51341413905D078488088A0F5D041B3
:10179000043903D12920FFF7F5FE04E040F273116C
:1017A0000720FFF7FAFE00BD00B570488088A0F55D
:1017B0001341413905D06D488088A0F5D0410439E6
:1017C00003D12820FFF7DEFE03E000210720FFF70A
:1017D000E4FE00BDF0B5054600240027634880798B
:1017E00001281ED161488088A0F5D041043918D065
:1017F000082D15D2DFE805F00406080A0C0E1012B9
:1018000006250DE007250BE0042509E0052507E086
:10181000012505E0002503E0032501E0022500BFC6
:1018200000BF52488088A0F51341413905D04F4888
:101830008088A0F5D04104397CD1082D1CD2DFE886
:1018400005F00406090C0F12151800BF14E044F04F
:10185000800411E044F040040EE044F0C0040BE0CA
:1018600044F0200408E044F0600405E044F0A004E3
:1018700002E044F0E00400BF00BF362744F0080453
:101880003A488088A0F5D041043901D144F00204DF
:1018900021463846FFF781FE14F0200F0DD0334863
:1018A000008832494988884214DA304806884088DE
:1018B0002E490880084646800CE02C4800882B49B9
:1018C0004988884206DD29480688408827490880DB
:1018D000084646802549087AFFF754FE0020FFF7A6
:1018E00054FE0020FFF751FE20490988491EC1F32C
:1018F0000F20FFF74AFE1D490978491EC8B2FFF7BD
:1019000044FE1A49487AFFF73DFE0020FFF73DFEEE
:101910000020FFF73AFE15494988491EC1F30F2000
:10192000FFF733FE11498978491EC8B2FFF72DFE33
:1019300037E0FFE7082D21D2DFE805F004070A0DA4
:101940000F121A1D44F0300418E044F0100415E0A2
:1019500044F0200412E000BF10E044F038040DE031
:1019600044F028040AE00000FE07006C0803002091
:1019700044F0180402E044F0080400BF00BFFE4831
:101980008088A0F50941893904D1112746F2400029
:10199000044302E0032744F4805421463846FFF70D
:1019A000FCFDF0BD30B504460D4629462046FFF744
:1019B00021FEFFF702FEF1480088F149088030BDA2
:1019C00030B503460C461546EB488088A0F5134118
:1019D000413905D0E8488088A0F5D041043914D1B8
:1019E000E549087AFFF7CEFD1812FFF7CEFDD8B211
:1019F000FFF7CBFDE049487AFFF7C4FD2012FFF75F
:101A0000C4FDE0B2FFF7C1FD12E0DB488079012898
:101A100004D1D9480088401EC01A83B2D649087A3A
:101A20001946FFF7BAFDD449487A2146FFF7B5FDBC
:101A3000D148C079D249891E0880881C058030BDF4
:101A400010B50446002C3DD1CB498871F0200880A8
:101A50004FF4A070488008468088A0F513414139B2
:101A600005D0C5488088A0F5D041043914D12C2078
:101A7000C149C8712A2008722B2048720846808804
:101A8000A0F5D04104394ED14FF4A070BA49088076
:101A90004FF4F070488046E0B7488088A0F50941CF
:101AA000893907D12220B449C8714E2008724F20CD
:101AB000487238E02220B049C871202008722120E5
:101AC000487230E0AC488088A0F5D04104392AD073
:101AD0000120A94988714FF4A0700880F020488047
:101AE00008468088A0F51341413907D12C20A2492E
:101AF000C8712A2008722B20487214E09E48808802
:101B0000A0F50941893907D122209B49C8714F208E
:101B100008724E20487206E022209749C8712120A1
:101B20000872202048720020FFF754FE10BD10B547
:101B30009448406940F48070924948610846806941
:101B400040F0080088610846806940F02000886104
:101B50000846806940F0400088610846806940F48A
:101B6000807088618848006820F00F00864908600E
:101B70000846006840F00300086084480068844913
:101B800008408249086008460068824908437F4946
:101B90000860081F006800F0FF20091F0860084661
:101BA000006840F0BB1008607B48006800207A495C
:101BB00008600846006840F0BB300860081F0068F5
:101BC00020F07040091F08600846006840F030406F
:101BD00008607248406820F47020704948600846E8
:101BE000406840F4302048600846006820F00F004C
:101BF00008600846006840F00B00086000204FF0C5
:101C000020418861C861664908604FF020408069C2
:101C100040F480504FF0204188610846806940F4CC
:101C2000804088610846806940F01000886108465D
:101C3000C069C8610846C06940F00100C861084633
:101C4000C06940F47060C86155480068C1F81C0163
:101C500053480068C1F81C010846D0F81C0140F444
:101C60004070C1F81C010846806940F0010088619D
:101C70004FF03200FEF786FD01210020FFF78DFCBA
:101C80003220FEF77FFD0020FFF78CFC3A49888068
:101C900008468088FF280ADB08468088A0F57F4137
:101CA000FF3904D034488088B0F5134F4BD1D3208E
:101CB000FFF768FCFFF76DFCFFF76BFCFFF769FCB3
:101CC0002D498880084680884FF6FF7101EA002080
:101CD00029498880FFF75DFC274989880843264900
:101CE000888008468088A0F5134141391BD0BF2069
:101CF000FFF748FCFFF74DFCFFF74BFCFFF749FCF3
:101D0000FFF747FC1C498880084680884FF6FF7122
:101D100001EA002018498880FFF73BFC16498988B2
:101D200008431549888014488088A0F5134141393B
:101D300009D011488088A0F5D041043903D049F278
:101D400041300D4988800C488088A0F51341413905
:101D50007ED1CF20FFF716FC0020FFF716FCC12034
:101D6000FFF713FC3020FFF710FCED20FFF70AFC13
:101D70006420FFF70AFC15E0080300203000002073
:101D80000008006C00100240000C014004140140E7
:101D900000F0FF00BB0B00BB041801400020014015
:101DA0001C0100A00320FFF7F0FB1220FFF7EDFB62
:101DB0008120FFF7EAFBE820FFF7E4FB8520FFF72F
:101DC000E4FB1020FFF7E1FB7A20FFF7DEFBCB20DE
:101DD000FFF7D8FB3920FFF7D8FB2C20FFF7D5FB06
:101DE0000020FFF7D2FB3420FFF7CFFB0220FFF7E4
:101DF000CCFBF720FFF7C6FB2020FFF7C6FBEA204D
:101E0000FFF7C0FB0020FFF7C0FB0020FFF7BDFB82
:101E1000C020FFF7B7FB1B20FFF7B7FBC120FFF780
:101E2000B1FB0120FFF7B1FBC520FFF7ABFB302072
:101E3000FFF7ABFB3020FFF7A8FBC720FFF7A2FBA3
:101E4000B720FFF7A2FB3620FFF79CFB482000E0FD
:101E5000AEE0FFF79AFB3A20FFF794FB5520FFF71F
:101E600094FBB120FFF78EFB0020FFF78EFB1A20BA
:101E7000FFF78BFBB620FFF785FB0A20FFF785FBFA
:101E8000A220FFF782FBF220FFF77CFB0020FFF788
:101E90007CFB2620FFF776FB0120FFF776FBE02096
:101EA000FFF770FB0F20FFF770FB2A20FFF76DFB99
:101EB0002820FFF76AFB0820FFF767FB0E20FFF7DB
:101EC00064FB0820FFF761FB5420FFF75EFBA920AD
:101ED000FFF75BFB4320FFF758FB0A20FFF755FB9A
:101EE0000F20FFF752FB0020FFF74FFB0020FFF70A
:101EF0004CFB0020FFF749FB0020FFF746FBE120E9
:101F0000FFF740FB0020FFF740FB1520FFF73DFBEC
:101F10001720FFF73AFB0720FFF737FB1120FFF7E9
:101F200034FB0620FFF731FB2B20FFF72EFB56205A
:101F3000FFF72BFB3C20FFF728FB0520FFF725FBD5
:101F40001020FFF722FB0F20FFF71FFB3F20FFF7BA
:101F50001CFB3F20FFF719FB0F20FFF716FB2B2080
:101F6000FFF710FB0020FFF710FB0020FFF70DFB31
:101F70000120FFF70AFB3F20FFF707FB2A20FFF7AE
:101F800001FB0020FFF701FB0020FFF7FEFA002015
:101F9000FFF7FBFAEF20FFF7F8FA1120FFF7F2FA4C
:101FA0007820FEF7EFFB2920FFF7ECFA01F00EBADC
:101FB000FE488088A0F5D04104397CD11120FFF77C
:101FC000E1FA1420FEF7DEFBD020FFF7DBFA072052
:101FD000FFF7DBFA4220FFF7D8FA1D20FFF7D5FA0A
:101FE000D120FFF7CFFA0020FFF7CFFA1A20FFF732
:101FF000CCFA0920FFF7C9FAD220FFF7C3FA012073
:10200000FFF7C3FA2220FFF7C0FAC020FFF7BAFAA1
:102010001020FFF7BAFA3B20FFF7B7FA0020FFF7CE
:10202000B4FA0220FFF7B1FA1120FFF7AEFAC5208B
:10203000FFF7A8FA0320FFF7A8FAC820FFF7A2FAD3
:102040000020FFF7A2FA2520FFF79FFA2120FFF7D3
:102050009CFA0520FFF799FA0020FFF796FA0A206C
:10206000FFF793FA6520FFF790FA2520FFF78DFA26
:102070007720FFF78AFA5020FFF787FA0F20FFF743
:1020800084FA0020FFF781FAF820FFF77BFA01209D
:10209000FFF77BFAFE20FFF775FA0020FFF775FACD
:1020A0000220FFF772FA2020FFF76CFA3620FFF7C4
:1020B00069FA082000E02CE0FFF767FA3A20FFF702
:1020C00061FA5520FFF761FA2B20FFF75BFA002039
:1020D000FFF75BFA0020FFF758FA0120FFF755FAE7
:1020E0003F20FFF752FA2A20FFF74CFA0020FFF7B3
:1020F0004CFA0020FFF749FA0120FFF746FADF20EB
:10210000FFF743FA7820FEF73DFB2920FFF73AFA64
:102110004CE7A6488088A0F5134125397ED147F6C3
:10212000F001E520FFF739FA4FF480710120FFF745
:1021300034FA4FF4E0610220FFF72FFA41F2300148
:102140000320FFF72AFA00210420FFF726FA40F2C5
:1021500002210820FFF721FA00210920FFF71DFACC
:1021600000210A20FFF719FA00210C20FFF715FAC9
:1021700000210D20FFF711FA00210F20FFF70DFAC3
:1021800000211020FFF709FA07211120FFF705FAB7
:1021900000211220FFF701FA00211320FFF7FDF9BB
:1021A00000210720FFF7F9F941F290611020FFF7B5
:1021B000F4F940F227211120FFF7EFF99D211220B9
:1021C000FFF7EBF94FF4C8511320FFF7E6F925218B
:1021D0002920FFF7E2F90D212B20FFF7DEF9072177
:1021E0003020FFF7DAF940F203313120FFF7D5F95B
:1021F00003213220FFF7D1F940F206213520FFF705
:10220000CCF908213620FFF7C8F940F20641372003
:10221000FFF7C3F94FF44171382000E057E0FFF7B2
:10222000BCF907213920FFF7B8F940F202613C20E0
:10223000FFF7B3F908213D20FFF7AFF90021502047
:10224000FFF7ABF9EF215120FFF7A7F9002152204A
:10225000FFF7A3F940F23F115320FFF79EF94FF427
:1022600027416020FFF799F901216120FFF795F9D7
:1022700000216A20FFF791F900218020FFF78DF9F6
:1022800000218120FFF789F900218220FFF785F9DD
:1022900000218320FFF781F900218420FFF77DF9D9
:1022A00000218520FFF779F910219020FFF775F9BB
:1022B0004FF4C0619220FFF770F940F2331107200C
:1022C000FFF76BF922210020FFF767F96EE6374828
:1022D0008088A0F5134128396AD141F28F01EC20A2
:1022E000FFF75BF941F23421EF20FFF756F94FF485
:1022F00080710120FFF751F94FF4E0610220FFF7F0
:102300004CF941F230010320FFF747F90021042086
:10231000FFF743F940F202210820FFF73EF90021C0
:102320000920FFF73AF900210A20FFF736F90121C9
:102330000C20FFF732F900210D20FFF72EF90021C4
:102340000F20FFF72AF900211020FFF726F90721B7
:102350001120FFF722F900211220FFF71EF90021BA
:102360001320FFF71AF901210720FFF716F9322091
:10237000FEF708FA41F290411020FFF70EF940F203
:1023800027211120FFF709F93220FEF7FBF98A21F6
:102390001220FFF702F93220FEF7F4F94FF4D05182
:1023A0001320FFF7FAF80621292002E00803002095
:1023B0008AE0FFF7F2F80D212B20FFF7EEF832202C
:1023C000FEF7E0F900212020FFF7E7F800212120A7
:1023D000FFF7E3F83220FEF7D5F900213020FFF7B0
:1023E000DCF840F204613120FFF7D7F840F2053104
:1023F0003220FFF7D2F800213520FFF7CEF840F663
:1024000009413620FFF7C9F84FF401713720FFF773
:10241000C4F840F201313820FFF7BFF840F20771ED
:102420003920FFF7BAF800213C20FFF7B6F840F654
:102430000A213D20FFF7B1F83220FEF7A3F9002171
:102440005020FFF7AAF8EF215120FFF7A6F800214E
:102450005220FFF7A2F840F23F115320FFF79DF8FA
:102460004FF427416020FFF798F801216120FFF722
:1024700094F800216A20FFF790F800218020FFF7F0
:102480008CF800218120FFF788F800218220FFF7D7
:1024900084F800218320FFF780F800218420FFF7D3
:1024A0007CF800218520FFF778F810219020FFF7B5
:1024B00074F84FF4C0619220FFF76FF840F23311C7
:1024C0000720FFF76AF871E5FE488088A0F5134100
:1024D00020397DD10846FFF760F84FF48071012064
:1024E000FFF75BF84FF4E0610220FFF756F841F286
:1024F00030010320FFF751F800210420FFF74DF8C9
:1025000040F202210820FFF748F800210920FFF7D8
:1025100044F800210A20FFF740F801210C20FFF7C2
:102520003CF800210D20FFF738F800210F20FFF7BD
:1025300034F83220FEF726F940F201110720FFF7A8
:102540002CF83220FEF71EF94FF486511020FFF7C9
:1025500024F807211120FFF720F84FF4887112208A
:10256000FFF71BF84FF430611320FFF716F8002136
:102570002920FFF712F844F210012B20FFF70DF885
:1025800000215020FFF709F8EF215120FFF705F84F
:1025900000215220FFF701F840F23F115320FEF7CF
:1025A000FCFF4FF41C516020FEF7F7FF0121612072
:1025B000FEF7F3FF00216A20FEF7EFFF00218020E5
:1025C000FEF7EBFF00218120FEF7E7FF002100E08E
:1025D0002DE08220FEF7E1FF00218320FEF7DDFFE2
:1025E00000218420FEF7D9FF00218520FEF7D5FFCA
:1025F00010219020FEF7D1FF00219220FEF7CDFFA1
:1026000001219320FEF7C9FF4FF488719520FEF752
:10261000C4FF00219720FEF7C0FF00219820FEF79D
:10262000BCFF40F273110720FEF7B7FFBEE4A548D8
:102630008088A0F5134131397DD141F21401E720A2
:10264000FEF7ABFF4FF480710120FEF7A6FF4FF4B9
:1026500000710220FEF7A1FF41F238010320FEF7CE
:102660009CFF40F202210820FEF797FF002109207D
:10267000FEF793FF00210A20FEF78FFF00210C20B8
:10268000FEF78BFF00210D20FEF787FF00210F20B2
:10269000FEF783FF00211020FEF77FFF07211120A6
:1026A000FEF77BFF00211220FEF777FF00211320A9
:1026B000FEF773FFC820FEF765F841F29061102025
:1026C000FEF76BFF40F227211120FEF766FF322054
:1026D000FEF758F80C211220FEF75FFF3220FEF7BC
:1026E00051F84FF400611320FEF757FF1121292004
:1026F000FEF753FF0B212B20FEF74FFF3220FEF792
:1027000041F800212020FEF748FF40F23F11212030
:10271000FEF743FF00213020FEF73FFF4FF48371A7
:102720003120FEF73AFF00213220FEF736FF4FF44A
:102730000171352000E064E0FEF72FFF41F20A61ED
:102740003620FEF72AFF40F207713720FEF725FFFB
:102750004FF483713820FEF720FF40F207713920D3
:10276000FEF71BFF40F202413C20FEF716FF40F649
:102770000F413D20FEF711FF00215020FEF70DFF15
:10278000EF215120FEF709FF00215220FEF705FF3F
:1027900040F23F115320FEF700FF4FF41C51602020
:1027A000FEF7FBFE01216120FEF7F7FE00216A2003
:1027B000FEF7F3FE00218020FEF7EFFE00218120CE
:1027C000FEF7EBFE00218220FEF7E7FE00218320CA
:1027D000FEF7E3FE00218420FEF7DFFE00218520C6
:1027E000FEF7DBFE10219020FEF7D7FE4FF4C0610C
:1027F0009220FEF7D2FE40F233110720FEF7CDFE05
:1028000086E430488088A0F5A84108397DD14FF48E
:1028100080710120FEF7C1FE4FF4E0610220FEF757
:10282000BCFE41F230010320FEF7B7FE0021042078
:10283000FEF7B3FE40F207210820FEF7AEFE0021AE
:102840000920FEF7AAFE00210A20FEF7A6FE0021BD
:102850000C20FEF7A2FE00210D20FEF79EFE0021B7
:102860000F20FEF79AFE1420FDF78CFF41F2B061B5
:102870001020FEF792FE01211120FEF78EFE0121AD
:102880001720FEF78AFE4FF49C711220FEF785FE9A
:102890004FF400611320FEF780FE09212920FEF786
:1028A0007CFE09212A20FEF778FE0021A420FEF7F5
:1028B00074FE00215020FEF770FEEF215120FEF73C
:1028C0006CFE01E00803002000215220FEF765FEA7
:1028D00040F23F115320FEF760FE4FF41C51602080
:1028E000FEF75BFE01216120FEF757FE00216A2002
:1028F000FEF753FE00218020FEF74FFE00218120CD
:10290000FEF74BFE0021822000E027E0FEF745FEA7
:1029100000218320FEF741FE00218420FEF73DFECA
:1029200000218520FEF739FE13219020FEF735FEA9
:1029300000219220FEF731FE03219320FEF72DFEA9
:102940004FF488719520FEF728FE40F2731107209E
:10295000FEF723FE3220FDF715FFB7E4FE4880881E
:10296000A0F5A85105397DD10720FEF716FE3220CB
:10297000FDF708FF4FF48E711220FEF70EFE0121C5
:10298000A420FEF70AFE0F210820FEF706FE08210C
:102990000A20FEF702FE08210D20FEF7FEFD40F2A0
:1029A00007713020FEF7F9FD07213120FEF7F5FD14
:1029B00040F203613220FEF7F0FD4FF4E061332076
:1029C000FEF7EBFD40F202213420FEF7E6FD022186
:1029D0003520FEF7E2FD41F60F713620FEF7DDFDF2
:1029E00040F207713720FEF7D8FD00213820FEF7AE
:1029F000D4FD00213920FEF7D0FD40F207713A20C6
:102A0000FEF7CBFD00213B20FEF7C7FD07213C2050
:102A1000FEF7C3FD00213D20FEF7BFFD3220FDF78C
:102A2000B1FE01210720FEF7B8FD01211720FEF7B6
:102A3000B4FD3220FDF7A6FE4FF4BD511020FEF785
:102A4000ACFD40F217211120FEF7A7FD4FF48F7166
:102A50001220FEF7A2FD4FF470611320FEF79DFDDA
:102A6000002100E094E02A20FEF797FD0A212920AA
:102A7000FEF793FD4FF49F711220FEF78EFD0021AB
:102A80005020FEF78AFDEF215120FEF786FD002140
:102A90005220FEF782FD40F23F115320FEF77DFDEC
:102AA0004FF41C516020FEF778FD01216120FEF7F4
:102AB00074FD00216A20FEF770FD00218020FEF7E2
:102AC0006CFD00218120FEF768FD00218220FEF7C9
:102AD00064FD00218320FEF760FD00218420FEF7C5
:102AE0005CFD00218520FEF758FD13219020FEF7A4
:102AF00054FD4FF440719220FEF74FFD05219320C5
:102B0000FEF74BFD00219520FEF747FD00219720A1
:102B1000FEF743FD00219820FEF73FFD4FF4807142
:102B20000120FEF73AFD4FF4E0610220FEF735FD8B
:102B300041F238010320FEF730FD00210420FEF7AA
:102B40002CFD00210C20FEF728FD00210F20FEF7B0
:102B500024FD00212020FEF720FD00212120FEF78A
:102B60001CFD21210720FEF718FD1420FDF70AFEA9
:102B700061210720FEF711FD1420FDF703FE40F24E
:102B800073110720FEF709FD1420FDF7FBFD9AE401
:102B900071488088A0F5354105397DD10846FEF79A
:102BA000FCFC00210846FEF7F8FC00210846FEF771
:102BB000F4FC00210846FEF7F0FC0121A420FEF7FA
:102BC000ECFC1420FDF7DEFD4FF41C516020FEF7F5
:102BD000E4FC40F202210820FEF7DFFC4FF405710F
:102BE0003020FEF7DAFC43F215713120FEF7D5FCF8
:102BF00040F204613220FEF7D0FC40F6166133202B
:102C0000FEF7CBFC42F211213420FEF7C6FC4FF454
:102C1000A8513520FEF7C1FC48F207513620FEF7D7
:102C2000BCFC41F207413720FEF7B7FC41F20341FB
:102C30003820FEF7B2FC20213920FEF7AEFC1A2125
:102C40009020FEF7AAFC00211020FEF7A6FC072129
:102C50001120FEF7A2FC00211220FEF79EFC0021AD
:102C60001320FEF79AFC1420FDF78CFD4FF4E6616B
:102C70001020FEF792FC40F237111120FEF78DFC78
:102C80001420FDF77FFD4FF4DC711220FEF785FC68
:102C90001420FDF777FD00E086E04FF4706113200B
:102CA000FEF77BFC80212A20FEF777FC48212920B3
:102CB000FEF773FC1420FDF765FD4FF480710120D1
:102CC000FEF76BFC4FF4E0610220FEF766FC41F278
:102CD00038010320FEF761FC40F202210820FEF7D4
:102CE0005CFC00210A20FEF758FC00210C20FEF7B6
:102CF00054FC00210D20FEF750FC30210E20FEF781
:102D00004CFC00215020FEF748FCEF215120FEF73B
:102D100044FC00215220FEF740FC40F23F115320BA
:102D2000FEF73BFC4FF41C516020FEF736FC0121FE
:102D30006120FEF732FC00216A20FEF72EFC1121F3
:102D40009020FEF72AFC4FF4C0619220FEF725FC8C
:102D500040F20241932001E008030020FEF71DFC31
:102D600002219420FEF719FC1420FDF70BFD012130
:102D70000720FEF712FC1420FDF704FD6121072057
:102D8000FEF70BFC40F273110720FEF706FC002152
:102D90002020FEF702FC00212120FEF7FEFB22216D
:102DA0000020FEF7FAFB11E3FE488088A0F54541BC
:102DB00005397DD10846FEF7F0FB00210846FEF7F5
:102DC000ECFB1420FDF7DEFC00210846FEF7E5FBD6
:102DD00000210846FEF7E1FB00210846FEF7DDFB77
:102DE00000210846FEF7D9FB0121A420FEF7D5FB00
:102DF0001420FDF7C7FC4FF41C516020FEF7CDFBFB
:102E000040F606010820FEF7C8FB40F203713020AF
:102E1000FEF7C3FB01213120FEF7BFFB0421322066
:102E2000FEF7BBFB4FF481713320FEF7B6FB4FF486
:102E300040713420FEF7B1FB40F203113520FEF75C
:102E4000ACFB1F213620FEF7A8FB40F203713720B0
:102E5000FEF7A3FB01213820FEF79FFB0421392058
:102E6000FEF79BFB15219020FEF797FB4FF4826144
:102E70001020FEF792FB40F247211120FEF78DFB58
:102E80004FF4DE711220FEF788FB4FF460611320CF
:102E9000FEF783FB7820FDF775FC4FF4807101206D
:102EA000FEF77BFB4FF400710220FEF776FB00E09B
:102EB00050E041F230010320FEF76FFB08210A20A9
:102EC000FEF76BFB00210C20FEF767FB20210E2094
:102ED000FEF763FB00210F20FEF75FFB002120209F
:102EE000FEF75BFB00212120FEF757FB3D212A2046
:102EF000FEF753FB1420FDF745FC2D212920FEF79A
:102F00004CFB00215020FEF748FB4DF2EF01512011
:102F1000FEF743FB00215220FEF73FFB40F23F113A
:102F20005320FEF73AFB00216120FEF736FB00211B
:102F30006A20FEF732FB4FF440719220FEF72DFB22
:102F400005219320FEF729FB4FF480710720FEF73F
:102F500024FB3BE293488088A0F5094189397DD163
:102F600001210020FEF719FB4AF6A4010320FEF719
:102F700014FB00210C20FEF710FB40F60C010D2085
:102F8000FEF70BFB4FF42C510E20FEF706FBB02191
:102F90001E20FEF702FB42F63F310120FEF7FDFA4C
:102FA0004FF4C0610220FEF7F8FA00211020FEF76E
:102FB000F4FA46F278011120FEF7EFFA002105201D
:102FC000FEF7EBFA00210620FEF7E7FA4EF61C7139
:102FD0001620FEF7E2FA03211720FEF7DEFA40F290
:102FE00033210720FEF7D9FA00210B20FEF7D5FA8E
:102FF00000210F20FEF7D1FA00214120FEF7CDFA83
:1030000000214220FEF7C9FA00214820FEF7C5FA48
:1030100040F23F114920FEF7C0FA00214A20FEF796
:10302000BCFA00214B20FEF7B8FA4FF46F41442060
:10303000FEF7B3FA00214520FEF7AFFA40F23F1148
:103040004620FEF7AAFA40F207713020FEF7A5FAF3
:103050004FF401713120FEF7A0FA00E03DE04FF49B
:1030600001713220FEF799FA40F202513320FEF747
:1030700094FA40F207513420FEF78FFA4FF40171B1
:103080003520FEF78AFA4FF401713620FEF785FAF3
:1030900040F202513720FEF780FA40F202313A2026
:1030A000FEF77BFA40F202313B20FEF776FA002170
:1030B0002320FEF772FA00212420FEF76EFA4FF467
:1030C00000412520FEF769FA00214F20FEF765FA3E
:1030D00000214E20FEF761FA78E132488088A0F5A1
:1030E0008A4131395DD101210020FEF756FA0A20CC
:1030F000FDF748FB41F228611020FEF74EFA0E2141
:103100001220FEF74AFA40F639211320FEF745FA5D
:103110000A20FDF737FB40211120FEF73EFA50212F
:103120001520FEF73AFA0A20FDF72CFB1E2112208B
:10313000FEF733FA0A20FDF725FB4FF4B1511020BA
:10314000FEF72BFA42F639211320FEF726FA0A2061
:10315000FDF718FB4FF480710120FEF71EFA4FF4C3
:1031600040710220FEF719FA41F238010320FEF700
:1031700014FA40F202210820FEF70FFA08210A2073
:10318000FEF70BFA00213020FEF707FA40F2024169
:103190003120FEF702FA4FF483713220FEF7FDF979
:1031A00002E05EE00803002040F203513320FEF706
:1031B000F4F94FF482713420FEF7EFF940F2013157
:1031C0003520FEF7EAF940F207713620FEF7E5F9FF
:1031D00040F205313720FEF7E0F94FF40271382054
:1031E000FEF7DBF940F60B713920FEF7D6F9022124
:1031F0004120FEF7D2F94FF41C516020FEF7CDF9C3
:1032000001216120FEF7C9F94FF404719020FEF707
:10321000C4F94FF485719220FEF7BFF90421932081
:10322000FEF7BBF94FF48071A020FEF7B6F901213B
:103230000720FEF7B2F921210720FEF7AEF923217E
:103240000720FEF7AAF933210720FEF7A6F940F27E
:1032500033110720FEF7A1F90021A020FEF79DF908
:10326000B4E0FE488088A0F58A413539F8D1302194
:103270001520FEF792F910219A20FEF78EF92021F1
:103280001120FEF78AF943F228411020FEF785F954
:1032900002211220FEF781F941F238011320FEF7D6
:1032A0007CF92820FDF76EFA12210846FEF775F921
:1032B0002820FDF767FA43F220411020FEF76DF950
:1032C00043F238011320FEF768F94620FDF75AFA59
:1032D00000213020FEF761F940F202413120FEF773
:1032E0005CF940F207313220FEF757F94FF4417193
:1032F0003320FEF752F904213420FEF74EF940F254
:1033000001413520FEF749F940F207713620FEF7FA
:1033100044F940F205313720FEF73FF94FF4C2611E
:103320003820FEF73AF94FF4C2613920FEF735F93B
:103330004FF480710120FEF730F94FF44071022004
:10334000FEF72BF941F230010320FEF726F940F693
:1033500008010820FEF721F908210A20FEF71DF9CF
:103360004FF41C516020FEF718F901216120FEF78F
:1033700014F94FF49F719020FEF70FF94FF480710C
:103380009220FEF70AF94FF480719320FEF705F9B9
:103390004FF44051A020FEF700F91021A320FEF7C2
:1033A000FCF801210720FEF7F8F821210720FEF79D
:1033B000F4F823210720FEF7F0F833210720FEF769
:1033C000ECF840F233110720FEF7E7F80020FEF793
:1033D00037FB0120A249086010BD70B504460026E5
:1033E0009E4805884088454300210846FEF702F9BB
:1033F000FEF7E3F800BF02E09A480480761CAE4274
:10340000FAD370BD2DE9F04F05460E461746984693
:10341000DDF824A04FF0000B781B401C1FFA80FB46
:10342000344613E021462846FEF7E4F8FEF7C5F8D7
:103430004FF0000906E05046FEF7A7F809F1010039
:103440001FFA80F9D945F6DB601C84B24445E9DDFA
:10345000BDE8F08F2DE9F84F07460D469046994696
:10346000DDF828B0A8EB0700401C80B20090A9EB63
:103470000500401C1FFA80FA002415E0281981B2CB
:103480003846FEF7B7F8FEF798F8002607E004FB89
:103490000A603BF8100073490880701C86B20098DF
:1034A0008642F4DB601C84B25445E7DBBDE8F88F4C
:1034B0002DE9FF4F84B081468A4600200390029098
:1034C0000698A0EB09050798A0EB0A06CDF8049032
:1034D000CDF800A0002D01DD012705E00DB9002782
:1034E00002E04FF0FF376D42002E02DD4FF0010881
:1034F00006E016B94FF0000802E04FF0FF387642C0
:10350000B54201DD2C4600E034464FF0000B21E0CF
:10351000009A91B2019A90B2FEF744FA03982844B7
:1035200003900298304402900398A04205DD03986E
:10353000001B03900198384401900298A04205DDD9
:103540000298001B02900098404400900BF101008B
:103550001FFA80FB601C8345DADD08B0BDE8F08F00
:10356000F0B504460D4616461F462B463246294600
:103570002046FFF79DFF3B46224629462046FFF79F
:1035800097FF3B46324639462046FFF791FF3B46C0
:10359000324629463046FFF78BFFF0BD2DE9F04358
:1035A00006460F469046002445460320A0EB4809F6
:1035B0003CE07A1B91B2321990B2FEF7F3F93A1B54
:1035C00091B2721990B2FEF7EDF93A1991B27219EF
:1035D00090B2FEF7E7F97A1991B2321990B2FEF77C
:1035E000E1F97A1991B2321B90B2FEF7DBF93A1980
:1035F00091B2721B90B2FEF7D5F97A1B91B2321BD1
:1036000090B2FEF7CFF93A1B91B2721B90B2FEF75F
:10361000C9F9641CB9F1000F03DAA000801D8144D0
:1036200004E0601B80000A3081446D1EAC42C0DDA6
:10363000BDE8F0832DE9F84F05460F4690461E463B
:1036400000970948B0F80090A8F1200000F0FF08AA
:103650000A98002857D1002452E0000008030020F7
:10366000808121420008006C300000200C2E07D120
:1036700008EB4800CD4901EB800010F804A004E0FD
:10368000CB4800EB081010F804A04FF0000B31E01D
:103690001AF0800F03D0C748A0F8009003E0C64896
:1036A0000088C449088039462846FEF77BF94FEA6E
:1036B0004A604FEA106A781C87B2C0480088A84266
:1036C00004DCBC48A0F80090BDE8F88F0098381AD8
:1036D000B0420BD1009F681C85B2B8480088A84250
:1036E00003DCB448A0F80090EEE706E00BF101001F
:1036F00000F0FF0BBBF1080FCADB00BF601CC4B2B7
:10370000B442B3DB44E0002440E00C2E07D108EBC8
:103710004800A64901EB800010F804A004E0A4488A
:1037200000EB081010F804A04FF0000B28E01AF08E
:10373000800F03D039462846FEF734F94FEA4A6035
:103740004FEA106A781C87B29C484088A84203DC84
:103750009848A0F80090B7E70098381AB0420BD10B
:10376000009F681C85B295480088A84203DC9148F8
:10377000A0F80090A8E706E00BF1010000F0FF0BB5
:10378000BBF1080FD3DB00BF601CC4B2B442BCDB8A
:103790008848A0F8009000BF96E710B502460120C7
:1037A00000E050430B00A1F10104E1B2F9D110BDDA
:1037B0002DE9FF4F81B0074691461E460E9D4FF002
:1037C000000A002439E0301B401EC1B20A20FFF776
:1037D000E4FFB9FBF0F00A21B0FBF1F201FB1208A3
:1037E000BAF1000F16D1701EA04213DDB8F1000F20
:1037F0000ED10020AB4605EBDB71491001FB0471D3
:10380000009088B22B4620220299FFF713FF12E0A6
:103810004FF0010A0020AB4605EBDB71491001FBBC
:103820000471009088B208F13001CAB22B460299A7
:10383000FFF700FF00BF601CC4B2B442C3DB05B099
:10384000BDE8F08F2DE9FF4F82B0064692461F4635
:10385000DDE90F480020019000254DE0781B401E57
:10386000C1B20A20FFF799FFBAFBF0F00A21B0FBC2
:10387000F1F201FB1209019850BB781EA84227DD26
:10388000B9F1000F22D118F0800F0FD008F001001D
:10389000A34604EBDB71491001FB0561009088B27F
:1038A000234630220399FFF7C5FE0EE008F0010021
:1038B000A34604EBDB71491001FB0561009088B25F
:1038C000234620220399FFF7B5FE13E00120019063
:1038D00008F00100A34604EBDB71491001FB056110
:1038E000009088B209F13001CAB223460399FFF76C
:1038F000A1FE00BF681CC5B2BD42AFDB06B0BDE88B
:10390000F08F2DE9F84704460D4690469946DDE9CB
:10391000096704F0FF0A08EB04001FFA80F809EBBE
:1039200005001FFA80F916E0444502DB5446A81949
:1039300085B24D4500DB14E0002000903A78334614
:1039400029462046FFF776FE304606EBD07104EBA1
:1039500061018CB27F1C38787E2802DC3878202800
:10396000E2DA00BFBDE8F88710B5FEF7E0F810BD59
:1039700001B5BDF800000F49088008BD01B5BDF8CC
:1039800000000D49088008BD70B504460D46164676
:10399000324629462046FEF713F870BD30B504467E
:1039A0000D4629462046FDF75DFE30BD00060108A4
:1039B000740A0108300000203200002008030020B3
:1039C000002100BF19E010F0800F03D00122614BED
:1039D0001A6002E000225F4B1A604FEA40624FEA31
:1039E00012604FF000025C4B1A604FF001025B4B1B
:1039F000C3F8842101F10102D1B20829E3DB704749
:103A000070B506460025002400205349086054493B
:103A1000C1F8A401534908603046FFF7D1FF0620E2
:103A2000FCF78DFE00204D49C1F884010120FCF710
:103A300086FE0120484908604FF000004749C1F860
:103A4000840100BF12E04FF6FF7000EA440400203A
:103A5000414908604FF001004049C1F884014248E3
:103A6000006808B1601C84B2681CC5B2102DEADB86
:103A7000241101203B490860204670BD2DE9FE431A
:103A800080460027002406E04046FFF7B9FF2DF8E6
:103A90001400601C84B2052CF6DB002416E0601CC8
:103AA00085B20FE03DF814003DF81510884207DD9F
:103AB0003DF814603DF815002DF814002DF8156040
:103AC000681C85B2052DEDDB601C84B2042CE6DB9E
:103AD0000027012405E03DF81400384487B2601C3B
:103AE00084B2042CF7DB032097FBF0F086B230465B
:103AF000BDE8FE8308B50121882001F015F80620F5
:103B0000ADF8000010208DF8030003208DF80200AE
:103B10006946164800F0ECFC0621144800F093FDBD
:103B20004FF40070ADF800006946114800F0E0FC69
:103B30004FF400710E4800F086FD4FF4A060ADF820
:103B4000000048208DF803006946094800F0D0FCC9
:103B500008BD0000A48123428481214200802142CB
:103B6000008023428881214220812342000C0140B1
:103B7000001C01400648804706480047FEE7FEE774
:103B8000FEE7FEE7FEE7FEE7FEE7FEE7FEE7FEE70D
:103B9000250200083101000831490143314A116012
:103BA000704770B5002100230F22C4780CB32D4C50
:103BB000246804F4E064C4F5E064210AC1F104035C
:103BC000CA40447804FA03F184781440214309017F
:103BD000254C0678A155047804F01F050124AC405B
:103BE00005786D114FF0E02606EB8505C5F800411C
:103BF00009E0047804F01F050124AC401B4D067851
:103C0000761145F8264070BD194A0A400243154B0B
:103C10001B1F1A60704739B1124A121D1268024305
:103C2000104B1B1D1A6006E00E4A121D12688243DB
:103C30000C4B1B1D1A607047042808D14FF0E0217F
:103C4000096941F004014FF0E022116107E04FF0F3
:103C5000E021096921F004014FF0E0221161704771
:103C60000000FA050CED00E000E400E080E100E077
:103C700080FFFF1F10B50446FA48844208D1012195
:103C8000401500F06BFF0021601500F067FF17E0A2
:103C9000F548844208D10121001500F05FFF0021A2
:103CA000201500F05BFF0BE0F048844208D10121B1
:103CB000C80300F053FF00214FF4004000F04EFF16
:103CC00010BD30B50246002000235068E84C20406B
:103CD0000D790C6844EA0524204350609068E54C57
:103CE0002040D1E902542C434D7944EA4504204355
:103CF0009060D06A20F470000C7C641EE4B2234310
:103D000040EA0350D06230BD002101600171417171
:103D10008160C16001210174704721B1826842F065
:103D20000102826003E0826822F001028260704733
:103D300021B1826842F48072826003E0826822F4DA
:103D400080728260704710B50023CBB21AB144680C
:103D50001C43446002E044689C43446010BD816899
:103D600041F0080181607047014600208A6812F026
:103D7000080F01D0012000E000207047816841F069
:103D8000040181607047014600208A6812F0040F28
:103D900001D0012000E00020704721B1826842F488
:103DA000A002826003E0826822F4A0028260704771
:103DB000014600208A6812F4800F01D0012000E043
:103DC0000020704710B50A4600210023416821F405
:103DD0006041531E41EA4331416010BD21B1426848
:103DE00042F40062426003E0426822F400624260F2
:103DF0007047F0B504460D4600200021092D11DD65
:103E0000E068A5F10A0606EB4607072606FA07F161
:103E10008843A5F10A0606EB460603FA06F10843B5
:103E2000E0600CE0206905EB4507072606FA07F17C
:103E3000884305EB450603FA06F108432061072A8B
:103E40000FDA606B561E06EB86071F2606FA07F18F
:103E50008843561E06EB860605FA06F108436063A2
:103E600022E00D2A0FDA206BD61F06EB86071F26ED
:103E700006FA07F18843D61F06EB860605FA06F117
:103E80000843206310E0E06AA2F10D0606EB860706
:103E90001F2606FA07F18843A2F10D0606EB8606F7
:103EA00005FA06F10843E062F0BD21B1826842F4F0
:103EB0008012826003E0826822F480128260704780
:103EC0000146C86C80B2704766484C300068704745
:103ED00021B1426842F48062426003E0426822F409
:103EE00080624260704721B1426842F48052426071
:103EF00003E0426822F48052426070470A46002183
:103F0000816821F4E04111438160704721B18268EA
:103F100042F40042826003E0826822F40042826040
:103F2000704721B1826842F40212826003E0826825
:103F300022F4021282607047014600208A6812F45F
:103F4000001F01D0012000E000207047F0B50446BA
:103F50001546002000220026092911DDE068A1F1A4
:103F60000A0707EB470C072707FA0CF29043A1F169
:103F70000A0707EB470703FA07F21043E0600CE07B
:103F8000206901EB410C072707FA0CF2904301EB83
:103F9000410703FA07F210432061A06BC0F30156FA
:103FA000EF1C06F1010CA7EB0C0707EB870C1F2792
:103FB00007FA0CF29043EF1C06F1010CA7EB0C077B
:103FC00007EB870701FA07F21043A063F0BD10B5B5
:103FD0000A4600210023816B21F44011531E41EA5F
:103FE0000351816310BD08B5002300930090009B2E
:103FF0000B440093009B1A6008BD08B502460020E0
:104000000090009201F12800009B18440090009855
:10401000006880B208BD0A4600214168164B19406D
:104020001143416070474162826270470A46002135
:10403000416821F01F0111434160704740B10949B7
:104040000831096841F40001064A0832116007E0AE
:1040500004490831096821F40001024A083211605C
:10406000704700000024014000280140003C01404E
:10407000FFFEF0FFFDF7F1FFFFFD3FFF02460020CE
:1040800013680B4201D0012000E000207047CA43B2
:104090000260704770B502460020002300240B1216
:1040A0005568CEB205EA060415681D4202D00CB16F
:1040B000012000E0002070BD00220A12D3430360FB
:1040C0007047000001684FF6FE7211400160002148
:1040D000016041608160C1608C49884208D18B4990
:1040E0000839496841F00F01884A083A51608AE06E
:1040F00086491431884208D184490839496841F019
:10410000F001824A083A51607DE0804928318842B6
:1041100008D17E490839496841F470617B4A083A00
:10412000516070E079493C31884208D177490839BB
:10413000496841F47041754A083A516063E0734937
:104140005031884208D171490839496841F47021D9
:104150006E4A083A516056E06C496431884208D191
:104160006A490839496841F47001684A083A51605F
:1041700049E066497831884208D16449083949687C
:1041800041F07061614A083A51603CE06049884200
:1041900006D1011F096841F00F01021F116032E0D2
:1041A0005B491431884208D15949091F096841F017
:1041B000F001574A121F116025E055492831884205
:1041C00008D15349091F096841F47061504A121F10
:1041D000116018E04E493C31884208D14C49091F12
:1041E000096841F470414A4A121F11600BE04849C6
:1041F0005031884207D14649091F096841F47021AE
:10420000434A121F1160704710B50022026847F63A
:10421000F0739A430C6A8B6823430C6923434C69FF
:1042200023438C692343CC6923434C6A23438C6A20
:1042300023431A430260CB6843600B6883604B687A
:10424000C36010BD0021016041608160C1600161F7
:1042500041618161C161016241628162704721B146
:10426000026842F00102026004E002684FF6FE7349
:104270001A40026070471AB103680B43036002E002
:1042800003688B430360704741607047014648688C
:1042900080B2704701460020002211F0805F03D0F9
:1042A0001B4B083B1A6802E0184B083B1A680A428D
:1042B00001D0012000E00020704710F0805F03D0A3
:1042C0001349091F086002E0104908394860704727
:1042D00001460020002211F0805F03D00C4B083B08
:1042E0001A6802E0094B083B1A680A4201D0012013
:1042F00000E00020704710F0805F03D00449091FE0
:10430000086002E00149083948607047080002402F
:1043100008040240002044490860091D0860091D86
:104320000860091D086041483F4914310860704722
:1043300000213D498279002A3AD00A461268036872
:104340009A430B461A600A1D126803689A430B1DB4
:104350001A60027911440A6803681A430A60324AF3
:104360000832126803689A432F4B08331A601A1DEB
:10437000126803689A432C4B0C331A604279102A56
:104380000ED11A1F126803681A43274B08331A60AC
:104390001A1D126803681A43234B0C331A600DE090
:1043A0002149427911440A6803681A430A6005E00A
:1043B000027911440A6803689A430A607047002131
:1043C000016001710C214171002181717047164912
:1043D000103109680143144A1032116070470146D8
:1043E0000020114A143212680A4201D0012000E074
:1043F000002070470C4914310860704701460020C6
:104400000022094B1B6803EA0102074B14331B68A7
:104410000B4202D00AB1012000E00020704702499F
:10442000143108607047000000040140FFFF0F00D6
:1044300010B50446CA48844208D10121042000F086
:104440008DFB0021042000F089FB46E0C548844232
:1044500008D10121082000F081FB0021082000F094
:104460007DFB3AE0C048844208D10121102000F0D1
:1044700075FB0021102000F071FB2EE0BB48844248
:1044800008D10121202000F069FB0021202000F04C
:1044900065FB22E0B648844208D10121402000F0AB
:1044A0005DFB0021402000F059FB16E0B14884423A
:1044B00008D10121802000F051FB0021802000F074
:1044C0004DFB0AE0AC48844207D10121801500F081
:1044D00045FB0021A01500F041FB10BD10B50121E6
:1044E000084600F03BFB0021012000F037FB10BD27
:1044F0002DE9F0410246002500260020002300247B
:10450000002791F803C00CF00F0591F803C01CF0D0
:10451000100F03D091F802C04CEA050591F800C0D5
:10452000BCF1000F31D0146800202BE04FF0010CDB
:104530000CFA00F3B1F800C00CEA03069E4220D149
:1045400083004FF00F0C0CFA03F7BC4305FA03FC91
:104550004CEA040491F803C0BCF1280F06D14FF0D7
:10456000010C0CFA00FCC2F814C00AE091F803C078
:10457000BCF1480F05D14FF0010C0CFA00FCC2F859
:1045800010C0401C0828D1D31460B1F800C0BCF1A1
:10459000FF0F34DD546800202EE000F1080C4FF0CE
:1045A000010808FA0CF3B1F800C00CEA03069E42B9
:1045B00021D183004FF00F0C0CFA03F7BC4305FA2E
:1045C00003FC4CEA040491F803C0BCF1280F05D1A8
:1045D00000F1080C08FA0CF8C2F8148091F803C036
:1045E000BCF1480F07D100F1080C4FF0010808FAA0
:1045F0000CF8C2F81080401C0828CED35460BDE8E7
:10460000F0814FF6FF710180022181700421C17099
:1046100070470246002093680B4201D0012000E061
:10462000002070470146886880B27047024600202B
:10463000D3680B4201D0012000E000207047014602
:10464000C86880B2704701617047416170470AB124
:10465000016100E041617047C16070474FF48032F2
:104660000A43826181618261826982697047024680
:104670000020424B18684FF68073184040EA021041
:1046800008433E4B186070473D49C8617047F0B51C
:104690000A46002300240021002500F00046B6F160
:1046A000004F02D1354EF16901E0344E7168C0F31C
:1046B000034583B200F44016B6F5401F08D121F03F
:1046C00070612E4E766826F070662C4F7E6012E088
:1046D00000F48016B6F5801F06D1032606FA05F40D
:1046E000A14341F0706106E0460D360103FA06F67B
:1046F000B14341F0706122B1460D360103FA06F66E
:10470000314300F00046B6F1004F02D11B4EF1617B
:1047100001E01A4E7160F0BD30B500228B071C0F0E
:104720000F2303FA04F2154B08338C1053F824308E
:104730009343124C08348D1044F8253023468C10D6
:1047400053F824308C07240F00FA04F423430B4C55
:1047500008348D1044F8253030BD0A490860704790
:1047600000080140000C014000100140001401400D
:1047700000180140001C01400020014000000140E1
:1047800000002042DC00204210B50121080700F0A3
:10479000F2F900214FF0805000F0EDF910BD2949E9
:1047A0000862704727490861704701460020264A81
:1047B000106820F0E000084310607047234908604B
:1047C000704710B5024600201F4B186820F0030008
:1047D000104318601E4B1B6843F004031C4C2360FD
:1047E000012901D130BF00E020BF194B1B6823F025
:1047F0000403174C236010BD1348006840F0040008
:10480000114908600846006840F00200086010483E
:10481000006840F004000E49086000BF00BF30BFD0
:10482000704701460020084A52680A4201D0012020
:1048300000E0002070470449096841EA8001024A0B
:104840001160704700000E4200700040A0000E4250
:1048500010ED00E0DD48006840F00100DB49086031
:1048600008464068DA490840D84948600846006868
:10487000D8490840D54908600846006820F48020DF
:1048800008600846406820F4FE0048604FF41F00AE
:1048900088607047CD49096821F48031CB4A1160A6
:1048A0001146096821F480211160B0F5803F03D0E2
:1048B000B0F5802F0ED106E0C449096841F480317B
:1048C000C24A116007E0C149096841F4A021BF4A0A
:1048D000116000E000BF00BF704710B50146002224
:1048E000002300204A11012A02D1B84C236806E0B7
:1048F000022A02D1B54C236A01E0B44C636A01F08C
:104900001F02012494401C4201D0012000E000203D
:1049100010BD38B5002000900024002500BF3120D4
:10492000FFF7DBFF05460098401C00900098B0F5AB
:10493000A06F01D0002DF2D03120FFF7CEFF08B1DB
:10494000012400E00024204638BD014600209F4A93
:10495000106820F0F80040EAC100106070479E49DE
:104960000860704702460020984B586820F47C107D
:1049700042EA01031843954B586070479649086610
:10498000704701460020914A506820F00300084318
:10499000506070478D48406800F00C007047014639
:1049A00000208A4A506820F0F000084350607047A9
:1049B00001460020854A506820F4E06008435060BA
:1049C000704701460020814A506820F4605040EA58
:1049D000C1005060704729B17C4A527A02437B4B38
:1049E0005A7204E0794A527A8243784B5A7270477D
:1049F0007A490860704701460020744A506820F4E4
:104A000040400843506070470021754A11706F4A5A
:104A100082F82010012802D0042808D103E00121E7
:104A20006F4A117004E005216D4A117000E000BF6B
:104A300000BF70476B49086070476449096A0143C9
:104A4000624A11627047674944390860704730B55F
:104A500000210022002400235C4D6D6805F00C014C
:104A600021B1042905D0082923D105E05E4D056058
:104A700022E05D4D05601FE0544D6D6805F4701235
:104A8000524D6D6805F48034022505EB92421CB945
:104A9000564D554305600BE04C4D6D6815F4003FD5
:104AA00003D0524D5543056002E04F4D554305601C
:104AB00002E04D4D056000BF00BF444D6D6805F03C
:104AC000F00109094A4D6B5C0568DD4045603F4DCA
:104AD0006D6805F4E061090A454D6B5C4568DD4091
:104AE00085603A4D6D6805F46051C90A404D6B5CB4
:104AF0004568DD40C560354D6D6805F44041890B62
:104B00003C4D6B5CC568B5FBF3F5056130BD29B163
:104B10002E4A526902432D4B5A6104E02B4A5269D6
:104B200082432A4B5A61704729B1284A926902434D
:104B3000264B9A6104E0254A92698243234B9A618D
:104B4000704729B1214AD2690243204BDA6104E05F
:104B50001E4AD26982431D4BDA61704729B11B4A54
:104B6000D2680243194BDA6004E0184AD2688243E3
:104B7000164BDA60704729B1144A12690243134B8D
:104B80001A6104E0114A12698243104B1A6170479E
:104B900014494039086070470F49C86470470B4991
:104BA000C87170470948406A40F080700749486200
:104BB000704701460020054A92680A4201D0012050
:104BC00000E00020704701498872704700100240E1
:104BD0000000FFF8FFFFF6FE00004242D80042420C
:104BE000201002408004424200127A0000093D0079
:104BF000340000204400002029B14F4A12880243AB
:104C00004D4B1A8004E04C4A128882434A4B1A806A
:104C100070474948001D008840F010004649091DB2
:104C2000088070474448001D00884FF6EF71084027
:104C30004149091D0880704700213F481C30018808
:104C4000001F008841EA0040704700B50246FFF7A8
:104C5000E0FF100C384918310880091D0A80FFF761
:104C6000E1FF00BD00B50246FFF7D3FFC2F30340EA
:104C7000314908310880091D0A80FFF7D3FF00BDC4
:104C800000B50246FFF7C5FF100C2B492031088004
:104C9000091D0A80FFF7C6FF00BD0020264910311C
:104CA00009880907080B244914310988084370470B
:104CB00000BF2148001D008810F0200FF9D0704778
:104CC0001D48001D00884FF6F77108401A49091D5C
:104CD000088000BF1848001D008810F0080FF9D0A8
:104CE000704701460020144A121D12880A4201D062
:104CF000012000E0002070470F49091D0988814309
:104D00000D4A121D11807047014600200A4A121DEB
:104D100012880A40D0B2084A12880A4202D008B16A
:104D2000012000E0002070470349091D09888143E4
:104D3000014A121D118070470028004010B504463A
:104D4000FE48844208D10121C014FFF707FF00216B
:104D5000E014FFF703FFC4E0B4F1804F08D1012154
:104D60000846FFF708FF00210120FFF704FFB8E025
:104D7000F348844208D101210220FFF7FCFE002104
:104D80000220FFF7F8FEACE0EE48844208D1012192
:104D90000420FFF7F0FE00210420FFF7ECFEA0E066
:104DA000E948844208D101210820FFF7E4FE0021F0
:104DB0000820FFF7E0FE94E0E448844208D1012196
:104DC0001020FFF7D8FE00211020FFF7D4FE88E066
:104DD000DF48844208D101212020FFF7CCFE0021CA
:104DE0002020FFF7C8FE7CE0DA48844208D1012188
:104DF0004014FFF7B3FE00216014FFF7AFFE70E030
:104E0000D548844209D10121C804FFF7A7FE00213B
:104E10004FF40020FFF7A2FE63E0D048844209D19E
:104E200001210805FFF79AFE00214FF48010FFF7DB
:104E300095FE56E0CA48844209D101214805FFF792
:104E40008DFE00214FF40010FFF788FE49E0C548B1
:104E5000844208D101214020FFF78DFE002140202F
:104E6000FFF789FE3DE0C048844208D1012180203F
:104E7000FFF781FE00218020FFF77DFE31E0BB4877
:104E8000844208D101218015FFF775FE0021A0158D
:104E9000FFF771FE25E0B648844209D101210804DC
:104EA000FFF75CFE00214FF48030FFF757FE18E05B
:104EB000B048844209D101214804FFF74FFE002188
:104EC0004FF40030FFF74AFE0BE0AB48844208D1B4
:104ED00001218804FFF742FE00214FF48020FFF7F4
:104EE0003DFE10BD00220288944B98420ED0994B93
:104EF00098420BD0B0F1804F08D0914B984205D02A
:104F0000904B984202D0904B984204D14FF68F7349
:104F10001A404B881A438D4B984207D08C4B9842CD
:104F200004D04FF6FF431A40CB881A4302808B8887
:104F300083850B880385814B98420BD0854B984223
:104F400008D08B4B984205D08A4B984202D08A4BAE
:104F5000984201D10B7A038601238382704770B592
:104F6000002400220023058C4FF6FE763540058490
:104F7000028C8388048B4FF68F752C40B51E2C4015
:104F80000D882C43751E2A400D892A434D882A43DB
:104F90006A4DA8420BD06F4DA84208D0744DA8426C
:104FA00005D0744DA84202D0734DA84213D14FF6DC
:104FB000F7752A404D892A434FF6FB752A408D88A4
:104FC0002A434FF6FF652B404FF6FF552B408D8946
:104FD0002B43CD892B4383800483CD88858602842F
:104FE00070BD70B5002400220023058C4FF6EF76CB
:104FF00035400584028C8388048B48F6FF752C406D
:105000004FF6FF452C400D884FF6FF7606EA052542
:105010002C434FF6DF752A400D8906EA05152A4311
:105020004D8806EA05152A43444DA84202D0494D51
:10503000A8421DD14FF67F752A404D894FF6FF7665
:1050400006EA05152A434FF6BF752A408D8806EA01
:1050500005152A434FF6FF352B404FF2FF752B40C5
:105060008D8906EA85052B43CD8906EA85052B4304
:1050700083800483CD880587028470BD70B50024C9
:1050800000220023058C4FF6FF6635400584028C14
:105090008388848B4FF68F752C404FF6FC752C401F
:1050A0000D882C434FF6FF552A400D894FF6FF76A9
:1050B00006EA05252A434D8806EA05252A431F4DA1
:1050C000A84202D0234DA8421DD14FF2FF752A40BD
:1050D0004D894FF6FF7606EA05252A434FF6FF3540
:1050E0002A408D8806EA05252A434EF6FF752B4097
:1050F0004DF6FF752B408D8906EA05152B43CD89AA
:1051000006EA05152B4383808483CD888587028436
:1051100070BD70B5002200230024058C4EF6FF768A
:1051200035400584038C8488828B48F6FF752A40BD
:105130004FF6FF452A400D8820E00000002C01407A
:105140000004004000080040000C00400010004037
:105150000014004000340140004C01400050014068
:105160000054014000180040001C00400020004096
:105170000040014000440140004801404FF6FF76E6
:1051800006EA05252A434DF6FF752B400D8906EAF0
:1051900005352B434D8806EA05352B43FA4DA842C9
:1051A00002D0FA4DA84208D14BF6FF752C408D89EC
:1051B0004FF6FF7606EA85152C4384808283CD88DE
:1051C000A0F84050038470BD828B4FF2FF331A4029
:1051D0008283828B4FF6FF7303EA01231A43828393
:1051E0007047F0B50C461546002200210026078CBA
:1051F0004EF6FF7C07EA0C070784828B018C4FF682
:10520000FF7707EA043640F6FF473A404FF6FF774C
:1052100007EA05273A434FF6FF7707EA03373A4391
:10522000D94FB8420ED0D94FB8420BD0B0F1804F11
:1052300008D0D74FB84205D0D64FB84202D0D64F8B
:10524000B84206D14DF6FF77394046F480573943CE
:1052500005E047F6FF57394044F4805739438283CD
:105260000184F0BD828B4FF6F3731A408283828BE8
:105270000A4382837047F0B50C4615460022002190
:105280000026078C4FF6FF6C07EA0C070784828B19
:10529000018C4FF6FF7707EA04264FF60C773A4069
:1052A0004FF6FF7707EA03172F433A43B64FB8424A
:1052B0000ED0B64FB8420BD0B0F1804F08D0B44FEB
:1052C000B84205D0B34FB84202D0B34FB84206D16E
:1052D0004FF6FF57394046F48077394305E04FF2E7
:1052E000FF57394044F48077394382830184F0BD0D
:1052F000028B4FF2FF331A400283028B4FF6FF738B
:1053000003EA01231A4302837047F0B50C461546A1
:10531000002200210026078C4FF6EF7C07EA0C07DD
:105320000784028B018C4FF6FF7707EA041640F6DC
:10533000FF473A404FF6FF7707EA03373A434FF605
:10534000FF7707EA05273A438F4FB8420ED08F4FB9
:10535000B8420BD0B0F1804F08D08D4FB84205D085
:105360008C4FB84202D08C4FB84206D14FF6DF774F
:10537000394046F01007394305E04FF65F77394072
:1053800044F01007394302830184F0BD028B4FF6CD
:10539000F3731A400283028B0A4302837047F0B50D
:1053A0000C46154600220021068C4FF6FE773E4043
:1053B0000684028B018C4FF60C7632407E1C06EA86
:1053C00003162E433243704EB0420ED06F4EB042A1
:1053D0000BD0B0F1804F08D06D4EB04205D06D4E6D
:1053E000B04202D06C4EB04206D14FF6FD7631404D
:1053F00044F00106314305E04FF6F576314044F0C4
:105400000106314302830184F0BD70B505460C46A8
:105410005D4885420ED05D4885420BD0B5F1804F86
:1054200008D05B48854205D05A48854202D05A4888
:10543000854200D100E000BF208850B92389A288AE
:1054400061882846FFF7ABFFE1882846FFF79EFFFB
:1054500025E0208804280AD12389A288618828466B
:10546000FFF753FFE1882846FFF742FF17E0208847
:1054700008280AD12389A28861882846FFF7FBFE05
:10548000E1882846FFF7EEFE09E02389A2886188BB
:105490002846FFF7A6FEE1882846FFF795FE70BD77
:1054A0002DE9F04105460C4600260127608808B921
:1054B000022600E00026A088012801D1022700E092
:1054C00001272088A0B92389A28861882846FFF790
:1054D00066FFE1882846FFF759FF23893A4631469F
:1054E0002846FFF712FFE1882846FFF701FF13E087
:1054F0002389A28861882846FFF707FFE1882846AC
:10550000FFF7F6FE23893A4631462846FFF747FF64
:10551000E1882846FFF73AFFBDE8F0810A884B880A
:105520001A438B881A43CB881A430B891A434B8939
:105530001A438B891A43A0F8442070474FF6FF7135
:10554000818000210180C18041800172704700216B
:10555000018041808180C180018141818181C1813F
:105560007047002101804180012181800021C1809C
:10557000018170470021018041808180C1800181CB
:105580004181818170470000002C014000340140BE
:105590000004004000080040000C004021B10288D7
:1055A00042F00102028004E002884FF6FE731A40C6
:1055B0000280704731B1B0F8442042F40042A0F8B4
:1055C000442005E0B0F84420C2F30E02A0F84420C5
:1055D00070471AB183890B43838102E083898B432F
:1055E000838170478182704741EA0203A0F8483006
:1055F00070471AB183890B43838102E083898B430F
:105600008381704701894FF6F8721140018170471C
:105610000A46002101894FF68F7319401143018119
:10562000704730B504460D4629462046FFF7F0FF87
:10563000208940F00700208130BD2DE9F04104466B
:105640000D4616461F46602D06D13B4601223146C7
:105650002046FFF75AFE05E03B4601223146204630
:10566000FFF79DFE29462046FFF7D2FF208940F034
:1056700007002081BDE8F08130B50C46002101898A
:10568000C9B24FF6FF7505EA0325154325432943A3
:10569000018130BD2DE9F04105460E46174698467A
:1056A000002443463A4631462846FFF7E5FF2C8959
:1056B0004FF6F870044044F007044FF68F70044032
:1056C00044F070042C81BDE8F081F0B504460D462D
:1056D00016461F463B46324629462046FFF7CCFF7A
:1056E000208940F480402081F0BD0185828270478E
:1056F0000A46002101884FF68F731940114301803B
:105700007047F0B50C4615461E46002100220023C6
:105710000189028B038C4FF6F877394021434FF60D
:10572000FC473A4040F201173A434FF6DD773B40E1
:105730004FF6FF7707EA06172F433B4301810283A9
:105740000384F0BD0A460021018B4FF68F73194088
:105750001143018370470A460021018B48F6FF730D
:1057600019404FF6FF7303EA022319430183704780
:105770000A460021818B4FF68F73194011438183B4
:1057800070470A460021818B48F6FF7319404FF697
:10579000FF7303EA022319438183704721B1028812
:1057A00042F08002028004E002884FF67F731A40C4
:1057B0000280704721B1828842F00402828004E0B6
:1057C00082884FF6FB731A408280704721B182882D
:1057D00042F00802828004E082884FF6F7731A4094
:1057E0008280704721B1828842F00102828004E009
:1057F00082884FF6FE731A40828070470A46002165
:10580000018B4FF6F77319401143018370470A4625
:105810000021018B4FF2FF7319404FF6FF7303EA2B
:1058200002231943018370470A460021818B4FF6FA
:10583000F77319401143818370470A460021818B19
:105840004FF2FF7319404FF6FF7303EA0223194327
:10585000818370470A460021018B4FF6FB73194084
:105860001143018370470A460021018B4FF6FF3335
:1058700019404FF6FF7303EA02231943018370476F
:105880000A460021818B4FF6FB7319401143818337
:1058900070470A460021818B4FF6FF3319404FF6BF
:1058A000FF7303EA02231943818370470A460021EC
:1058B000018B4FF67F7319401143018370470A46ED
:1058C0000021018BC1F30E014FF6FF7303EA02239F
:1058D0001943018370470A460021818B4FF67F737D
:1058E00019401143818370470A460021818BC1F31F
:1058F0000E014FF6FF7303EA0223194381837047B9
:105900000A460021018C4FF6FD73194011430184B2
:1059100070470A460021018C4FF6F7731940114376
:10592000018470470A460021018C4FF6DF7319404D
:105930004FF6FF7303EA02131943018470470A46C6
:105940000021018C4FF67F7319404FF6FF7303EA75
:1059500002131943018470470A460021018C4FF657
:10596000FF5319404FF6FF7303EA022319430184E2
:1059700070470A460021018C4FF2FF7319404FF621
:10598000FF7303EA02231943018470470A4600218A
:10599000018C4DF6FF7319404FF6FF7303EA023393
:1059A00019430184704730B5002301248C40A3B211
:1059B000048C9C430484048C02FA01F5ADB22C43A0
:1059C000048430BD30B5002304248C40A3B2048C81
:1059D0009C430484048C02FA01F5ADB22C43048488
:1059E00030BD70B50346002000241846183001254C
:1059F0008D40ACB21D8CA5431D8409B1082909D185
:105A000000EB6100056825F0700505600568154329
:105A100005600EE00D1FC5F34E052844056825F40A
:105A2000E045056005684FF6FF7606EA0226354335
:105A3000056070BD21B1028842F00202028004E0DC
:105A400002884FF6FD731A400280704721B1028828
:105A500042F00402028004E002884FF6FB731A4011
:105A60000280704721B1828842F08002828004E087
:105A700082884FF67F731A408280704702884FF603
:105A8000F7731A40028002880A43028070478288B6
:105A90004FF68F731A40828082880A438280704753
:105AA00002894FF6F8731A40028102890A43028183
:105AB000704702894FF67F731A40028102890A43B8
:105AC0000281704781847047818570478186704765
:105AD0000187704781877047A0F84010704702889F
