:020000040800F2
:10000000E80800208D3D0008F1020008F302000816
:10001000FF020008030300080703000800000000B7
:1000200000000000000000000000000001010008C6
:100030000B030008000000000D0300080F03000878
:10004000A73D0008A73D0008A73D0008392000088B
:10005000A73D0008A73D0008210F0008350F000844
:10006000490F00085D0F0008710F00087F0B0008A2
:10007000A73D0008A73D0008A73D0008C9310008BA
:10008000E92F0008A73D0008A73D0008A73D00088C
:10009000A73D0008A73D0008A73D0008850F000800
:1000A000A73D0008A73D0008A73D0008A51E0008C1
:1000B000B3330008A73D0008033D0008A73D000832
:1000C000A73D0008A73D0008A73D0008A73D000880
:1000D000A73D0008A73D0008F7020008A73D00085B
:1000E000031000082F200008A73D0008DFF80CD0FF
:1000F00007F0B2FB00480047E1030008E8080020D1
:100100001EF0040F0CBFEFF30880EFF3098003F03B
:1001100017BE00000CB50020019000906B480068ED
:1001200040F480306949086000BF6848006800F406
:10013000003000900198401C0190009818B9019877
:10014000B0F5A06FF1D16148006810F4003F02D013
:100150000120009001E0002000900098012842D189
:100160005B48006840F01000594908600846006884
:1001700020F0030008600846006840F002000860B4
:1001800052484068514948600846406848600846FF
:10019000406840F4806048600846406820F47C1065
:1001A00048600846406840F4E81048600846006827
:1001B00040F08070086000BF4448006810F0007F85
:1001C000FAD04248406820F00300404948600846A1
:1001D000406840F00200486000BF3C48406800F0C2
:1001E0000C000828F9D10CBD10B5FFF793FF10BD26
:1001F00010B53648006840F00100344908600846F0
:10020000406834490840314948600846006832492E
:1002100008402E4908600846006820F480200860E5
:100220000846406820F4FE0048604FF41F008860D4
:10023000FFF7DAFF4FF000602849086010BD10B5E5
:10024000002100200022214B5B6803F00C0121B14A
:10025000042906D0082928D107E0214B214C23602E
:1002600027E01F4B1F4C236023E0184B5B6803F40F
:100270007010164B5B6803F48032022303EB90404E
:1002800022B9194B4343174C23600DE00F4B5B68B9
:1002900013F4003F04D0144B4343124C236003E09B
:1002A0000F4B43430F4C236003E00D4B0D4C236079
:1002B00000BF00BF054B5B68C3F303130B4CE15C4D
:1002C000084B1B68CB40074C236010BD0010024058
:1002D000002002400000FFF8FFFFF6FE08ED00E0FE
:1002E00000127A000000002000093D0004000020F8
:1002F000704700BFFEE710B503F0AFF810BD00BFB8
:10030000FEE700BFFEE700BFFEE77047704770479B
:100310002DE9FC414149486C804730B34048414990
:100320000CC803C906F0CAFB04460D463E483D49C9
:100330000CC803C906F0C2FB064622462B4600F055
:1003400029F93A4805F0FBFF39493A48CDE9001050
:100350003648D0E90873D0E9005137483A468469F5
:100360002846A047354A03C200E000BFBDE8FC8133
:100370001FB52A480A21CDE902102D493048002234
:10038000304BCDE900101046990302F0B1F8234834
:100390002D4A2449836C2948984720484FF033322E
:1003A0002A4B446D10462A49A0471FBD10B500F0E6
:1003B00001FC28494FF4E13002F00AFE05F011FF7C
:1003C00000F056F8FFF7D4FF01F09AFD174805F04A
:1003D000B6FF214A214B0221174800F054FF10BDFF
:1003E0001CB5FFF7E3FF18E0FFF792FF00F0AAF952
:1003F00001F014FE1A490968401AB0F57A7F0CD949
:1004000001F00CFE16490860054803C8CDE900015B
:1004100005480CC813A002F0BEFCE5E72801002047
:10042000280000204000002020000020880100203B
:100430007B14AE47E17A843FF000002038000020B2
:10044000E17AA43F00003940180000203333EB3F2D
:100450003333EBBF10010020CDCCCCCCCCCCEC3F67
:10046000300000202534672C2534670A0000000086
:1004700010B5DE4802F0BDFBDC480022DC49D0F8B4
:10048000C43008209847D9480022D949D0F8C43050
:1004900009209847D5480022D549D0F8C4300A2011
:1004A0009847D2480022D249D0F8C4300B20984750
:1004B00010BD2DE9F04104460D464FF000021346F1
:1004C0002046294606F0E0FC30D24FF03332C94BCB
:1004D0002046294606F0F2FA04460D4620462946F3
:1004E00006F0E6FC0646C1483146D0F8C820082090
:1004F0009047C14AC14B2046294606F080FB07467B
:1005000006F0D6FC0646B9483146D0F8C8200A2085
:100510009047B6480021D0F8C82009209047B3483A
:100520000021D0F8C8200B20904731E04FF0333243
:10053000B04B2046294606F062FB04460D4685F086
:1005400000452046294606F0B3FC0646A74831463A
:10055000D0F8C82009209047A74AA84B2046294632
:1005600006F04DFB074606F0A3FC06469F483146C1
:10057000D0F8C8200B2090479C480021D0F8C82014
:100580000820904799480021D0F8C8200A209047B9
:10059000BDE8F0812DE9F04704460D4616461F469A
:1005A0004FF0000213462046294606F06DFC1AD291
:1005B0004FF033328F4B2046294606F07FFA04462F
:1005C0000D462046294606F073FC80468748414682
:1005D000D0F8C8200820904784480021D0F8C820CF
:1005E000092090471BE04FF03332824B20462946CA
:1005F00006F005FB04460D4685F0004520462946D9
:1006000006F056FC804679484146D0F8C8200920BB
:10061000904776480021D0F8C82008209047002253
:1006200013463046394606F02FFC1FD24FF03332C6
:10063000704B3046394606F041FA06460F466E4A80
:100640006E4B3046394606F0DAFA804606F030FC4A
:10065000824666485146D0F8C8200A209047634831
:100660000021D0F8C8200B20904720E04FF0333213
:10067000604B3046394606F0C2FA06460F4687F010
:1006800000475D4A5D4B3046394606F0B8FA804671
:1006900006F00EFC824655485146D0F8C8200B2083
:1006A000904752480021D0F8C8200A209047BDE862
:1006B000F08710B54D480021D0F8C8200A20904797
:1006C0004A480021D0F8C8200A2090474748002116
:1006D000D0F8C8200B20904744480021D0F8C8200B
:1006E0000B20904710BD2DE9F74F84B00C461546FE
:1006F000284606F06BFB06460022414B06F0F7FA4F
:1007000080468946204606F061FB064600223C4BA7
:1007100006F0EDFA82468B46049806F057FB064633
:100720000022374B06F0E3FACDE90089CDE902015A
:10073000344852465B46C66C0298B0476B2007B0FF
:10074000BDE8F08F10B530494868804700284CDD7F
:100750002D498868804730380A2845D2DFE800F004
:10076000101C36284444444444050021274A1160A3
:100770005160274A1160516000202649087033E01B
:1007800025492648214AC2E90010214AC2E9001041
:1007900001202049087027E01F4921481B4AC2E96F
:1007A00000101B4AC2E9001001201A4908701BE022
:1007B0004FF033311B48164AC2E900100021134A9A
:1007C000116051600020134908700DE00021104AAB
:1007D000116051604FF0333112480C4AC2E90010E9
:1007E00000200C49087000BF00BF10BDB8010020F8
:1007F00000409C463333C33F7B14AE47E17A943FBD
:1008000000408F4028010020100100202800002017
:1008100020000020480000209A9999999999B93FA1
:100820009999B9BF3333D33F0146102929D2DFE864
:1008300001F0080A0C0E10121416181A1C1E2022A1
:100840002426D5487047D448FCE7D348FAE7D24875
:10085000F8E7D148F6E7D048F4E7CF48F2E7CE48CA
:10086000F0E7CE48EEE7CD48ECE7CD48EAE7CC48E4
:10087000E8E7CB48E6E7CA48E4E7C948E2E7C84802
:10088000E0E70020DEE70146102929D2DFE801F089
:10089000080A0C0E10121416181A1C1E20222426E8
:1008A000012070470220FCE70420FAE70820F8E75F
:1008B0001020F6E72020F4E74020F2E78020F0E760
:1008C0000120EEE70220ECE70120EAE70220E8E75A
:1008D0000420E6E70820E4E71020E2E72020E0E734
:1008E0000020DEE770B500250022002619E0AD49A2
:1008F00009680968885DFFF797FF0446A6488442A7
:1009000002D102F001020AE0A448844202D102F0BE
:10091000020204E0A248844201D102F00402701CE9
:10092000C6B2A04800680079B042E0DC12F0010FC6
:1009300001D045F0040512F0020F01D045F0080582
:1009400012F0040F01D045F01005284670BD10B517
:1009500000209449096848710121934803F029FB5C
:1009600010BD024600210BE08E4800680068405C24
:10097000904203D18D4830F811007047481CC1B235
:100980008848006800798842EEDC0020F5E700B571
:100990008DB00121084604F0C6F9854803F09EFC9D
:1009A00081484C30029081480390002004907D489B
:1009B0000068007905900020069080200790400094
:1009C00008908000099077480068807908B120205D
:1009D00000E000200A904FF480500B9000200C9013
:1009E00002A9734803F01CFD01220221704803F0A4
:1009F0004EFD0B208DF8040000208DF805008DF8C9
:100A0000060001208DF8070001A803F0D6F90121A6
:100A1000674803F030FD0DB000BD70B586B00546E7
:100A200060480560AFF2C5005E490968C860AFF272
:100A3000E1005C4909688860FFF754FF40F40076E4
:100A40000121304604F07CF94FF4004004F0DFF857
:100A500000242CE0534800680068005D102801D194
:100A6000012000E000204F4909680968095D11294B
:100A700001D1012100E00021084300D015E04949DF
:100A800009680968085DFFF7FEFEADF80000002068
:100A90008DF80300434909680968085DFFF7C4FE43
:100AA0000646694603F030FE00BF601CC4B23D48F4
:100AB00000680079A042CDDC3B4803F0E7F9002054
:100AC000019001208DF808003648006880798DF883
:100AD00009004FF460200390002004903148006822
:100AE00000798DF8140001A92F4803F0F6F90024CD
:100AF00022E02C4800680068005D102801D1012028
:100B000000E00020274909680968095D112901D121
:100B1000012100E00021084302D0012003F09AFBEC
:100B2000601CC2B21F4800680068015D07231E48B0
:100B300003F06BFA601CC4B21A4800680079A04246
:100B4000D7DCFFF724FF0121174803F0FDF901214D
:100B5000154803F0EEF9144803F00DFA00BF1248EF
:100B600003F00EFA0028FAD10F4803F013FA00BF81
:100B70000D4803F014FA0028FAD106B070BD10B584
:100B8000022003F0B1FC30B1012006490968487128
:100B9000022003F0BCFC10BD00080140000C014025
:100BA000001001404C000020002401408802002079
:100BB0000800024010B56FF0040003F049F92D4819
:100BC00000682D49B0FBF1F02C4908700846007808
:100BD00000EB4001C1EBC0104FF6FF7101EAC0000D
:100BE0002749088010BD0146244A12784A434FF035
:100BF000E0235A6100229A611A46126942F001020A
:100C00001A6100BF4FF0E022106910F0010F02D00E
:100C100010F4803FF6D04FF0E022126922F001027A
:100C20004FF0E0231A6100229A6170470146144A8E
:100C300012884A434FF0E0235A6100229A611A4613
:100C4000126942F001021A6100BF4FF0E022106900
:100C500010F0010F02D010F4803FF6D04FF0E022E8
:100C6000126922F001024FF0E0231A6100229A611A
:100C7000704700000000002000127A0050000020A1
:100C8000520000200022818802E04910531CDAB291
:100C900011F0010FF9D0FE4B43F8220070470146D6
:100CA000FC4A881A91421AD009DCFB48081810D077
:100CB000B0F5806F0FD0B0F5006F18D10DE0B0F532
:100CC000806F0ED0B0F5006F0DD0B0F5406F0ED133
:100CD0000BE0002070470120FCE70220FAE7032028
:100CE000F8E70420F6E70520F4E70620F2E7002005
:100CF000F0E7014631B1012906D0022906D00329C7
:100D000008D105E0282070474820FCE74820FAE792
:100D10002820F8E70020F6E70146DE4A881A9142CB
:100D20001AD009DCDC48081810D0B0F5806F0FD05D
:100D3000B0F5006F19D10DE0B0F5806F0ED0B0F5B1
:100D4000006F0DD0B0F5406F0FD10BE0042070475D
:100D50000820FCE71020FAE72020F8E74020F6E71B
:100D60008020F4E74FF48070F1E70020EFE70146C0
:100D700031B1012906D0022906D0032908D105E0A6
:100D8000082070470C20FCE71020FAE71020F8E755
:100D90000020F6E70146002002E04910421CD0B2D4
:100DA00011F0010FF9D070470146102916DC042913
:100DB0000ED004DC012907D0022916D106E008294B
:100DC00008D0102911D107E0062070470720FCE762
:100DD0000820FAE70920F8E70A20F6E7B1F5007FD6
:100DE00001DC1720F1E72820EFE70020EDE72DE9EF
:100DF000FF4706460C4615461F46A848006890F86F
:100E0000C00000EB4000A549096841F82060A348F4
:100E1000006890F8C00000EB4000A049096801EBB1
:100E2000800084809D48006890F8C00000EB40007E
:100E30009A49096801EB800085719848006890F82C
:100E4000C00000EB40009549096801EB8000876015
:100E50009249096891F8C01001EB41018F4A12686C
:100E600002EB8100FFF70EFF8C48006890F8C0008D
:100E7000401C8A49096881F8C0003046FFF74CFFE2
:100E80008046012103F05CFF2846FFF732FF8DF812
:100E90000F0003208DF80E00ADF80C4003A930467A
:100EA00003F032FC2046FFF775FF80463046FFF71F
:100EB000F6FE8146414603F03BFD019400208DF88B
:100EC00008002846FFF753FF8DF8090001208DF830
:100ED0000A0001A803F038FB2046FFF765FFC0B207
:100EE0008DF8000001208DF8010000208DF802002F
:100EF00001208DF80300684602F05FFFBDE8FF8720
:100F000010B5044665480460AFF21D10C4F8C40073
:100F1000002084F8C0000121084603F011FF10BD35
:100F200010B55B4A1068126891688847012003F089
:100F300082FB10BD10B5564A5068526891688847C8
:100F4000022003F078FB10BD10B5514A90689268FA
:100F500091688847042003F06EFB10BD10B54C4A21
:100F6000D068D26891688847082003F064FB10BD00
:100F700010B5474A1069126991688847102003F03C
:100F80005AFB10BD10B54648006800F47874C4F3ED
:100F9000401038B13E4A5069526991688847202014
:100FA00003F049FBC4F3801038B1394A9069926963
:100FB00091688847402003F03EFBC4F3C01038B16D
:100FC000334AD069D26991688847802003F033FBA7
:100FD000C4F3002040B12E4A106A126A9168884713
:100FE0004FF4807003F027FBC4F3402040B1284A3F
:100FF000506A526A916888474FF4007003F01BFBF7
:1010000010BD10B52648006800F47C44C4F380206D
:1010100040B11F4A906A926A916888474FF4806095
:1010200003F009FBC4F3C02040B1194AD06AD26A68
:10103000916888474FF4006003F0FDFAC4F3003074
:1010400040B1134A106B126B916888474FF480507F
:1010500003F0F1FAC4F3403040B10D4A506B526BCB
:10106000916888474FF4005003F0E5FAC4F38030EC
:1010700040B1074A906B926B916888474FF480406B
:1010800003F0D9FAC4F3C03098B1014AD06B09E03B
:10109000AC0200200014014000F8FEBF5400002004
:1010A00014040140D26B916888474FF4004003F06C
:1010B000C2FA10BD2DE9F04F8FB004460D4616461A
:1010C0001F46DDE918AB4FF000018846894600BF96
:1010D00000BFFE480168D1E9040122462B46CDE954
:1010E000040105F08FFDCDE90601F8480168D1E95A
:1010F0000201CDE90401DDE9062305F086FDCDE915
:101100000801F2480168D1E90201CDE90601DDE9F3
:10111000082305F07AFDCDE90A0152465B46DDE978
:101120000A0105F072FD42464B46CDE9080105F083
:10113000C5FC80468946E5480168D1E9040122469C
:101140002B46CDE9000105F05DFDCDE90401DF4846
:101150000068C168806802460B46CDE900010020A6
:101160004FF0804105F051FDCDE90201DDE9042396
:1011700005F04BFD42464B46CDE9060105F09EFCCD
:1011800032463B46CDE9080105F098FCCDE90C015B
:1011900052465B46DDE90C0105F037FDCDE908015B
:1011A000CA48006841690069CDE90601DDE9082304
:1011B00005F084FCC54A1268C2E90401C34801680D
:1011C000D1E904010FB0BDE8F08F2DE9F04F8BB0ED
:1011D00004460D4616461F46DDE91489BB480168E2
:1011E000D1E902B142464B46584605F067FCCDE9CD
:1011F0000601B6480168D1E902B15846DDE9062387
:1012000005F075FDCDE9080105F052FE8246514614
:101210004FF07E5005F04CFC834605F00EFE224652
:101220002B46CDE9040105F0F0FC42464B46CDE9E2
:1012300008013046394605F0E8FCCDE90001A34835
:101240000068D0E904B35A46009805F037FCCDE9B0
:101250000401504605F0F1FDCDE90201DDE904236A
:1012600005F0D3FCCDE90601DDE9082305F026FCF5
:10127000964A1268C2E9040194480168D1E9040160
:101280000BB0BDE8F08F70B5904C206024682170E1
:101290008E4C2468C4E9022300258C4E36683561E3
:1012A0007561012905D1AFF2DD04884D2D68AC616F
:1012B00004E0AFF2FF14854D2D68AC6170BD844A27
:1012C0001268C2E9060170472DE9F04F8BB006465F
:1012D0000F4690469946DDE914457D480068D0E9FF
:1012E00008A352464046494605F089FC784A1268F0
:1012F000C2E90A0176480068D0E90AA352462046AE
:10130000294605F082FCCDE9080171480068D0E962
:1013100006A35246089805F0D1FB6D4A1268C2E94F
:1013200006016B480068D0E912A3524620462946C0
:1013300005F06BFCCDE9000165480068D0E90EA31B
:101340005246009805F05BFCCDE902016048016857
:10135000D1E910A35246DDE9020105F050FCCDE9C8
:1013600004015B480068D0E900A35246049805F0E8
:10137000A5FB22462B46CDE9060105F046FCCDE94A
:10138000080153480168D1E90CA35246DDE9080180
:1013900005F094FB4E4A1268C2E90C014C48006803
:1013A000D0E912A352462046294605F02EFCCDE98D
:1013B000080147480168D1E90EA35246DDE908015A
:1013C00005F020FC424A1268C2E90E01404800685C
:1013D00000F14001806CC96822462B46CDE9080126
:1013E00005F013FC82460B4639480168D1E910012B
:1013F0005246CDE9080105F002FC354A1268C2E9FF
:10140000100133480168D1E902A122462B4650461B
:1014100005F0FBFBCDE908012D480068D0E912A3D7
:101420005246089805F04AFB294A1268C2E912019F
:101430002748006841690069CDE90801244801682E
:10144000D1E90CA15046DDE9082305F037FB204A1D
:101450001268C2E91A011E480068D0E91AA31C48A4
:101460000068416B006B5246CDE9080105F03FFC76
:10147000174A1268C2E9140115480068C16E806EEF
:10148000CDE9080112480068D0E910AB0B46504680
:101490005946089A05F02BFC0D4A1268C2E916015C
:1014A0000B480068D0E906A352463046394605F09D
:1014B000A6FB074A1268C2E9180105480068D0E98E
:1014C00018A303480068416D006D03E05C00002034
:1014D000580000205246CDE9060105F096FBCDE903
:1014E00008017E480068D0E906A35246089805F036
:1014F000E5FA7A4A1268C2E9060178480068416E46
:10150000006ECDE9060175480068D0E916AB0B46C0
:1015100050465946069A05F078FBCDE908016F4818
:101520000068D0E908A35246089805F0C7FA6B4A4C
:101530001268C2E9080169480168D1E90C01CDE9E6
:10154000060166480068D0E914AB0B465046594680
:10155000069A05F05AFBCDE9080160480168D1E917
:101560000CA35246DDE9080105F04CFB5B4A12680A
:10157000C2E90C0159480068D0E90EA35748006839
:10158000416D006D5246CDE9060105F03EFBCDE907
:10159000080152480168D1E90EA35246DDE908016D
:1015A00005F030FB4D4A1268C2E90E014B48016854
:1015B000D1E90C01CDE9060148480168D1E916A13D
:1015C0005046DDE9062305F020FBCDE9080143483C
:1015D0000168D1E910A35246DDE9080105F012FBCC
:1015E0003E4A1268C2E910013C480068D0E90EA3E7
:1015F0003A480168D1E916015246CDE9060105F0E5
:1016000004FBCDE9080135480068D0E912A3524631
:10161000089805F0F7FA314A1268C2E912012F481A
:101620000168D1E906010BB0BDE8F08F2B490860D5
:10163000AFF26B310167AFF279314167284A29492E
:10164000264B1B68C3E90021274A2849234B1B6806
:10165000C3E90221264A2749204B1B68C3E904211C
:1016600000221E4B1B689A61DA6100211B4B1B682C
:1016700019625962194B1B681A635A63174B1B682E
:101680009963D963154B1B681A645A640023134984
:1016900009688B64CB64704710480168D1E90A017E
:1016A00070470E4A126803C270470C4A1268C2E9BA
:1016B00002017047094A1268C2E9040170470748ED
:1016C000016803C9704705480168D1E90201704704
:1016D00002480168D1E90401704700005800002069
:1016E000FCA9F1D24D62503FFA7E6ABC7493683F08
:1016F000B81E85EB51B89E3F01460A2901DA042045
:1017000070470820FCE701460A2901DAFE487047C5
:10171000FE48FCE7014610292FD2DFE801F0080B54
:101720000E111416181A1C1E20222426282B4FF4E2
:10173000807070474FF40070FBE74FF48060F8E76B
:101740004FF40060F5E70120F3E70220F1E7042001
:10175000EFE70820EDE74020EBE78020E9E70120F4
:10176000E7E70220E5E74020E3E78020E1E74FF4E8
:101770008070DEE74FF40070DBE7FF20D9E7014619
:10178000042901DAE2487047082902DA4FF0804064
:10179000F9E70C2901DADF48F5E7DF48F3E701460E
:1017A000042902DA4FF400607047082901DA0120A9
:1017B000FAE70C2901DA0220F6E70420F4E70146F3
:1017C000042901DA1B207047082901DA1C20FAE7F6
:1017D0000C2901DA1D20F6E71E20F4E70146CA179E
:1017E00001EB92729210B1EB820201D1022070479C
:1017F000481EC21700EB92729210B0EB820201D128
:101800000420F4E7881EC21700EB92729210B0EB2E
:10181000820201D10820EAE7C81EC21700EB9272CB
:101820009210B0EB820201D11020E0E70020DEE749
:101830000146CA1701EB92729210B1EB820201D1FC
:1018400000207047481EC21700EB92729210B0EB56
:10185000820201D10420F4E7881EC21700EB9272C5
:101860009210B0EB820201D10820EAE7C81EC2172D
:1018700000EB92729210B0EB820201D10C20E0E7F3
:101880000020DEE7014631B1012906D0022906D049
:10189000032908D105E0002070470220FCE7002062
:1018A000FAE70220F8E70020F6E70246002110E000
:1018B000C1EBC100994B1B6813F83000904206D170
:1018C000C1EBC100954B1B6803EBC0007047481C7F
:1018D000C1B29248006890F88C038842E8DC00208E
:1018E000F4E770B504460D462046FFF748FF06466C
:1018F000E11704EB91718910B4EB810104D1294601
:10190000304604F009F925E0601EC11700EB917123
:101910008910B0EB810104D12946304604F00EF95C
:1019200018E0A01EC11700EB91718910B0EB810186
:1019300004D12946304604F01BF90BE0E01EC11724
:1019400000EB91718910B0EB810103D1294630463B
:1019500004F028F970BD00B502461046FFF70FFFEE
:101960000346D11702EB91718910B2EB810101D1CD
:10197000988E00BD501EC11700EB91718910B0EB1D
:10198000810101D1188FF4E7901EC11700EB91710E
:101990008910B0EB810101D1988FEAE7D01EC11701
:1019A00000EB91718910B0EB810102D1B3F84000D6
:1019B000DFE70020DDE72DE9F04F8BB081468A4656
:1019C00015461E464846FFF7EAFE83465348006820
:1019D00090F88C03C0EBC0005049096801EBC004CB
:1019E0004E48006890F88C03401C4C49096881F807
:1019F0008C0384F8009000214948C4E90810C4E928
:101A0000025684F818A0002020616061012000FACD
:101A100009F044490968084342490860012000FA76
:101A200009F0096808433F490860BBF5006F04D11D
:101A30000121584603F084F903E00121584603F0E0
:101A40008CF94846FFF758FE0746012103F078F964
:101A50002078FFF75FFEADF81800207E08B901205E
:101A600000E00020217E022901D1012100E00021B7
:101A7000084303D028208DF81B0002E048208DF891
:101A80001B0003208DF81A002078FFF73CFE074664
:101A900006A902F039FE4FF6FF70ADF810002A4695
:101AA00033460020204905F0B0F8074600221F4BBE
:101AB00005F0A5F8CDE9000105F0A6F980B2ADF872
:101AC0000C000020ADF81200ADF80E004846FFF7FC
:101AD00056FE074603A903F011FB4846FFF7A8FE90
:101AE000ADF81C00207EFFF7CDFEADF81E000120F2
:101AF000ADF820000020ADF82200ADF824004846E3
:101B0000FFF73DFE074613E000080140000C0140CE
:101B1000002C014000040040000800406800002044
:101B20000000F0BF60000020000052400000F03FC5
:101B300007A903F076FD4846FFF741FEC0B28DF8D5
:101B4000080000208DF809008DF80A0001208DF8AA
:101B50000B0002A802F031F94846FFF710FEE249F7
:101B600088420DD119208DF8080000208DF8090059
:101B70008DF80A0001208DF80B0002A802F01DF973
:101B80004846FFF72BFE80B240F001074846FFF7BA
:101B9000F6FD80460122394603F027FE4846FFF74E
:101BA000EEFD0746012103F005FE4846FFF7E7FD7D
:101BB0000746012104F0D8F80BB0BDE8F08F30B52E
:101BC00005460C462846FFF770FE046130BD30B56F
:101BD00005460C462846FFF768FE446130BDC34900
:101BE0000860AFF22D21C14A1268C2F880130021AB
:101BF000BE4A126882F88C13AFF23D01BB4A1268EC
:101C0000C2F88413AFF23901B84A1268C2F88813D7
:101C100070470146B64800EB0110007800F08000E4
:101C2000704710B504462046FFF73FFE0146006AA4
:101C3000496A10BD2DE9F04F87B00646AC4800EB6D
:101C4000061400EB061000F10409A94800EB061089
:101C500000F1080AA64800EB061000F10C0B304614
:101C6000FFF78DFD05903046FFF71FFE0546287EE5
:101C700008B9012000E00020297E022901D10121BC
:101C800000E00021084306D00020ADF8100002203B
:101C9000ADF8120005E00020ADF812000220ADF80A
:101CA0001000207810F0800F76D10121059804F003
:101CB0004AF8C0B1207800F04000218801F480711A
:101CC000084310D0207800F03F003F2808D120685A
:101CD00040F08000206000218648C5E9081002E03D
:101CE0002068401C20603046FFF778FD87B23946F7
:101CF000059804F028F800284ED0207810F0400F06
:101D00004BD0287E022801D1012000E00020297E4E
:101D1000032901D1012100E00021084312D02068ED
:101D200020F040002060206840F480702060304641
:101D3000FFF711FE217801F03F0100EB0140CAF8E6
:101D4000000024E0206840F0800020603046FFF76B
:101D500002FE217801F03F0100EB0140CAF80000CB
:101D6000DAF80010D9F80020881A05F040F8CDE91B
:101D70000201D5E902733A4604F047FFC5E90801BC
:101D8000286910B128462969884700202060BDF8DD
:101D900010103046FFF7A5FD61E0208810F4807F29
:101DA0004DD03046FFF7D7FD0746207800F03F00C2
:101DB00007EB0040CBF80000BDF812103046FFF7EB
:101DC00090FDDBF80010D9F80020881A05F00FF814
:101DD000CDE90201D5E90201CDE90001DDE90223E7
:101DE00004F013FFC5E90801DAF80010D9F8002063
:101DF000881A04F0FCFFCDE90201D5E90201CDE922
:101E00000001DDE9022304F000FFC5E90C01D5E97A
:101E10000801CDE90201D5E90C01CDE90001DDE9B8
:101E2000022304F064FFC5E90A01286910B12846BD
:101E300029698847C9F80070402020600FE0002021
:101E400020603046FFF787FDC9F80000206840F0A9
:101E500040002060BDF812103046FFF742FD00221E
:101E6000244BD5E90871384604F0FAFF0FD16869B0
:101E700010B128466969884700202060BDF810101D
:101E80003046FFF72EFD00211B48C5E908103046FB
:101E9000FFF7A4FC87B23946059803F065FF07B049
:101EA000BDE8F08F10B51548007810F0010F02D092
:101EB0000020FFF7BFFE11480078C0F3400010B1CA
:101EC0000120FFF7B7FE0D480078C0F3800010B185
:101ED0000220FFF7AFFE09480078C0F3C00010B140
:101EE0000320FFF7A7FE10BD002C01406800002072
:101EF000EC02002000408FC00000F0BF6000002016
:101F000008B501214FF0C05002F027FF012002F078
:101F100052FD4FF4407002F09CFE012002F09FFE43
:101F200002F0D2FF02F0D8FF02F07FFF3E2002F065
:101F3000A5FF02F0C9FF002002F093FF02F0C4FFEA
:101F40004FF6FF704449088002F0BEFF4FF6FF7065
:101F50004149091D088002F0B7FF0121022002F06B
:101F600057FF3D481C38008800F002003A491C39F0
:101F7000088002F0A9FF02F061FF29208DF800001F
:101F800000208DF801008DF8020001208DF803007B
:101F9000684601F012FF03208DF8000000208DF844
:101FA00001008DF8020001208DF80300684601F061
:101FB00004FF08BD2DE9F04107460C462648001FE6
:101FC000008825490839098800EB0140C51902F04D
:101FD0007BFF02F02AFF2048001F00881E490839B5
:101FE000098800EB01461C49091F0E8002F06CFFB6
:101FF000300C19490839088002F066FF280C164990
:10200000088002F061FF1449091D0D8002F05CFF99
:1020100002F014FF11480460BDE8F0810E48001F73
:1020200000880D490839098800EB0140704710B558
:10203000022002F085FF10BD10B5022002F070FFF3
:10204000012808D1022002F07BFF0448006810B18B
:1020500002480068804710BD202800406C00002026
:102060002DE9FC5F04460D4616461F46DDE90C8946
:102070004FF0000213462046294604F0F1FE0DD32E
:10208000002213463046394604F0EAFE06D3002209
:1020900013464046494604F0E3FE01D2BDE8FC9FEA
:1020A000FC48006830C0FB480068C0E90267F94896
:1020B0000068C0E90489F7490968886A04F097FE56
:1020C0000022F54BCDE9000104F011FE82468B465B
:1020D000F24830C052465B463046394604F095FD22
:1020E000EF4A03C252465B464046494604F0FFFDB4
:1020F000EC4A03C2E74800688069012817D1E74825
:102100000CC80020014604F07AFDE44A03C2E4480A
:102110000CC80020014604F072FDE14A03C2E14808
:102120000CC80020014604F06AFDDE4A03C200BF6D
:10213000B4E72DE9F0478246BAF1000F25DDD54915
:102140000968886A04F053FE06460F46504604F0BC
:102150003DFE804632463B4604F0C9FD04460D462E
:1021600022462B46CE4903C904F04FFDCC4A03C298
:1021700022462B46CB4903C904F0B9FDC94A03C224
:10218000C4480068C0F828A000BFBDE8F0872DE96A
:10219000F05F04460D4616461F4632463B46204633
:1021A000294604F071FE01D8BDE8F09FB9480068E7
:1021B000C0E90C45B7480068C0E90E67B54800683B
:1021C00090F84000002850D0B2480068D0E90E8353
:1021D000B0480068016AD1E900A14246504604F0C7
:1021E00053FE09D2AB480068D0E90E10A94A126824
:1021F000126AC2E9001016E0A6480068D0E90C8314
:10220000A4480068016AD1E900A14246504604F0A2
:1022100027FE08D29F480068D0E90C109D4A12683A
:10222000126AC2E900109B480068D0E90E8342465A
:102230009D4903C904F028FE07D296480068D0E9FA
:102240000E10994AC2E900100FE092480068D0E9E8
:102250000C834246944903C904F002FE05D28D481E
:102260000168D1E90C01904A03C200BF9CE770B538
:1022700088480068016A03C98B4A03C28548006820
:10228000C069D0E90010894AC2E90010814800689D
:10229000D0E90E432246844903C904F0F5FD07D274
:1022A0007C480068D0E90E107F4AC2E9001010E0B7
:1022B00078480068D0E90C4322467B4903C904F002
:1022C000CFFD06D273480068D0E90C10764AC2E907
:1022D000001070BD70B50446012C00D100E0002054
:1022E00005466C48006890F8400008B9012000E0FD
:1022F0000020A84201D1FFF7BAFF6648006880F8C5
:10230000405070BD634B1B68D861624B1B681962FB
:10231000604B1B685A62704710B504465D48006800
:1023200090F84000E0B15B4800688069A04217D097
:102330005A480CC80020014604F061FC574A03C209
:1023400057480CC80020014604F059FC544A03C207
:1023500054480CC80020014604F051FC514A03C205
:102360004C480068846110BD2DE9F04F89B04948A0
:10237000006890F8400018B9002009B0BDE8F08F5F
:10238000FFF74CFE82464A490968AAEB010B414817
:102390000068806A58457CD83E480068C069C0C85B
:1023A0003C480068416A03C932463B46CDE9040116
:1023B00004F025FCCDE906013949DDE9062303C90E
:1023C00004F023FCCDE9040137480CC8049804F05C
:1023D00075FB354A03C22F480168D1E90E01024658
:1023E0000B46CDE90401304903C904F04DFD06D286
:1023F00028480168D1E90E012B4A03C212E02548A2
:102400000168D1E90C0102460B46CDE904012649D9
:1024100003C904F025FD05D21E480168D1E90C016D
:10242000214A03C221480CC83046394604F0E7FB74
:102430008046894642464B461A4903C904F0E5FBEB
:10244000CDE904011549DDE9062303C904F0DDFBEC
:10245000CDE9000114480CC8009804F02FFBCDE929
:102460000201DDE9042304F0CAFB04460D460948D5
:102470000068C16B806B02460B46CDE90401204623
:10248000294604F001FD15D202480068D0E90E4546
:1024900021E02BE0A000002000408F4088000020B9
:1024A000900000209800002078000020800000208C
:1024B000700000203A480168D1E90C02CDE904021D
:1024C000024620462946059B04F0CAFC03D2344844
:1024D0000068D0E90C4532480068006A30C03148D5
:1024E000C0C03148C0F800A0012046E7002044E702
:1024F0002DE9FC5F04460D4616461F46DDE90EAB8E
:10250000DDE90C892648C0F800B00068C0F828A0B2
:1025100032463B4620462946CDE90089FFF7A0FD1B
:10252000AFF2BB101E4909684864AFF2CB401C49AA
:102530000968C864AFF21F2019490968C865AFF27D
:102540003B20174909688864AFF27720144909686D
:102550008865AFF2C530124909684865AFF22D4071
:102560000F490968086500200D4909688861012044
:102570000B49096881F8400000210C48084A12689C
:10258000C2E90E100A48064A1268C2E90C10FFF7A9
:1025900045FDA0EB0A0004490860BDE8FC9F00006F
:1025A000A0000020800000207000002000E06F40AC
:1025B00000E06FC001460A2901DA042070470820B4
:1025C000FCE701460A2901DAFE487047FE48FCE7AD
:1025D000014610292FD2DFE801F0080B0E11141666
:1025E000181A1C1E20222426282B4FF480707047B6
:1025F0004FF40070FBE74FF48060F8E74FF40060A1
:10260000F5E70120F3E70220F1E70420EFE70820D7
:10261000EDE74020EBE78020E9E70120E7E7022033
:10262000E5E74020E3E78020E1E74FF48070DEE754
:102630004FF40070DBE7FF20D9E70146042901DAF7
:10264000E2487047082902DA4FF08040F9E70C2988
:1026500001DADF48F5E7DF48F3E70146042902DA4B
:102660004FF400607047082901DA0120FAE70C29CD
:1026700001DA0220F6E70420F4E770B504460D46BF
:102680002046FFF7DAFF0646E11704EB9171891047
:10269000B4EB810104D12946304602F06CFD25E0FF
:1026A000601EC11700EB91718910B0EB810104D15C
:1026B0002946304602F0A1FD18E0A01EC11700EB2C
:1026C00091718910B0EB810104D12946304602F0A6
:1026D000E1FD0BE0E01EC11700EB91718910B0EB3A
:1026E000810103D12946304602F01FFE70BD70B54E
:1026F00004460D462046FFF7A0FF0646E11704EB0F
:1027000091718910B4EB810104D12946304603F060
:1027100081F925E0601EC11700EB91718910B0EBC3
:10272000810104D12946304603F07DF918E0A01E4E
:10273000C11700EB91718910B0EB810104D12946DA
:10274000304603F07DF90BE0E01EC11700EB9171FC
:102750008910B0EB810103D12946304603F079F9A5
:1027600070BD00B50346187AFFF767FF0246974829
:10277000824202D10020984900BDB2F1804F02D1BF
:1027800000209549F8E79248824202D100209349FF
:10279000F2E79048824202D100208F49ECE7002006
:1027A0000146E9E700B50346187AFFF746FF0246FF
:1027B0008648824202D10020894900BDB2F1804F93
:1027C00002D100208649F8E78148824202D10020E8
:1027D0008449F2E77F48824202D100208049ECE739
:1027E00000200146E9E72DE9F04F87B082468B468D
:1027F000584604F022FB06460F46DAF8000004F0C3
:102800001CFBCDE900015046FFF7CCFF8046DDE917
:10281000002304F06CFA32463B46CDE9020104F095
:10282000F4F9044604F0F0FA80B205909AF8080032
:10283000FFF703FF04909AF80800C11700EB9171AD
:102840008910B0EB810108D19AF80800FFF7F5FE76
:102850000446059903F046FA37E09AF80810481E36
:10286000C11700EB91718910B0EB810108D19AF882
:102870000800FFF7E2FE0446059903F035FA24E06C
:102880009AF80810881EC11700EB91718910B0EBFF
:10289000810108D19AF80800FFF7CFFE0446059998
:1028A00003F024FA11E09AF80810C81EC11700EBD3
:1028B00091718910B0EB810107D19AF80800FFF7F8
:1028C000BCFE0446059903F013FA07B0BDE8F08F8B
:1028D0002DE9F04F8DB00446207AFFF7BEFE814609
:1028E000B9F5006F04D10121484602F029FA03E04E
:1028F0000121484602F031FA207AFFF75BFE0546D7
:10290000012102F01DFA207AFFF762FEADF82C00DB
:1029100018208DF82F0003208DF82E00207AFFF765
:1029200050FE05460BA901F0EFFE206804F085FA81
:1029300082468B462046FFF735FF054652465B46EA
:1029400004F0D5F9074604F05FFA80B2ADF8240030
:102950002046FFF706FF07460022204B04F04FF900
:10296000054604F051FA80B2ADF820000020ADF821
:102970002600ADF82200207AFFF75FFE054608A981
:1029800002F0BCFB207AFFF758FE1049884206D1BE
:102990006020ADF810000020ADF8140002E06020C7
:1029A000ADF810000120ADF81200606804F045FA9F
:1029B00082468B46206804F040FA05460E462046C3
:1029C00012E0000000080140000C0140002C014012
:1029D0000004004000080040000052400000F03FAA
:1029E00080842E41882A9141FFF7DCFE07462A4663
:1029F000334604F07CF952465B46CDE9000104F011
:102A000004F9CDE9020104F0FFF980B2ADF8160037
:102A10000020ADF81800207A04A9FFF72EFE207AD6
:102A2000FFF70BFE0546012102F0C4FE207AFFF7F6
:102A300004FE7A49884202D1012102F0C7FE207AC1
:102A4000FFF7FBFD0546002102F0B4FF207A0021CC
:102A5000FFF74DFE0DB0BDE8F08F2DE9FC47814634
:102A60008A46002444E004EB44006D49096801EB08
:102A70008000007A484539D104EB44006849096870
:102A800041F820A004EB4401654A126852F8210085
:102A900004F0D3F905460E4604EB4401604A12687F
:102AA00002EB8100FFF77EFE07462A46334604F01C
:102AB0001EF9CDE9000104F0A7F982B24846FFF7FC
:102AC000BCFD828504EB4402554B1B6803EB82027C
:102AD000516804EB4402524B1B6803EB8200FFF782
:102AE00082FE4846FFF7A9FD00218184601CC4B224
:102AF0004B48006890F8C000A042B4DCBDE8FC87F9
:102B000070B505460E46002400BF1AE004EB4400F1
:102B10004349096801EB8000007AA8420FD104EB19
:102B200044003F49096801EB8000466004EB440122
:102B30003B4A126802EB81003146FFF754FE601CED
:102B4000C4B23748006890F8C000A042DEDC70BD17
:102B50002DE9F04104460E46174600250CE005EB32
:102B600045002F49096801EB8000007AA04201D19D
:102B7000BDE8F081681CC5B22948006890F8C00023
:102B8000A842ECDC2648006890F8C00000EB40004A
:102B90002349096841F820602148006890F8C00086
:102BA00000EB40001E49096801EB800047601C48AB
:102BB000006890F8C00000EB40001949096801EB7B
:102BC000800004721649096891F8C01001EB4101B8
:102BD000134A126802EB8100FFF77AFE1048006882
:102BE00090F8C000401C0E49096881F8C00000BF81
:102BF000BEE70B4908600021094A126882F8C0103C
:102C0000AFF2B30140F8C41FAFF20B114160AFF255
:102C1000B5118160A0F1C40070470000002C014094
:102C2000A4000020014600BF704770B504460D4661
:102C300000BF4021224803F045FA0028F9D0E1B254
:102C40001F4803F0D1F9204670BD10B586B0044688
:102C5000012144F2040002F073F8194803F088F8E7
:102C60004FF40070ADF8140003208DF81600182002
:102C70008DF8170005A9134801F046FD4FF4806058
:102C8000ADF8140004208DF8170005A90D4801F0D7
:102C90003BFD01940020ADF80800ADF80A00ADF846
:102CA0000C00ADF810000C20ADF80E0001A904488E
:102CB00003F0A1F80121024803F029F906B010BD84
:102CC000003801400008014010B586B004460121DB
:102CD000480402F042F80121042002F031F857487C
:102CE00003F046F80420ADF8140003208DF8160018
:102CF00018208DF8170005A9514801F005FD08209E
:102D0000ADF8140004208DF8170005A94C4801F017
:102D1000FBFC01940020ADF80800ADF80A00ADF806
:102D20000C00ADF810000C20ADF80E0001A94348CE
:102D300003F061F80121414803F0E9F806B010BD45
:102D400010B5044600BF40213C4803F0BBF9002801
:102D5000F9D02146394803F047F910BD70B5044653
:102D6000002504E029466D1C605CFFF7E9FF605D0B
:102D70000028F7D170BD70B50446002504E029464F
:102D80006D1C605CFFF7DCFF605D0028F7D10A2056
:102D9000FFF7D6FF70BD0FB410B5B4B0002437A84C
:102DA0000090C92101A8009B369A04F031FF06E08B
:102DB0002146621CD4B201AA505CFFF7C1FFC82CA7
:102DC00003DA01A8005D0028F2D10020009034B0A1
:102DD00010BC5DF814FB10B500BF2021174803F0AC
:102DE00071F90028F9D01548001D0088C0B210BD47
:102DF0000FB430B5B5B000250EE0FFF7ECFF044688
:102E00000D2C01D00A2C03D1002002A9485504E062
:102E100028466D1C02A90C54EFE700BF39A80190A9
:102E200002A8019A389903F0D9FD054600200190C7
:102E3000284635B030BC5DF814FB0000004400406B
:102E40000008014070490A680968491C6E4B196006
:102E50006E49885C19460968322907DB00211A4649
:102E600011606B4909683231694A1160704770B569
:102E700006460D466749096848688047A84200DA57
:102E800070BD002415E0604801680068401C5E4A7F
:102E900010605E48405C305510460068322807DB01
:102EA0000020114608605A480068323058490860CE
:102EB000641CAC42E7DB00BFE2E75748016F5748AC
:102EC00000683230401A524909684F4A126811446A
:102ED000401A322801D3002070470120FCE74E48F9
:102EE000016F4E4800683230411A49480068464A2E
:102EF00012681044081A704700B58DB001210846C9
:102F000001F011FF44486C3001F0E8F944480290A8
:102F10003E48039000200490322005900020069047
:102F20008020079000200890099020200A90C0017E
:102F30000B9000200C9002A937486C3001F070FA19
:102F40000122022134486C3001F0A1FA0122402113
:102F50003348001F03F00CF810208DF80400002007
:102F60008DF805008DF8060001208DF8070001A8F6
:102F700000F023FF012128486C3001F07CFA0DB0ED
:102F800000BD23480068204909680844704721496A
:102F90000860AFF2B5011F4A12685160AFF2E50157
:102FA0001C4A12681161AFF263111A4A12689160EB
:102FB000AFF24511174A1268D160AFF2C301154A4A
:102FC00012681160AFF24501124A126851617047F0
:102FD00070B505460C462046FFF7D9FF2846FFF797
:102FE00073FE2068804770BD10B54FF4001001F0EB
:102FF0007BFA40B1094800683230084908604FF454
:10300000001001F084FA10BDA8000020EC0300209D
:10301000AC000020B400002000000240B0000020FE
:103020000444004070490A680968491C6E4B1960E5
:103030006E49885C19460968322907DB00211A4667
:1030400011606B4909683231694A1160704770B587
:1030500006460D466749096848688047A84200DA75
:1030600070BD002415E0604801680068401C5E4A9D
:1030700010605E48405C305510460068322807DB1F
:103080000020114608605A480068323058490860EC
:10309000641CAC42E7DB00BFE2E75748C16D57480C
:1030A00000683230401A524909684F4A1268114488
:1030B000401A322801D3002070470120FCE74E4817
:1030C000C16D4E4800683230411A49480068464A8E
:1030D00012681044081A704700B58DB001210846E7
:1030E00001F021FE4448583001F0F8F844480290BD
:1030F0003E48039000200490322005900020069066
:103100008020079000200890099020200A90C0019C
:103110000B9000200C9002A93748583001F080F93C
:10312000012202213448583001F0B1F90122402136
:103130003348001F02F01CFF0F208DF80400002010
:103140008DF805008DF8060001208DF8070001A814
:1031500000F033FE01212848583001F08CF90DB001
:1031600000BD234800682049096808447047214988
:103170000860AFF2B5011F4A12685160AFF2E50175
:103180001C4A12681161AFF263111A4A1268916009
:10319000AFF24511174A1268D160AFF2C301154A68
:1031A00012681160AFF24501124A1268516170470E
:1031B00070B505460C462046FFF7D9FF2846FFF7B5
:1031C00044FD2068804770BD10B54FF4003001F019
:1031D0008BF940B1094800683230084908604FF463
:1031E000003001F094F910BDB80000201E0400204A
:1031F000BC000020C400002000000240C0000020ED
:103200000438014008B50220ADF8000018208DF800
:10321000030003208DF802006946754801F074FA36
:103220000C20ADF8000010208DF8030003208DF86D
:10323000020069466E4801F067FA08BD30B587B0F4
:1032400004460D46ADF81450ADF810400020ADF81E
:103250001600ADF8120004A94FF0804001F04EFFB7
:103260000121880702F06CFD01221146900702F04F
:10327000BCFA7020ADF800000120ADF80200BDF8E6
:10328000140000EBD0714910ADF806100020ADF825
:10329000080069464FF0804001F0AFFF0821C806E2
:1032A00002F0C1FB0121880702F084FB07B030BDAA
:1032B00010B501213D2001F043FD0121072001F05F
:1032C0004CFD10BD08B51C208DF8000000208DF8C5
:1032D00001008DF8020001208DF80300684600F01F
:1032E0006CFD08BD10B50821414801F0BAFA10BDC7
:1032F00010B504213E4801F0B4FA10BD10B5042108
:103300003B4801F0ACFA10BD2DE9F0470446894670
:10331000FFF7CEFFFFF776FF14B1FFF7EFFF01E0F5
:10332000FFF7E6FFFFF7DEFF484603F060FD0746C4
:103330003A460B4600202F4903F0D9FC054603F01E
:1033400063FD1FFA80FA51464720FFF777FFFFF72A
:10335000B9FFBDE8F08710B5044627480460012195
:10336000880702F027FA10BD10B50821204801F0A7
:1033700076FA10BD2048006808B901207047002087
:10338000FCE71E49086070472DE9F04104462046DD
:1033900003F02DFD05462A460B460020154903F093
:1033A000A6FC074603F030FD4FF080418885BDE85C
:1033B000F08110B50121880702F0C5FCB0B10121F0
:1033C000880702F0D1FC0C480068401E0A490860DA
:1033D0000846006850B900214FF0804002F0EAF939
:1033E0000648006810B105480068804710BD00001D
:1033F0000008014080842E41CC000020C80000203D
:10340000704710B5044640F22551FE4802F070FEA8
:1034100001280AD1FB4802F0EBFD207040F2255153
:10342000F84802F08FFE012010BD0020FCE708B52F
:1034300026208DF8000000208DF801008DF8020094
:1034400001208DF80300684600F0B7FC012240F22D
:103450002551EC4802F067FD08BD38B56846FFF716
:10346000D0FF00B938BDE8480078052873D005DCE6
:1034700017D2DFE800F01773CDF5F40008286BD001
:1034800004DC062869D007280BD18DE209287CD0FE
:10349000FF28F9D19DF800003C2802D10020DA492C
:1034A000087088E39DF800002F2803D10120D64939
:1034B000087045E09DF800003E281AD1FFF7A0FFF4
:1034C000FF20D14908700020D0490870D049087009
:1034D0000AE00020CF49CE4A127841F82200CC48B9
:1034E0000078401CCA490870C94800780A28F0DBF7
:1034F00026E0C848C449097850F8210028B9C348D3
:103500000078401CC149087000E000BF9DF8001021
:10351000C048BD4A127850F82220BB4B1B7850F8A7
:103520002300401CBB4BB84C247843F82400B64819
:10353000007800EB400303EBC000B74B1844815404
:10354000B448B149097850F821000B2802DBFF206C
:10355000AD4908702FE375E17FE2CCE19DF80000F2
:103560002F2803D10220A849087046E09DF80000EA
:103570003E281BD1FFF744FFFF20A349087000201D
:10358000A2490870A24908700BE0BFE20020A149DF
:103590009F4A127841F822009D480078401C9C49BF
:1035A00008709B4800780A28F0DB26E09948964985
:1035B000097850F8210028B994480078401C9349B4
:1035C000087000E000BF9DF8001092488E4A127803
:1035D00050F822208C4B1B7850F82300401C8D4B58
:1035E000894C247843F824008748007800EB400396
:1035F00003EBC000884B18448154864882490978FF
:1036000050F821000B2802DBFF207F490870D2E22E
:103610009DF800002F2803D103207B49087047E064
:103620009DF800003E281CD1FFF7EAFEFF207649F6
:103630000870002075490870754908700AE000217B
:103640007448734A127840F8221071480078401C80
:103650006F4908706E4800780A28F0DB28E08BE09C
:1036600031E06C486849097850F8210028B967486A
:103670000078401C6549087000E000BF9DF80020FC
:1036800064486149097850F821305F49097850F859
:103690002100401C5F495C4C247841F824005A48C2
:1036A000007800EB400101EBC0005B490844C254C4
:1036B00058485549097850F821000B2802DBFF20B3
:1036C0005149087077E29DF800002F2803D10420AB
:1036D0004D49087045E09DF800003E281AD1FFF7DB
:1036E0008FFEFF204849087000204849087048496B
:1036F00008700AE000214748454A127840F8221035
:1037000043480078401C42490870414800780A2824
:10371000F0DB26E03F483C49097850F8210028B901
:103720003A480078401C3949087000E000BF9DF815
:1037300000103848344A127850F82220324B1B7857
:1037400050F82300401C334B2F4C247843F82400BE
:103750002D48007800EB400303EBC0002E4B1844CB
:1037600081542C482849097850F821000B2802DBA5
:10377000FF20254908701EE29DF800002F2803D184
:1037800005202149087052E09DF800003E281AD11A
:10379000FFF736FEFF201C49087000201B49087007
:1037A0001B4908700AE000201A49194A127841F8AA
:1037B000220017480078401C15490870144800780A
:1037C0000A28F0DB33E013480F49097850F821004C
:1037D00028B90E480078401C0C49087000E000BF72
:1037E0009DF800200B480849097850F82110064B35
:1037F0001B7850F82300401C064B034C247843F8F8
:1038000024000BE000440040D0000020D100002044
:10381000D2000020C004002050040020E7480078B7
:1038200000EB400303EBC000E54B18444254E5486D
:10383000E249097850F821000B2802DBFF20DF491C
:103840000870B8E19DF800002F2803D10620DB495D
:10385000087045E09DF800003E281AD1FFF7D0FD22
:10386000FF20D64908700020D7490870D749087052
:103870000AE00020D349D54A127841F82200D34803
:103880000078401CD1490870D04800780A28F0DB45
:1038900026E0CC48C949097850F8210028B9CA481F
:1038A0000078401CC849087000E000BF9DF8001077
:1038B000C448C24A127850F82220C04B1B7850F8F6
:1038C0002300401CBF4BBD4C247843F82400BB4868
:1038D000007800EB400303EBC000B94B184481545F
:1038E000B848B649097850F821000B2802DBFF20C0
:1038F000B24908705FE19DF800002F2803D107202E
:10390000AE49087045E09DF800003E281AD1FFF747
:1039100077FDFF20A94908700020AB490870AB492A
:1039200008700AE00020A749A84A127841F822004E
:10393000A6480078401CA5490870A44800780A28C9
:10394000F0DB26E09F489D49097850F8210028B90E
:103950009D480078401C9C49087000E000BF9DF81D
:1039600000109848954A127850F82220934B1B7803
:1039700050F82300401C934B904C247843F82400CB
:103980008E48007800EB400303EBC0008C4B1844DA
:1039900081548C488949097850F821000B2802DBB2
:1039A000FF208649087006E19DF800002F2803D10A
:1039B00008208249087045E09DF800003E281AD191
:1039C000FFF71EFDFF207D49087000207E4908702A
:1039D0007E4908700AE000207A497C4A127841F852
:1039E00022007A480078401C7849087077480078AF
:1039F0000A28F0DB26E073487049097850F8210066
:103A000028B971480078401C6F49087000E000BF79
:103A10009DF800206B486949097850F82110674BE0
:103A20001B7850F82300401C664B644C247843F804
:103A300024006248007800EB400303EBC000604BB9
:103A4000184442545F485D49097850F821000B281A
:103A500002DBFF2059490870ADE09DF800002F28D7
:103A600003D109205549087045E09DF800003E2823
:103A70001AD1FFF7C5FCFF205049087000205249B9
:103A80000870524908700AE000204E494F4A1278E7
:103A900041F822004D480078401C4C4908704B48C2
:103AA00000780A28F0DB26E046484449097850F8B7
:103AB000210028B944480078401C4349087000E0C0
:103AC00000BF9DF800103F483C4A127850F8222071
:103AD0003A4B1B7850F82300401C3A4B374C247863
:103AE00043F824003548007800EB400303EBC000A6
:103AF000334B1844815433483049097850F8210039
:103B00000B2802DBFF202D49087054E09DF80000CF
:103B10003E2803D09DF800002F281AD1FFF770FC33
:103B2000FF2026490870002027490870274908709F
:103B30000AE000212348254A127840F82210234841
:103B40000078401C21490870204800780A28F0DBE2
:103B500026E01C481949097850F8210028B91A486C
:103B60000078401C1849087000E000BF9DF8003044
:103B700014481249097850F821201049097850F862
:103B80002100401C0F490D4C247841F824000B48BB
:103B9000007800EB400101EBC00009490844835460
:103BA00008480649097850F821000B2802DBFF205D
:103BB0000249087000BF00BF00BF53E4D0000020DE
:103BC00050040020C0040020D1000020D2000020BA
:103BD00001465648814201D1C0147047B1F1804F6F
:103BE00001D10120F9E75248814201D10220F4E7D6
:103BF0005048814201D10420EFE70020EDE7014663
:103C00004A48814201D119207047B1F1804F01D15A
:103C10001C20F9E74648814201D11D20F4E74548C0
:103C2000814201D11E20EFE70020EDE7014611B1EE
:103C3000012905D102E041F61F4070474720FCE70B
:103C40000020FAE7024612B1012A0AD106E001EB90
:103C500081000123C3EB400080B27047481E80B250
:103C6000FBE70020F9E72DE9FF4106460F46144621
:103C70003048FFF7ADFF0546B5F5006F04D10121CF
:103C8000284601F05DF803E00121284601F065F8BF
:103C900039463046FFF7D6FFADF808003046FFF74B
:103CA000C5FFADF804000020ADF80A00ADF806002D
:103CB00001A9204801F022FA1E48FFF7A0FFC0B278
:103CC0008DF8000000208DF801008DF80200012021
:103CD0008DF80300684600F070F80122114615487F
:103CE00001F083FD0121134802F03EF81248046000
:103CF0000121104801F05EFDBDE8FF810F4800681A
:103D0000704710B50C48006810B10B480068804738
:103D10000A480068401C09490860064810300088BD
:103D200020F0010003491031088010BD002C014033
:103D30000004004000080040D4000020D80000200B
:103D40002DE9F0410446A06910F8028C25686768E7
:103D5000B8F1030F09D0B8F1040F0AD0B8F1050F7C
:103D60000AD0B8F1060F0CD109E03878A84706460A
:103D700007E0A847064604E03878A84701E0A847CE
:103D800000BF00BF26600020BDE8F08106488047E4
:103D900006480047FEE7FEE7FEE7FEE7FEE7FEE730
:103DA000FEE7FEE7FEE7FEE7F1010008ED00000890
:103DB00031490143314A1160704770B50021002339
:103DC0000F22C4780CB32D4C246804F4E064C4F5CD
:103DD000E064210AC1F10403CA40447804FA03F103
:103DE0008478144021430901254C0678A1550478B4
:103DF00004F01F050124AC4005786D114FF0E0265A
:103E000006EB8505C5F8004109E0047804F01F05BC
:103E10000124AC401B4D0678761145F8264070BD54
:103E2000194A0A400243154B1B1F1A60704739B1EB
:103E3000124A121D12680243104B1B1D1A6006E045
:103E40000E4A121D126882430C4B1B1D1A607047EC
:103E5000042808D14FF0E021096941F004014FF036
:103E6000E022116107E04FF0E021096921F004012F
:103E70004FF0E022116170470000FA050CED00E000
:103E800000E400E080E100E080FFFF1F10B5044681
:103E9000FA48844208D10121401500F06BFF00214F
:103EA000601500F067FF17E0F548844208D1012152
:103EB000001500F05FFF0021201500F05BFF0BE014
:103EC000F048844208D10121C80300F053FF0021CB
:103ED0004FF4004000F04EFF10BD30B50246002008
:103EE00000235068E84C20400D790C6844EA052412
:103EF000204350609068E54C2040D1E902542C43A7
:103F00004D7944EA450420439060D06A20F4700063
:103F10000C7C641EE4B2234340EA0350D06230BDFF
:103F200000210160017141718160C1600121017452
:103F3000704721B1826842F00102826003E082682A
:103F400022F001028260704721B1826842F48072DF
:103F5000826003E0826822F480728260704710B54C
:103F60000023CBB21AB144681C43446002E04468A9
:103F70009C43446010BD816841F008018160704736
:103F8000014600208A6812F0080F01D0012000E0ED
:103F900000207047816841F004018160704701464C
:103FA00000208A6812F0040F01D0012000E00020F8
:103FB000704721B1826842F4A002826003E0826807
:103FC00022F4A00282607047014600208A6812F441
:103FD000800F01D0012000E00020704710B50A4694
:103FE00000210023416821F46041531E41EA43311E
:103FF000416010BD21B1426842F40062426003E0BA
:10400000426822F4006242607047F0B504460D46F3
:1040100000200021092D11DDE068A5F10A0606EB5C
:104020004607072606FA07F18843A5F10A0606EBBC
:10403000460603FA06F10843E0600CE0206905EB50
:104040004507072606FA07F1884305EB450603FAFC
:1040500006F108432061072A0FDA606B561E06EB53
:1040600086071F2606FA07F18843561E06EB8606CA
:1040700005FA06F10843606322E00D2A0FDA206B8F
:10408000D61F06EB86071F2606FA07F18843D61FC0
:1040900006EB860605FA06F10843206310E0E06AA5
:1040A000A2F10D0606EB86071F2606FA07F18843E4
:1040B000A2F10D0606EB860605FA06F10843E0625A
:1040C000F0BD21B1826842F48012826003E0826810
:1040D00022F48012826070470146C86C80B270473B
:1040E00066484C300068704721B1426842F48062F3
:1040F000426003E0426822F480624260704721B16E
:10410000426842F48052426003E0426822F48052E6
:10411000426070470A460021816821F4E041114362
:104120008160704721B1826842F40042826003E0FE
:10413000826822F400428260704721B1826842F4B2
:104140000212826003E0826822F4021282607047E9
:10415000014600208A6812F4001F01D0012000E00F
:1041600000207047F0B504461546002000220026C6
:10417000092911DDE068A1F10A0707EB470C0727C1
:1041800007FA0CF29043A1F10A0707EB470703FA7D
:1041900007F21043E0600CE0206901EB410C0727B7
:1041A00007FA0CF2904301EB410703FA07F21043C0
:1041B0002061A06BC0F30156EF1C06F1010CA7EBC8
:1041C0000C0707EB870C1F2707FA0CF29043EF1C34
:1041D00006F1010CA7EB0C0707EB870701FA07F2C2
:1041E0001043A063F0BD10B50A4600210023816B87
:1041F00021F44011531E41EA0351816310BD08B5FB
:10420000002300930090009B0B440093009B1A60D6
:1042100008BD08B5024600200090009201F1280078
:10422000009B184400900098006880B208BD0A46C0
:1042300000214168164B19401143416070474162AB
:10424000826270470A460021416821F01F01114334
:104250004160704740B109490831096841F40001E3
:10426000064A0832116007E004490831096821F460
:104270000001024A0832116070470000002401402A
:1042800000280140003C0140FFFEF0FFFDF7F1FF78
:10429000FFFD3FFF0246002013680B4201D00120C2
:1042A00000E000207047CA430260704770B50246C4
:1042B0000020002300240B125568CEB205EA060444
:1042C00015681D4202D00CB1012000E0002070BD35
:1042D00000220A12D34303607047000001684FF6C2
:1042E000FE72114001600021016041608160C16087
:1042F0008C49884208D18B490839496841F00F013F
:10430000884A083A51608AE086491431884208D1C7
:1043100084490839496841F0F001824A083A5160FD
:104320007DE080492831884208D17E4908394968B2
:1043300041F470617B4A083A516070E079493C3140
:10434000884208D177490839496841F47041754A73
:10435000083A516063E073495031884208D171498D
:104360000839496841F470216E4A083A516056E0B4
:104370006C496431884208D16A490839496841F476
:104380007001684A083A516049E0664978318842CC
:1043900008D164490839496841F07061614A083AB6
:1043A00051603CE06049884206D1011F096841F034
:1043B0000F01021F116032E05B491431884208D1BD
:1043C0005949091F096841F0F001574A121F11604D
:1043D00025E055492831884208D15349091F096809
:1043E00041F47061504A121F116018E04E493C318F
:1043F000884208D14C49091F096841F470414A4A72
:10440000121F11600BE048495031884207D14649DC
:10441000091F096841F47021434A121F1160704757
:1044200010B50022026847F6F0739A430C6A8B6855
:1044300023430C6923434C6923438C692343CC6990
:1044400023434C6A23438C6A23431A430260CB689C
:1044500043600B6883604B68C36010BD002101603E
:1044600041608160C160016141618161C16101623E
:1044700041628162704721B1026842F0010202602C
:1044800004E002684FF6FE731A40026070471AB1EA
:1044900003680B43036002E003688B4303607047CB
:1044A000416070470146486880B27047014600206D
:1044B000002211F0805F03D01B4B083B1A6802E01A
:1044C000184B083B1A680A4201D0012000E0002086
:1044D000704710F0805F03D01349091F086002E0A5
:1044E000104908394860704701460020002211F049
:1044F000805F03D00C4B083B1A6802E0094B083B75
:104500001A680A4201D0012000E00020704710F034
:10451000805F03D00449091F086002E0014908399F
:1045200048607047080002400804024000204449E7
:104530000860091D0860091D0860091D08604148E0
:104540003F4914310860704700213D498279002AB3
:104550003AD00A46126803689A430B461A600A1D4D
:10456000126803689A430B1D1A60027911440A68A5
:1045700003681A430A60324A0832126803689A4391
:104580002F4B08331A601A1D126803689A432C4B8C
:104590000C331A604279102A0ED11A1F1268036870
:1045A0001A43274B08331A601A1D126803681A430E
:1045B000234B0C331A600DE02149427911440A68FB
:1045C00003681A430A6005E0027911440A68036827
:1045D0009A430A6070470021016001710C2141710A
:1045E0000021817170471649103109680143144A4E
:1045F00010321160704701460020114A14321268CF
:104600000A4201D0012000E0002070470C4914311B
:1046100008607047014600200022094B1B6803EA2E
:104620000102074B14331B680B4202D00AB1012070
:1046300000E0002070470249143108607047000014
:1046400000040140FFFF0F0010B50446CA48844231
:1046500008D10121042000F08DFB0021042000F08E
:1046600089FB46E0C548844208D10121082000F0BA
:1046700081FB0021082000F07DFB3AE0C048844225
:1046800008D10121102000F075FB0021102000F05E
:1046900071FB2EE0BB48844208D10121202000F0AC
:1046A00069FB0021202000F065FB22E0B64884422F
:1046B00008D10121402000F05DFB0021402000F0E6
:1046C00059FB16E0B148844208D10121802000F056
:1046D00051FB0021802000F04DFB0AE0AC488442F1
:1046E00007D10121801500F045FB0021A01500F045
:1046F00041FB10BD10B50121084600F03BFB002135
:10470000012000F037FB10BD2DE9F04102460025E5
:104710000026002000230024002791F803C00CF09D
:104720000F0591F803C01CF0100F03D091F802C0E0
:104730004CEA050591F800C0BCF1000F31D01468B7
:1047400000202BE04FF0010C0CFA00F3B1F800C090
:104750000CEA03069E4220D183004FF00F0C0CFAA6
:1047600003F7BC4305FA03FC4CEA040491F803C0C8
:10477000BCF1280F06D14FF0010C0CFA00FCC2F876
:1047800014C00AE091F803C0BCF1480F05D14FF006
:10479000010C0CFA00FCC2F810C0401C0828D1D350
:1047A0001460B1F800C0BCF1FF0F34DD5468002084
:1047B0002EE000F1080C4FF0010808FA0CF3B1F8F4
:1047C00000C00CEA03069E4221D183004FF00F0C7B
:1047D0000CFA03F7BC4305FA03FC4CEA040491F815
:1047E00003C0BCF1280F05D100F1080C08FA0CF841
:1047F000C2F8148091F803C0BCF1480F07D100F152
:10480000080C4FF0010808FA0CF8C2F81080401CA0
:104810000828CED35460BDE8F0814FF6FF710180C7
:10482000022181700421C170704702460020936804
:104830000B4201D0012000E000207047014688684B
:1048400080B2704702460020D3680B4201D001209D
:1048500000E0002070470146C86880B270470161DF
:104860007047416170470AB1016100E041617047E2
:10487000C16070474FF480320A4382618161826176
:1048800082698269704702460020424B18684FF6E1
:104890008073184040EA021008433E4B186070478E
:1048A0003D49C8617047F0B50A4600230024002145
:1048B000002500F00046B6F1004F02D1354EF169F7
:1048C00001E0344E7168C0F3034583B200F4401632
:1048D000B6F5401F08D121F070612E4E766826F0A3
:1048E00070662C4F7E6012E000F48016B6F5801FD3
:1048F00006D1032606FA05F4A14341F0706106E0F3
:10490000460D360103FA06F6B14341F0706122B15B
:10491000460D360103FA06F6314300F00046B6F1C3
:10492000004F02D11B4EF16101E01A4E7160F0BDE3
:1049300030B500228B071C0F0F2303FA04F2154B2E
:1049400008338C1053F824309343124C08348D10E4
:1049500044F8253023468C1053F824308C07240F5C
:1049600000FA04F423430B4C08348D1044F825302E
:1049700030BD0A490860704700080140000C014042
:10498000001001400014014000180140001C0140CB
:10499000002001400000014000002042DC002042D5
:1049A00010B50121080700F0F2F900214FF0805006
:1049B00000F0EDF910BD29490862704727490861E8
:1049C000704701460020264A106820F0E0000843A6
:1049D0001060704723490860704710B502460020F8
:1049E0001F4B186820F00300104318601E4B1B6813
:1049F00043F004031C4C2360012901D130BF00E0C7
:104A000020BF194B1B6823F00403174C236010BD13
:104A10001348006840F00400114908600846006827
:104A200040F0020008601048006840F004000E49A1
:104A3000086000BF00BF30BF704701460020084A31
:104A400052680A4201D0012000E00020704704496A
:104A5000096841EA8001024A1160704700000E4275
:104A600000700040A0000E4210ED00E0DD4800683C
:104A700040F00100DB49086008464068DA49084018
:104A8000D849486008460068D8490840D5490860B8
:104A90000846006820F4802008600846406820F43A
:104AA000FE0048604FF41F0088607047CD490968D8
:104AB00021F48031CB4A11601146096821F480212C
:104AC0001160B0F5803F03D0B0F5802F0ED106E025
:104AD000C449096841F48031C24A116007E0C14904
:104AE000096841F4A021BF4A116000E000BF00BF87
:104AF000704710B501460022002300204A11012A08
:104B000002D1B84C236806E0022A02D1B54C236AD0
:104B100001E0B44C636A01F01F02012494401C427E
:104B200001D0012000E0002010BD38B50020009029
:104B30000024002500BF3120FFF7DBFF0546009869
:104B4000401C00900098B0F5A06F01D0002DF2D06D
:104B50003120FFF7CEFF08B1012400E000242046F9
:104B600038BD014600209F4A106820F0F80040EA56
:104B7000C100106070479E490860704702460020DF
:104B8000984B586820F47C1042EA01031843954B77
:104B90005860704796490866704701460020914A60
:104BA000506820F003000843506070478D4840680B
:104BB00000F00C007047014600208A4A506820F03F
:104BC000F00008435060704701460020854A506855
:104BD00020F4E06008435060704701460020814A9D
:104BE000506820F4605040EAC1005060704729B11D
:104BF0007C4A527A02437B4B5A7204E0794A527AD9
:104C00008243784B5A7270477A4908607047014670
:104C10000020744A506820F44040084350607047B8
:104C20000021754A11706F4A82F82010012802D0C5
:104C3000042808D103E001216F4A117004E0052126
:104C40006D4A117000E000BF00BF70476B490860FB
:104C500070476449096A0143624A116270476749B3
:104C600044390860704730B5002100220024002339
:104C70005C4D6D6805F00C0121B1042905D00829AF
:104C800023D105E05E4D056022E05D4D05601FE02B
:104C9000544D6D6805F47012524D6D6805F4803402
:104CA000022505EB92421CB9564D554305600BE0B9
:104CB0004C4D6D6815F4003F03D0524D55430560CF
:104CC00002E04F4D5543056002E04D4D056000BFC9
:104CD00000BF444D6D6805F0F00109094A4D6B5C59
:104CE0000568DD4045603F4D6D6805F4E061090AE7
:104CF000454D6B5C4568DD4085603A4D6D6805F457
:104D00006051C90A404D6B5C4568DD40C560354D5A
:104D10006D6805F44041890B3C4D6B5CC568B5FB83
:104D2000F3F5056130BD29B12E4A526902432D4B7E
:104D30005A6104E02B4A526982432A4B5A617047F8
:104D400029B1284A92690243264B9A6104E0254A18
:104D500092698243234B9A61704729B1214AD269F3
:104D60000243204BDA6104E01E4AD26982431D4BA4
:104D7000DA61704729B11B4AD2680243194BDA60E5
:104D800004E0184AD2688243164BDA60704729B1B2
:104D9000144A12690243134B1A6104E0114A126962
:104DA0008243104B1A6170471449403908607047BC
:104DB0000F49C86470470B49C87170470948406A79
:104DC00040F0807007494862704701460020054A5C
:104DD00092680A4201D0012000E00020704701499A
:104DE00088727047001002400000FFF8FFFFF6FED7
:104DF00000004242D8004242201002408004424259
:104E000000127A0000093D00DC000020EC000020C8
:104E100029B14F4A128802434D4B1A8004E04C4A94
:104E2000128882434A4B1A8070474948001D008807
:104E300040F010004649091D088070474448001D95
:104E400000884FF6EF7108404149091D08807047FE
:104E500000213F481C300188001F008841EA0040C3
:104E6000704700B50246FFF7E0FF100C38491831D3
:104E70000880091D0A80FFF7E1FF00BD00B502466A
:104E8000FFF7D3FFC2F30340314908310880091D01
:104E90000A80FFF7D3FF00BD00B50246FFF7C5FF4C
:104EA000100C2B4920310880091D0A80FFF7C6FF2E
:104EB00000BD00202649103109880907080B244944
:104EC000143109880843704700BF2148001D00883D
:104ED00010F0200FF9D070471D48001D00884FF6D4
:104EE000F77108401A49091D088000BF1848001DC5
:104EF000008810F0080FF9D0704701460020144ACE
:104F0000121D12880A4201D0012000E000207047E3
:104F10000F49091D098881430D4A121D11807047F0
:104F2000014600200A4A121D12880A40D0B2084ADF
:104F300012880A4202D008B1012000E00020704728
:104F40000349091D09888143014A121D11807047D8
:104F50000028004010B50446FE48844208D10121D3
:104F6000C014FFF707FF0021E014FFF703FFC4E0C0
:104F7000B4F1804F08D101210846FFF708FF002156
:104F80000120FFF704FFB8E0F348844208D1012173
:104F90000220FFF7FCFE00210220FFF7F8FEACE044
:104FA000EE48844208D101210420FFF7F0FE0021E1
:104FB0000420FFF7ECFEA0E0E948844208D101217B
:104FC0000820FFF7E4FE00210820FFF7E0FE94E050
:104FD000E448844208D101211020FFF7D8FE0021C7
:104FE0001020FFF7D4FE88E0DF48844208D1012179
:104FF0002020FFF7CCFE00212020FFF7C8FE7CE038
:10500000DA48844208D101214014FFF7B3FE0021A1
:105010006014FFF7AFFE70E0D548844209D101214A
:10502000C804FFF7A7FE00214FF40020FFF7A2FEFF
:1050300063E0D048844209D101210805FFF79AFEB8
:1050400000214FF48010FFF795FE56E0CA488442D5
:1050500009D101214805FFF78DFE00214FF4001012
:10506000FFF788FE49E0C548844208D1012140206D
:10507000FFF78DFE00214020FFF789FE3DE0C0488C
:10508000844208D101218020FFF781FE0021802089
:10509000FFF77DFE31E0BB48844208D10121801535
:1050A000FFF775FE0021A015FFF771FE25E0B64859
:1050B000844209D101210804FFF75CFE00214FF46E
:1050C0008030FFF757FE18E0B048844209D1012133
:1050D0004804FFF74FFE00214FF40030FFF74AFE6F
:1050E0000BE0AB48844208D101218804FFF742FE5F
:1050F00000214FF48020FFF73DFE10BD0022028802
:10510000944B98420ED0994B98420BD0B0F1804FFF
:1051100008D0914B984205D0904B984202D0904BCA
:10512000984204D14FF68F731A404B881A438D4B27
:10513000984207D08C4B984204D04FF6FF431A4058
:10514000CB881A4302808B8883850B880385814B2B
:1051500098420BD0854B984208D08B4B984205D093
:105160008A4B984202D08A4B984201D10B7A03862F
:1051700001238382704770B5002400220023058C30
:105180004FF6FE7635400584028C8388048B4FF6FB
:105190008F752C40B51E2C400D882C43751E2A405F
:1051A0000D892A434D882A436A4DA8420BD06F4D82
:1051B000A84208D0744DA84205D0744DA84202D030
:1051C000734DA84213D14FF6F7752A404D892A43F3
:1051D0004FF6FB752A408D882A434FF6FF652B401A
:1051E0004FF6FF552B408D892B43CD892B43838070
:1051F0000483CD888586028470BD70B500240022AA
:105200000023058C4FF6EF7635400584028C8388A9
:10521000048B48F6FF752C404FF6FF452C400D8857
:105220004FF6FF7606EA05252C434FF6DF752A4038
:105230000D8906EA05152A434D8806EA05152A4315
:10524000444DA84202D0494DA8421DD14FF67F756A
:105250002A404D894FF6FF7606EA05152A434FF698
:10526000BF752A408D8806EA05152A434FF6FF359B
:105270002B404FF2FF752B408D8906EA85052B43A5
:10528000CD8906EA85052B4383800483CD88058775
:10529000028470BD70B5002400220023058C4FF6F7
:1052A000FF6635400584028C8388848B4FF68F75AA
:1052B0002C404FF6FC752C400D882C434FF6FF55C3
:1052C0002A400D894FF6FF7606EA05252A434D88C8
:1052D00006EA05252A431F4DA84202D0234DA842C5
:1052E0001DD14FF2FF752A404D894FF6FF7606EA31
:1052F00005252A434FF6FF352A408D8806EA052505
:105300002A434EF6FF752B404DF6FF752B408D89D5
:1053100006EA05152B43CD8906EA05152B43838044
:105320008483CD888587028470BD70B500220023F8
:105330000024058C4EF6FF7635400584038C848866
:10534000828B48F6FF752A404FF6FF452A400D88AC
:1053500020E00000002C0140000400400008004054
:10536000000C0040001000400014004000340140D8
:10537000004C014000500140005401400018004022
:10538000001C00400020004000400140004401405B
:10539000004801404FF6FF7606EA05252A434DF600
:1053A000FF752B400D8906EA05352B434D8806EA2B
:1053B00005352B43FA4DA84202D0FA4DA84208D138
:1053C0004BF6FF752C408D894FF6FF7606EA851562
:1053D0002C4384808283CD88A0F84050038470BD24
:1053E000828B4FF2FF331A408283828B4FF6FF731A
:1053F00003EA01231A4382837047F0B50C46154631
:10540000002200210026078C4EF6FF7C07EA0C07DD
:105410000784828B018C4FF6FF7707EA043640F64B
:10542000FF473A404FF6FF7707EA05273A434FF622
:10543000FF7707EA03373A43D94FB8420ED0D94F26
:10544000B8420BD0B0F1804F08D0D74FB84205D04A
:10545000D64FB84202D0D64FB84206D14DF6FF77AC
:10546000394046F48057394305E047F6FF57394045
:1054700044F48057394382830184F0BD828B4FF618
:10548000F3731A408283828B0A4382837047F0B59C
:105490000C461546002200210026078C4FF6FF6CB3
:1054A00007EA0C070784828B018C4FF6FF7707EA27
:1054B00004264FF60C773A404FF6FF7707EA0317BA
:1054C0002F433A43B64FB8420ED0B64FB8420BD036
:1054D000B0F1804F08D0B44FB84205D0B34FB842B6
:1054E00002D0B34FB84206D14FF6FF57394046F4C9
:1054F0008077394305E04FF2FF57394044F4807715
:10550000394382830184F0BD028B4FF2FF331A408E
:105510000283028B4FF6FF7303EA01231A430283CF
:105520007047F0B50C461546002200210026078C76
:105530004FF6EF7C07EA0C070784028B018C4FF6CD
:10554000FF7707EA041640F6FF473A404FF6FF7729
:1055500007EA03373A434FF6FF7707EA05273A434E
:105560008F4FB8420ED08F4FB8420BD0B0F1804F62
:1055700008D08D4FB84205D08C4FB84202D08C4F26
:10558000B84206D14FF6DF77394046F0100739436D
:1055900005E04FF65F77394044F010073943028346
:1055A0000184F0BD028B4FF6F3731A400283028B25
:1055B0000A4302837047F0B50C46154600220021CD
:1055C000068C4FF6FE773E400684028B018C4FF628
:1055D0000C7632407E1C06EA03162E433243704E90
:1055E000B0420ED06F4EB0420BD0B0F1804F08D019
:1055F0006D4EB04205D06D4EB04202D06C4EB042FE
:1056000006D14FF6FD76314044F00106314305E006
:105610004FF6F576314044F00106314302830184B0
:10562000F0BD70B505460C465D4885420ED05D481C
:1056300085420BD0B5F1804F08D05B48854205D03C
:105640005A48854202D05A48854200D100E000BF46
:10565000208850B92389A28861882846FFF7ABFFCC
:10566000E1882846FFF79EFF25E0208804280AD11C
:105670002389A28861882846FFF753FFE1882846DE
:10568000FFF742FF17E0208808280AD12389A28863
:1056900061882846FFF7FBFEE1882846FFF7EEFE0B
:1056A00009E02389A28861882846FFF7A6FEE188E1
:1056B0002846FFF795FE70BD2DE9F04105460C46E2
:1056C00000260127608808B9022600E00026A0888D
:1056D000012801D1022700E001272088A0B92389F1
:1056E000A28861882846FFF766FFE1882846FFF711
:1056F00059FF23893A4631462846FFF712FFE188D1
:105700002846FFF701FF13E02389A2886188284615
:10571000FFF707FFE1882846FFF7F6FE23893A46A0
:1057200031462846FFF747FFE1882846FFF73AFF52
:10573000BDE8F0810A884B881A438B881A43CB88CE
:105740001A430B891A434B891A438B891A43A0F8D1
:10575000442070474FF6FF71818000210180C18095
:105760004180017270470021018041808180C180A9
:10577000018141818181C181704700210180418087
:10578000012181800021C1800181704700210180B9
:1057900041808180C1800181418181817047000009
:1057A000002C01400034014000040040000800408B
:1057B000000C004021B1028842F00102028004E0A6
:1057C00002884FF6FE731A400280704731B1B0F87C
:1057D000442042F40042A0F8442005E0B0F8442000
:1057E000C2F30E02A0F8442070471AB183890B431C
:1057F000838102E083898B43838170478182704774
:1058000041EA0203A0F8483070471AB183890B437C
:10581000838102E083898B438381704701894FF63E
:10582000F8721140018170470A46002101894FF644
:105830008F73194011430181704730B504460D46FE
:1058400029462046FFF7F0FF208940F0070020811D
:1058500030BD2DE9F04104460D4616461F46602D29
:1058600006D13B46012231462046FFF75AFE05E0AD
:105870003B46012231462046FFF79DFE2946204641
:10588000FFF7D2FF208940F007002081BDE8F081BA
:1058900030B50C4600210189C9B24FF6FF7505EA03
:1058A0000325154325432943018130BD2DE9F041EE
:1058B00005460E4617469846002443463A4631466A
:1058C0002846FFF7E5FF2C894FF6F870044044F0B6
:1058D00007044FF68F70044044F070042C81BDE83B
:1058E000F081F0B504460D4616461F463B4632464B
:1058F00029462046FFF7CCFF208940F480402081D4
:10590000F0BD0185828270470A46002101884FF66A
:105910008F731940114301807047F0B50C4615464E
:105920001E460021002200230189028B038C4FF6C2
:10593000F877394021434FF6FC473A4040F20117CF
:105940003A434FF6DD773B404FF6FF7707EA0617FD
:105950002F433B43018102830384F0BD0A460021AB
:10596000018B4FF68F7319401143018370470A462C
:105970000021018B48F6FF7319404FF6FF7303EACD
:1059800002231943018370470A460021818B4FF699
:105990008F7319401143818370470A460021818B20
:1059A00048F6FF7319404FF6FF7303EA02231943C9
:1059B0008183704721B1028842F08002028004E0B6
:1059C00002884FF67F731A400280704721B18288A7
:1059D00042F00402828004E082884FF6FB731A4092
:1059E0008280704721B1828842F00802828004E000
:1059F00082884FF6F7731A408280704721B18288FF
:105A000042F00102828004E082884FF6FE731A4061
:105A1000828070470A460021018B4FF6F7731940C8
:105A20001143018370470A460021018B4FF2FF7337
:105A300019404FF6FF7303EA0223194301837047AD
:105A40000A460021818B4FF6F77319401143818379
:105A500070470A460021818B4FF2FF7319404FF6C1
:105A6000FF7303EA02231943818370470A4600212A
:105A7000018B4FF6FB7319401143018370470A46AF
:105A80000021018B4FF6FF3319404FF6FF7303EAF5
:105A900002231943018370470A460021818B4FF688
:105AA000FB7319401143818370470A460021818BA3
:105AB0004FF6FF3319404FF6FF7303EA02231943F1
:105AC000818370470A460021018B4FF67F7319408E
:105AD0001143018370470A460021018BC1F30E0177
