:020000040800F2
:10000000D806002035250008DD020008DF020008C0
:10001000EB020008EF020008F302000800000000F5
:10002000000000000000000000000000F7020008CF
:10003000F902000800000000FB020008FD020008B1
:100040004F2500084F2500084F2500081D14000803
:100050004F2500084F250008490900085D090008E0
:100060007109000885090008990900087706000849
:100070004F2500084F2500084F250008E919000802
:10008000091800084F2500084F2500084F250008D3
:100090004F2500084F2500084F250008AD0900082E
:1000A0004F2500084F2500084F2500088912000839
:1000B000D31B00084F250008F72400084F2500082F
:1000C0004F2500084F2500084F2500084F25000840
:1000D0004F2500084F250008E30200084F250008BF
:1000E0002B0A0008131400084F250008DFF80CD075
:1000F00005F0D8FA004800470D030008D806002094
:100100000CB50020019000906B48006840F48030EE
:100110006949086000BF6848006800F4003000903A
:100120000198401C0190009818B90198B0F5A06F93
:10013000F1D16148006810F4003F02D00120009026
:1001400001E0002000900098012842D15B4800683F
:1001500040F01000594908600846006820F003008C
:1001600008600846006840F0020008605248406895
:10017000514948600846406848600846406840F475
:10018000806048600846406820F47C10486008465B
:10019000406840F4E81048600846006840F080700D
:1001A000086000BF4448006810F0007FFAD0424861
:1001B000406820F00300404948600846406840F02D
:1001C0000200486000BF3C48406800F00C0008286E
:1001D000F9D10CBD10B5FFF793FF10BD10B536482F
:1001E000006840F00100344908600846406834491E
:1001F00008403149486008460068324908402E49A5
:1002000008600846006820F48020086008464068BE
:1002100020F4FE0048604FF41F008860FFF7DAFF0B
:100220004FF000602849086010BD10B50021002083
:100230000022214B5B6803F00C0121B1042906D098
:10024000082928D107E0214B214C236027E01F4BD0
:100250001F4C236023E0184B5B6803F47010164BAF
:100260005B6803F48032022303EB904022B9194B00
:100270004343174C23600DE00F4B5B6813F4003FC2
:1002800004D0144B4343124C236003E00F4B434311
:100290000F4C236003E00D4B0D4C236000BF00BFEB
:1002A000054B5B68C3F303130B4CE15C084B1B6805
:1002B000CB40074C236010BD0010024000200240DC
:1002C0000000FFF8FFFFF6FE08ED00E000127A00E4
:1002D0000000002000093D0004000020704700BF1E
:1002E000FEE710B501F0B3FC10BD00BFFEE700BF94
:1002F000FEE700BFFEE77047704770477047000099
:1003000006480068401C054908607047AFF20F02BC
:100310000A21002002F0A1F800BFFEE7140000202F
:100320000146102929D2DFE801F0080A0C0E10124C
:100330001416181A1C1E20222426D5487047D448AB
:10034000FCE7D348FAE7D248F8E7D148F6E7D048C7
:10035000F4E7CF48F2E7CE48F0E7CE48EEE7CD48E5
:10036000ECE7CD48EAE7CC48E8E7CB48E6E7CA48FF
:10037000E4E7C948E2E7C848E0E70020DEE70146D5
:10038000102929D2DFE801F0080A0C0E1012141609
:10039000181A1C1E20222426012070470220FCE788
:1003A0000420FAE70820F8E71020F6E72020F4E719
:1003B0004020F2E78020F0E70120EEE70220ECE7A2
:1003C0000120EAE70220E8E70420E6E70820E4E766
:1003D0001020E2E72020E0E70020DEE770B50025EE
:1003E0000022002619E0AD4909680968885DFFF719
:1003F00097FF0446A648844202D102F001020AE0B7
:10040000A448844202D102F0020204E0A2488442DD
:1004100001D102F00402701CC6B2A0480068007945
:10042000B042E0DC12F0010F01D045F0040512F0FB
:10043000020F01D045F0080512F0040F01D045F07D
:100440001005284670BD10B5002094490968487110
:100450000121934802F081F910BD024600210BE012
:100460008E4800680068405C904203D18D4830F8A7
:1004700011007047481CC1B2884800680079884262
:10048000EEDC0020F5E700B58DB00121084603F051
:100490001EF8854802F0F6FA81484C3002908148F7
:1004A0000390002004907D480068007905900020AA
:1004B00006908020079040000890800009907748BF
:1004C0000068807908B1202000E000200A904FF4F5
:1004D00080500B9000200C9002A9734802F074FB2E
:1004E00001220221704802F0A6FB0B208DF80400C7
:1004F00000208DF805008DF8060001208DF807001A
:1005000001A802F02EF80121674802F088FB0DB027
:1005100000BD70B586B0054660480560AFF2C50005
:100520005E490968C860AFF2E1005C49096888600B
:10053000FFF754FF40F400760121304602F0D4FF6B
:100540004FF4004002F037FF00242CE053480068CD
:100550000068005D102801D1012000E000204F4913
:1005600009680968095D112901D1012100E0002114
:10057000084300D015E0494909680968085DFFF79C
:10058000FEFEADF8000000208DF803004349096825
:100590000968085DFFF7C4FE0646694602F088FC5C
:1005A00000BF601CC4B23D4800680079A042CDDCA9
:1005B0003B4802F03FF80020019001208DF8080030
:1005C0003648006880798DF809004FF46020039068
:1005D000002004903148006800798DF8140001A9CA
:1005E0002F4802F04EF8002422E02C4800680068F2
:1005F000005D102801D1012000E000202749096892
:100600000968095D112901D1012100E00021084399
:1006100002D0012002F0F2F9601CC2B21F4800684B
:100620000068015D07231E4802F0C3F8601CC4B2D5
:100630001A4800680079A042D7DCFFF724FF0121A7
:10064000174802F055F80121154802F046F8144801
:1006500002F065F800BF124802F066F80028FAD1EF
:100660000F4802F06BF800BF0D4802F06CF800284C
:10067000FAD106B070BD10B5022002F009FB30B10E
:100680000120064909684871022002F014FB10BDE0
:1006900000080140000C014000100140180000203B
:1006A00000240140780000200800024000228188D8
:1006B00002E04910531CDAB211F0010FF9D0FE4BE1
:1006C00043F8220070470146FC4A881A91421AD02A
:1006D00009DCFB48081810D0B0F5806F0FD0B0F5DA
:1006E000006F18D10DE0B0F5806F0ED0B0F5006F3F
:1006F0000DD0B0F5406F0ED10BE000207047012007
:10070000FCE70220FAE70320F8E70420F6E70520DB
:10071000F4E70620F2E70020F0E7014631B10129B5
:1007200006D0022906D0032908D105E02820704709
:100730004820FCE74820FAE72820F8E70020F6E701
:100740000146DE4A881A91421AD009DCDC480818B2
:1007500010D0B0F5806F0FD0B0F5006F19D10DE05B
:10076000B0F5806F0ED0B0F5006F0DD0B0F5406FD2
:100770000FD10BE0042070470820FCE71020FAE7B7
:100780002020F8E74020F6E78020F4E74FF480705F
:10079000F1E70020EFE7014631B1012906D0022937
:1007A00006D0032908D105E0082070470C20FCE79B
:1007B0001020FAE71020F8E70020F6E701460020B5
:1007C00002E04910421CD0B211F0010FF9D070477D
:1007D0000146102916DC04290ED004DC012907D0BB
:1007E000022916D106E0082908D0102911D107E006
:1007F000062070470720FCE70820FAE70920F8E701
:100800000A20F6E7B1F5007F01DC1720F1E7282088
:10081000EFE70020EDE72DE9FF4706460C461546B9
:100820001F46A848006890F8C00000EB4000A549AA
:10083000096841F82060A348006890F8C00000EB08
:100840004000A049096801EB800084809D48006851
:1008500090F8C00000EB40009A49096801EB800065
:1008600085719848006890F8C00000EB40009549F9
:10087000096801EB800087609249096891F8C0100F
:1008800001EB41018F4A126802EB8100FFF70EFF76
:100890008C48006890F8C000401C8A49096881F8BB
:1008A000C0003046FFF74CFF8046012102F01CFEDD
:1008B0002846FFF732FF8DF80F0003208DF80E0059
:1008C000ADF80C4003A9304602F0F2FA2046FFF7DB
:1008D00075FF80463046FFF7F6FE8146414602F03E
:1008E000FBFB019400208DF808002846FFF753FF1A
:1008F0008DF8090001208DF80A0001A802F0F8F92E
:100900002046FFF765FFC0B28DF8000001208DF88A
:10091000010000208DF8020001208DF803006846D8
:1009200001F01FFEBDE8FF8710B50446654804606E
:10093000AFF21D10C4F8C400002084F8C0000121EB
:10094000084602F0D1FD10BD10B55B4A1068126870
:1009500091688847012002F042FA10BD10B5564A4E
:100960005068526891688847022002F038FA10BD3A
:1009700010B5514A9068926891688847042002F047
:100980002EFA10BD10B54C4AD068D26891688847DD
:10099000082002F024FA10BD10B5474A1069126908
:1009A00091688847102002F01AFA10BD10B5464829
:1009B000006800F47874C4F3401038B13E4A5069BE
:1009C000526991688847202002F009FAC4F3801028
:1009D00038B1394A9069926991688847402002F09D
:1009E000FEF9C4F3C01038B1334AD069D2699168B6
:1009F0008847802002F0F3F9C4F3002040B12E4A6A
:100A0000106A126A916888474FF4807002F0E7F923
:100A1000C4F3402040B1284A506A526A916888471E
:100A20004FF4007002F0DBF910BD10B526480068E5
:100A300000F47C44C4F3802040B11F4A906A926A5B
:100A4000916888474FF4806002F0C9F9C4F3C02070
:100A500040B1194AD06AD26A916888474FF4006061
:100A600002F0BDF9C4F3003040B1134A106B126BB1
:100A7000916888474FF4805002F0B1F9C4F34030D8
:100A800040B10D4A506B526B916888474FF400504B
:100A900002F0A5F9C4F3803040B1074A906B926B25
:100AA000916888474FF4804002F099F9C4F3C03050
:100AB00098B1014AD06B09E09C000020001401406D
:100AC00000F8FEBF1C00002014040140D26B9168A6
:100AD00088474FF4004002F082F910BD01460A2910
:100AE00001DA042070470820FCE701460A2901DAF0
:100AF000FE487047FE48FCE7014610292FD2DFE888
:100B000001F0080B0E111416181A1C1E20222426A0
:100B1000282B4FF4807070474FF40070FBE74FF4C0
:100B20008060F8E74FF40060F5E70120F3E702206A
:100B3000F1E70420EFE70820EDE74020EBE7802015
:100B4000E9E70120E7E70220E5E74020E3E780202E
:100B5000E1E74FF48070DEE74FF40070DBE7FF2041
:100B6000D9E70146042901DAE2487047082902DA88
:100B70004FF08040F9E70C2901DADF48F5E7DF485C
:100B8000F3E70146042902DA4FF4006070470829B0
:100B900001DA0120FAE70C2901DA0220F6E7042045
:100BA000F4E70146042901DA1B207047082901DA1D
:100BB0001C20FAE70C2901DA1D20F6E71E20F4E7D5
:100BC0000146CA1701EB92729210B1EB820201D179
:100BD00002207047481EC21700EB92729210B0EBD1
:100BE000820201D10420F4E7881EC21700EB927242
:100BF0009210B0EB820201D10820EAE7C81EC217AA
:100C000000EB92729210B0EB820201D11020E0E76B
:100C10000020DEE70146CA1701EB92729210B1EB99
:100C2000820201D100207047481EC21700EB927269
:100C30009210B0EB820201D10420F4E7881EC217A3
:100C400000EB92729210B0EB820201D10820EAE729
:100C5000C81EC21700EB92729210B0EB820201D153
:100C60000C20E0E70020DEE7014631B1012906D083
:100C7000022906D0032908D105E000207047022090
:100C8000FCE70020FAE70220F8E70020F6E702463A
:100C9000002110E0C1EBC100994B1B6813F8300034
:100CA000904206D1C1EBC100954B1B6803EBC0001D
:100CB0007047481CC1B29248006890F88C03884283
:100CC000E8DC0020F4E770B504460D462046FFF747
:100CD00048FF0646E11704EB91718910B4EB8101DE
:100CE00004D12946304603F0EBFA25E0601EC11717
:100CF00000EB91718910B0EB810104D12946304697
:100D000003F0F0FA18E0A01EC11700EB91718910F2
:100D1000B0EB810104D12946304603F0FDFA0BE027
:100D2000E01EC11700EB91718910B0EB810103D176
:100D30002946304603F00AFB70BD00B50246104656
:100D4000FFF70FFF0346D11702EB91718910B2EB49
:100D5000810101D1988E00BD501EC11700EB917129
:100D60008910B0EB810101D1188FF4E7901EC117F3
:100D700000EB91718910B0EB810101D1988FEAE706
:100D8000D01EC11700EB91718910B0EB810102D127
:100D9000B3F84000DFE70020DDE72DE9F04F8BB02E
:100DA00081468A4615461E464846FFF7EAFE8346B8
:100DB0005348006890F88C03C0EBC00050490968A4
:100DC00001EBC0044E48006890F88C03401C4C496D
:100DD000096881F88C0384F8009000214948C4E92F
:100DE0000810C4E9025684F818A000202061606150
:100DF000012000FA09F044490968084342490860A3
:100E0000012000FA09F0096808433F490860BBF572
:100E1000006F04D10121584602F066FB03E0012176
:100E2000584602F06EFB4846FFF758FE0746012180
:100E300002F05AFB2078FFF75FFEADF81800207E25
:100E400008B9012000E00020217E022901D1012102
:100E500000E00021084303D028208DF81B0002E0A9
:100E600048208DF81B0003208DF81A002078FFF72A
:100E70003CFE074606A902F01BF84FF6FF70ADF8DE
:100E800010002A4633460020204903F008FE07469A
:100E900000221F4B03F0FDFDCDE9000103F0EDFE44
:100EA00080B2ADF80C000020ADF81200ADF80E00D5
:100EB0004846FFF756FE074603A902F0F3FC4846F2
:100EC000FFF7A8FEADF81C00207EFFF7CDFEADF8C1
:100ED0001E000120ADF820000020ADF82200ADF882
:100EE00024004846FFF73DFE074613E00008014096
:100EF000000C0140002C01400004004000080040AC
:100F0000280000200000F0BF200000200000524018
:100F10000000F03F07A902F058FF4846FFF741FEE6
:100F2000C0B28DF8080000208DF809008DF80A0085
:100F300001208DF80B0002A801F013FB4846FFF7D3
:100F400010FEE24988420DD119208DF808000020DA
:100F50008DF809008DF80A0001208DF80B0002A819
:100F600001F0FFFA4846FFF72BFE80B240F0010780
:100F70004846FFF7F6FD80460122394603F009F89E
:100F80004846FFF7EEFD0746012102F0E7FF48461D
:100F9000FFF7E7FD0746012103F0BAFA0BB0BDE801
:100FA000F08F30B505460C462846FFF770FE046109
:100FB00030BD30B505460C462846FFF768FE446153
:100FC00030BDC3490860AFF22D21C14A1268C2F892
:100FD00080130021BE4A126882F88C13AFF23D01E3
:100FE000BB4A1268C2F88413AFF23901B84A1268DA
:100FF000C2F8881370470146B64800EB011000782C
:1010000000F08000704710B504462046FFF73FFE11
:101010000146006A496A10BD2DE9F04F87B00646C7
:10102000AC4800EB061400EB061000F10409A948D7
:1010300000EB061000F1080AA64800EB061000F1CC
:101040000C0B3046FFF78DFD05903046FFF71FFE75
:101050000546287E08B9012000E00020297E0229EB
:1010600001D1012100E00021084306D00020ADF8A5
:1010700010000220ADF8120005E00020ADF81200CB
:101080000220ADF81000207810F0800F76D10121F9
:10109000059803F02CFAC0B1207800F040002188B8
:1010A00001F48071084310D0207800F03F003F2801
:1010B00008D1206840F08000206000218648C5E902
:1010C000081002E02068401C20603046FFF778FDE1
:1010D00087B23946059803F00AFA00284ED02078E6
:1010E00010F0400F4BD0287E022801D1012000E0F3
:1010F0000020297E032901D1012100E000210843BD
:1011000012D0206820F040002060206840F48070F9
:1011100020603046FFF711FE217801F03F0100EB1F
:101120000140CAF8000024E0206840F08000206000
:101130003046FFF702FE217801F03F0100EB01404D
:10114000CAF80000DAF80010D9F80020881A03F075
:1011500087FDCDE90201D5E902733A4603F09FFC11
:10116000C5E90801286910B1284629698847002087
:101170002060BDF810103046FFF7A5FD61E0208823
:1011800010F4807F4DD03046FFF7D7FD074620781A
:1011900000F03F0007EB0040CBF80000BDF8121054
:1011A0003046FFF790FDDBF80010D9F80020881AD0
:1011B00003F056FDCDE90201D5E90201CDE90001B8
:1011C000DDE9022303F06BFCC5E90801DAF8001041
:1011D000D9F80020881A03F043FDCDE90201D5E9D2
:1011E0000201CDE90001DDE9022303F058FCC5E965
:1011F0000C01D5E90801CDE90201D5E90C01CDE9E1
:101200000001DDE9022303F0BCFCC5E90A012869FD
:1012100010B1284629698847C9F80070402020602D
:101220000FE0002020603046FFF787FDC9F800007E
:10123000206840F040002060BDF812103046FFF7F3
:1012400042FD0022244BD5E90871384603F02EFDFB
:101250000FD1686910B1284669698847002020606D
:10126000BDF810103046FFF72EFD00211B48C5E9E0
:1012700008103046FFF7A4FC87B23946059803F002
:1012800047F907B0BDE8F08F10B51548007810F0A9
:10129000010F02D00020FFF7BFFE11480078C0F315
:1012A000400010B10120FFF7B7FE0D480078C0F3F1
:1012B000800010B10220FFF7AFFE09480078C0F3AC
:1012C000C00010B10320FFF7A7FE10BD002C0140A5
:1012D00028000020DC00002000408FC00000F0BF8C
:1012E0002000002008B501214FF0C05002F009F99C
:1012F000012001F034FF4FF4407002F07EF801202D
:1013000002F081F802F0B4F902F0BAF902F061F9E2
:101310003E2002F087F902F0ABF9002002F075F9E7
:1013200002F0A6F94FF6FF704449088002F0A0F9D8
:101330004FF6FF704149091D088002F099F901211B
:10134000022002F039F93D481C38008800F0020004
:101350003A491C39088002F08BF902F043F9292040
:101360008DF8000000208DF801008DF802000120AA
:101370008DF80300684601F0F4F803208DF80000B2
:1013800000208DF801008DF8020001208DF8030087
:10139000684601F0E6F808BD2DE9F04107460C4625
:1013A0002648001F008825490839098800EB0140BC
:1013B000C51902F05DF902F00CF92048001F008801
:1013C0001E490839098800EB01461C49091F0E8097
:1013D00002F04EF9300C19490839088002F048F93A
:1013E000280C1649088002F043F91449091D0D80A4
:1013F00002F03EF902F0F6F811480460BDE8F08111
:101400000E48001F00880D490839098800EB01408B
:10141000704710B5022002F067F910BD10B5022028
:1014200002F052F9012808D1022002F05DF90448C7
:10143000006810B102480068804710BD20280040B5
:101440002C000020014600BF704770B504460D46D1
:1014500000BF4021224803F009FA0028F9D0E1B288
:101460001F4803F095F9204670BD10B586B00446BC
:10147000012144F2040002F037F8194803F04CF857
:101480004FF40070ADF8140003208DF816001820FA
:101490008DF8170005A9134801F00AFD4FF480608C
:1014A000ADF8140004208DF8170005A90D4801F0CF
:1014B000FFFC01940020ADF80800ADF80A00ADF87B
:1014C0000C00ADF810000C20ADF80E0001A9044886
:1014D00003F065F80121024803F0EDF806B010BDF5
:1014E000003801400008014010B586B004460121D3
:1014F000480402F006F80121042001F0F5FF5748E6
:1015000003F00AF80420ADF8140003208DF816004B
:1015100018208DF8170005A9514801F0C9FC0820D2
:10152000ADF8140004208DF8170005A94C4801F00F
:10153000BFFC01940020ADF80800ADF80A00ADF83A
:101540000C00ADF810000C20ADF80E0001A94348C6
:1015500003F025F80121414803F0ADF806B010BDB5
:1015600010B5044600BF40213C4803F07FF9002835
:10157000F9D02146394803F00BF910BD70B5044687
:10158000002504E029466D1C605CFFF7E9FF605D03
:101590000028F7D170BD70B50446002504E0294647
:1015A0006D1C605CFFF7DCFF605D0028F7D10A204E
:1015B000FFF7D6FF70BD0FB410B5B4B0002437A844
:1015C0000090C92101A8009B369A04F047FA06E072
:1015D0002146621CD4B201AA505CFFF7C1FFC82C9F
:1015E00003DA01A8005D0028F2D10020009034B099
:1015F00010BC5DF814FB10B500BF2021174803F0A4
:1016000035F90028F9D01548001D0088C0B210BD7A
:101610000FB430B5B5B000250EE0FFF7ECFF04467F
:101620000D2C01D00A2C03D1002002A9485504E05A
:1016300028466D1C02A90C54EFE700BF39A80190A1
:1016400002A8019A389903F06BF905460020019031
:10165000284635B030BC5DF814FB00000044004063
:101660000008014070490A680968491C6E4B1960FE
:101670006E49885C19460968322907DB00211A4641
:1016800011606B4909683231694A1160704770B561
:1016900006460D466749096848688047A84200DA4F
:1016A00070BD002415E0604801680068401C5E4A77
:1016B00010605E48405C305510460068322807DBF9
:1016C0000020114608605A480068323058490860C6
:1016D000641CAC42E7DB00BFE2E75748016F5748A4
:1016E00000683230401A524909684F4A1268114462
:1016F000401A322801D3002070470120FCE74E48F1
:10170000016F4E4800683230411A49480068464A25
:1017100012681044081A704700B58DB001210846C0
:1017200001F0D5FE44486C3001F0ACF94448029019
:101730003E4803900020049032200590002006903F
:101740008020079000200890099020200A90C00176
:101750000B9000200C9002A937486C3001F034FA4D
:101760000122022134486C3001F065FA0122402147
:101770003348001F02F0D0FF10208DF80400002035
:101780008DF805008DF8060001208DF8070001A8EE
:1017900000F0E7FE012128486C3001F040FA0DB05E
:1017A00000BD234800682049096808447047214962
:1017B0000860AFF2B5011F4A12685160AFF2E5014F
:1017C0001C4A12681161AFF263111A4A12689160E3
:1017D000AFF24511174A1268D160AFF2C301154A42
:1017E00012681160AFF24501124A126851617047E8
:1017F00070B505460C462046FFF7D9FF2846FFF78F
:1018000073FE2068804770BD10B54FF4001001F0E2
:101810003FFA40B1094800683230084908604FF487
:10182000001001F048FA10BD30000020DC0100205B
:10183000340000203C00002000000240380000205E
:101840000444004070490A680968491C6E4B1960DD
:101850006E49885C19460968322907DB00211A465F
:1018600011606B4909683231694A1160704770B57F
:1018700006460D466749096848688047A84200DA6D
:1018800070BD002415E0604801680068401C5E4A95
:1018900010605E48405C305510460068322807DB17
:1018A0000020114608605A480068323058490860E4
:1018B000641CAC42E7DB00BFE2E75748C16D574804
:1018C00000683230401A524909684F4A1268114480
:1018D000401A322801D3002070470120FCE74E480F
:1018E000C16D4E4800683230411A49480068464A86
:1018F00012681044081A704700B58DB001210846DF
:1019000001F0E5FD4448583001F0BCF8444802902D
:101910003E4803900020049032200590002006905D
:101920008020079000200890099020200A90C00194
:101930000B9000200C9002A93748583001F044F970
:10194000012202213448583001F075F9012240216A
:101950003348001F02F0E0FE0F208DF80400002045
:101960008DF805008DF8060001208DF8070001A80C
:1019700000F0F7FD01212848583001F050F90DB072
:1019800000BD234800682049096808447047214980
:101990000860AFF2B5011F4A12685160AFF2E5016D
:1019A0001C4A12681161AFF263111A4A1268916001
:1019B000AFF24511174A1268D160AFF2C301154A60
:1019C00012681160AFF24501124A12685161704706
:1019D00070B505460C462046FFF7D9FF2846FFF7AD
:1019E00044FD2068804770BD10B54FF4003001F011
:1019F0004FF940B1094800683230084908604FF497
:101A0000003001F058F910BD400000200E02002007
:101A1000440000204C00002000000240480000204C
:101A20000438014008B50220ADF8000018208DF8F8
:101A3000030003208DF802006946754801F038FA6A
:101A40000C20ADF8000010208DF8030003208DF865
:101A5000020069466E4801F02BFA08BD30B587B028
:101A600004460D46ADF81450ADF810400020ADF816
:101A70001600ADF8120004A94FF0804001F012FFEB
:101A80000121880702F030FD01221146900702F083
:101A900080FA7020ADF800000120ADF80200BDF81A
:101AA000140000EBD0714910ADF806100020ADF81D
:101AB000080069464FF0804001F073FF0821C80616
:101AC00002F085FB0121880702F048FB07B030BD1A
:101AD00010B501213D2001F007FD0121072001F093
:101AE00010FD10BD08B51C208DF8000000208DF8F9
:101AF00001008DF8020001208DF80300684600F017
:101B000030FD08BD10B50821414801F07EFA10BD36
:101B100010B504213E4801F078FA10BD10B504213B
:101B20003B4801F070FA10BD2DE9F04704468946A4
:101B3000FFF7CEFFFFF776FF14B1FFF7EFFF01E0ED
:101B4000FFF7E6FFFFF7DEFF484603F089F8074698
:101B50003A460B4600202F4903F013F8054603F0E0
:101B60008CF81FFA80FA51464720FFF777FFFFF7FE
:101B7000B9FFBDE8F08710B504462748046001218D
:101B8000880702F0EBF910BD10B50821204801F0DC
:101B90003AFA10BD2048006808B9012070470020BB
:101BA000FCE71E49086070472DE9F04104462046D5
:101BB00003F056F805462A460B460020154902F068
:101BC000E0FF074603F059F84FF080418885BDE8F3
:101BD000F08110B50121880702F089FCB0B1012124
:101BE000880702F095FC0C480068401E0A4908600E
:101BF0000846006850B900214FF0804002F0AEF96D
:101C00000648006810B105480068804710BD000014
:101C10000008014080842E41540000205000002024
:101C2000704710B5044640F22551FD4802F034FEDD
:101C300001280AD1FA4802F0AFFD207040F2255188
:101C4000F74802F053FE012010BD0020FCE738B534
:101C50006846FFF7E6FF00B938BDF248007805286E
:101C600073D005DC17D2DFE800F01773CDF5F40070
:101C700008286BD004DC062869D007280BD18DE238
:101C800009287CD0FF28F9D19DF800003C2802D11A
:101C90000020E449087088E39DF800002F2803D154
:101CA0000120E049087045E09DF800003E281AD167
:101CB000FFF7B6FFFF20DB4908700020DA49087003
:101CC000DA4908700AE00020D949D84A127841F868
:101CD0002200D6480078401CD4490870D3480078C8
:101CE0000A28F0DB26E0D248CE49097850F82100D6
:101CF00028B9CD480078401CCB49087000E000BFEF
:101D00009DF80010CA48C74A127850F82220C54BE7
:101D10001B7850F82300401CC54BC24C247843F874
:101D20002400C048007800EB400303EBC000C14B27
:101D300018448154BE48BB49097850F821000B284B
:101D400002DBFF20B74908702FE375E17FE2CCE1A9
:101D50009DF800002F2803D10220B249087046E008
:101D60009DF800003E281BD1FFF75AFFFF20AD4928
:101D700008700020AC490870AC4908700BE0BFE265
:101D80000020AB49A94A127841F82200A748007800
:101D9000401CA6490870A54800780A28F0DB26E018
:101DA000A348A049097850F8210028B99E48007836
:101DB000401C9D49087000E000BF9DF800109C4841
:101DC000984A127850F82220964B1B7850F823003E
:101DD000401C974B934C247843F82400914800789A
:101DE00000EB400303EBC000924B18448154904831
:101DF0008C49097850F821000B2802DBFF20894923
:101E00000870D2E29DF800002F2803D103208549F5
:101E1000087047E09DF800003E281CD1FFF700FF46
:101E2000FF208049087000207F4908707F490870B2
:101E30000AE000217E487D4A127840F822107B4853
:101E40000078401C79490870784800780A28F0DB4F
:101E500028E08BE031E076487249097850F821009B
:101E600028B971480078401C6F49087000E000BF35
:101E70009DF800206E486B49097850F82130694977
:101E8000097850F82100401C6949664C247841F8D3
:101E900024006448007800EB400101EBC000654974
:101EA0000844C25462485F49097850F821000B2861
:101EB00002DBFF205B49087077E29DF800002F28C5
:101EC00003D104205749087045E09DF800003E28E2
:101ED0001AD1FFF7A5FEFF20524908700020524991
:101EE0000870524908700AE0002151484F4A1278A0
:101EF00040F822104D480078401C4C4908704B486F
:101F000000780A28F0DB26E049484649097850F86D
:101F1000210028B944480078401C4349087000E07B
:101F200000BF9DF8001042483E4A127850F8222027
:101F30003C4B1B7850F82300401C3D4B394C247817
:101F400043F824003748007800EB400303EBC0005F
:101F5000384B1844815436483249097850F82100EA
:101F60000B2802DBFF202F4908701EE29DF80000BD
:101F70002F2803D105202B49087045E09DF800006B
:101F80003E281AD1FFF74CFEFF202649087000209A
:101F900025490870254908700AE000202449234A91
:101FA000127841F8220021480078401C1F4908702F
:101FB0001E4800780A28F0DB26E01D4819490978F8
:101FC00050F8210028B918480078401C16490870BC
:101FD00000E000BF9DF8002015481249097850F82C
:101FE0002110104B1B7850F82300401C104B0D4C57
:101FF000247843F824000B48007800EB400303EBFF
:10200000C0000C4B1844425409480649097850F85E
:1020100021000B2802DBFF2002490870C5E1000007
:102020000044004058000020590000205A000020C1
:10203000B0020020400200209DF800002F2803D1AC
:102040000620DB49087045E09DF800003E281AD1C3
:10205000FFF7E6FDFF20D64908700020D54908703B
:10206000D54908700AE00020D449D34A127841F8D3
:102070002200D1480078401CCF490870CE48007833
:102080000A28F0DB26E0CD48C949097850F821003C
:1020900028B9C8480078401CC649087000E000BF55
:1020A0009DF80010C548C24A127850F82220C04B53
:1020B0001B7850F82300401CC04BBD4C247843F8DB
:1020C0002400BB48007800EB400303EBC000BC4B8E
:1020D00018448154B948B649097850F821000B28B2
:1020E00002DBFF20B24908705FE19DF800002F2855
:1020F00003D10720AE49087045E09DF800003E2856
:102100001AD1FFF78DFDFF20A94908700020A949C9
:102110000870A94908700AE00020A849A64A127868
:1021200041F82200A4480078401CA3490870A24846
:1021300000780A28F0DB26E0A0489D49097850F88D
:10214000210028B99B480078401C9A49087000E09B
:1021500000BF9DF800109948954A127850F8222047
:10216000934B1B7850F82300401C944B904C2478E0
:1021700043F824008E48007800EB400303EBC000D6
:102180008F4B184481548D488949097850F82100B3
:102190000B2802DBFF208649087006E19DF800004D
:1021A0002F2803D108208249087045E09DF80000DF
:1021B0003E281AD1FFF734FDFF207D49087000202A
:1021C0007C4908707C4908700AE000207B497A4A03
:1021D000127841F8220078480078401C764908704F
:1021E000754800780A28F0DB26E0744870490978C1
:1021F00050F8210028B96F480078401C6D490870DC
:1022000000E000BF9DF800206C486949097850F84B
:102210002110674B1B7850F82300401C674B644C1F
:10222000247843F824006248007800EB400303EB75
:10223000C000634B1844425460485D49097850F827
:1022400021000B2802DBFF2059490870ADE09DF802
:1022500000002F2803D109205549087045E09DF85A
:1022600000003E281AD1FFF7DBFCFF205049087020
:10227000002050490870504908700AE000204F497A
:102280004D4A127841F822004B480078401C4A49D8
:102290000870494800780A28F0DB26E0474844499E
:1022A000097850F8210028B942480078401C41497B
:1022B000087000E000BF9DF8001040483C4A1278CA
:1022C00050F822203A4B1B7850F82300401C3B4B1F
:1022D000374C247843F824003548007800EB40035D
:1022E00003EBC000364B1844815434483049097818
:1022F00050F821000B2802DBFF202D49087054E024
:102300009DF800003E2803D09DF800002F281AD128
:10231000FFF786FCFF202649087000202549087039
:10232000254908700AE000212448234A127840F821
:10233000221021480078401C1F4908701E48007870
:102340000A28F0DB26E01D481949097850F82100D9
:1023500028B918480078401C1649087000E000BFF2
:102360009DF8003015481249097850F8212010498D
:10237000097850F82100401C10490D4C247841F890
:1023800024000B48007800EB400101EBC0000C4931
:102390000844835409480649097850F821000B285D
:1023A00002DBFF200249087000BF00BF00BF53E4FA
:1023B00058000020590000205A000020B0020020E0
:1023C0004002002001465648814201D1C0147047A6
:1023D000B1F1804F01D10120F9E75248814201D18A
:1023E0000220F4E75048814201D10420EFE70020A9
:1023F000EDE701464A48814201D119207047B1F109
:10240000804F01D11C20F9E74648814201D11D20AF
:10241000F4E74548814201D11E20EFE70020EDE7B7
:10242000014611B1012905D102E041F61F40704774
:102430004720FCE70020FAE7024612B1012A0AD140
:1024400006E001EB81000123C3EB400080B270473E
:10245000481E80B2FBE70020F9E72DE9FF41064660
:102460000F4614463048FFF7ADFF0546B5F5006F3F
:1024700004D10121284601F037F803E00121284664
:1024800001F03FF839463046FFF7D6FFADF80800B7
:102490003046FFF7C5FFADF804000020ADF80A0094
:1024A000ADF8060001A9204801F0FCF91E48FFF72D
:1024B000A0FFC0B28DF8000000208DF801008DF85B
:1024C000020001208DF80300684600F04AF801225E
:1024D0001146154801F05DFD0121134802F018F87E
:1024E000124804600121104801F038FDBDE8FF8169
:1024F0000F480068704710B50C48006810B10B48D1
:10250000006880470A480068401C0949086006487E
:102510001030008820F0010003491031088010BD00
:10252000002C014000040040000800405C00002036
:10253000600000200648804706480047FEE7FEE7A7
:10254000FEE7FEE7FEE7FEE7FEE7FEE7FEE7FEE763
:10255000DD010008ED00000831490143314A1160F6
:10256000704770B5002100230F22C4780CB32D4CA6
:10257000246804F4E064C4F5E064210AC1F10403B2
:10258000CA40447804FA03F18478144021430901D5
:10259000254C0678A155047804F01F050124AC40B1
:1025A00005786D114FF0E02606EB8505C5F8004172
:1025B00009E0047804F01F050124AC401B4D0678A7
:1025C000761145F8264070BD194A0A400243154B62
:1025D0001B1F1A60704739B1124A121D126802435C
:1025E000104B1B1D1A6006E00E4A121D1268824332
:1025F0000C4B1B1D1A607047042808D14FF0E021D6
:10260000096941F004014FF0E022116107E04FF049
:10261000E021096921F004014FF0E02211617047C7
:102620000000FA050CED00E000E400E080E100E0CD
:1026300080FFFF1F10B50446FA48844208D10121EB
:10264000401500F06BFF0021601500F067FF17E0F8
:10265000F548844208D10121001500F05FFF0021F8
:10266000201500F05BFF0BE0F048844208D1012107
:10267000C80300F053FF00214FF4004000F04EFF6C
:1026800010BD30B50246002000235068E84C2040C1
:102690000D790C6844EA0524204350609068E54CAD
:1026A0002040D1E902542C434D7944EA45042043AB
:1026B0009060D06A20F470000C7C641EE4B2234366
:1026C00040EA0350D06230BD0021016001714171C8
:1026D0008160C16001210174704721B1826842F0BC
:1026E0000102826003E0826822F00102826070478A
:1026F00021B1826842F48072826003E0826822F431
:1027000080728260704710B50023CBB21AB1446862
:102710001C43446002E044689C43446010BD8168EF
:1027200041F0080181607047014600208A6812F07C
:10273000080F01D0012000E000207047816841F0BF
:10274000040181607047014600208A6812F0040F7E
:1027500001D0012000E00020704721B1826842F4DE
:10276000A002826003E0826822F4A00282607047C7
:10277000014600208A6812F4800F01D0012000E099
:102780000020704710B50A4600210023416821F45B
:102790006041531E41EA4331416010BD21B142689E
:1027A00042F40062426003E0426822F40062426048
:1027B0007047F0B504460D4600200021092D11DDBB
:1027C000E068A5F10A0606EB4607072606FA07F1B8
:1027D0008843A5F10A0606EB460603FA06F108430C
:1027E000E0600CE0206905EB4507072606FA07F1D3
:1027F000884305EB450603FA06F108432061072AE2
:102800000FDA606B561E06EB86071F2606FA07F1E5
:102810008843561E06EB860605FA06F108436063F8
:1028200022E00D2A0FDA206BD61F06EB86071F2643
:1028300006FA07F18843D61F06EB860605FA06F16D
:102840000843206310E0E06AA2F10D0606EB86075C
:102850001F2606FA07F18843A2F10D0606EB86064D
:1028600005FA06F10843E062F0BD21B1826842F446
:102870008012826003E0826822F4801282607047D6
:102880000146C86C80B2704766484C30006870479B
:1028900021B1426842F48062426003E0426822F45F
:1028A00080624260704721B1426842F480524260C7
:1028B00003E0426822F48052426070470A460021D9
:1028C000816821F4E04111438160704721B1826841
:1028D00042F40042826003E0826822F40042826097
:1028E000704721B1826842F40212826003E082687C
:1028F00022F4021282607047014600208A6812F4B6
:10290000001F01D0012000E000207047F0B5044610
:102910001546002000220026092911DDE068A1F1FA
:102920000A0707EB470C072707FA0CF29043A1F1BF
:102930000A0707EB470703FA07F21043E0600CE0D1
:10294000206901EB410C072707FA0CF2904301EBD9
:10295000410703FA07F210432061A06BC0F3015650
:10296000EF1C06F1010CA7EB0C0707EB870C1F27E8
:1029700007FA0CF29043EF1C06F1010CA7EB0C07D1
:1029800007EB870701FA07F21043A063F0BD10B50B
:102990000A4600210023816B21F44011531E41EAB5
:1029A0000351816310BD08B5002300930090009B84
:1029B0000B440093009B1A6008BD08B50246002036
:1029C0000090009201F12800009B184400900098AC
:1029D000006880B208BD0A4600214168164B1940C4
:1029E0001143416070474162826270470A4600218C
:1029F000416821F01F0111434160704740B109490E
:102A00000831096841F40001064A0832116007E004
:102A100004490831096821F40001024A08321160B2
:102A2000704700000024014000280140003C0140A4
:102A3000FFFEF0FFFDF7F1FFFFFD3FFF0246002024
:102A400013680B4201D0012000E000207047CA4308
:102A50000260704770B502460020002300240B126C
:102A60005568CEB205EA060415681D4202D00CB1C5
:102A7000012000E0002070BD00220A12D343036051
:102A80007047000001684FF6FE721140016000219E
:102A9000016041608160C1608C49884208D18B49E6
:102AA0000839496841F00F01884A083A51608AE0C4
:102AB00086491431884208D184490839496841F06F
:102AC000F001824A083A51607DE08049283188420D
:102AD00008D17E490839496841F470617B4A083A57
:102AE000516070E079493C31884208D17749083912
:102AF000496841F47041754A083A516063E073498E
:102B00005031884208D171490839496841F470212F
:102B10006E4A083A516056E06C496431884208D1E7
:102B20006A490839496841F47001684A083A5160B5
:102B300049E066497831884208D1644908394968D2
:102B400041F07061614A083A51603CE06049884256
:102B500006D1011F096841F00F01021F116032E028
:102B60005B491431884208D15949091F096841F06D
:102B7000F001574A121F116025E05549283188425B
:102B800008D15349091F096841F47061504A121F66
:102B9000116018E04E493C31884208D14C49091F68
:102BA000096841F470414A4A121F11600BE048491C
:102BB0005031884207D14649091F096841F4702104
:102BC000434A121F1160704710B50022026847F691
:102BD000F0739A430C6A8B6823430C6923434C6956
:102BE00023438C692343CC6923434C6A23438C6A77
:102BF00023431A430260CB6843600B6883604B68D1
:102C0000C36010BD0021016041608160C16001614D
:102C100041618161C161016241628162704721B19C
:102C2000026842F00102026004E002684FF6FE739F
:102C30001A40026070471AB103680B43036002E058
:102C400003688B43036070474160704701464868E2
:102C500080B2704701460020002211F0805F03D04F
:102C60001B4B083B1A6802E0184B083B1A680A42E3
:102C700001D0012000E00020704710F0805F03D0F9
:102C80001349091F086002E010490839486070477D
:102C900001460020002211F0805F03D00C4B083B5E
:102CA0001A6802E0094B083B1A680A4201D0012069
:102CB00000E00020704710F0805F03D00449091F36
:102CC000086002E001490839486070470800024086
:102CD00008040240002044490860091D0860091DDD
:102CE0000860091D086041483F4914310860704779
:102CF00000213D498279002A3AD00A4612680368C9
:102D00009A430B461A600A1D126803689A430B1D0A
:102D10001A60027911440A6803681A430A60324A49
:102D20000832126803689A432F4B08331A601A1D41
:102D3000126803689A432C4B0C331A604279102AAC
:102D40000ED11A1F126803681A43274B08331A6002
:102D50001A1D126803681A43234B0C331A600DE0E6
:102D60002149427911440A6803681A430A6005E060
:102D7000027911440A6803689A430A607047002187
:102D8000016001710C214171002181717047164968
:102D9000103109680143144A10321160704701462E
:102DA0000020114A143212680A4201D0012000E0CA
:102DB000002070470C49143108607047014600201C
:102DC0000022094B1B6803EA0102074B14331B68FE
:102DD0000B4202D00AB1012000E0002070470249F6
:102DE000143108607047000000040140FFFF0F002D
:102DF00010B50446CA48844208D10121042000F0DD
:102E00008DFB0021042000F089FB46E0C548844288
:102E100008D10121082000F081FB0021082000F0EA
:102E20007DFB3AE0C048844208D10121102000F027
:102E300075FB0021102000F071FB2EE0BB4884429E
:102E400008D10121202000F069FB0021202000F0A2
:102E500065FB22E0B648844208D10121402000F001
:102E60005DFB0021402000F059FB16E0B148844290
:102E700008D10121802000F051FB0021802000F0CA
:102E80004DFB0AE0AC48844207D10121801500F0D7
:102E900045FB0021A01500F041FB10BD10B501213C
:102EA000084600F03BFB0021012000F037FB10BD7D
:102EB0002DE9F041024600250026002000230024D1
:102EC000002791F803C00CF00F0591F803C01CF027
:102ED000100F03D091F802C04CEA050591F800C02C
:102EE000BCF1000F31D0146800202BE04FF0010C32
:102EF0000CFA00F3B1F800C00CEA03069E4220D1A0
:102F000083004FF00F0C0CFA03F7BC4305FA03FCE7
:102F10004CEA040491F803C0BCF1280F06D14FF02D
:102F2000010C0CFA00FCC2F814C00AE091F803C0CE
:102F3000BCF1480F05D14FF0010C0CFA00FCC2F8AF
:102F400010C0401C0828D1D31460B1F800C0BCF1F7
:102F5000FF0F34DD546800202EE000F1080C4FF024
:102F6000010808FA0CF3B1F800C00CEA03069E420F
:102F700021D183004FF00F0C0CFA03F7BC4305FA84
:102F800003FC4CEA040491F803C0BCF1280F05D1FE
:102F900000F1080C08FA0CF8C2F8148091F803C08C
:102FA000BCF1480F07D100F1080C4FF0010808FAF6
:102FB0000CF8C2F81080401C0828CED35460BDE83D
:102FC000F0814FF6FF710180022181700421C170F0
:102FD00070470246002093680B4201D0012000E0B8
:102FE000002070470146886880B270470246002082
:102FF000D3680B4201D0012000E000207047014659
:10300000C86880B2704701617047416170470AB17A
:10301000016100E041617047C16070474FF4803248
:103020000A438261816182618269826970470246D6
:103030000020424B18684FF68073184040EA021097
:1030400008433E4B186070473D49C8617047F0B572
:103050000A46002300240021002500F00046B6F1B6
:10306000004F02D1354EF16901E0344E7168C0F372
:10307000034583B200F44016B6F5401F08D121F095
:1030800070612E4E766826F070662C4F7E6012E0DE
:1030900000F48016B6F5801F06D1032606FA05F463
:1030A000A14341F0706106E0460D360103FA06F6D1
:1030B000B14341F0706122B1460D360103FA06F6C4
:1030C000314300F00046B6F1004F02D11B4EF161D2
:1030D00001E01A4E7160F0BD30B500228B071C0F65
:1030E0000F2303FA04F2154B08338C1053F82430E5
:1030F0009343124C08348D1044F8253023468C102D
:1031000053F824308C07240F00FA04F423430B4CAB
:1031100008348D1044F8253030BD0A4908607047E6
:1031200000080140000C0140001001400014014063
:1031300000180140001C0140002001400000014037
:1031400000002042DC00204210B50121080700F0F9
:10315000F2F900214FF0805000F0EDF910BD29493F
:103160000862704727490861704701460020264AD7
:10317000106820F0E00008431060704723490860A1
:10318000704710B5024600201F4B186820F003005E
:10319000104318601E4B1B6843F004031C4C236053
:1031A000012901D130BF00E020BF194B1B6823F07B
:1031B0000403174C236010BD1348006840F004005E
:1031C000114908600846006840F002000860104895
:1031D000006840F004000E49086000BF00BF30BF27
:1031E000704701460020084A52680A4201D0012077
:1031F00000E0002070470449096841EA8001024A62
:103200001160704700000E4200700040A0000E42A6
:1032100010ED00E0DD48006840F00100DB49086087
:1032200008464068DA490840D849486008460068BE
:10323000D8490840D54908600846006820F4802035
:1032400008600846406820F4FE0048604FF41F0004
:1032500088607047CD49096821F48031CB4A1160FC
:103260001146096821F480211160B0F5803F03D038
:10327000B0F5802F0ED106E0C449096841F48031D1
:10328000C24A116007E0C149096841F4A021BF4A60
:10329000116000E000BF00BF704710B5014600227A
:1032A000002300204A11012A02D1B84C236806E00D
:1032B000022A02D1B54C236A01E0B44C636A01F0E2
:1032C0001F02012494401C4201D0012000E0002094
:1032D00010BD38B5002000900024002500BF31202B
:1032E000FFF7DBFF05460098401C00900098B0F502
:1032F000A06F01D0002DF2D03120FFF7CEFF08B132
:10330000012400E00024204638BD014600209F4AE9
:10331000106820F0F80040EAC100106070479E4934
:103320000860704702460020984B586820F47C10D3
:1033300042EA01031843954B586070479649086666
:10334000704701460020914A506820F0030008436E
:10335000506070478D48406800F00C00704701468F
:1033600000208A4A506820F0F000084350607047FF
:1033700001460020854A506820F4E0600843506010
:10338000704701460020814A506820F4605040EAAE
:10339000C1005060704729B17C4A527A02437B4B8E
:1033A0005A7204E0794A527A8243784B5A727047D3
:1033B0007A490860704701460020744A506820F43A
:1033C00040400843506070470021754A11706F4AB1
:1033D00082F82010012802D0042808D103E001213E
:1033E0006F4A117004E005216D4A117000E000BFC2
:1033F00000BF70476B49086070476449096A014320
:10340000624A11627047674944390860704730B5B5
:1034100000210022002400235C4D6D6805F00C01A2
:1034200021B1042905D0082923D105E05E4D0560AE
:1034300022E05D4D05601FE0544D6D6805F470128B
:10344000524D6D6805F48034022505EB92421CB99B
:10345000564D554305600BE04C4D6D6815F4003F2B
:1034600003D0524D5543056002E04F4D5543056072
:1034700002E04D4D056000BF00BF444D6D6805F092
:10348000F00109094A4D6B5C0568DD4045603F4D20
:103490006D6805F4E061090A454D6B5C4568DD40E7
:1034A00085603A4D6D6805F46051C90A404D6B5C0A
:1034B0004568DD40C560354D6D6805F44041890BB8
:1034C0003C4D6B5CC568B5FBF3F5056130BD29B1BA
:1034D0002E4A526902432D4B5A6104E02B4A52692D
:1034E00082432A4B5A61704729B1284A92690243A4
:1034F000264B9A6104E0254A92698243234B9A61E4
:10350000704729B1214AD2690243204BDA6104E0B5
:103510001E4AD26982431D4BDA61704729B11B4AAA
:10352000D2680243194BDA6004E0184AD268824339
:10353000164BDA60704729B1144A12690243134BE3
:103540001A6104E0114A12698243104B1A617047F4
:1035500014494039086070470F49C86470470B49E7
:10356000C87170470948406A40F080700749486256
:10357000704701460020054A92680A4201D00120A6
:1035800000E0002070470149887270470010024037
:103590000000FFF8FFFFF6FE00004242D800424262
:1035A000201002408004424200127A0000093D00CF
:1035B000640000207400002029B14F4A12880243A1
:1035C0004D4B1A8004E04C4A128882434A4B1A80C1
:1035D00070474948001D008840F010004649091D09
:1035E000088070474448001D00884FF6EF7108407E
:1035F0004149091D0880704700213F481C3001885F
:10360000001F008841EA0040704700B50246FFF7FE
:10361000E0FF100C384918310880091D0A80FFF7B7
:10362000E1FF00BD00B50246FFF7D3FFC2F3034040
:10363000314908310880091D0A80FFF7D3FF00BD1A
:1036400000B50246FFF7C5FF100C2B49203108805A
:10365000091D0A80FFF7C6FF00BD00202649103172
:1036600009880907080B2449143109880843704761
:1036700000BF2148001D008810F0200FF9D07047CE
:103680001D48001D00884FF6F77108401A49091DB2
:10369000088000BF1848001D008810F0080FF9D0FE
:1036A000704701460020144A121D12880A4201D0B8
:1036B000012000E0002070470F49091D098881435F
:1036C0000D4A121D11807047014600200A4A121D42
:1036D00012880A40D0B2084A12880A4202D008B1C1
:1036E000012000E0002070470349091D098881433B
:1036F000014A121D118070470028004010B5044691
:10370000FE48844208D10121C014FFF707FF0021C1
:10371000E014FFF703FFC4E0B4F1804F08D10121AA
:103720000846FFF708FF00210120FFF704FFB8E07B
:10373000F348844208D101210220FFF7FCFE00215A
:103740000220FFF7F8FEACE0EE48844208D10121E8
:103750000420FFF7F0FE00210420FFF7ECFEA0E0BC
:10376000E948844208D101210820FFF7E4FE002146
:103770000820FFF7E0FE94E0E448844208D10121EC
:103780001020FFF7D8FE00211020FFF7D4FE88E0BC
:10379000DF48844208D101212020FFF7CCFE002120
:1037A0002020FFF7C8FE7CE0DA48844208D10121DE
:1037B0004014FFF7B3FE00216014FFF7AFFE70E086
:1037C000D548844209D10121C804FFF7A7FE002192
:1037D0004FF40020FFF7A2FE63E0D048844209D1F5
:1037E00001210805FFF79AFE00214FF48010FFF732
:1037F00095FE56E0CA48844209D101214805FFF7E9
:103800008DFE00214FF40010FFF788FE49E0C54807
:10381000844208D101214020FFF78DFE0021402085
:10382000FFF789FE3DE0C048844208D10121802095
:10383000FFF781FE00218020FFF77DFE31E0BB48CD
:10384000844208D101218015FFF775FE0021A015E3
:10385000FFF771FE25E0B648844209D10121080432
:10386000FFF75CFE00214FF48030FFF757FE18E0B1
:10387000B048844209D101214804FFF74FFE0021DE
:103880004FF40030FFF74AFE0BE0AB48844208D10A
:1038900001218804FFF742FE00214FF48020FFF74A
:1038A0003DFE10BD00220288944B98420ED0994BE9
:1038B00098420BD0B0F1804F08D0914B984205D080
:1038C000904B984202D0904B984204D14FF68F73A0
:1038D0001A404B881A438D4B984207D08C4B984224
:1038E00004D04FF6FF431A40CB881A4302808B88DE
:1038F00083850B880385814B98420BD0854B98427A
:1039000008D08B4B984205D08A4B984202D08A4B04
:10391000984201D10B7A038601238382704770B5E8
:10392000002400220023058C4FF6FE7635400584E6
:10393000028C8388048B4FF68F752C40B51E2C406B
:103940000D882C43751E2A400D892A434D882A4331
:103950006A4DA8420BD06F4DA84208D0744DA842C2
:1039600005D0744DA84202D0734DA84213D14FF632
:10397000F7752A404D892A434FF6FB752A408D88FA
:103980002A434FF6FF652B404FF6FF552B408D899C
:103990002B43CD892B4383800483CD888586028485
:1039A00070BD70B5002400220023058C4FF6EF7621
:1039B00035400584028C8388048B48F6FF752C40C3
:1039C0004FF6FF452C400D884FF6FF7606EA052599
:1039D0002C434FF6DF752A400D8906EA05152A4368
:1039E0004D8806EA05152A43444DA84202D0494DA8
:1039F000A8421DD14FF67F752A404D894FF6FF76BC
:103A000006EA05152A434FF6BF752A408D8806EA57
:103A100005152A434FF6FF352B404FF2FF752B401B
:103A20008D8906EA85052B43CD8906EA85052B435A
:103A300083800483CD880587028470BD70B500241F
:103A400000220023058C4FF6FF6635400584028C6A
:103A50008388848B4FF68F752C404FF6FC752C4075
:103A60000D882C434FF6FF552A400D894FF6FF76FF
:103A700006EA05252A434D8806EA05252A431F4DF7
:103A8000A84202D0234DA8421DD14FF2FF752A4013
:103A90004D894FF6FF7606EA05252A434FF6FF3596
:103AA0002A408D8806EA05252A434EF6FF752B40ED
:103AB0004DF6FF752B408D8906EA05152B43CD8900
:103AC00006EA05152B4383808483CD88858702848D
:103AD00070BD70B5002200230024058C4EF6FF76E1
:103AE00035400584038C8488828B48F6FF752A4014
:103AF0004FF6FF452A400D8820E00000002C0140D1
:103B00000004004000080040000C0040001000408D
:103B10000014004000340140004C014000500140BE
:103B20000054014000180040001C004000200040EC
:103B30000040014000440140004801404FF6FF763C
:103B400006EA05252A434DF6FF752B400D8906EA46
:103B500005352B434D8806EA05352B43FA4DA8421F
:103B600002D0FA4DA84208D14BF6FF752C408D8942
:103B70004FF6FF7606EA85152C4384808283CD8834
:103B8000A0F84050038470BD828B4FF2FF331A407F
:103B90008283828B4FF6FF7303EA01231A438283E9
:103BA0007047F0B50C461546002200210026078C10
:103BB0004EF6FF7C07EA0C070784828B018C4FF6D8
:103BC000FF7707EA043640F6FF473A404FF6FF77A3
:103BD00007EA05273A434FF6FF7707EA03373A43E8
:103BE000D94FB8420ED0D94FB8420BD0B0F1804F68
:103BF00008D0D74FB84205D0D64FB84202D0D64FE2
:103C0000B84206D14DF6FF77394046F48057394324
:103C100005E047F6FF57394044F480573943828323
:103C20000184F0BD828B4FF6F3731A408283828B3E
:103C30000A4382837047F0B50C46154600220021E6
:103C40000026078C4FF6FF6C07EA0C070784828B6F
:103C5000018C4FF6FF7707EA04264FF60C773A40BF
:103C60004FF6FF7707EA03172F433A43B64FB842A0
:103C70000ED0B64FB8420BD0B0F1804F08D0B44F41
:103C8000B84205D0B34FB84202D0B34FB84206D1C4
:103C90004FF6FF57394046F48077394305E04FF23D
:103CA000FF57394044F48077394382830184F0BD63
:103CB000028B4FF2FF331A400283028B4FF6FF73E1
:103CC00003EA01231A4302837047F0B50C461546F8
:103CD000002200210026078C4FF6EF7C07EA0C0734
:103CE0000784028B018C4FF6FF7707EA041640F633
:103CF000FF473A404FF6FF7707EA03373A434FF65C
:103D0000FF7707EA05273A438F4FB8420ED08F4F0F
:103D1000B8420BD0B0F1804F08D08D4FB84205D0DB
:103D20008C4FB84202D08C4FB84206D14FF6DF77A5
:103D3000394046F01007394305E04FF65F773940C8
:103D400044F01007394302830184F0BD028B4FF623
:103D5000F3731A400283028B0A4302837047F0B563
:103D60000C46154600220021068C4FF6FE773E4099
:103D70000684028B018C4FF60C7632407E1C06EADC
:103D800003162E433243704EB0420ED06F4EB042F7
:103D90000BD0B0F1804F08D06D4EB04205D06D4EC3
:103DA000B04202D06C4EB04206D14FF6FD763140A3
:103DB00044F00106314305E04FF6F576314044F01A
:103DC0000106314302830184F0BD70B505460C46FF
:103DD0005D4885420ED05D4885420BD0B5F1804FDD
:103DE00008D05B48854205D05A48854202D05A48DF
:103DF000854200D100E000BF208850B92389A28805
:103E000061882846FFF7ABFFE1882846FFF79EFF51
:103E100025E0208804280AD12389A28861882846C1
:103E2000FFF753FFE1882846FFF742FF17E020889D
:103E300008280AD12389A28861882846FFF7FBFE5B
:103E4000E1882846FFF7EEFE09E02389A288618811
:103E50002846FFF7A6FEE1882846FFF795FE70BDCD
:103E60002DE9F04105460C4600260127608808B977
:103E7000022600E00026A088012801D1022700E0E8
:103E800001272088A0B92389A28861882846FFF7E6
:103E900066FFE1882846FFF759FF23893A463146F5
:103EA0002846FFF712FFE1882846FFF701FF13E0DD
:103EB0002389A28861882846FFF707FFE188284602
:103EC000FFF7F6FE23893A4631462846FFF747FFBB
:103ED000E1882846FFF73AFFBDE8F0810A884B8861
:103EE0001A438B881A43CB881A430B891A434B8990
:103EF0001A438B891A43A0F8442070474FF6FF718C
:103F0000818000210180C1804180017270470021C1
:103F1000018041808180C180018141818181C18195
:103F20007047002101804180012181800021C180F2
:103F3000018170470021018041808180C180018121
:103F40004181818170470000002C01400034014014
:103F50000004004000080040000C004021B102882D
:103F600042F00102028004E002884FF6FE731A401C
:103F70000280704731B1B0F8442042F40042A0F80A
:103F8000442005E0B0F84420C2F30E02A0F844201B
:103F900070471AB183890B43838102E083898B4385
:103FA000838170478182704741EA0203A0F848305C
:103FB00070471AB183890B43838102E083898B4365
:103FC0008381704701894FF6F87211400181704773
:103FD0000A46002101894FF68F7319401143018170
:103FE000704730B504460D4629462046FFF7F0FFDE
:103FF000208940F00700208130BD2DE9F0410446C2
:104000000D4616461F46602D06D13B46012231461D
:104010002046FFF75AFE05E03B4601223146204686
:10402000FFF79DFE29462046FFF7D2FF208940F08A
:1040300007002081BDE8F08130B50C4600210189E0
:10404000C9B24FF6FF7505EA0325154325432943F9
:10405000018130BD2DE9F04105460E4617469846D0
:10406000002443463A4631462846FFF7E5FF2C89AF
:104070004FF6F870044044F007044FF68F70044088
:1040800044F070042C81BDE8F081F0B504460D4683
:1040900016461F463B46324629462046FFF7CCFFD0
:1040A000208940F480402081F0BD018582827047E4
:1040B0000A46002101884FF68F7319401143018091
:1040C0007047F0B50C4615461E460021002200231D
:1040D0000189028B038C4FF6F877394021434FF664
:1040E000FC473A4040F201173A434FF6DD773B4038
:1040F0004FF6FF7707EA06172F433B430181028300
:104100000384F0BD0A460021018B4FF68F731940DE
:104110001143018370470A460021018B48F6FF7363
:1041200019404FF6FF7303EA0223194301837047D6
:104130000A460021818B4FF68F731940114381830A
:1041400070470A460021818B48F6FF7319404FF6ED
:10415000FF7303EA022319438183704721B1028868
:1041600042F08002028004E002884FF67F731A401A
:104170000280704721B1828842F00402828004E00C
:1041800082884FF6FB731A408280704721B1828883
:1041900042F00802828004E082884FF6F7731A40EA
:1041A0008280704721B1828842F00102828004E05F
:1041B00082884FF6FE731A40828070470A460021BB
:1041C000018B4FF6F77319401143018370470A467C
:1041D0000021018B4FF2FF7319404FF6FF7303EA82
:1041E00002231943018370470A460021818B4FF651
:1041F000F77319401143818370470A460021818B70
:104200004FF2FF7319404FF6FF7303EA022319437D
:10421000818370470A460021018B4FF6FB731940DA
:104220001143018370470A460021018B4FF6FF338B
:1042300019404FF6FF7303EA0223194301837047C5
:104240000A460021818B4FF6FB731940114381838D
:1042500070470A460021818B4FF6FF3319404FF615
:10426000FF7303EA02231943818370470A46002142
:10427000018B4FF67F7319401143018370470A4643
:104280000021018BC1F30E014FF6FF7303EA0223F5
:104290001943018370470A460021818B4FF67F73D3
:1042A00019401143818370470A460021818BC1F375
:1042B0000E014FF6FF7303EA02231943818370470F
:1042C0000A460021018C4FF6FD7319401143018409
:1042D00070470A460021018C4FF6F77319401143CD
:1042E000018470470A460021018C4FF6DF731940A4
:1042F0004FF6FF7303EA02131943018470470A461D
:104300000021018C4FF67F7319404FF6FF7303EACB
:1043100002131943018470470A460021018C4FF6AD
:10432000FF5319404FF6FF7303EA02231943018438
:1043300070470A460021018C4FF2FF7319404FF677
:10434000FF7303EA02231943018470470A460021E0
:10435000018C4DF6FF7319404FF6FF7303EA0233E9
:1043600019430184704730B5002301248C40A3B267
:10437000048C9C430484048C02FA01F5ADB22C43F6
:10438000048430BD30B5002304248C40A3B2048CD7
:104390009C430484048C02FA01F5ADB22C430484DE
:1043A00030BD70B5034600200024184618300125A2
:1043B0008D40ACB21D8CA5431D8409B1082909D1DB
:1043C00000EB6100056825F0700505600568154380
:1043D00005600EE00D1FC5F34E052844056825F461
:1043E000E045056005684FF6FF7606EA022635438C
:1043F000056070BD21B1028842F00202028004E033
:1044000002884FF6FD731A400280704721B102887E
:1044100042F00402028004E002884FF6FB731A4067
:104420000280704721B1828842F08002828004E0DD
:1044300082884FF67F731A408280704702884FF659
:10444000F7731A40028002880A430280704782880C
:104450004FF68F731A40828082880A4382807047A9
:1044600002894FF6F8731A40028102890A430281D9
:10447000704702894FF67F731A40028102890A430E
:1044800002817047818470478185704781867047BB
:104490000187704781877047A0F8401070470288F5
:1044A0004FF6FF431A40028002880A430280704799
:1044B0000146888E70470146088F70470146888FF5
:1044C00070470146B1F8400070470146888C70473C
:1044D0000146088D704702460020138A0B4201D026
:1044E000012000E000207047CA430282704730B5C7
:1044F0000246002000230024158A05EA010395895D
:1045000005EA010413B10CB1012000E0002030BD28
:10451000CA4302827047000010B50446FB4884423B
:1045200009D101218803FEF7F9FF00214FF48040F3
:10453000FEF7F4FF32E0F648844209D10121480435
:10454000FEF7F9FF00214FF40030FEF7F4FF25E0FD
:10455000F048844209D101218804FEF7ECFF0021D4
:104560004FF48020FEF7E7FF18E0EB48844209D1C2
:104570000121C804FEF7DFFF00214FF40020FEF701
:10458000DAFF0BE0E548844208D101210805FEF777
:10459000D2FF00214FF48010FEF7CDFF10BD2DE9B2
:1045A000F04786B005460E460024A24600BFA1464D
:1045B0000027B08900B100BF2F462C8A4CF6FF704F
:1045C0000440F08804432C82AC894EF6F31004407A
:1045D000B08831890843718908430443AC81AC8AAF
:1045E0004FF6FF400440B0890443AC8201A8FEF7B7
:1045F0000EFFC648874202D1DDF810A001E0DDF8C9
:104600000CA0A88910F4004F08D00AEBCA0000EBF8
:104610000A1031684900B0FBF1F807E00AEBCA0064
:1046200000EB0A1031688900B0FBF1F86420B8FB98
:10463000F0F004012009642101FB1089A88910F41D
:10464000004F08D0322000EBC900B0FBF1F000F0C1
:104650000700044308E0322000EB09106421B0FB9E
:10466000F1F000F00F0004432C8106B0BDE8F087A4
:104670004FF41651016000218180C18001810C211D
:10468000418100218181704710B502460020108AC7
:104690004FF2FF0318400B884C8823438C88234338
:1046A000CC8823431843108210BD00210180418033
:1046B0008180C180704721B1828942F40052828199
:1046C00004E082894DF6FF731A4082817047F0B58D
:1046D00003460024002600250020A1F510676A3F4C
:1046E00000D100BF1846C1F3421401F01F06012794
:1046F00007FA06F5012C01D10C3004E0022C01D19F
:10470000103000E014301AB107682F43076002E050
:104710000768AF430760F0BD1AB1838A0B438382F9
:1047200002E0838A8B4383827047028A4FF6F073DC
:104730001A400282028A0A430282704782894FF23B
:10474000FF731A40828182890A438281704721B1B6
:10475000828942F00202828104E082894FF6FD7371
:104760001A4082817047028A4FF6DF731A40028234
:10477000028A0A430282704721B1028A42F48042CF
:10478000028204E0028A4BF6FF731A4002827047ED
:10479000C1F308028280704701468888C0F3080090
:1047A0007047818941F0010181817047028BD2B24B
:1047B0000283028B42EA012202837047028B02F4D9
:1047C0007F420283028B0A430283704721B1828AAF
:1047D00042F02002828204E0828A4FF6DF731A40A0
:1047E0008282704721B1828A42F01002828204E004
:1047F000828A4FF6EF731A408282704721B1828A13
:1048000042F00802828204E0828A4FF6F7731A406F
:104810008282704721B1828942F40042828103E0A2
:104820008289C2F30E028281704721B1828A42F4EA
:104830000062828204E0828A4FF2FF731A40828211
:104840007047828A4FF6FB731A408282828A0A433B
:104850008282704721B1828A42F00202828204E0A1
:10486000828A4FF6FD731A4082827047024600200A
:10487000B1F5007F00D100BF13880B4201D00120A9
:1048800000E00020704701F40072B2F5007F00D113
:1048900000BFCA430280704770B50246002400235F
:1048A00000250020A1F510666A3E00D100BFC1F3CB
:1048B000421501F01F03012606FA03F3012D02D170
:1048C0009689334006E0022D02D1168A334001E07A
:1048D000968A33400C12012606FA04F416883440F6
:1048E00013B10CB1012000E0002070BD10B5002212
:1048F0000023A1F510646A3C00D100BF0A12012414
:104900009440A3B2DC43048010BD00000038014095
:104910000044004000480040004C0040005000406F
:1049200000B58DB0099000920B904FF0FF300A90C7
:1049300000200C9004480690044807906A4609A895
:1049400000F0D4FD0DB000BD095500082755000842
:104950002DE9FE4F804681EA0300C00F0C4600900F
:1049600021F0004123F00045B8EB0200A94105D237
:104970004046214690461C460B46024623F0004026
:10498000104304D14046214603B0BDE8F08F270D07
:10499000C7F30A00C3F30A510290401A019040285D
:1049A00066DAC3F3130040F4801B0098924620B1EE
:1049B0000023D2EB030A63EB0B0B01985946C0F1BD
:1049C0004002504600F0FDF906460D465046594655
:1049D000019A00F015FA10EB08006141002487EA03
:1049E000115284EAE7731A433BD0009A3AB3019A12
:1049F000012A4FEA075210DC001B61EB02014FF065
:104A0000004202EA0752CDE90042001C41F5801144
:104A100032462B4600F0DBFDB6E7001B61EB0201DE
:104A2000001C41F5801300185B412018A2F5001707
:104A300047EB030140EAD570B6196D4111E06D08EE
:104A40004FEA360645EAC0754FEA0752001B61EB94
:104A50000201001C41F5801149084FEA300000199D
:104A6000514132462B4603B0BDE8F04F00F0A2BDE5
:104A70000098012240000023D0EB020263EBE073B8
:104A8000009821464FEAE074B8EB000061EB0401A6
:104A9000E9E783F000435BE781F0004158E72DE947
:104AA000FE4F81EA030404F0004421F00041009429
:104AB0004FF0000B23F0004350EA010402D052EA09
:104AC000030404D10020014603B0BDE8F08FC3F316
:104AD0000A54C1F30A552C44A4F2F3340194A0FB08
:104AE0000254C1F3130141F48011C3F3130343F4DF
:104AF000801301FB024400FB034E840A970A44EA38
:104B0000815447EA8357A4FB076802958D0A05FB89
:104B100007854FEA932C04FB0C542705029D4FEAAE
:104B2000065847EA1637B5EB08056EEB070C870EFB
:104B3000920E47EA811742EA8312A7FB0201B6EB05
:104B40000B0164EB00042B0D43EA0C335E1844EBBD
:104B50001C50DA465146E7FB0201C5F313044FEA45
:104B60000B3343EA14534FEA0432019C43EA060331
:104B7000A4F10C040294009CCDE900B400F027FDE0
:104B8000A2E72DE9F04D81EA030404F0004B21F087
:104B9000004514464FF0000A23F0004150EA050298
:104BA00020D054EA01021DD0C5F30A570246C5F3CE
:104BB0001303C1F31300C1F30A5640F4801543F404
:104BC0008013A7EB0608101BD64608F2FD3873EBDE
:104BD000050002D308F1010801E092185B41B8F129
:104BE000000F03DA00200146BDE8F08D00204FF4ED
:104BF0008011064684460EE0171B73EB050705D3AC
:104C0000121B63EB050306434CEA010C49084FEA0B
:104C1000300092185B4150EA0107EDD152EA0300DF
:104C200012D082EA040083EA0501084303D100227E
:104C30004FF0004308E0101BAB4102D201220023D9
:104C400002E06FF0010253101AEB06004CEB085122
:104C500010EB0A0041EB0B01BDE8F04D00F0AABCDF
:104C60000EB540F2334102910021CDE900110A4610
:104C70000B4600F0ACFC03B000BDC1F30A5210B506
:104C8000C1F3130140F2FF3341F480119A4201DA7B
:104C9000002010BD40F233439A42A2F2334203DCBB
:104CA000524200F09DF810BD904010BD30B5002973
:104CB00004DB4FF00044404264EB0101002B04DBB5
:104CC0004FF00044524264EB03038B4208BF824220
:104CD00030BD000030B5002904DB4FF000444042F5
:104CE00064EB0101002B04DB4FF00044524264EB03
:104CF0000303994208BF904230BD000001F0004319
:104D000030B421F0004150EA010206D00A0DA2F5AC
:104D10006072C1F31301002A02DC30BC002070472E
:104D2000440F44EAC104C100E01830BC00EBC2509B
:104D300000F00ABC30B50B460146002020220124B9
:104D400009E021FA02F59D4205D303FA02F5491B59
:104D500004FA02F52844151EA2F10102F1DC30BD6F
:104D60002DE9F05F0546002092469B4688460646A0
:104D7000814640241BE0284641464746224600F033
:104D80002FF853465A46C01A914110D3114618467F
:104D9000224600F016F82D1A67EB01084F4622460E
:104DA0000120002100F00DF817EB00094E41201EF4
:104DB000A4F10104DFDC484631462A464346BDE8FB
:104DC000F09F202A04DB203A00FA02F1002070470D
:104DD0009140C2F1200320FA03F319439040704739
:104DE000202A04DB203A21FA02F00021704721FA40
:104DF00002F3D040C2F120029140084319467047A7
:104E0000202A06DBCB17203A41FA02F043EAE0738E
:104E100006E041FA02F3D040C2F12002914008437B
:104E2000194670472DE9FF4F1C4681B00021D4E997
:104E3000016791464FF0FF358A468846A1696D1C8F
:104E400002988847216A834688470028F6D11BF1DB
:104E500001000CD026F4C066002F1ADD700615D5AF
:104E6000BBF12B0F0AD0BBF12D0F0FD104E04FF097
:104E7000FF3005B0BDE8F08F46F48066A1696D1C77
:104E8000029888477F1E8346002F02DDBBF1300F5A
:104E900003D0B9F1000F2AD025E07F1EA16946F4A6
:104EA00000766D1C029888478346002F05DDBBF114
:104EB000780F06D0BBF1580F03D0B9F1000F10D016
:104EC00011E0B9F1000F02D0B9F1100F0BD17F1E24
:104ED000A16926F400766D1C02988847834610204D
:104EE00000E0082081464FEAE970009017E00A20B0
:104EF000F8E74346AAFB092803FB0980DDF800C058
:104F00007F1E0AFB0C0112EB0B0A41EBEB78A16947
:104F100046F4007605F10105029888478346002F84
:104F200006DD4946584600F0D4FBB0F1000BE0DA4C
:104F3000E16902988847B00502D46FF0010098E754
:104F4000F00718D1700610D57005514605D500231D
:104F5000D1EB030163EB080200E042462068031D29
:104F600023600068C0E9001205E02068011D21608F
:104F70000068C0E900A828467BE72DE9FF5F1D46D1
:104F80004FF0FF3BD5E9014691465F464FF00008E0
:104F9000A9697F1C01988847296A824688470028AA
:104FA000F6D11AF101000CD024F4C064002E19DDF2
:104FB000600614D5BAF12B0F09D0BAF12D0F0ED11E
:104FC00003E0584604B0BDE8F09F44F48064A9694A
:104FD0007F1C01988847761E8246002E02DDBAF1BA
:104FE000300F03D0B9F1000F26D032E0761EA96948
:104FF00044F400747F1C019888478246002E05DD2A
:10500000BAF1780F06D0BAF1580F03D0B9F1000FFA
:1050100010D01EE0B9F1000F02D0B9F1100F18D175
:10502000761EA96924F400747F1C01988847824683
:10503000102002E0082000E00A20814609E008FB79
:105040000908761EA96944F400747F1C01988847FA
:105050008246002E05DD4946504600F03AFB002806
:10506000EDDAE96901988847A00502D46FF00100E4
:10507000A8E7E00727D1600614D5600502D5C8F17E
:10508000000000E04046296801F104022A60096836
:10509000220501D5087016E0220701D5088012E02C
:1050A000086010E0286800F104012960006821050B
:1050B00002D580F8008006E0210702D5A0F8008024
:1050C00001E0C0F8008038467CE72DE9FF5FD2E9B7
:1050D00001A74FF00008916999461446DDF838B0F1
:1050E000464601988847054659EA0B0005D009E075
:1050F000A169761C019888470546216A2846884799
:105100000028F5D1681C03D05FEACA7005D015E00D
:105110004FF0FF3004B0BDE8F09F2068011D216012
:10512000D0F800800AE05FEACA7001D108F8015B9C
:105130007F1EA169761C019888470546002F1ADD5D
:10514000681C18D0B9F1000F0DD0E81705EBD0603E
:10515000421120F01F0059F822102A1A0120904015
:105160000142E0D107E0BBF1000FDCD1216A284603
:1051700088470028D7D0E169019888470AF00100E4
:1051800050EA0B0002D1002188F80010A068B84254
:1051900003DDBBF1000F03D017B16FF00100B9E7D9
:1051A0003046B7E72DE9FF4F087881B09946FF28D0
:1051B00005D0491C2D2804D00024002308E000233A
:1051C0000BE00124F9E703EB830300EB4303491CE5
:1051D0000878FF28F7D104B15B42002000901478D2
:1051E00001462D2C01D02B2C04D1521C2D2C12D079
:1051F0000024009400251678FF2E0ED00A24A0FB70
:1052000004C801FB0481002700FB0711521C16EBA8
:105210000C006941EFE70124EBE7994450EA0102F1
:1052200006D101980021C0E9001105B0BDE8F08F5A
:105230000024A84D2646DFF8A08200F0EFFB82464E
:105240008B46B9F1000002DAC9F1000714E0074605
:1052500012E0F80707D022462B4630464146FFF7BA
:105260001EFC0646884622462B4610461946FFF786
:1052700016FC04460D467F10002FEAD1B9F1000F4D
:10528000324643465046594602DAFFF77AFC01E0BF
:10529000FFF705FC009A0AB181F00041019AC2E9CA
:1052A0000001C2E72DE9FF4F1F468DB0D7E9014647
:1052B0004FF0FF382E2045464FF000090B90B9699A
:1052C0006D1C0E988847396A824688470028F6D1B7
:1052D0001AF101000AD024F4D064002E12DDBAF1D4
:1052E0002B0F08D0BAF12D0F0CD102E0404611B0BF
:1052F0009CE744F48064B9696D1C0E988847824627
:10530000A6F101066946600501D52D2000E02B209D
:105310008DF8000001F1010B0DF1200809E0B969D9
:105320006D1C0E98884782460F98761E44F40074D0
:105330000560002E02DDBAF1300FF0D00B998A45DE
:105340003ED144F0800406E00F99681CA9F10109E0
:1053500044F400740860761EB9696D1C0E98884785
:1053600082463028F0D02BE00B998A4505D12006E3
:1053700003D444F08004761E18E0504600F03EFC52
:1053800008B3761E0DF1130144F400748B4508D266
:10539000AAF130000BF8010B200607D5A9F1010096
:1053A00003E0200602D409F101008146A00502D5E0
:1053B0000F99681C0860B9696D1C0E988847824671
:1053C000002ED1DC54E0002E52DDBAF1650F02D080
:1053D000BAF1450F4CD1A0054AD5761EB96924F41F
:1053E00040746D1C0E9888478246002E0DDD2B28D8
:1053F00004D0BAF12D0F08D144F48074B9696D1C42
:105400000E9888478246A6F10106E00501D52D21B8
:1054100000E02B2108F8011BCDF82C8021E0761E3E
:105420000DF1290144F4007488450CD2AAF1300032
:1054300010F0FF0088F8000002D10B99884509D9C7
:1054400008F1010806E0E00501D5244801E042F238
:105450000F708146B9696D1C0E98884782460F9877
:105460000560002E04DD504600F0C8FB0028D6D1B0
:10547000F9690E988847FF208BF8000088F8000033
:105480000020069007904B466A4608A906A8FFF739
:1054900089FEA00502D46FF0010028E714F0240F64
:1054A0000AD0E00714D1DDE906123868031D3B601D
:1054B0000068C0E900120BE0DDE90601FFF71EFC01
:1054C0000146E00704D13868021D3A6000680160B7
:1054D00028460CE7000024400000F03FF1D8FFFF11
:1054E000026811441378016018467047D16004497E
:1054F00051610449116200211161114600F0F8B8B0
:10550000E1540008C9560008426842B1016811F828
:10551000013B23B1521EC0E9001218467047012119
:10552000C160881E704742685AB1C368016843B9B8
:1055300083688B4205D0491E521CC0E9001200202E
:1055400070474FF0FF3070470029A8BF7047401CDC
:10555000490008BF20F00100704710B4B0FA80FC89
:1055600000FA0CF050EA010404BF10BC704749B1C6
:10557000CCF1200421FA04F411FA0CF118BF012136
:1055800021430843A3EB0C01CB1D0106000A002BAD
:10559000BEBF002010BC704700EBC3501044002970
:1055A000A4BF10BC7047401C490008BF20F0010098
:1055B00010BC704710B5002B08DA401C41F1000107
:1055C00092185B411A4301D120F0010010BD2DE972
:1055D000F04D92469B4611B1B1FA81F202E0B0FA69
:1055E00080F220329046FFF7ECFB04460F4640EA7B
:1055F0000A0041EA0B0153465A46084303D12046AC
:105600003946BDE8F08D114653EA010015D0C8F1C6
:1056100040025046FFF7E4FB05460E465046594609
:105620004246FFF7CEFB084301D0012000E00020F6
:10563000054346EAE0762C4337430A984FEA445341
:10564000A0EB08004FEAD4240A304FF0000244EAED
:1056500047544FEAD72502D500200146D1E701057E
:1056600010196941DDE9084500196941BDE8F04DAF
:10567000A0E7C1F30A52C1F3130140F2FF3341F432
:1056800080119A4202DA00200146704740F233430B
:105690009A42A2F2334202DC5242FFF7A1BBFFF76B
:1056A00090BB0000064C074D06E0E06840F00103A7
:1056B00094E8070098471034AC42F6D3FAF71AFD85
:1056C000A8630008C8630008C0B24FF4F05100F0AE
:1056D000B1B93A2800D2303820F02002412A01D353
:1056E000A2F13700884201D34FF0FF30704700002D
:1056F0002DE9F34F8BB04FF0000801F10C000C4680
:105700004FF0010B46460DF1080A01906269012134
:105710000198904705002DD0252D2CD0216A88476F
:10572000C0B16269012101989047216A8847002829
:10573000F7D1411E62690198904700E0761CA1698B
:105740000B988847216A88470028F7D1E1690B98B0
:105750008847DBE7A1690B9888470746A84201D133
:10576000761CD3E7E1690B9888477F1C02D1B8F11A
:10577000000F6FD045E1002762693D463946019828
:1057800090472A2804D16269012101989047012598
:10579000DFF884926269012101989047A0F13001FD
:1057A0000A290AD24F45E5DC07EB870100EB4107E8
:1057B000303FDFD445F01005ECE7E90601D46FF087
:1057C00000476C280AD04C2814D0682815D06A28C5
:1057D0000DD074281CD07A281AD01DE062690121EE
:1057E000019890476C2802D045F0040514E045F07C
:1057F00002050DE045F020050AE0626901210198EB
:105800009047682802D045F0080505E045F400659A
:105810006269012101989047C4E9015765283DD08C
:1058200019DC582879D00CDC452837D004DC252831
:1058300026D0412831D131E046282FD047282CD11D
:105840002CE05B287FD0612828D063287BD0642897
:1058500023D159E0CFE06F2847D008DC66281DD05F
:1058600067281BD0692821D06E2816D127E0702820
:1058700044D0732867D0752846D078280DD14CE0E5
:10588000A1690B988847054625283FF469AFE1696F
:105890000B9888476D1C3FF46AAFB2E023466A4616
:1058A0006FF001000B99FFF7FDFC9DE045F0400013
:1058B0006060A80723464FF0000235D43DE0206821
:1058C00000F1040121600068290501D506701DE77B
:1058D000290701D5068019E7A90704D54FEAE67123
:1058E000C0E9006112E7066010E745F04000606023
:1058F000A80723464FF0080216D41EE040F60E011A
:1059000025EA0100606016E045F040006060A807ED
:1059100023464FF00A0207D40FE045F040006060D4
:10592000A80708D5234610226FF001000B99FFF756
:1059300079FA59E007E0234610226FF001000B9935
:10594000FFF71BFB50E04FF000094F464B46632822
:1059500002D05B2806D040E0E80601D40120A06018
:1059600001273AE062690121019890475E2805D13C
:105970004FF001096269494601989047216939B998
:1059800000210B46524642F82130491C0829FADB17
:10599000B0B3216969B9C11700EBD1614B110AEBB2
:1059A000830221F01F01411A01201368884003433C
:1059B000136062690121019890475D28E8D1B9F12F
:1059C000000F09D00020514651F82020D24341F861
:1059D0002020401C0828F7DB02AB224600976FF01E
:1059E00001000B99FFF771FB00280CDA401C08D16D
:1059F000BBF1000F05D04FF0FF300DB0BDE8F08FC8
:105A0000FFE74046F9E7E90701D108F1010806443C
:105A10004FF0000B7AE60000CCCCCC0C0EB540F277
:105A2000334202920022CDE900221346FFF7CFFD58
:105A300003B000BD7F2801D9002208E0064A02EB2E
:105A40005002C007127800D1120902F00F020120A3
:105A50009040084070470000686300087CB5491E0C
:105A60001C461546CDE90001044B6A4621462846EE
:105A700000F0CCF8009A002111707CBD536300083F
:105A800002E008C8121F08C1002AFAD17047704707
:105A9000002001E001C1121F002AFBD17047000065
:105AA0002DE9FF5FDDE90220010DDDF838B002438A
:105AB00010D10F9801244CA2012808D00021009891
:105AC0000F9BC0E90021C0E90243BDE8FF9F6FEAD8
:105AD0000B01F4E7A1F2FF3144F6105041430D14DD
