:020000040800F2
:10000000E0490020D91A000825030008270300084A
:100010002B0300082F030008330300080000000032
:10002000000000000000000000000000EB1A0008C3
:100030003703000800000000390300083B030008F4
:10004000F31A0008F31A0008F31A000885150008CF
:10005000F31A0008F31A0008A10A0008B50A0008FC
:10006000C90A0008DD0A0008F10A0008FF060008B6
:10007000F31A0008F31A0008F31A0008D141000827
:10008000F3410008F31A0008F31A0008F31A0008F5
:10009000F31A0008F31A0008F31A0008050B000809
:1000A000F31A000867470008F31A0008F31A00085B
:1000B0008B470008E1130008AF470008F31A000857
:1000C000F31A0008F31A0008F31A0008F31A0008DC
:1000D000F31A00081542000845420008F31A000808
:1000E000830B00087B150008F31A0008F31A0008B8
:1000F000F31A0008F31A0008F31A0008F31A0008AC
:10010000F31A0008F31A0008F31A0008F31A00089B
:10011000F31A0008F31A0008F31A0008F31A00088B
:10012000F31A0008F31A0008F31A0008F31A00087B
:10013000DFF810D005F084FB04F0C6FF004800474C
:100140003D030008E04900200CB50020019000901C
:100150006B48006840F480306949086000BF684817
:10016000006800F4003000900198401C0190009855
:1001700018B90198B0F5A06FF1D16148006810F48A
:10018000003F02D00120009001E000200090009884
:10019000012842D15B48006840F0100059490860CE
:1001A0000846006820F0030008600846006840F038
:1001B000020008605248406851494860084640685B
:1001C00048600846406840F48060486008464068DF
:1001D00020F47C1048600846406840F4E81048600D
:1001E0000846006840F08070086000BF444800681E
:1001F00010F0007FFAD04248406820F003004049E8
:1002000048600846406840F00200486000BF3C4833
:10021000406800F00C000828F9D10CBD10B5FFF7BC
:1002200093FF10BD10B53648006840F00100344916
:10023000086008464068344908403149486008462B
:100240000068324908402E4908600846006820F4DA
:10025000802008600846406820F4FE0048604FF4A3
:100260001F008860FFF7DAFF4FF000602849086040
:1002700010BD10B5002100200022214B5B6803F067
:100280000C0121B1042906D0082928D107E0214B0F
:10029000214C236027E01F4B1F4C236023E0184BA9
:1002A0005B6803F47010164B5B6803F48032022322
:1002B00003EB904022B9194B4343174C23600DE0E8
:1002C0000F4B5B6813F4003F04D0144B4343124CB4
:1002D000236003E00F4B43430F4C236003E00D4BBF
:1002E0000D4C236000BF00BF054B5B68C3F30313D5
:1002F0000B4CE15C084B1B68CB40074C236010BDE6
:1003000000100240002002400000FFF8FFFFF6FE50
:1003100008ED00E000127A000000002000093D0016
:10032000040000207047401C704700BFFEE700BF7C
:10033000FEE700BFFEE7704770477047ADF6582DE7
:1003400000F0F8F900234FF4165213490DF6180087
:1003500003F0EDFF0DF61801684604F05FFC19E0AC
:1003600096234FF480620D49684604F09BFC0C49CB
:10037000684604F0B3FC40B109480078762802D002
:10038000992801D100E000BF00BF06480068401C6A
:1003900004490860E4E700005C060020D400002067
:1003A0001C000020140000200146102929D2DFE89B
:1003B00001F0080A0C0E10121416181A1C1E202226
:1003C0002426D5487047D448FCE7D348FAE7D248FA
:1003D000F8E7D148F6E7D048F4E7CF48F2E7CE484F
:1003E000F0E7CE48EEE7CD48ECE7CD48EAE7CC4869
:1003F000E8E7CB48E6E7CA48E4E7C948E2E7C84887
:10040000E0E70020DEE70146102929D2DFE801F00D
:10041000080A0C0E10121416181A1C1E202224266C
:10042000012070470220FCE70420FAE70820F8E7E3
:100430001020F6E72020F4E74020F2E78020F0E7E4
:100440000120EEE70220ECE70120EAE70220E8E7DE
:100450000420E6E70820E4E71020E2E72020E0E7B8
:100460000020DEE770B500250022002619E0AD4926
:1004700009680968885DFFF797FF0446A64884422B
:1004800002D102F001020AE0A448844202D102F043
:10049000020204E0A248844201D102F00402701C6E
:1004A000C6B2A04800680079B042E0DC12F0010F4B
:1004B00001D045F0040512F0020F01D045F0080507
:1004C00012F0040F01D045F01005284670BD10B59C
:1004D00000209449096848710121934801F00FFCFC
:1004E00010BD024600210BE08E4800680068405CA9
:1004F000904203D18D4830F811007047481CC1B2BA
:100500008848006800798842EEDC0020F5E700B5F5
:100510008DB00121084602F0ACFA854801F084FD57
:1005200081484C30029081480390002004907D481F
:100530000068007905900020069080200790400018
:1005400008908000099077480068807908B12020E1
:1005500000E000200A904FF480500B9000200C9097
:1005600002A9734801F002FE01220221704801F045
:1005700034FE0B208DF8040000208DF805008DF866
:10058000060001208DF8070001A801F0BCFA012146
:10059000674801F016FE0DB000BD70B586B0054687
:1005A00060480560AFF2C5005E490968C860AFF2F7
:1005B000E1005C4909688860FFF754FF40F4007669
:1005C0000121304602F062FA4FF4004002F0C5F912
:1005D00000242CE0534800680068005D102801D119
:1005E000012000E000204F4909680968095D1129D0
:1005F00001D1012100E00021084300D015E0494964
:1006000009680968085DFFF7FEFEADF800000020EC
:100610008DF80300434909680968085DFFF7C4FEC7
:100620000646694601F016FF00BF601CC4B23D4893
:1006300000680079A042CDDC3B4801F0CDFA0020F3
:10064000019001208DF808003648006880798DF807
:1006500009004FF4602003900020049031480068A6
:1006600000798DF8140001A92F4801F0DCFA00246C
:1006700022E02C4800680068005D102801D10120AC
:1006800000E00020274909680968095D112901D1A6
:10069000012100E00021084302D0012001F080FC8C
:1006A000601CC2B21F4800680068015D07231E4835
:1006B00001F051FB601CC4B21A4800680079A042E6
:1006C000D7DCFFF724FF0121174801F0E3FA0121ED
:1006D000154801F0D4FA144801F0F3FA00BF1248AB
:1006E00001F0F4FA0028FAD10F4801F0F9FA00BF3E
:1006F0000D4801F0FAFA0028FAD106B070BD10B525
:10070000022001F097FD30B10120064909684871C7
:10071000022001F0A2FD10BD00080140000C0140C4
:10072000001001402400002000240140D4040020D7
:100730000800024010B56FF0040001F02FFA2D48B8
:1007400000682D49B0FBF1F02C490870084600788C
:1007500000EB4001C1EBC0104FF6FF7101EAC00091
:100760002749088010BD0146244A12784A434FF0B9
:10077000E0235A6100229A611A46126942F001028E
:100780001A6100BF4FF0E022106910F0010F02D093
:1007900010F4803FF6D04FF0E022126922F00102FF
:1007A0004FF0E0231A6100229A6170470146144A13
:1007B00012884A434FF0E0235A6100229A611A4698
:1007C000126942F001021A6100BF4FF0E022106985
:1007D00010F0010F02D010F4803FF6D04FF0E0226D
:1007E000126922F001024FF0E0231A6100229A619F
:1007F000704700000000002000127A00280000204E
:100800002A0000200022818802E04910531CDAB23D
:1008100011F0010FF9D0FE4B43F82200704701465A
:10082000FC4A881A91421AD009DCFB48081810D0FB
:10083000B0F5806F0FD0B0F5006F18D10DE0B0F5B6
:10084000806F0ED0B0F5006F0DD0B0F5406F0ED1B7
:100850000BE0002070470120FCE70220FAE70320AC
:10086000F8E70420F6E70520F4E70620F2E7002089
:10087000F0E7014631B1012906D0022906D003294B
:1008800008D105E0282070474820FCE74820FAE717
:100890002820F8E70020F6E70146DE4A881A914250
:1008A0001AD009DCDC48081810D0B0F5806F0FD0E2
:1008B000B0F5006F19D10DE0B0F5806F0ED0B0F536
:1008C000006F0DD0B0F5406F0FD10BE004207047E2
:1008D0000820FCE71020FAE72020F8E74020F6E7A0
:1008E0008020F4E74FF48070F1E70020EFE7014645
:1008F00031B1012906D0022906D0032908D105E02B
:10090000082070470C20FCE71020FAE71020F8E7D9
:100910000020F6E70146002002E04910421CD0B258
:1009200011F0010FF9D070470146102916DC042997
:100930000ED004DC012907D0022916D106E00829CF
:1009400008D0102911D107E0062070470720FCE7E6
:100950000820FAE70920F8E70A20F6E7B1F5007F5A
:1009600001DC1720F1E72820EFE70020EDE72DE973
:10097000FF4706460C4615461F46A848006890F8F3
:10098000C00000EB4000A549096841F82060A34879
:10099000006890F8C00000EB4000A049096801EB36
:1009A000800084809D48006890F8C00000EB400003
:1009B0009A49096801EB800085719848006890F8B1
:1009C000C00000EB40009549096801EB800087609A
:1009D0009249096891F8C01001EB41018F4A1268F1
:1009E00002EB8100FFF70EFF8C48006890F8C00012
:1009F000401C8A49096881F8C0003046FFF74CFF67
:100A00008046012102F042F82846FFF732FF8DF8B8
:100A10000F0003208DF80E00ADF80C4003A93046FE
:100A200001F018FD2046FFF775FF80463046FFF7BE
:100A3000F6FE8146414601F021FE019400208DF82A
:100A400008002846FFF753FF8DF8090001208DF8B4
:100A50000A0001A801F01EFC2046FFF765FFC0B2A6
:100A60008DF8000001208DF8010000208DF80200B3
:100A700001208DF80300684601F045F8BDE8FF87C6
:100A800010B5044665480460AFF21D10C4F8C400F8
:100A9000002084F8C0000121084601F0F7FF10BDD6
:100AA00010B55B4A1068126891688847012001F010
:100AB00068FC10BD10B5564A506852689168884766
:100AC000022001F05EFC10BD10B5514A906892689A
:100AD00091688847042001F054FC10BD10B54C4AC1
:100AE000D068D26891688847082001F04AFC10BDA0
:100AF00010B5474A1069126991688847102001F0C3
:100B000040FC10BD10B54648006800F47874C4F38A
:100B1000401038B13E4A5069526991688847202098
:100B200001F02FFCC4F3801038B1394A9069926902
:100B300091688847402001F024FCC4F3C01038B10C
:100B4000334AD069D26991688847802001F019FC46
:100B5000C4F3002040B12E4A106A126A9168884797
:100B60004FF4807001F00DFCC4F3402040B1284ADE
:100B7000506A526A916888474FF4007001F001FC96
:100B800010BD10B52648006800F47C44C4F38020F2
:100B900040B11F4A906A926A916888474FF480601A
:100BA00001F0EFFBC4F3C02040B1194AD06AD26A09
:100BB000916888474FF4006001F0E3FBC4F3003014
:100BC00040B1134A106B126B916888474FF4805004
:100BD00001F0D7FBC4F3403040B10D4A506B526B6B
:100BE000916888474FF4005001F0CBFBC4F380308C
:100BF00040B1074A906B926B916888474FF48040F0
:100C000001F0BFFBC4F3C03098B1014AD06B09E0DA
:100C1000F80400200014014000F8FEBF2C00002062
:100C200014040140D26B916888474FF4004001F0F2
:100C3000A8FB10BD01460A2901DA042070470820EC
:100C4000FCE701460A2901DAFE487047FE48FCE746
:100C5000014610292FD2DFE801F0080B0E111416FF
:100C6000181A1C1E20222426282B4FF4807070474F
:100C70004FF40070FBE74FF48060F8E74FF400603A
:100C8000F5E70120F3E70220F1E70420EFE7082071
:100C9000EDE74020EBE78020E9E70120E7E70220CD
:100CA000E5E74020E3E78020E1E74FF48070DEE7EE
:100CB0004FF40070DBE7FF20D9E70146042901DA91
:100CC000E2487047082902DA4FF08040F9E70C2922
:100CD00001DADF48F5E7DF48F3E70146042902DAE5
:100CE0004FF400607047082901DA0120FAE70C2967
:100CF00001DA0220F6E70420F4E70146042901DACC
:100D00001B207047082901DA1C20FAE70C2901DAB8
:100D10001D20F6E71E20F4E70146CA1701EB927288
:100D20009210B1EB820201D102207047481EC21717
:100D300000EB92729210B0EB820201D10420F4E732
:100D4000881EC21700EB92729210B0EB820201D1A2
:100D50000820EAE7C81EC21700EB92729210B0EBAF
:100D6000820201D11020E0E70020DEE70146CA1729
:100D700001EB92729210B1EB820201D10020704718
:100D8000481EC21700EB92729210B0EB820201D1A2
:100D90000420F4E7881EC21700EB92729210B0EBA9
:100DA000820201D10820EAE7C81EC21700EB927246
:100DB0009210B0EB820201D10C20E0E70020DEE7C8
:100DC000014631B1012906D0022906D0032908D1F4
:100DD00005E0002070470220FCE70020FAE702202F
:100DE000F8E70020F6E70246002110E0C1EBC10061
:100DF000994B1B6813F83000904206D1C1EBC1003B
:100E0000954B1B6803EBC0007047481CC1B2924869
:100E1000006890F88C038842E8DC0020F4E770B5A5
:100E200004460D462046FFF748FF0646E11704EB4F
:100E300091718910B4EB810104D12946304602F04A
:100E400097FE25E0601EC11700EB91718910B0EB91
:100E5000810104D12946304602F09CFE18E0A01E14
:100E6000C11700EB91718910B0EB810104D12946C3
:100E7000304602F0A9FE0BE0E01EC11700EB9171B5
:100E80008910B0EB810103D12946304602F0B6FE4D
:100E900070BD00B502461046FFF70FFF0346D1179D
:100EA00002EB91718910B2EB810101D1988E00BDE6
:100EB000501EC11700EB91718910B0EB810101D177
:100EC000188FF4E7901EC11700EB91718910B0EBF9
:100ED000810101D1988FEAE7D01EC11700EB917113
:100EE0008910B0EB810102D1B3F84000DFE70020A8
:100EF000DDE72DE9F04F8BB081468A4615461E4648
:100F00004846FFF7EAFE83465348006890F88C0392
:100F1000C0EBC0005049096801EBC0044E480068AE
:100F200090F88C03401C4C49096881F88C0384F8C4
:100F3000009000214948C4E90810C4E9025684F829
:100F400018A0002020616061012000FA09F04449E6
:100F50000968084342490860012000FA09F009685D
:100F600008433F490860BBF5006F04D10121584692
:100F700001F08CFD03E00121584601F094FD484644
:100F8000FFF758FE0746012101F080FD2078FFF7AA
:100F90005FFEADF81800207E08B9012000E00020B7
:100FA000217E022901D1012100E00021084303D064
:100FB00028208DF81B0002E048208DF81B0003203C
:100FC0008DF81A002078FFF73CFE074606A901F0CD
:100FD00041FA4FF6FF70ADF810002A463346002064
:100FE000204904F028F9074600221F4B04F01DF9A0
:100FF000CDE9000104F00DFA80B2ADF80C0000203C
:10100000ADF81200ADF80E004846FFF756FE074651
:1010100003A902F09FF84846FFF7A8FEADF81C00B0
:10102000207EFFF7CDFEADF81E000120ADF82000B8
:101030000020ADF82200ADF824004846FFF73DFE41
:10104000074613E000080140000C0140002C01405D
:101050000004004000080040380000200000F0BFFD
:1010600030000020000052400000F03F07A902F0CD
:1010700004FB4846FFF741FEC0B28DF8080000208F
:101080008DF809008DF80A0001208DF80B0002A8E8
:1010900000F039FD4846FFF710FEE64988420DD1C1
:1010A00019208DF8080000208DF809008DF80A003D
:1010B00001208DF80B0002A800F025FD4846FFF73F
:1010C0002BFE80B240F001074846FFF7F6FD804650
:1010D0000122394602F0B5FB4846FFF7EEFD074610
:1010E000012102F093FB4846FFF7E7FD0746012187
:1010F00002F066FE0BB0BDE8F08F30B505460C4639
:101100002846FFF770FE046130BD30B505460C4639
:101110002846FFF768FE446130BDC7490860AFF25A
:101120002D21C54A1268C2F880130021C24A1268F4
:1011300082F88C13AFF23D01BF4A1268C2F88413E3
:10114000AFF23901BC4A1268C2F8881370470146F1
:10115000BA4800EB0110007800F08000704710B52D
:1011600004462046FFF73FFE0146006A496A10BD6B
:101170002DE9F04F87B00646B04800EB061400EBAF
:10118000061000F10409AD4800EB061000F1080A52
:10119000AA4800EB061000F10C0B3046FFF78DFD5E
:1011A00005903046FFF71FFE0546287E08B901204E
:1011B00000E00020297E022901D1012100E0002168
:1011C000084306D00020ADF810000220ADF8120050
:1011D00005E00020ADF812000220ADF810002078E4
:1011E00010F0800F76D10121059802F0D8FDC0B132
:1011F000207800F04000218801F48071084310D06D
:10120000207800F02000202808D1206840F08000DD
:10121000206000218A48C5E9081002E02068401CCF
:1012200020603046FFF778FD87B23946059802F016
:10123000B6FD00284ED0207810F0400F4BD0287E0D
:10124000022801D1012000E00020297E032901D1DC
:10125000012100E00021084312D0206820F0400066
:101260002060206840F4807020603046FFF711FE57
:10127000217801F0200100EB0140CAF8000024E0D1
:10128000206840F0800020603046FFF702FE2178A1
:1012900001F0200100EB0140CAF80000DAF800106C
:1012A000D9F80020881A04F0A7F8CDE90201D5E9A1
:1012B00002733A4603F0BFFFC5E90801286910B17F
:1012C00028462969884700202060BDF81010304664
:1012D000FFF7A5FD61E0208810F4807F4DD03046F7
:1012E000FFF7D7FD0746207800F0200007EB00400D
:1012F000CBF80000BDF812103046FFF790FDDBF888
:101300000010D9F80020881A04F076F8CDE902011F
:10131000D5E90201CDE90001DDE9022303F08BFFED
:10132000C5E90801DAF80010D9F80020881A04F09D
:1013300063F8CDE90201D5E90201CDE90001DDE95B
:10134000022303F078FFC5E90C01D5E90801CDE9D6
:101350000201D5E90C01CDE90001DDE9022303F02A
:10136000DCFFC5E90A01286910B1284629698847C8
:10137000C9F80070402020600FE000202060304657
:10138000FFF787FDC9F80000206840F040002060AA
:10139000BDF812103046FFF742FD0022284BD5E978
:1013A0000871384604F04EF80FD1686910B128462C
:1013B0006969884700202060BDF810103046FFF7AB
:1013C0002EFD00211F48C5E908103046FFF7A4FC98
:1013D00087B23946059802F0F3FC07B0BDE8F08FFC
:1013E00010B519480088C0F3002010B10820FFF79D
:1013F000BFFE15480088C0F3402010B10920FFF758
:10140000B7FE11480088C0F3802010B10A20FFF712
:10141000AFFE0D480088C0F3C02010B10B20FFF7CD
:10142000A7FE0820FFF749FC0446012102F0C8FC92
:1014300010BD0000002C01403800002038050020BD
:1014400000408FC00000F0BF3000002008B501212F
:101450004FF0C05001F027FB012001F052F94FF48A
:10146000407001F09CFA012001F09FFA01F0D2FBDC
:1014700001F0D8FB01F07FFB3E2001F0A5FB01F05D
:10148000C9FB002001F093FB01F0C4FB4FF6FF7095
:101490004449088001F0BEFB4FF6FF704149091D29
:1014A000088001F0B7FB0121022001F057FB3D4805
:1014B0001C38008800F002003A491C39088001F00D
:1014C000A9FB01F061FB29208DF8000000208DF8B8
:1014D00001008DF8020001208DF80300684600F03D
:1014E00012FB03208DF8000000208DF801008DF81C
:1014F000020001208DF80300684600F004FB08BDDF
:101500002DE9F04107460C462648001F0088254972
:101510000839098800EB0140C51901F07BFB01F097
:101520002AFB2048001F00881E490839098800EB63
:1015300001461C49091F0E8001F06CFB300C194953
:101540000839088001F066FB280C1649088001F074
:1015500061FB1449091D0D8001F05CFB01F014FBD7
:1015600011480460BDE8F0810E48001F00880D4955
:101570000839098800EB0140704710B5022001F0DE
:1015800085FB10BD10B5022001F070FB012808D1C9
:10159000022001F07BFB0448006810B1024800689B
:1015A000804710BD202800403C00002000B587B0D7
:1015B0000121080201F06AFAC020ADF818001020DD
:1015C0008DF81B0003208DF81A0006A9FA4800F0D8
:1015D00041FF4FF48070ADF8180048208DF81B00D3
:1015E00006A9F54800F036FF00F019FA0021F3488B
:1015F00001F021FC0020ADF804004FF48270ADF83A
:1016000006000020ADF80800ADF80A00ADF80C00A7
:101610004FF40070ADF80E001820ADF81000002057
:10162000ADF812000720ADF8140001A9E34801F05D
:101630005DFB0121E14801F0FEFB4021DE4800F0A6
:10164000B6FF8021DC4800F0B0FF07B000BD2DE9F7
:10165000F04107460D4616468021D74800F0A7FF07
:10166000384600F0B5F98046002405E0FF2000F080
:10167000AFF92855601CC4B2B442F7DB8021CE48D4
:1016800000F093FF4046BDE8F0812DE9F0410746A8
:101690000C4615468021C84800F089FF384600F006
:1016A00097F98046002605E014F8010B00F090F948
:1016B000701CC6B2AE42F7DB8021BF4800F075FF58
:1016C0004046BDE8F0811CB5BDA103C9CDE90001CC
:1016D000082000F0EAF9052269463020FFF7D5FF1F
:1016E000052269461020FFF7B2FF002406E01DF82E
:1016F0000400A52800D003E0601CC4B2052CF6DB72
:1017000000BF052C01D001201CBD0020FCE770B5F6
:1017100005460C468021A84800F049FF284600F005
:1017200057F90646204600F053F98021A24800F000
:101730003CFF304670BD70B5044680219E4800F0E5
:1017400036FF204600F044F9FF2000F041F905463D
:101750008021994800F029FF284670BD70B50546E4
:101760000720FFF7E8FF0446102000F09EF9402113
:10177000914800F01CFF20222946A020FFF785FF9A
:1017800040218D4800F011FF00BF4FF480718A485E
:1017900000F0F1FE0028F8D10720FFF7CCFF044647
:1017A00021462720FFF7B3FF14F0100F05D0FF21CB
:1017B000E120FFF7ACFF102070BD14F0200F01D026
:1017C0002020F9E7FF20F7E770B50446102000F06D
:1017D0006CF90720FFF7AFFF054629462720FFF7E2
:1017E00096FF15F0400F0AD0202221466120FFF716
:1017F0002EFFFF21E220FFF78AFF002070BD0120AD
:10180000FCE710B540216C4800F0D1FE0720FFF73F
:1018100092FF044644F0700421462720FFF777FF2B
:101820004021654800F0C1FE10BD10B5FFF7E9FF8B
:101830004021614800F0BBFE052263492A20FFF7E2
:1018400024FF01212120FFF762FF01212220FFF761
:101850005EFF28212520FFF75AFF20213120FFF7C6
:1018600056FF0F212620FFF752FF3F212020FFF7D0
:101870004EFFFF21E120FFF74AFFFF21E220FFF7A3
:1018800046FF40214C4800F090FE10BD10B5FFF718
:10189000B8FF4021484800F08AFEFF21E120FFF711
:1018A00036FFFF21E220FFF732FF052247493020B3
:1018B000FFF7EBFE052244492A20FFF7E6FE01214F
:1018C0002120FFF724FF01212220FFF720FF1A210A
:1018D0002420FFF71CFF28212520FFF718FF0F21E8
:1018E0002620FFF714FF4E212020FFF710FF402194
:1018F000314800F05AFE10BD70B504460D46402137
:101900002D4800F054FE2046FFF715FF0646012043
:10191000A8403043C6B204F12001C8B23146FFF7F7
:10192000F6FE4021244800F040FE70BD70B504462C
:101930000D464021204800F03AFE2046FFF7FBFE0E
:1019400006460120A840864304F12001C8B2314672
:10195000FFF7DDFE4021184800F027FE70BD70B58E
:1019600004460D4625B121460020FFF7DFFF03E0C6
:1019700021460020FFF7C0FF70BD10B50446214688
:101980000720FFF7B9FF10BD70B505460C46284685
:10199000FFF7D1FE064646FA04F000F0010070BDE4
:1019A00010B501E0FFF72DFF0720FFF7C4FE10F090
:1019B000700FF7D110BD000000200140003800403A
:1019C000A5A5A5A5A50000000D970008089700088B
:1019D00070B50546002405E0601CC4B2C82C01DDCA
:1019E000002070BD02213A4801F0A9FA0028F3D086
:1019F0002946374801F050FA002405E0601CC4B2C3
:101A0000C82C01DD0020ECE70121314801F097FAF4
:101A10000028F3D02E4801F041FAC0B2E1E700B54A
:101A200087B00121082001F031F80121880301F07D
:101A30003AF84FF46040ADF8180018208DF81B00FC
:101A400003208DF81A0006A9224800F003FD4FF488
:101A50006041204800F0A9FD0020ADF804004FF4DB
:101A60008270ADF806000020ADF808000220ADF845
:101A70000A000120ADF80C004002ADF80E0038203D
:101A8000ADF810000020ADF812000720ADF81400EA
:101A900001A90F4801F02AF901210D4801F0CBF905
:101AA000FF20FFF795FF07B000BD10B504460848BA
:101AB00000884FF6C771084005490880084600882D
:101AC000204308800121024801F0B5F910BD000053
:101AD00000380040000C0140064880470648004797
:101AE000FEE7FEE7FEE7FEE7FEE7FEE7FEE7FEE7CE
:101AF000FEE7FEE7250200083101000831490143F5
:101B0000314A1160704770B5002100230F22C4785C
:101B10000CB32D4C246804F4E064C4F5E064210A9D
:101B2000C1F10403CA40447804FA03F184781440F4
:101B300021430901254C0678A155047804F01F05BE
:101B40000124AC4005786D114FF0E02606EB8505C9
:101B5000C5F8004109E0047804F01F050124AC40F9
:101B60001B4D0678761145F8264070BD194A0A408B
:101B70000243154B1B1F1A60704739B1124A121DE0
:101B800012680243104B1B1D1A6006E00E4A121D1C
:101B9000126882430C4B1B1D1A607047042808D141
:101BA0004FF0E021096941F004014FF0E02211619A
:101BB00007E04FF0E021096921F004014FF0E02235
:101BC000116170470000FA050CED00E000E400E050
:101BD00080E100E080FFFF1F10B50446FA48844210
:101BE00008D10121401500F06BFF0021601500F0C5
:101BF00067FF17E0F548844208D10121001500F085
:101C00005FFF0021201500F05BFF0BE0F0488442ED
:101C100008D10121C80300F053FF00214FF4004018
:101C200000F04EFF10BD30B5024600200023506882
:101C3000E84C20400D790C6844EA052420435060AC
:101C40009068E54C2040D1E902542C434D7944EA98
:101C5000450420439060D06A20F470000C7C641E20
:101C6000E4B2234340EA0350D06230BD002101605A
:101C7000017141718160C16001210174704721B11E
:101C8000826842F00102826003E0826822F0010271
:101C90008260704721B1826842F48072826003E002
:101CA000826822F480728260704710B50023CBB244
:101CB0001AB144681C43446002E044689C43446099
:101CC00010BD816841F00801816070470146002025
:101CD0008A6812F0080F01D0012000E00020704750
:101CE000816841F0040181607047014600208A68E4
:101CF00012F0040F01D0012000E00020704721B154
:101D0000826842F4A002826003E0826822F4A002AA
:101D100082607047014600208A6812F4800F01D06B
:101D2000012000E00020704710B50A460021002382
:101D3000416821F46041531E41EA4331416010BDC6
:101D400021B1426842F40062426003E0426822F43A
:101D5000006242607047F0B504460D460020002145
:101D6000092D11DDE068A5F10A0606EB46070726F6
:101D700006FA07F18843A5F10A0606EB460603FAC0
:101D800006F10843E0600CE0206905EB45070726F3
:101D900006FA07F1884305EB450603FA06F1084306
:101DA0002061072A0FDA606B561E06EB86071F2696
:101DB00006FA07F18843561E06EB860605FA06F179
:101DC0000843606322E00D2A0FDA206BD61F06EB72
:101DD00086071F2606FA07F18843D61F06EB8606FC
:101DE00005FA06F10843206310E0E06AA2F10D064F
:101DF00006EB86071F2606FA07F18843A2F10D06B7
:101E000006EB860605FA06F10843E062F0BD21B153
:101E1000826842F48012826003E0826822F48012B9
:101E2000826070470146C86C80B2704766484C308B
:101E30000068704721B1426842F48062426003E06A
:101E4000426822F480624260704721B1426842F4E5
:101E50008052426003E0426822F480524260704740
:101E60000A460021816821F4E041114381607047F6
:101E700021B1826842F40042826003E0826822F469
:101E800000428260704721B1826842F4021282608F
:101E900003E0826822F4021282607047014600204B
:101EA0008A6812F4001F01D0012000E00020704772
:101EB000F0B504461546002000220026092911DD50
:101EC000E068A1F10A0707EB470C072707FA0CF2B5
:101ED0009043A1F10A0707EB470703FA07F2104303
:101EE000E0600CE0206901EB410C072707FA0CF2D7
:101EF000904301EB410703FA07F210432061A06B06
:101F0000C0F30156EF1C06F1010CA7EB0C0707EB21
:101F1000870C1F2707FA0CF29043EF1C06F1010C07
:101F2000A7EB0C0707EB870701FA07F21043A06342
:101F3000F0BD10B50A4600210023816B21F4401149
:101F4000531E41EA0351816310BD08B5002300937D
:101F50000090009B0B440093009B1A6008BD08B5DD
:101F6000024600200090009201F12800009B1844D6
:101F700000900098006880B208BD0A4600214168C0
:101F8000164B1940114341607047416282627047AD
:101F90000A460021416821F01F011143416070474A
:101FA00040B109490831096841F40001064A083284
:101FB000116007E004490831096821F40001024A70
:101FC00008321160704700000024014000280140E1
:101FD000003C0140FFFEF0FFFDF7F1FFFFFD3FFF7A
:101FE0000246002013680B4201D0012000E00020CF
:101FF0007047CA430260704770B502460020002354
:1020000000240B125568CEB205EA060415681D427D
:1020100002D00CB1012000E0002070BD00220A12A5
:10202000D34303607047000001684FF6FE72114011
:1020300001600021016041608160C1608C4988427B
:1020400008D18B490839496841F00F01884A083A9C
:1020500051608AE086491431884208D184490839A0
:10206000496841F0F001824A083A51607DE08049B8
:102070002831884208D17E490839496841F47061A5
:102080007B4A083A516070E079493C31884208D176
:1020900077490839496841F47041754A083A5160F6
:1020A00063E073495031884208D171490839496861
:1020B00041F470216E4A083A516056E06C4964312F
:1020C000884208D16A490839496841F47001684A70
:1020D000083A516049E066497831884208D164493C
:1020E0000839496841F07061614A083A51603CE042
:1020F0006049884206D1011F096841F00F01021FA3
:10210000116032E05B491431884208D15949091FF6
:10211000096841F0F001574A121F116025E0554946
:102120002831884208D15349091F096841F4706178
:10213000504A121F116018E04E493C31884208D1C4
:102140004C49091F096841F470414A4A121F116045
:102150000BE048495031884207D14649091F0968B8
:1021600041F47021434A121F1160704710B50022DC
:10217000026847F6F0739A430C6A8B6823430C6934
:1021800023434C6923438C692343CC6923434C6A22
:1021900023438C6A23431A430260CB6843600B6875
:1021A00083604B68C36010BD0021016041608160A5
:1021B000C160016141618161C1610162416281620D
:1021C000704721B1026842F00102026004E0026837
:1021D0004FF6FE731A40026070471AB103680B4352
:1021E000036002E003688B430360704741607047FF
:1021F0000146486880B2704701460020002211F075
:10220000805F03D01B4B083B1A6802E0184B083B69
:102210001A680A4201D0012000E00020704710F047
:10222000805F03D01349091F086002E01049083994
:102230004860704701460020002211F0805F03D003
:102240000C4B083B1A6802E0094B083B1A680A422B
:1022500001D0012000E00020704710F0805F03D023
:102260000449091F086002E00149083948607047C5
:102270000800024008040240002044490860091D8B
:102280000860091D0860091D086041483F49143174
:102290000860704700213D498279002A3AD00A46F9
:1022A000126803689A430B461A600A1D1268036895
:1022B0009A430B1D1A60027911440A6803681A4395
:1022C0000A60324A0832126803689A432F4B083377
:1022D0001A601A1D126803689A432C4B0C331A605B
:1022E0004279102A0ED11A1F126803681A43274B2D
:1022F00008331A601A1D126803681A43234B0C3303
:102300001A600DE02149427911440A6803681A43B2
:102310000A6005E0027911440A6803689A430A607A
:1023200070470021016001710C2141710021817110
:1023300070471649103109680143144A1032116080
:10234000704701460020114A143212680A4201D037
:10235000012000E0002070470C49143108607047EC
:10236000014600200022094B1B6803EA0102074BCB
:1023700014331B680B4202D00AB1012000E0002098
:1023800070470249143108607047000000040140A2
:10239000FFFF0F0010B50446CA48844208D101214E
:1023A000042000F08DFB0021042000F089FB46E0B2
:1023B000C548844208D10121082000F081FB00219A
:1023C000082000F07DFB3AE0C048844208D101219A
:1023D000102000F075FB0021102000F071FB2EE0B2
:1023E000BB48844208D10121202000F069FB002174
:1023F000202000F065FB22E0B648844208D101218C
:10240000402000F05DFB0021402000F059FB16E069
:10241000B148844208D10121802000F051FB002105
:10242000802000F04DFB0AE0AC48844207D1012136
:10243000801500F045FB0021A01500F041FB10BD08
:1024400010B50121084600F03BFB0021012000F0FF
:1024500037FB10BD2DE9F041024600250026002083
:1024600000230024002791F803C00CF00F0591F819
:1024700003C01CF0100F03D091F802C04CEA050510
:1024800091F800C0BCF1000F31D0146800202BE09F
:102490004FF0010C0CFA00F3B1F800C00CEA03068F
:1024A0009E4220D183004FF00F0C0CFA03F7BC437F
:1024B00005FA03FC4CEA040491F803C0BCF1280FB0
:1024C00006D14FF0010C0CFA00FCC2F814C00AE06F
:1024D00091F803C0BCF1480F05D14FF0010C0CFA84
:1024E00000FCC2F810C0401C0828D1D31460B1F819
:1024F00000C0BCF1FF0F34DD546800202EE000F175
:10250000080C4FF0010808FA0CF3B1F800C00CEA0F
:1025100003069E4221D183004FF00F0C0CFA03F703
:10252000BC4305FA03FC4CEA040491F803C0BCF177
:10253000280F05D100F1080C08FA0CF8C2F8148035
:1025400091F803C0BCF1480F07D100F1080C4FF01F
:10255000010808FA0CF8C2F81080401C0828CED3F5
:102560005460BDE8F0814FF6FF7101800221817057
:102570000421C17070470246002093680B4201D0CD
:10258000012000E0002070470146886880B2704753
:1025900002460020D3680B4201D0012000E0002059
:1025A00070470146C86880B2704701617047416159
:1025B00070470AB1016100E041617047C160704736
:1025C0004FF480320A43826181618261826982694B
:1025D000704702460020424B18684FF6807318403F
:1025E00040EA021008433E4B186070473D49C861FD
:1025F0007047F0B50A46002300240021002500F0B2
:102600000046B6F1004F02D1354EF16901E0344E7B
:102610007168C0F3034583B200F44016B6F5401F5D
:1026200008D121F070612E4E766826F070662C4F2E
:102630007E6012E000F48016B6F5801F06D10326F6
:1026400006FA05F4A14341F0706106E0460D36013B
:1026500003FA06F6B14341F0706122B1460D36012E
:1026600003FA06F6314300F00046B6F1004F02D1FE
:102670001B4EF16101E01A4E7160F0BD30B50022D1
:102680008B071C0F0F2303FA04F2154B08338C1031
:1026900053F824309343124C08348D1044F82530FD
:1026A00023468C1053F824308C07240F00FA04F4CE
:1026B00023430B4C08348D1044F8253030BD0A49B3
:1026C0000860704700080140000C01400010014004
:1026D0000014014000180140001C0140002001408E
:1026E0000000014000002042DC00204210B5012122
:1026F000080700F0F2F900214FF0805000F0EDF9EA
:1027000010BD294908627047274908617047014692
:102710000020264A106820F0E0000843106070474F
:1027200023490860704710B5024600201F4B186807
:1027300020F00300104318601E4B1B6843F0040395
:102740001C4C2360012901D130BF00E020BF194B90
:102750001B6823F00403174C236010BD1348006866
:1027600040F00400114908600846006840F002008B
:1027700008601048006840F004000E49086000BF7F
:1027800000BF30BF704701460020084A52680A4225
:1027900001D0012000E0002070470449096841EAA7
:1027A0008001024A1160704700000E420070004034
:1027B000A0000E4210ED00E0DD48006840F001008E
:1027C000DB49086008464068DA490840D849486053
:1027D00008460068D8490840D5490860084600689E
:1027E00020F4802008600846406820F4FE0048601D
:1027F0004FF41F0088607047CD49096821F480318B
:10280000CB4A11601146096821F480211160B0F5AE
:10281000803F03D0B0F5802F0ED106E0C44909688F
:1028200041F48031C24A116007E0C149096841F4AE
:10283000A021BF4A116000E000BF00BF704710B583
:1028400001460022002300204A11012A02D1B84C7F
:10285000236806E0022A02D1B54C236A01E0B44C99
:10286000636A01F01F02012494401C4201D0012040
:1028700000E0002010BD38B50020009000240025A5
:1028800000BF3120FFF7DBFF05460098401C009099
:102890000098B0F5A06F01D0002DF2D03120FFF7E5
:1028A000CEFF08B1012400E00024204638BD0146D7
:1028B00000209F4A106820F0F80040EAC100106034
:1028C00070479E490860704702460020984B586840
:1028D00020F47C1042EA01031843954B586070477E
:1028E00096490866704701460020914A506820F0DA
:1028F00003000843506070478D48406800F00C00AA
:102900007047014600208A4A506820F0F0000843D2
:102910005060704701460020854A506820F4E0600E
:1029200008435060704701460020814A506820F4F7
:10293000605040EAC1005060704729B17C4A527A29
:1029400002437B4B5A7204E0794A527A8243784BB5
:102950005A7270477A490860704701460020744AED
:10296000506820F440400843506070470021754A89
:1029700011706F4A82F82010012802D0042808D173
:1029800003E001216F4A117004E005216D4A1170C6
:1029900000E000BF00BF70476B49086070476449A2
:1029A000096A0143624A1162704767494439086005
:1029B000704730B500210022002400235C4D6D6873
:1029C00005F00C0121B1042905D0082923D105E027
:1029D0005E4D056022E05D4D05601FE0544D6D6861
:1029E00005F47012524D6D6805F48034022505EB34
:1029F00092421CB9564D554305600BE04C4D6D6835
:102A000015F4003F03D0524D5543056002E04F4D91
:102A10005543056002E04D4D056000BF00BF444DC9
:102A20006D6805F0F00109094A4D6B5C0568DD40F1
:102A300045603F4D6D6805F4E061090A454D6B5CEA
:102A40004568DD4085603A4D6D6805F46051C90AFE
:102A5000404D6B5C4568DD40C560354D6D6805F4E3
:102A60004041890B3C4D6B5CC568B5FBF3F50561D6
:102A700030BD29B12E4A526902432D4B5A6104E000
:102A80002B4A526982432A4B5A61704729B1284A1E
:102A900092690243264B9A6104E0254A9269824377
:102AA000234B9A61704729B1214AD2690243204BD6
:102AB000DA6104E01E4AD26982431D4BDA61704735
:102AC00029B11B4AD2680243194BDA6004E0184A64
:102AD000D2688243164BDA60704729B1144A1269F2
:102AE0000243134B1A6104E0114A12698243104BEE
:102AF0001A61704714494039086070470F49C8642B
:102B000070470B49C87170470948406A40F08070AF
:102B100007494862704701460020054A92680A4208
:102B200001D0012000E00020704701498872704701
:102B3000001002400000FFF8FFFFF6FE00004242D6
:102B4000D8004242201002408004424200127A0023
:102B500000093D00400000205000002029B14F4AEC
:102B6000128802434D4B1A8004E04C4A128882437B
:102B70004A4B1A8070474948001D008840F01000F9
:102B80004649091D088070474448001D00884FF6DB
:102B9000EF7108404149091D0880704700213F48F6
:102BA0001C300188001F008841EA0040704700B5D2
:102BB0000246FFF7E0FF100C384918310880091D64
:102BC0000A80FFF7E1FF00BD00B50246FFF7D3FF23
:102BD000C2F30340314908310880091D0A80FFF71C
:102BE000D3FF00BD00B50246FFF7C5FF100C2B490F
:102BF00020310880091D0A80FFF7C6FF00BD0020B4
:102C00002649103109880907080B2449143109881D
:102C10000843704700BF2148001D008810F0200FB6
:102C2000F9D070471D48001D00884FF6F771084025
:102C30001A49091D088000BF1848001D008810F0BF
:102C4000080FF9D0704701460020144A121D12885F
:102C50000A4201D0012000E0002070470F49091D01
:102C6000098881430D4A121D1180704701460020DA
:102C70000A4A121D12880A40D0B2084A12880A4233
:102C800002D008B1012000E0002070470349091D6F
:102C900009888143014A121D1180704700280040B5
:102CA00010B50446BE48844208D101218014FFF7C4
:102CB00007FF0021A014FFF703FF16E0B948844284
:102CC00008D101210014FFF708FF00212014FFF7AD
:102CD00004FF0AE0B448844207D10121C013FFF782
:102CE000FCFE0021E013FFF7F8FE10BD10B5002236
:102CF000028802F441520B884C8823438C8823437A
:102D0000CC8823430C8923434C8923438C89234358
:102D1000CC8923431A430280838B4FF2FF742340F4
:102D200083830B8A038210BD2DE9F04F85B00546E1
:102D30000C464FF0000902274FF000084FF0010B3E
:102D40000026B246A88B4FF240010840A88302201B
:102D50002884B5F81C90A068022801D100BF38E093
:102D6000A08810B94FF0010B01E04FF0020B8D4825
:102D7000854200D100E000BF6846FFF71AFEDDF88B
:102D800000A0E088B0F5007F0AD14FEA1A2000EBDE
:102D900080004000A168B0FBF1F0401D86B20BE05E
:102DA0004FEA4B10BAFBF0F000EB80004000A16846
:102DB000B0FBF1F0401D86B20A20B6FBF0F606F03B
:102DC0000108A6EB0800C0F34F074FF6FF7000EABA
:102DD0000828022F01DBFF2F02DD02274FF0000839
:102DE000E08840EA080038432884A088A189084385
:102DF000618808432188084340F4006040EA0909DB
:102E0000A5F81C9005B0BDE8F08F0021018041803D
:102E10008180C180018141818181C181072101823D
:102E200070470021018041808180C1800221816042
:102E300000218181704721B1028842F04002028066
:102E400004E002884FF6BF731A400280704721B138
:102E5000828B42F48062828304E0828B4FF6FF33E0
:102E60001A408283704730B5002400230C110125DD
:102E7000A540ABB21AB185881D43858002E08588E4
:102E80009D43858030BD1AB183880B43838002E067
:102E900083888B438380704781817047014688898E
:102EA0007047A1F57E42FF3A04D0028842F4807256
:102EB000028004E002884FF6FF631A4002807047E8
:102EC00021B1828842F00402828004E082884FF6B9
:102ED000FB731A408280704702884FF2FF731A40DA
:102EE000028002880A4302807047018841F48051C1
:102EF0000180704721B1028842F40052028004E050
:102F000002884DF6FF731A40028070470246002087
:102F1000012901D0108B00E0908A70470146088A91
:102F20007047B1F5804F04D1028842F4804202809C
:102F300004E002884BF6FF731A4002807047024695
:102F4000002013890B4201D0012000E000207047CF
:102F5000CA4302817047F0B50246002000240023D6
:102F6000002501F00F070126BE40B4B20B11012667
:102F70009E40B3B2968806EA03051689264202D01F
:102F80000DB1012000E00020F0BD10B5002201F0DD
:102F90000F040123A3409AB2D343038110BD000064
:102FA0000030014000380040003C004010B50446AD
:102FB000FE48844208D10121C014FFF781FD0021A1
:102FC000E014FFF77DFDC4E0B4F1804F08D101218A
:102FD0000846FFF782FD00210120FFF77EFDB8E0E3
:102FE000F348844208D101210220FFF776FD002139
:102FF0000220FFF772FDACE0EE48844208D10121C7
:103000000420FFF76AFD00210420FFF766FDA0E021
:10301000E948844208D101210820FFF75EFD002124
:103020000820FFF75AFD94E0E448844208D10121CA
:103030001020FFF752FD00211020FFF74EFD88E021
:10304000DF48844208D101212020FFF746FD0021FE
:103050002020FFF742FD7CE0DA48844208D10121BC
:103060004014FFF72DFD00216014FFF729FD70E0EB
:10307000D548844209D10121C804FFF721FD002170
:103080004FF40020FFF71CFD63E0D048844209D1D3
:1030900001210805FFF714FD00214FF48010FFF710
:1030A0000FFD56E0CA48844209D101214805FFF7C7
:1030B00007FD00214FF40010FFF702FD49E0C5486D
:1030C000844208D101214020FFF707FD0021402064
:1030D000FFF703FD3DE0C048844208D10121802074
:1030E000FFF7FBFC00218020FFF7F7FC31E0BB4835
:1030F000844208D101218015FFF7EFFC0021A015C3
:10310000FFF7EBFC25E0B648844209D10121080411
:10311000FFF7D6FC00214FF48030FFF7D1FC18E018
:10312000B048844209D101214804FFF7C9FC0021BD
:103130004FF40030FFF7C4FC0BE0AB48844208D1E9
:1031400001218804FFF7BCFC00214FF48020FFF729
:10315000B7FC10BD00220288944B98420ED0994BC8
:1031600098420BD0B0F1804F08D0914B984205D0D7
:10317000904B984202D0904B984204D14FF68F73F7
:103180001A404B881A438D4B984207D08C4B98427B
:1031900004D04FF6FF431A40CB881A4302808B8835
:1031A00083850B880385814B98420BD0854B9842D1
:1031B00008D08B4B984205D08A4B984202D08A4B5C
:1031C000984201D10B7A038601238382704770B540
:1031D000002400220023058C4FF6FE76354005843E
:1031E000028C8388048B4FF68F752C40B51E2C40C3
:1031F0000D882C43751E2A400D892A434D882A4389
:103200006A4DA8420BD06F4DA84208D0744DA84219
:1032100005D0744DA84202D0734DA84213D14FF689
:10322000F7752A404D892A434FF6FB752A408D8851
:103230002A434FF6FF652B404FF6FF552B408D89F3
:103240002B43CD892B4383800483CD8885860284DC
:1032500070BD70B5002400220023058C4FF6EF7678
:1032600035400584028C8388048B48F6FF752C401A
:103270004FF6FF452C400D884FF6FF7606EA0525F0
:103280002C434FF6DF752A400D8906EA05152A43BF
:103290004D8806EA05152A43444DA84202D0494DFF
:1032A000A8421DD14FF67F752A404D894FF6FF7613
:1032B00006EA05152A434FF6BF752A408D8806EAAF
:1032C00005152A434FF6FF352B404FF2FF752B4073
:1032D0008D8906EA85052B43CD8906EA85052B43B2
:1032E00083800483CD880587028470BD70B5002477
:1032F00000220023058C4FF6FF6635400584028CC2
:103300008388848B4FF68F752C404FF6FC752C40CC
:103310000D882C434FF6FF552A400D894FF6FF7656
:1033200006EA05252A434D8806EA05252A431F4D4E
:10333000A84202D0234DA8421DD14FF2FF752A406A
:103340004D894FF6FF7606EA05252A434FF6FF35ED
:103350002A408D8806EA05252A434EF6FF752B4044
:103360004DF6FF752B408D8906EA05152B43CD8957
:1033700006EA05152B4383808483CD8885870284E4
:1033800070BD70B5002200230024058C4EF6FF7638
:1033900035400584038C8488828B48F6FF752A406B
:1033A0004FF6FF452A400D8820E00000002C014028
:1033B0000004004000080040000C004000100040E5
:1033C0000014004000340140004C01400050014016
:1033D0000054014000180040001C00400020004044
:1033E0000040014000440140004801404FF6FF7694
:1033F00006EA05252A434DF6FF752B400D8906EA9E
:1034000005352B434D8806EA05352B43FA4DA84276
:1034100002D0FA4DA84208D14BF6FF752C408D8999
:103420004FF6FF7606EA85152C4384808283CD888B
:10343000A0F84050038470BD828B4FF2FF331A40D6
:103440008283828B4FF6FF7303EA01231A43828340
:103450007047F0B50C461546002200210026078C67
:103460004EF6FF7C07EA0C070784828B018C4FF62F
:10347000FF7707EA043640F6FF473A404FF6FF77FA
:1034800007EA05273A434FF6FF7707EA03373A433F
:10349000D94FB8420ED0D94FB8420BD0B0F1804FBF
:1034A00008D0D74FB84205D0D64FB84202D0D64F39
:1034B000B84206D14DF6FF77394046F4805739437C
:1034C00005E047F6FF57394044F48057394382837B
:1034D0000184F0BD828B4FF6F3731A408283828B96
:1034E0000A4382837047F0B50C461546002200213E
:1034F0000026078C4FF6FF6C07EA0C070784828BC7
:10350000018C4FF6FF7707EA04264FF60C773A4016
:103510004FF6FF7707EA03172F433A43B64FB842F7
:103520000ED0B64FB8420BD0B0F1804F08D0B44F98
:10353000B84205D0B34FB84202D0B34FB84206D11B
:103540004FF6FF57394046F48077394305E04FF294
:10355000FF57394044F48077394382830184F0BDBA
:10356000028B4FF2FF331A400283028B4FF6FF7338
:1035700003EA01231A4302837047F0B50C4615464F
:10358000002200210026078C4FF6EF7C07EA0C078B
:103590000784028B018C4FF6FF7707EA041640F68A
:1035A000FF473A404FF6FF7707EA03373A434FF6B3
:1035B000FF7707EA05273A438F4FB8420ED08F4F67
:1035C000B8420BD0B0F1804F08D08D4FB84205D033
:1035D0008C4FB84202D08C4FB84206D14FF6DF77FD
:1035E000394046F01007394305E04FF65F77394020
:1035F00044F01007394302830184F0BD028B4FF67B
:10360000F3731A400283028B0A4302837047F0B5BA
:103610000C46154600220021068C4FF6FE773E40F0
:103620000684028B018C4FF60C7632407E1C06EA33
:1036300003162E433243704EB0420ED06F4EB0424E
:103640000BD0B0F1804F08D06D4EB04205D06D4E1A
:10365000B04202D06C4EB04206D14FF6FD763140FA
:1036600044F00106314305E04FF6F576314044F071
:103670000106314302830184F0BD70B505460C4656
:103680005D4885420ED05D4885420BD0B5F1804F34
:1036900008D05B48854205D05A48854202D05A4836
:1036A000854200D100E000BF208850B92389A2885C
:1036B00061882846FFF7ABFFE1882846FFF79EFFA9
:1036C00025E0208804280AD12389A2886188284619
:1036D000FFF753FFE1882846FFF742FF17E02088F5
:1036E00008280AD12389A28861882846FFF7FBFEB3
:1036F000E1882846FFF7EEFE09E02389A288618869
:103700002846FFF7A6FEE1882846FFF795FE70BD24
:103710002DE9F04105460C4600260127608808B9CE
:10372000022600E00026A088012801D1022700E03F
:1037300001272088A0B92389A28861882846FFF73D
:1037400066FFE1882846FFF759FF23893A4631464C
:103750002846FFF712FFE1882846FFF701FF13E034
:103760002389A28861882846FFF707FFE188284659
:10377000FFF7F6FE23893A4631462846FFF747FF12
:10378000E1882846FFF73AFFBDE8F0810A884B88B8
:103790001A438B881A43CB881A430B891A434B89E7
:1037A0001A438B891A43A0F8442070474FF6FF71E3
:1037B000818000210180C180418001727047002119
:1037C000018041808180C180018141818181C181ED
:1037D0007047002101804180012181800021C1804A
:1037E000018170470021018041808180C180018179
:1037F0004181818170470000002C0140003401406C
:103800000004004000080040000C004021B1028884
:1038100042F00102028004E002884FF6FE731A4073
:103820000280704731B1B0F8442042F40042A0F861
:10383000442005E0B0F84420C2F30E02A0F8442072
:1038400070471AB183890B43838102E083898B43DC
:10385000838170478182704741EA0203A0F84830B3
:1038600070471AB183890B43838102E083898B43BC
:103870008381704701894FF6F872114001817047CA
:103880000A46002101894FF68F73194011430181C7
:10389000704730B504460D4629462046FFF7F0FF35
:1038A000208940F00700208130BD2DE9F041044619
:1038B0000D4616461F46602D06D13B460122314675
:1038C0002046FFF75AFE05E03B46012231462046DE
:1038D000FFF79DFE29462046FFF7D2FF208940F0E2
:1038E00007002081BDE8F08130B50C460021018938
:1038F000C9B24FF6FF7505EA032515432543294351
:10390000018130BD2DE9F04105460E461746984627
:10391000002443463A4631462846FFF7E5FF2C8906
:103920004FF6F870044044F007044FF68F700440DF
:1039300044F070042C81BDE8F081F0B504460D46DA
:1039400016461F463B46324629462046FFF7CCFF27
:10395000208940F480402081F0BD0185828270473B
:103960000A46002101884FF68F73194011430180E8
:103970007047F0B50C4615461E4600210022002374
:103980000189028B038C4FF6F877394021434FF6BB
:10399000FC473A4040F201173A434FF6DD773B408F
:1039A0004FF6FF7707EA06172F433B430181028357
:1039B0000384F0BD0A460021018B4FF68F73194036
:1039C0001143018370470A460021018B48F6FF73BB
:1039D00019404FF6FF7303EA02231943018370472E
:1039E0000A460021818B4FF68F7319401143818362
:1039F00070470A460021818B48F6FF7319404FF645
:103A0000FF7303EA022319438183704721B10288BF
:103A100042F08002028004E002884FF67F731A4071
:103A20000280704721B1828842F00402828004E063
:103A300082884FF6FB731A408280704721B18288DA
:103A400042F00802828004E082884FF6F7731A4041
:103A50008280704721B1828842F00102828004E0B6
:103A600082884FF6FE731A40828070470A46002112
:103A7000018B4FF6F77319401143018370470A46D3
:103A80000021018B4FF2FF7319404FF6FF7303EAD9
:103A900002231943018370470A460021818B4FF6A8
:103AA000F77319401143818370470A460021818BC7
:103AB0004FF2FF7319404FF6FF7303EA02231943D5
:103AC000818370470A460021018B4FF6FB73194032
:103AD0001143018370470A460021018B4FF6FF33E3
:103AE00019404FF6FF7303EA02231943018370471D
:103AF0000A460021818B4FF6FB73194011438183E5
:103B000070470A460021818B4FF6FF3319404FF66C
:103B1000FF7303EA02231943818370470A46002199
:103B2000018B4FF67F7319401143018370470A469A
:103B30000021018BC1F30E014FF6FF7303EA02234C
:103B40001943018370470A460021818B4FF67F732A
:103B500019401143818370470A460021818BC1F3CC
:103B60000E014FF6FF7303EA022319438183704766
:103B70000A460021018C4FF6FD7319401143018460
:103B800070470A460021018C4FF6F7731940114324
:103B9000018470470A460021018C4FF6DF731940FB
:103BA0004FF6FF7303EA02131943018470470A4674
:103BB0000021018C4FF67F7319404FF6FF7303EA23
:103BC00002131943018470470A460021018C4FF605
:103BD000FF5319404FF6FF7303EA02231943018490
:103BE00070470A460021018C4FF2FF7319404FF6CF
:103BF000FF7303EA02231943018470470A46002138
:103C0000018C4DF6FF7319404FF6FF7303EA023340
:103C100019430184704730B5002301248C40A3B2BE
:103C2000048C9C430484048C02FA01F5ADB22C434D
:103C3000048430BD30B5002304248C40A3B2048C2E
:103C40009C430484048C02FA01F5ADB22C43048435
:103C500030BD70B5034600200024184618300125F9
:103C60008D40ACB21D8CA5431D8409B1082909D132
:103C700000EB6100056825F07005056005681543D7
:103C800005600EE00D1FC5F34E052844056825F4B8
:103C9000E045056005684FF6FF7606EA02263543E3
:103CA000056070BD21B1028842F00202028004E08A
:103CB00002884FF6FD731A400280704721B10288D6
:103CC00042F00402028004E002884FF6FB731A40BF
:103CD0000280704721B1828842F08002828004E035
:103CE00082884FF67F731A408280704702884FF6B1
:103CF000F7731A40028002880A4302807047828864
:103D00004FF68F731A40828082880A438280704700
:103D100002894FF6F8731A40028102890A43028130
:103D2000704702894FF67F731A40028102890A4365
:103D30000281704781847047818570478186704712
:103D40000187704781877047A0F84010704702884C
:103D50004FF6FF431A40028002880A4302807047F0
:103D60000146888E70470146088F70470146888F4C
:103D700070470146B1F8400070470146888C704793
:103D80000146088D704702460020138A0B4201D07D
:103D9000012000E000207047CA430282704730B51E
:103DA0000246002000230024158A05EA01039589B4
:103DB00005EA010413B10CB1012000E0002030BD80
:103DC000CA4302827047000010B50446FB48844293
:103DD00009D101218803FEF773FE00214FF48040D2
:103DE000FEF76EFE32E0F648844209D10121480414
:103DF000FEF773FE00214FF40030FEF76EFE25E063
:103E0000F048844209D101218804FEF766FE0021B2
:103E10004FF48020FEF761FE18E0EB48844209D1A0
:103E20000121C804FEF759FE00214FF40020FEF7DF
:103E300054FE0BE0E548844208D101210805FEF755
:103E40004CFE00214FF48010FEF747FE10BD2DE917
:103E5000F04786B005460E460024A24600BFA146A4
:103E60000027B08900B100BF2F462C8A4CF6FF70A6
:103E70000440F08804432C82AC894EF6F3100440D1
:103E8000B08831890843718908430443AC81AC8A06
:103E90004FF6FF400440B0890443AC8201A8FEF70E
:103EA00088FDC648874202D1DDF810A001E0DDF8A8
:103EB0000CA0A88910F4004F08D00AEBCA0000EB50
:103EC0000A1031684900B0FBF1F807E00AEBCA00BC
:103ED00000EB0A1031688900B0FBF1F86420B8FBF0
:103EE000F0F004012009642101FB1089A88910F475
:103EF000004F08D0322000EBC900B0FBF1F000F019
:103F00000700044308E0322000EB09106421B0FBF5
:103F1000F1F000F00F0004432C8106B0BDE8F087FB
:103F20004FF41651016000218180C18001810C2174
:103F3000418100218181704710B502460020108A1E
:103F40004FF2FF0318400B884C8823438C8823438F
:103F5000CC8823431843108210BD0021018041808A
:103F60008180C180704721B1828942F400528281F0
:103F700004E082894DF6FF731A4082817047F0B5E4
:103F800003460024002600250020A1F510676A3FA3
:103F900000D100BF1846C1F3421401F01F060127EB
:103FA00007FA06F5012C01D10C3004E0022C01D1F6
:103FB000103000E014301AB107682F43076002E0A8
:103FC0000768AF430760F0BD1AB1838A0B43838251
:103FD00002E0838A8B4383827047028A4FF6F07334
:103FE0001A400282028A0A430282704782894FF293
:103FF000FF731A40828182890A438281704721B10E
:10400000828942F00202828104E082894FF6FD73C8
:104010001A4082817047028A4FF6DF731A4002828B
:10402000028A0A430282704721B1028A42F4804226
:10403000028204E0028A4BF6FF731A400282704744
:10404000C1F308028280704701468888C0F30800E7
:104050007047818941F0010181817047028BD2B2A2
:104060000283028B42EA012202837047028B02F430
:104070007F420283028B0A430283704721B1828A06
:1040800042F02002828204E0828A4FF6DF731A40F7
:104090008282704721B1828A42F01002828204E05B
:1040A000828A4FF6EF731A408282704721B1828A6A
:1040B00042F00802828204E0828A4FF6F7731A40C7
:1040C0008282704721B1828942F40042828103E0FA
:1040D0008289C2F30E028281704721B1828A42F442
:1040E0000062828204E0828A4FF2FF731A40828269
:1040F0007047828A4FF6FB731A408282828A0A4393
:104100008282704721B1828A42F00202828204E0F8
:10411000828A4FF6FD731A40828270470246002061
:10412000B1F5007F00D100BF13880B4201D0012000
:1041300000E00020704701F40072B2F5007F00D16A
:1041400000BFCA430280704770B5024600240023B6
:1041500000250020A1F510666A3E00D100BFC1F322
:10416000421501F01F03012606FA03F3012D02D1C7
:104170009689334006E0022D02D1168A334001E0D1
:10418000968A33400C12012606FA04F4168834404D
:1041900013B10CB1012000E0002070BD10B5002269
:1041A0000023A1F510646A3C00D100BF0A1201246B
:1041B0009440A3B2DC43048010BD000000380140ED
:1041C0000044004000480040004C004000500040C7
:1041D00010B54FF40030FEF72DF848B1F8484068AC
:1041E00000F50070F64948604FF40030FEF735F8EE
:1041F00010BD10B54FF40010FEF71CF848B1F048A0
:10420000806800F50070EE4988604FF40010FEF7FA
:1042100024F810BD10B540F22551EA48FFF794FF8D
:1042200001280ED1E848406830B1E64A121D1288D4
:10423000D0B2E54A5168884740F22551E348FFF77C
:10424000ADFF10BD10B540F22551E048FFF77CFFEF
:1042500001280ED1DC48806830B1DC4A121D12887A
:10426000D0B2D94A9168884740F22551D748FFF724
:1042700095FF10BD10B58CB0044601210846FEF72D
:10428000F8FB206BFDF7D0FE6068001D019004F183
:1042900040000290002003904FF400700490002032
:1042A000059080200690002007900890202009901B
:1042B000C0010A9000200B9001A9206BFDF756FF6A
:1042C00001220221206BFDF788FF01224021606856
:1042D000FFF77AFE94F834008DF8000000208DF886
:1042E00001008DF8020001208DF803006846FDF7FB
:1042F0000AFC0121206BFDF764FF0CB010BD38B53E
:10430000044694F828008DF8000003208DF8010081
:104310008DF8020001208DF803006846FDF7F3FBDD
:10432000012240F225516069FFF729FE38BDF0B542
:1043300085B005460C4617461E46A548286000BFB6
:10434000A4482860E06868603822214605F108002A
:1043500001F095FA0121626A2068904701216068A6
:10436000FEF794FBE068FFF72FFD208AADF8100000
:10437000207D8DF8120018208DF8130004A9A06884
:10438000FEF768F8608AADF8100004208DF813007D
:1043900004A9A068FEF75EF80097E08AADF8040073
:1043A000208BADF80600608BADF80800A08BADF84F
:1043B0000C00E08BADF80A006946E068FFF747FDA6
:1043C0000121E068FFF7CFFD46B12846FFF797FFD0
:1043D00094F834007C4941F8206002E02846FFF759
:1043E00049FF284605B0F0BD70B504460D4600BF34
:1043F00040216068FFF792FE0028F9D029466068E6
:10440000FFF71EFE012070BD2DE9F04105460E4666
:104410001746002405E0315D2868826828469047E9
:10442000641CBC42F7DB0120BDE8F0812DE9F041BE
:1044300005460E461746002405E0315D286882686F
:1044400028469047641CBC42F7DB0120BDE8F081A0
:1044500070B50446206881692046884708B9FF2066
:1044600070BD94F83C105C4A52F82100C11700EB73
:10447000D1514912A0EB412204F140018D5C94F826
:104480003C00554951F82000401C94F83C10524A19
:1044900042F821002846E3E72DE9F04105460F46A2
:1044A00016462868816928468847B04202DA00200B
:1044B000BDE8F081002405E02868016928468847A6
:1044C0003855641CB442F7DB0120F1E7014691F84E
:1044D0003C003B4A52F8200000F500700A6B52681D
:1044E000821A91F83C003C4B53F82000101A704798
:1044F0000FB430B5ADF5037D0546002488A80190C2
:1045000040F2012102A8019B879A03F06BF807E0B3
:104510002046641C02AB195C2868826828469047D4
:10452000B4F5007F03DA02A8005D0028F0D1002076
:1045300001900DF5037D30BC5DF814FB70B50446A9
:104540000D46284600F0AFFD064620683246294653
:10455000036A20469847204670BD70B504460D4654
:1045600020682946826820469047204670BD70B575
:1045700004460D462068294682682046904720461A
:1045800070BD70B505460C46224614A12846FFF7BB
:10459000AFFF284670BD70B505460C4622460FA1F8
:1045A0002846FFF7A5FF284670BD70B505460C46A6
:1045B00022460AA12846FFF79BFF284670BD00004F
:1045C0004406002000380140380600200044004026
:1045D000749A0008389A00085006002025640000EC
:1045E00070B505460C462246AFF210012846FFF78B
:1045F0007FFF284670BD70B5064614461D4622460C
:104600002B461FA13046FFF773FF304670BD10B533
:10461000044601216068FFF7A6FC10BD10B50446F2
:104620000121206BFDF7CDFD10BD10B50446002122
:10463000206BFDF7C6FD10BD10B5044600BF20215C
:104640006068FFF76BFD0028F9D060688088C0B211
:1046500010BD10B5044620216068FFF75FFD0128FA
:1046600000D110BD0020FCE710B504468021606831
:10467000FFF754FD012800D110BD0020FCE7000029
:10468000256C660010B5094801F0C6FF084801F026
:10469000F5FF084801F080FF074801F03DFF07489B
:1046A00001F0FAFE064801F0B5FE10BD5C060020E0
:1046B00094060020CC0600204C070020CC070020E8
:1046C0004C080020FEB5044601ADC4EBC400C74948
:1046D00001EB80063146284603F0FBFF00BF1BE0DC
:1046E00001A804F0C7FD0068C14951F82410B1FBCE
:1046F000F0F200FB121048B901A804F0BBFD4068BD
:1047000020B101A804F0B6FD4568A847002201A920
:10471000684603F08EFD00BF02ADC4EBC400B34990
:1047200001EB80063146284603F0CAFF00BF02A90C
:1047300001A804F095FD0028D2D1FEBD10B50446B5
:10474000AC4850F8240018B1AA4951F82400804719
:10475000A74850F82400401CA54941F824002046F1
:10476000FFF7B0FF10BD10B50121A348FFF717FBFD
:1047700050B10120FFF7E2FF9F481030008820F081
:1047800001009D491031088010BD10B50121880736
:10479000FFF705FB50B10220FFF7D0FF4FF080403C
:1047A000008A20F001004FF08041088210BD10B552
:1047B00001219248FFF7F3FA50B10420FFF7BEFF42
:1047C0008E481030008820F001008C49103108809C
:1047D00010BD30B589B005460C4605F18000039048
:1047E000D4E90A12206BCDE9001202902846D4E9E0
:1047F0000823E16900F010F9054605F180000390F7
:10480000D4E91021A06CCDE90021029005F120002F
:10481000D4E90E23616B00F0FFF8A0F1200505F14B
:1048200080000390D4E91612206ECDE900120290A8
:1048300005F14000D4E91423E16C00F0EDF8A0F19B
:10484000400505F180000390D4E91C12A06FCDE96A
:104850000012029005F16000D4E91A23616E00F0A5
:10486000DBF8A0F160058022214605F1800001F00F
:1048700006F80121D4E900029047A089ADF81C0098
:104880002089ADF81800E089ADF81E006089ADF808
:104890001A0006A96069FEF75DFC207E8DF8140001
:1048A00000208DF815008DF8160001208DF81700F6
:1048B00005A8FDF728F950496069884202D1012115
:1048C000FEF7B0FF01216069FEF7A0FF284609B09E
:1048D00030BD014691F8FC00454A52F8200070476F
:1048E0002DE9F04387B005460E46174694214859F6
:1048F00001221146FEF7A5FF0DF1140895F8FC0002
:10490000C0EBC000394901EB800903AC01A8066087
:10491000476000BF00BF016821604168616000BF5F
:1049200000BF22464946404604F03EFA00BF07B0A9
:10493000BDE8F0832DE9FE4F824614461D46DDF8A2
:1049400030B01FFA8BF0ADF8040022462B464FF032
:1049500000002B4900F0E1FC80460022294B00F0CA
:1049600064FC064600F055FD80B2ADF80000002062
:10497000ADF80600ADF80200942151F80A0069462E
:10498000FEF7E8FBBDF804108C2020F80A10BDF8F3
:104990000010882020F80A10BDE8FE8F10B50446EC
:1049A00005231C221849114800F03AFB10BD2DE9DF
:1049B000FC4105462E4601AF6C4600BF00BF2346B2
:1049C00000223946304604F014FC06463046BDE865
:1049D000FC8110B505231C220C49044802F076FE28
:1049E0000B4A0C49002002F058FE10BDF4080020CC
:1049F000E0080020CC080020002C01400008004006
:104A00000094F1400000E03F2D710008AF4900081C
:104A1000000000089D4900080FB470B504460B9DC6
:104A20002F482060182205A9201D00F028FFE5610D
:104A3000204670BC5DF814FB704770B504462046F4
:104A4000FFF7FAFF054602F0A3FD70BD2DE9F05F08
:104A5000824614461D46DAF81C10888900F0CCFC0A
:104A6000804622462B4600F0E6FB064600F0D1FCCD
:104A70001FFA80FBDAF81C1048695946DAF814204E
:104A80009047BDE8F09F70B586B0044615461E46B7
:104A90004FF00101E068FDF7F9FF2089ADF814003F
:104AA00018208DF8170003208DF8160005A96068FE
:104AB000FDF7D0FC6020ADF804000120ADF8060041
:104AC0000020ADF80C00E169486901A9226990470E
:104AD0002A4633462046FFF7B9FF06B070BD0000F6
:104AE000009A00084C4B0360416002610023836020
:104AF000C3607047704770B504462046FFF7FAFF61
:104B0000054602F045FD70BD10B50369826892FB51
:104B1000F3F403FB1422436899548268521C8260A8
:104B200010BDF0B507460D461646002404E0295D89
:104B30003846FFF7E9FF641CB442F8DBF0BD0146DC
:104B4000D1E9030290FBF2F302FB13004A68105C08
:104B5000704730B504462046FFF7F1FF0546E06890
:104B6000401CE060284630BDF0B507460D461646AD
:104B7000002404E03846FFF7ECFF2855641CB442DB
:104B8000F8DBF0BD70B50B4600210AE0C4680C44A8
:104B9000056994FBF5F605FB164445682C5D5C54ED
:104BA000491C9142F2DB70BD10B50246D068084442
:104BB000136990FBF3F403FB14005368185C10BDF9
:104BC0000146D1E90202801A7047F0B507460D464A
:104BD0001646344608E021463846FFF7E5FFA8426E
:104BE00001D12046F0BD641C3846FFF7E9FFA04222
:104BF000F1DC4FF0FF30F5E710B50246D06808440D
:104C0000136990FBF3F403FB14005368184410BDC0
:104C1000C2680A44C2607047649A00087A4A026017
:104C2000416000234FF401621350C36070472DE9C7
:104C3000F04104460D46AF78D5F8048060680168FD
:104C40008A6806219047606801688A6885219047D4
:104C50002978606803689A6890476B88190A6068C9
:104C600003689A689047A978606803689A689047D3
:104C7000002609E018F80600474018F8061060689A
:104C800003689A689047761C6888B042F2DC6068D6
:104C900001688A683946904760680268D169884728
:104CA000BDE8F0812DE9FC4107460C4615461E463D
:104CB0000194A8B2ADF802008DF80060694638464C
:104CC000FFF7B5FFBDE8FC81704770B5044620468C
:104CD000FFF7FAFF054602F05BFC70BD70B50446B5
:104CE0000D46E068002832D1606802689169884703
:104CF00005282CDB07E06068026891698847052871
:104D000001DA002070BD60680268116988470628D2
:104D1000F1D16068026811698847852817D16068F9
:104D200002681169884720726068026811698847C3
:104D30000002E0606068026811698847E168084421
:104D4000E060E068002802DA0020E060DAE7E0686E
:104D5000002856D00EE060680268116988474FF459
:104D600001610B590959491C4FF40162115104F1B9
:104D70001001C854606802689169884728B14FF4EF
:104D800001600059E1688842E5DD4FF40160005997
:104D9000401EE168814234D1217B40F61400015568
:104DA00000200AE040F61401095D04F11002125CD3
:104DB000514040F614021155401CE1688142F1DC7B
:104DC00040F61400025D001F0059401E04F110015E
:104DD000085C82420DD1A0896880207A287008463C
:104DE00068600020E06000214FF401600151012063
:104DF00088E70020E06000214FF4016001510020AD
:104E000080E700207EE700009C9A00081CB504465D
:104E10000720FCF790FC10F0400F30D0202275499D
:104E20006120FCF714FCFF21E120FCF770FCFF215E
:104E3000E220FCF76CFC0620FCF79FFD20226D4968
:104E40006D48FFF76EFE6D48006868B100BF03E073
:104E500068466A4909688847694669480068FFF7F3
:104E60003DFF0028F4D100BFFF21E120FCF74FFCFB
:104E7000FF21E220FCF74BFC0620FCF77EFD1CBD69
:104E800070B505460C4614B9FCF7CFFC03E0012CC5
:104E900001D1FCF7FBFC70BD70B504460D465948C6
:104EA000206000BF58482060002058490860FCF787
:104EB0007DFB29462046FFF7E3FF00204F490860AD
:104EC000204670BD10B5024650480068B0F5006F2E
:104ED00009DA4E4803680068401C4C4C20604C487E
:104EE000C154012010BD0020FCE72DE9F041064629
:104EF0000F461446454800682044401EB0F5006F38
:104F00000CDA002505E0795D30688268304690470C
:104F10006D1CA542F7DB0120BDE8F0810020FBE716
:104F200010B50446206881692046884718B1324888
:104F3000FFF70FFE10BDFF20FCE770B504460E46DC
:104F400015462068816920468847A84206DB2A4624
:104F500031462948FFF708FE012070BD0020FCE71C
:104F600010B504462448FFF72BFE10BD00BF00BF5C
:104F700000BF704770B504462046FFF7F7FF0546AF
:104F800002F006FB70BD70B5064600241F4A11688A
:104F9000CA1701EBD26252111C4B1868C31700EB01
:104FA000D3635B11B0EB431301D0012300E0002376
:104FB000D518002405E0164901EB4410FCF7CEFBA0
:104FC000641CAC42F7DB00201049086070BD0C4B3C
:104FD00019600A4B1A60704710B54FF400620D4912
:104FE0000548FFF77FFD04460B4A0C4902F055FBCC
:104FF00010BD000094190020801900205C000020E2
:1050000054000020749A0008109A000858000020EC
:10501000800900208011002000000008F54A0008E7
:105020002DE9F04117460E46054633B107FB035400
:10503000E41B2046B047A542FAD1A5F10800BDE81F
:10504000F08140EA01039B0703D009E008C9121F61
:1050500008C0042AFAD203E011F8013B00F8013B32
:10506000521EF9D2704710B5431A934209D28318E1
:10507000881803E010F8011D03F8011D521EF9D233
:1050800010BD40EA01039B0703D009E008C9121FC5
:1050900008C0042AFAD203E011F8013B00F8013BF2
:1050A000521EF9D210BD421C10F8011B0029FBD181
:1050B000801A7047034611F8012B00F8012B002AD3
:1050C000F9D118467047000070B5054C054D03E056
:1050D000206820448047241DAC42F9D170BD0000F7
:1050E000589F0008709F00082DE9FE4F804681EA16
:1050F0000300C00F0C46009021F0004123F0004552
:10510000B8EB0200A94105D24046214690461C4614
:105110000B46024623F00040104304D1404621468E
:1051200003B0BDE8F08F270DC7F30A00C3F30A519F
:105130000290401A0190402866DAC3F3130040F44D
:10514000801B0098924620B10023D2EB030A63EB48
:105150000B0B01985946C0F14002504600F006FA88
:1051600006460D4650465946019A00F01EFA10EBCD
:1051700008006141002487EA115284EAE7731A4368
:105180003BD0009A3AB3019A012A4FEA075210DC49
:10519000001B61EB02014FF0004202EA0752CDE929
:1051A0000042001C41F5801132462B4600F0A7FA60
:1051B000B6E7001B61EB0201001C41F580130018EB
:1051C0005B412018A2F5001747EB030140EAD570B8
:1051D000B6196D4111E06D084FEA360645EAC07513
:1051E0004FEA0752001B61EB0201001C41F58011E0
:1051F00049084FEA30000019514132462B4603B0AE
:10520000BDE8F04F00F06EBA009801224000002384
:10521000D0EB020263EBE073009821464FEAE074A2
:10522000B8EB000061EB0401E9E783F000435BE7C2
:1052300081F0004158E72DE9FE4F81EA030404F0B4
:10524000004421F0004100944FF0000B23F0004394
:1052500050EA010402D052EA030404D100200146BE
:1052600003B0BDE8F08FC3F30A54C1F30A552C44D0
:10527000A4F2F3340194A0FB0254C1F3130141F4EE
:105280008011C3F3130343F4801301FB024400FBBA
:10529000034E840A970A44EA815447EA8357A4FBE1
:1052A000076802958D0A05FB07854FEA932C04FBDE
:1052B0000C542705029D4FEA065847EA1637B5EB0E
:1052C00008056EEB070C870E920E47EA811742EA3B
:1052D0008312A7FB0201B6EB0B0164EB00042B0D5C
:1052E00043EA0C335E1844EB1C50DA465146E7FBA8
:1052F0000201C5F313044FEA0B3343EA14534FEA98
:105300000432019C43EA0603A4F10C040294009CBD
:10531000CDE900B400F0F3F9A2E72DE9F04D81EA00
:10532000030404F0004B21F0004514464FF0000A3E
:1053300023F0004150EA050220D054EA01021DD0BA
:10534000C5F30A570246C5F31303C1F31300C1F3B3
:105350000A5640F4801543F48013A7EB0608101B8F
:10536000D64608F2FD3873EB050002D308F10108B8
:1053700001E092185B41B8F1000F03DA002001460A
:10538000BDE8F08D00204FF48011064684460EE003
:10539000171B73EB050705D3121B63EB05030643CD
:1053A0004CEA010C49084FEA300092185B4150EA80
:1053B0000107EDD152EA030012D082EA040083EA29
:1053C0000501084303D100224FF0004308E0101B01
:1053D000AB4102D20122002302E06FF00102531020
:1053E0001AEB06004CEB085110EB0A0041EB0B01E5
:1053F000BDE8F04D00F076B90EB540F233410291B0
:105400000021CDE900110A460B4600F078F903B0FF
:1054100000BDC1F30A5210B5C1F3130140F2FF33CE
:1054200041F480119A4201DA002010BD40F233436A
:105430009A42A2F2334203DC524200F0A6F810BDB9
:10544000904010BD30B5002904DB4FF000444042CD
:1054500064EB0101002B04DB4FF00044524264EB8B
:1054600003038B4208BF824230BD000030B50029E3
:1054700004DB4FF00044404264EB0101002B04DBED
:105480004FF00044524264EB0303994208BF90423C
:1054900030BD000001F0004330B421F0004150EA7B
:1054A000010206D00A0DA2F56072C1F31301002AB1
:1054B00002DC30BC00207047440F44EAC104C10044
:1054C000E01830BC00EBC25000F0D6B810B502F0C6
:1054D0000EF9BDE8104002F057B800F0A3B930B59E
:1054E0000B46014600202022012409E021FA02F5A2
:1054F0009D4205D303FA02F5491B04FA02F528443C
:10550000151EA2F10102F1DC30BD2DE9F05F054668
:10551000002092469B4688460646814640241BE072
:10552000284641464746224600F02FF853465A4641
:10553000C01A914110D311461846224600F016F8C1
:105540002D1A67EB01084F4622460120002100F08A
:105550000DF817EB00094E41201EA4F10104DFDC19
:10556000484631462A464346BDE8F09F202A04DBE0
:10557000203A00FA02F1002070479140C2F1200366
:1055800020FA03F3194390407047202A04DB203AA5
:1055900021FA02F00021704721FA02F3D040C2F153
:1055A00020029140084319467047202A06DBCB179A
:1055B000203A41FA02F043EAE07306E041FA02F3CE
:1055C000D040C2F120029140084319467047421E64
:1055D00012F8013F002BFBD111F8013B02F8013B0F
:1055E000002BF9D170470246C9B200E0401C037895
:1055F000002BFBD102E003788B4203D0401E904287
:10560000F9D20020704700000FB400B58DB010A98A
:1056100009900B9000914FF0FF300A9000200C9001
:1056200005480690054807906A4609A80F9900F0BA
:10563000B9FC0DB05DF814FBC15F0008DF5F000826
:1056400000487047A40000207047000000487047E1
:10565000A80000207047000009207047092070470B
:105660007047704709207047024801464860001D96
:1056700070470000AC0000200029A8BF7047401C04
:10568000490008BF20F00100704710B4B0FA80FC58
:1056900000FA0CF050EA010404BF10BC704749B195
:1056A000CCF1200421FA04F411FA0CF118BF012105
:1056B00021430843A3EB0C01CB1D0106000A002B7C
:1056C000BEBF002010BC704700EBC350104400293F
:1056D000A4BF10BC7047401C490008BF20F0010067
:1056E00010BC704710B5002B08DA401C41F10001D6
:1056F00092185B411A4301D120F0010010BD2DE941
:10570000F04D92469B4611B1B1FA81F202E0B0FA37
:1057100080F220329046FFF729FF04460F4640EA08
:105720000A0041EA0B0153465A46084303D120467A
:105730003946BDE8F08D114653EA010015D0C8F195
:1057400040025046FFF721FF05460E465046594697
:105750004246FFF70BFF084301D0012000E0002084
:10576000054346EAE0762C4337430A984FEA445310
:10577000A0EB08004FEAD4240A304FF0000244EABC
:1057800047544FEAD72502D500200146D1E701054D
:1057900010196941DDE9084500196941BDE8F04D7E
:1057A000A0E7C1F30A52C1F3130140F2FF3341F401
:1057B00080119A4202DA00200146704740F23343DA
:1057C0009A42A2F2334202DC5242FFF7DEBEFFF7FA
:1057D000CDBE000010B5AFF3008070B5FFF744FFF9
:1057E00004680546A4B9202002F09EFC040011D0F4
:1057F000094900202C60C4E900010849A160207318
:10580000206160610649A06109B100F0F9FBE06127
:10581000204670BDAFF3008000000000D55700089F
:105820000000000010B5FFF7D8FF016919B1002290
:105830000261884701E080688047AFF30080000084
:10584000064C074D06E0E06840F0010394E80700CD
:1058500098471034AC42F6D3FAF76EFC389F000834
:10586000589F000800487047F499000810B5044696
:10587000FFF7F8FF0068005D00F0010010BD10B5F3
:10588000441A0346944209D28418114403E011F8E3
:10589000013D04F8013D521EF9D210BD40EA010459
:1058A000A40703D009E010C9121F10C3042AFAD2BA
:1058B00003E011F8014B03F8014B521EF9D210BD61
:1058C00010B5002200E0521C835C8C5CA34201D125
:1058D000002BF8D1D8B2E1B2401A10BD2DE9FF4F2C
:1058E0001C4681B00021D4E9016791464FF0FF3595
:1058F0008A468846A1696D1C02988847216A8346BA
:1059000088470028F6D11BF101000CD026F4C066B0
:10591000002F1ADD700615D5BBF12B0F0AD0BBF195
:105920002D0F0FD104E04FF0FF3005B0BDE8F08F30
:1059300046F48066A1696D1C029888477F1E8346E5
:10594000002F02DDBBF1300F03D0B9F1000F2AD0D8
:1059500025E07F1EA16946F400766D1C02988847F9
:105960008346002F05DDBBF1780F06D0BBF1580F41
:1059700003D0B9F1000F10D011E0B9F1000F02D03F
:10598000B9F1100F0BD17F1EA16926F400766D1CB2
:10599000029888478346102000E0082081464FEA9D
:1059A000E970009017E00A20F8E74346AAFB0928AF
:1059B00003FB0980DDF800C07F1E0AFB0C0112EB1F
:1059C0000B0A41EBEB78A16946F4007605F101057D
:1059D000029888478346002F06DD4946584600F066
:1059E0002EFBB0F1000BE0DAE16902988847B005C0
:1059F00002D46FF0010098E7F00718D1700610D5B7
:105A00007005514605D50023D1EB030163EB080275
:105A100000E042462068031D23600068C0E90012D0
:105A200005E02068011D21600068C0E900A8284643
:105A30007BE72DE9FF5F1D464FF0FF3BD5E90146AF
:105A400091465F464FF00008A9697F1C019888477E
:105A5000296A824688470028F6D11AF101000CD045
:105A600024F4C064002E19DD600614D5BAF12B0FA2
:105A700009D0BAF12D0F0ED103E0584604B0BDE8AD
:105A8000F09F44F48064A9697F1C01988847761EC2
:105A90008246002E02DDBAF1300F03D0B9F1000FBB
:105AA00026D032E0761EA96944F400747F1C019868
:105AB00088478246002E05DDBAF1780F06D0BAF18C
:105AC000580F03D0B9F1000F10D01EE0B9F1000F4C
:105AD00002D0B9F1100F18D1761EA96924F4007410
