:020000040800F2
:10000000180A002089330008F1020008F3020008F2
:10001000F7020008FB020008FF02000800000000D1
:1000200000000000000000000000000001010008C6
:100030000303000800000000050300080703000890
:10004000A3330008A3330008A3330008051E0008EB
:10005000A3330008A3330008ED0C0008010D0008CD
:10006000150D0008290D00083D0D00084B0900087A
:10007000A3330008A3330008A3330008952F00081A
:10008000B52D0008A3330008A3330008A3330008EC
:10009000A3330008A3330008A3330008510D000860
:1000A000A3330008A3330008A3330008711C000821
:1000B0007F310008A3330008FF320008A333000893
:1000C000A3330008A3330008A3330008A3330008B8
:1000D000A3330008A33300082D6A0008A3330008E7
:1000E000CF0D0008FB1D0008A3330008DFF80CD07B
:1000F00007F0CEFE00480047C3030008180A00209E
:100100001EF0040F0CBFEFF30880EFF3098003F03B
:1001100015B900000CB50020019000906B480068F4
:1001200040F480306949086000BF6848006800F406
:10013000003000900198401C0190009818B9019877
:10014000B0F5A06FF1D16148006810F4003F02D013
:100150000120009001E0002000900098012842D189
:100160005B48006840F01000594908600846006884
:1001700020F0030008600846006840F002000860B4
:1001800052484068514948600846406848600846FF
:10019000406840F4806048600846406820F47C1065
:1001A00048600846406840F4E81048600846006827
:1001B00040F08070086000BF4448006810F0007F85
:1001C000FAD04248406820F00300404948600846A1
:1001D000406840F00200486000BF3C48406800F0C2
:1001E0000C000828F9D10CBD10B5FFF793FF10BD26
:1001F00010B53648006840F00100344908600846F0
:10020000406834490840314948600846006832492E
:1002100008402E4908600846006820F480200860E5
:100220000846406820F4FE0048604FF41F008860D4
:10023000FFF7DAFF4FF000602849086010BD10B5E5
:10024000002100200022214B5B6803F00C0121B14A
:10025000042906D0082928D107E0214B214C23602E
:1002600027E01F4B1F4C236023E0184B5B6803F40F
:100270007010164B5B6803F48032022303EB90404E
:1002800022B9194B4343174C23600DE00F4B5B68B9
:1002900013F4003F04D0144B4343124C236003E09B
:1002A0000F4B43430F4C236003E00D4B0D4C236079
:1002B00000BF00BF054B5B68C3F303130B4CE15C4D
:1002C000084B1B68CB40074C236010BD0010024058
:1002D000002002400000FFF8FFFFF6FE08ED00E0FE
:1002E00000127A000000002000093D0004000020F8
:1002F000704700BFFEE700BFFEE700BFFEE700BF9C
:10030000FEE77047704770472DE9FC413149486C62
:100310008047B8B1304903C900F099F82F4805F07B
:100320000CFB2F492F48CDE900102C48D0E9087369
:10033000D0E900512C483A4684692846A0472B4A08
:1003400003C200E000BFBDE8FC811FB521480A21BF
:10035000CDE90210224926480022264BCDE90010A3
:100360001046990301F0AAFF1A48234A1A49836CE0
:100370001E48984717484FF03332204B446D1046C3
:100380001F49A0471FBD10B500F0FAFA4FF4E13045
:1003900002F041FB05F023FA00F038F8FFF7D5FF33
:1003A00001F094FC0D4805F0C8FA164A164B0221DC
:1003B0000D4800F04EFE4FF4E131002006F01DF92B
:1003C00010BDFFF7E0FF03E0FFF79EFF06F0EEFA37
:1003D000FAE7000028020020280000208802002000
:1003E0007B14AE47E17A843F080200202000002001
:1003F000E17AA43F00003940180000203333EB3F7E
:100400003333EBBFCDCCCCCCCCCCEC3F10B571486A
:1004100002F0D5FA6F4800226F49D0F8C4300820A6
:1004200098476C4800226C49D0F8C430092098479E
:10043000684800226849D0F8C4300A2098476548C7
:1004400000226549D0F8C4300B20984710BD2DE933
:10045000F04104460D464FF000021346204629465F
:1004600007F02EF838D24FF033325C4B2046294645
:1004700006F040FE04460D460022594B2046294610
:1004800006F0DFFE04460D462046294607F02CF80C
:10049000064650483146D0F8C82008209047514AB7
:1004A000514B2046294606F0C6FE074607F01CF8C9
:1004B000064648483146D0F8C8200A2090474548AB
:1004C0000021D0F8C8200920904742480021D0F8E8
:1004D000C8200B20904731E04FF033323F4B20468D
:1004E000294606F0A8FE04460D4685F00045204644
:1004F000294606F0F9FF064636483146D0F8C820AE
:1005000009209047374A384B2046294606F093FE8B
:10051000074606F0E9FF06462E483146D0F8C820C7
:100520000B2090472B480021D0F8C8200820904786
:1005300028480021D0F8C8200A209047BDE8F08163
:1005400010B524480021D0F8C82008209047214841
:100550000021D0F8C8200A2090471E480021D0F87A
:10056000C820092090471B480021D0F8C8200B2044
:10057000904710BD2DE9F74F84B00C46154628462C
:1005800006F040FF06460022184B06F0CCFE8046DF
:100590008946204606F036FF06460022134B06F039
:1005A000C2FE82468B46049806F02CFF06460022C7
:1005B0000E4B06F0B8FECDE90089CDE902010C48EA
:1005C00052465B46C66C0298B0476B2007B0BDE848
:1005D000F08F0000B802002000409C463333C33F38
:1005E0000000F03F7B14AE47E17A943F00408F401B
:1005F000280200200146102929D2DFE801F0080A6C
:100600000C0E10121416181A1C1E20222426D5486F
:100610007047D448FCE7D348FAE7D248F8E7D14816
:10062000F6E7D048F4E7CF48F2E7CE48F0E7CE4807
:10063000EEE7CD48ECE7CD48EAE7CC48E8E7CB4821
:10064000E6E7CA48E4E7C948E2E7C848E0E700202F
:10065000DEE70146102929D2DFE801F0080A0C0E76
:1006600010121416181A1C1E20222426012070476E
:100670000220FCE70420FAE70820F8E71020F6E75C
:100680002020F4E74020F2E78020F0E70120EEE7A9
:100690000220ECE70120EAE70220E8E70420E6E791
:1006A0000820E4E71020E2E72020E0E70020DEE772
:1006B00070B500250022002619E0AD4909680968D7
:1006C000885DFFF797FF0446A648844202D102F0F6
:1006D00001020AE0A448844202D102F0020204E0CE
:1006E000A248844201D102F00402701CC6B2A048A4
:1006F00000680079B042E0DC12F0010F01D045F053
:10070000040512F0020F01D045F0080512F0040FA5
:1007100001D045F01005284670BD10B50020944961
:10072000096848710121934802F041FF10BD02465B
:1007300000210BE08E4800680068405C904203D1C5
:100740008D4830F811007047481CC1B288480068D5
:1007500000798842EEDC0020F5E700B58DB001217C
:10076000084603F0DEFD854803F0B6F881484C30BA
:10077000029081480390002004907D480068007931
:10078000059000200690802007904000089080008F
:10079000099077480068807908B1202000E00020A7
:1007A0000A904FF480500B9000200C9002A97348DF
:1007B00003F034F901220221704803F066F90B209E
:1007C0008DF8040000208DF805008DF8060001204A
:1007D0008DF8070001A802F0EEFD0121674803F043
:1007E00048F90DB000BD70B586B00546604805609B
:1007F000AFF2C5005E490968C860AFF2E1005C492C
:1008000009688860FFF754FF40F400760121304604
:1008100003F094FD4FF4004003F0F7FC00242CE0BB
:10082000534800680068005D102801D1012000E0F5
:1008300000204F4909680968095D112901D101218A
:1008400000E00021084300D015E049490968096823
:10085000085DFFF7FEFEADF8000000208DF80300F4
:10086000434909680968085DFFF7C4FE0646694602
:1008700003F048FA00BF601CC4B23D48006800792C
:10088000A042CDDC3B4802F0FFFD0020019001209A
:100890008DF808003648006880798DF809004FF41B
:1008A00060200390002004903148006800798DF8A2
:1008B000140001A92F4802F00EFE002422E02C486B
:1008C00000680068005D102801D1012000E00020D0
:1008D000274909680968095D112901D1012100E052
:1008E0000021084302D0012002F0B2FF601CC2B216
:1008F0001F4800680068015D07231E4802F083FE60
:10090000601CC4B21A4800680079A042D7DCFFF727
:1009100024FF0121174802F015FE0121154802F0BD
:1009200006FE144802F025FE00BF124802F026FE23
:100930000028FAD10F4802F02BFE00BF0D4802F04C
:100940002CFE0028FAD106B070BD10B5022003F0CD
:10095000C9F830B10120064909684871022003F046
:10096000D4F810BD00080140000C01400010014007
:1009700030000020002401408803002008000240CD
:1009800010B56FF0040002F061FD2D4800682D499C
:10099000B0FBF1F02C4908700846007800EB4001EC
:1009A000C1EBC0104FF6FF7101EAC0002749088073
:1009B00010BD0146244A12784A434FF0E0235A61A1
:1009C00000229A611A46126942F001021A6100BFC0
:1009D0004FF0E022106910F0010F02D010F4803FB8
:1009E000F6D04FF0E022126922F001024FF0E0232E
:1009F0001A6100229A6170470146144A12884A43DC
:100A00004FF0E0235A6100229A611A46126942F0BF
:100A100001021A6100BF4FF0E022106910F0010FCF
:100A200002D010F4803FF6D04FF0E022126922F09D
:100A300001024FF0E0231A6100229A617047000022
:100A40000000002000127A00340000203600002050
:100A50000022818802E04910531CDAB211F0010F24
:100A6000F9D0FE4B43F8220070470146FC4A881A31
:100A700091421AD009DCFB48081810D0B0F5806FFD
:100A80000FD0B0F5006F18D10DE0B0F5806F0ED02B
:100A9000B0F5006F0DD0B0F5406F0ED10BE0002027
:100AA00070470120FCE70220FAE70320F8E7042062
:100AB000F6E70520F4E70620F2E70020F0E701461C
:100AC00031B1012906D0022906D0032908D105E059
:100AD000282070474820FCE74820FAE72820F8E75C
:100AE0000020F6E70146DE4A881A91421AD009DC56
:100AF000DC48081810D0B0F5806F0FD0B0F5006F4B
:100B000019D10DE0B0F5806F0ED0B0F5006F0DD0AB
:100B1000B0F5406F0FD10BE0042070470820FCE7D0
:100B20001020FAE72020F8E74020F6E78020F4E7DD
:100B30004FF48070F1E70020EFE7014631B1012961
:100B400006D0022906D0032908D105E00820704705
:100B50000C20FCE71020FAE71020F8E70020F6E769
:100B60000146002002E04910421CD0B211F0010FF2
:100B7000F9D070470146102916DC04290ED004DC98
:100B8000012907D0022916D106E0082908D010292A
:100B900011D107E0062070470720FCE70820FAE79C
:100BA0000920F8E70A20F6E7B1F5007F01DC1720FD
:100BB000F1E72820EFE70020EDE72DE9FF470646A3
:100BC0000C4615461F46A848006890F8C00000EB88
:100BD0004000A549096841F82060A348006890F8E2
:100BE000C00000EB4000A049096801EB8000848050
:100BF0009D48006890F8C00000EB40009A490968E1
:100C000001EB800085719848006890F8C00000EB07
:100C100040009549096801EB8000876092490968A6
:100C200091F8C01001EB41018F4A126802EB81007C
:100C3000FFF70EFF8C48006890F8C000401C8A49FE
:100C4000096881F8C0003046FFF74CFF804601215B
:100C500003F074FB2846FFF732FF8DF80F000320E6
:100C60008DF80E00ADF80C4003A9304603F04AF8A9
:100C70002046FFF775FF80463046FFF7F6FE8146B7
:100C8000414603F053F9019400208DF808002846EE
:100C9000FFF753FF8DF8090001208DF80A0001A825
:100CA00002F050FF2046FFF765FFC0B28DF800004C
:100CB00001208DF8010000208DF8020001208DF840
:100CC0000300684602F077FBBDE8FF8710B50446D5
:100CD00065480460AFF21D10C4F8C400002084F819
:100CE000C0000121084603F029FB10BD10B55B4A86
:100CF0001068126891688847012002F09AFF10BDC1
:100D000010B5564A5068526891688847022002F030
:100D100090FF10BD10B5514A90689268916888475D
:100D2000042002F086FF10BD10B54C4AD068D2688E
:100D300091688847082002F07CFF10BD10B5474A33
:100D40001069126991688847102002F072FF10BD87
:100D500010B54648006800F47874C4F3401038B108
:100D60003E4A5069526991688847202002F061FF2D
:100D7000C4F3801038B1394A906992699168884704
:100D8000402002F056FFC4F3C01038B1334AD06996
:100D9000D26991688847802002F04BFFC4F300209D
:100DA00040B12E4A106A126A916888474FF48070E9
:100DB00002F03FFFC4F3402040B1284A506A526A13
:100DC000916888474FF4007002F033FF10BD10B5F2
:100DD0002648006800F47C44C4F3802040B11F4AD8
:100DE000906A926A916888474FF4806002F021FF10
:100DF000C4F3C02040B1194AD06AD26A91688847CA
:100E00004FF4006002F015FFC4F3003040B1134A04
:100E1000106B126B916888474FF4805002F009FF05
:100E2000C4F3403040B10D4A506B526B9168884713
:100E30004FF4005002F0FDFEC4F3803040B1074A89
:100E4000906B926B916888474FF4804002F0F1FEFE
:100E5000C4F3C03098B1014AD06B09E0AC03002064
:100E60000014014000F8FEBF3800002014040140C7
:100E7000D26B916888474FF4004002F0DAFE10BD53
:100E80002DE9F04F8FB004460D4616461F46DDE9AA
:100E900018AB4FF000018846894600BF00BFFE48EE
:100EA0000168D1E9040122462B46CDE9040106F090
:100EB000C5F9CDE90601F8480168D1E90201CDE99B
:100EC0000401DDE9062306F0BCF9CDE90801F2488A
:100ED0000168D1E90201CDE90601DDE9082306F048
:100EE000B0F9CDE90A0152465B46DDE90A0106F098
:100EF000A8F942464B46CDE9080106F0FBF88046CA
:100F00008946E5480168D1E9040122462B46CDE92E
:100F1000000106F093F9CDE90401DF480068C168DB
:100F2000806802460B46CDE9000100204FF0804169
:100F300006F087F9CDE90201DDE9042306F081F925
:100F400042464B46CDE9060106F0D4F832463B4610
:100F5000CDE9080106F0CEF8CDE90C0152465B461A
:100F6000DDE90C0106F06DF9CDE90801CA48006819
:100F700041690069CDE90601DDE9082306F0BAF808
:100F8000C54A1268C2E90401C3480168D1E90401F5
:100F90000FB0BDE8F08F2DE9F04F8BB004460D4641
:100FA00016461F46DDE91489BB480168D1E902B144
:100FB00042464B46584606F09DF8CDE90601B64834
:100FC0000168D1E902B15846DDE9062306F0ABF924
:100FD000CDE9080106F088FA824651464FF07E506E
:100FE00006F082F8834606F044FA22462B46CDE905
:100FF000040106F026F942464B46CDE90801304689
:10100000394606F01EF9CDE90001A3480068D0E991
:1010100004B35A46009806F06DF8CDE90401504635
:1010200006F027FACDE90201DDE9042306F009F90B
:10103000CDE90601DDE9082306F05CF8964A12685E
:10104000C2E9040194480168D1E904010BB0BDE88C
:10105000F08F70B5904C2060246821708E4C24680D
:10106000C4E9022300258C4E36683561756101297B
:1010700005D1AFF2DD04884D2D68AC6104E0AFF21C
:10108000FF14854D2D68AC6170BD844A1268C2E9B9
:10109000060170472DE9F04F8BB006460F4690468B
:1010A0009946DDE914457D480068D0E908A3524619
:1010B0004046494606F0BFF8784A1268C2E90A017C
:1010C00076480068D0E90AA352462046294606F031
:1010D000B8F8CDE9080171480068D0E906A3524686
:1010E000089806F007F86D4A1268C2E906016B48D5
:1010F0000068D0E912A352462046294606F0A1F81E
:10110000CDE9000165480068D0E90EA35246009879
:1011100006F091F8CDE9020160480168D1E910A319
:101120005246DDE9020106F086F8CDE904015B488C
:101130000068D0E900A35246049805F0DBFF224680
:101140002B46CDE9060106F07CF8CDE908015348AD
:101150000168D1E90CA35246DDE9080105F0CAFF98
:101160004E4A1268C2E90C014C480068D0E912A34B
:1011700052462046294606F064F8CDE90801474862
:101180000168D1E90EA35246DDE9080106F056F8E0
:10119000424A1268C2E90E014048006800F140016D
:1011A000806CC96822462B46CDE9080106F049F853
:1011B00082460B4639480168D1E910015246CDE913
:1011C000080106F038F8354A1268C2E910013348C0
:1011D0000168D1E902A122462B46504606F031F8BB
:1011E000CDE908012D480068D0E912A352460898BD
:1011F00005F080FF294A1268C2E9120127480068F9
:1012000041690069CDE9080124480168D1E90CA1D0
:101210005046DDE9082305F06DFF204A1268C2E957
:101220001A011E480068D0E91AA31C480068416BE7
:10123000006B5246CDE9080106F075F8174A1268AE
:10124000C2E9140115480068C16E806ECDE908013D
:1012500012480068D0E910AB0B4650465946089A30
:1012600006F061F80D4A1268C2E916010B480068E1
:10127000D0E906A352463046394605F0DCFF074A5E
:101280001268C2E9180105480068D0E918A30348AC
:101290000068416D006D03E0400000203C0000202C
:1012A0005246CDE9060105F0CCFFCDE908017E48A4
:1012B0000068D0E906A35246089805F01BFF7A4A59
:1012C0001268C2E9060178480068416E006ECDE9F7
:1012D000060175480068D0E916AB0B4650465946E2
:1012E000069A05F0AEFFCDE908016F480068D0E925
:1012F00008A35246089805F0FDFE6B4A1268C2E941
:10130000080169480168D1E90C01CDE90601664888
:101310000068D0E914AB0B4650465946069A05F0D2
:1013200090FFCDE9080160480168D1E90CA352465D
:10133000DDE9080105F082FF5B4A1268C2E90C0191
:1013400059480068D0E90EA357480068416D006D08
:101350005246CDE9060105F074FFCDE90801524877
:101360000168D1E90EA35246DDE9080105F066FFE8
:101370004D4A1268C2E90E014B480168D1E90C01DF
:10138000CDE9060148480168D1E916A15046DDE9DA
:10139000062305F056FFCDE9080143480168D1E96D
:1013A00010A35246DDE9080105F048FF3E4A1268E5
:1013B000C2E910013C480068D0E90EA33A48016830
:1013C000D1E916015246CDE9060105F03AFFCDE913
:1013D000080135480068D0E912A35246089805F084
:1013E0002DFF314A1268C2E912012F480168D1E984
:1013F00006010BB0BDE8F08F2B490860AFF26B31EE
:101400000167AFF279314167284A2949264B1B68A9
:10141000C3E90021274A2849234B1B68C3E902215D
:10142000264A2749204B1B68C3E9042100221E4B92
:101430001B689A61DA6100211B4B1B6819625962B3
:10144000194B1B681A635A63174B1B689963D9635E
:10145000154B1B681A645A640023134909688B648E
:10146000CB64704710480168D1E90A0170470E4A01
:10147000126803C270470C4A1268C2E90201704741
:10148000094A1268C2E9040170470748016803C9A4
:10149000704705480168D1E90201704702480168B8
:1014A000D1E90401704700003C000020FCA9F1D202
:1014B0004D62503FFA7E6ABC7493683FB81E85EB5C
:1014C00051B89E3F01460A2901DA042070470820DE
:1014D000FCE701460A2901DAFE487047FE48FCE7AE
:1014E000014610292FD2DFE801F0080B0E11141667
:1014F000181A1C1E20222426282B4FF480707047B7
:101500004FF40070FBE74FF48060F8E74FF40060A1
:10151000F5E70120F3E70220F1E70420EFE70820D8
:10152000EDE74020EBE78020E9E70120E7E7022034
:10153000E5E74020E3E78020E1E74FF48070DEE755
:101540004FF40070DBE7FF20D9E70146042901DAF8
:10155000E2487047082902DA4FF08040F9E70C2989
:1015600001DADF48F5E7DF48F3E70146042902DA4C
:101570004FF400607047082901DA0120FAE70C29CE
:1015800001DA0220F6E70420F4E70146042901DA33
:101590001B207047082901DA1C20FAE70C2901DA20
:1015A0001D20F6E71E20F4E70146CA1701EB9272F0
:1015B0009210B1EB820201D102207047481EC2177F
:1015C00000EB92729210B0EB820201D10420F4E79A
:1015D000881EC21700EB92729210B0EB820201D10A
:1015E0000820EAE7C81EC21700EB92729210B0EB17
:1015F000820201D11020E0E70020DEE70146CA1791
:1016000001EB92729210B1EB820201D1002070477F
:10161000481EC21700EB92729210B0EB820201D109
:101620000420F4E7881EC21700EB92729210B0EB10
:10163000820201D10820EAE7C81EC21700EB9272AD
:101640009210B0EB820201D10C20E0E70020DEE72F
:10165000014631B1012906D0022906D0032908D15B
:1016600005E0002070470220FCE70020FAE7022096
:10167000F8E70020F6E70246002110E0C1EBC100C8
:10168000994B1B6813F83000904206D1C1EBC100A2
:10169000954B1B6803EBC0007047481CC1B29248D1
:1016A000006890F88C038842E8DC0020F4E770B50D
:1016B00004460D462046FFF748FF0646E11704EBB7
:1016C00091718910B4EB810104D12946304603F0B1
:1016D00021FD25E0601EC11700EB91718910B0EB70
:1016E000810104D12946304603F026FD18E0A01EF2
:1016F000C11700EB91718910B0EB810104D129462B
:10170000304603F033FD0BE0E01EC11700EB917192
:101710008910B0EB810103D12946304603F040FD2A
:1017200070BD00B502461046FFF70FFF0346D11704
:1017300002EB91718910B2EB810101D1988E00BD4D
:10174000501EC11700EB91718910B0EB810101D1DE
:10175000188FF4E7901EC11700EB91718910B0EB60
:10176000810101D1988FEAE7D01EC11700EB91717A
:101770008910B0EB810102D1B3F84000DFE700200F
:10178000DDE72DE9F04F8BB081468A4615461E46AF
:101790004846FFF7EAFE83465348006890F88C03FA
:1017A000C0EBC0005049096801EBC0044E48006816
:1017B00090F88C03401C4C49096881F88C0384F82C
:1017C000009000214948C4E90810C4E9025684F891
:1017D00018A0002020616061012000FA09F044494E
:1017E0000968084342490860012000FA09F00968C5
:1017F00008433F490860BBF5006F04D101215846FA
:1018000002F09CFD03E00121584602F0A4FD484689
:10181000FFF758FE0746012102F090FD2078FFF700
:101820005FFEADF81800207E08B9012000E000201E
:10183000217E022901D1012100E00021084303D0CB
:1018400028208DF81B0002E048208DF81B000320A3
:101850008DF81A002078FFF73CFE074606A902F033
:1018600051FA4FF6FF70ADF810002A4633460020BB
:10187000204905F0E6FC074600221F4B05F0DBFC83
:10188000CDE9000105F0DCFD80B2ADF80C000020D0
:10189000ADF81200ADF80E004846FFF756FE0746B9
:1018A00003A902F029FF4846FFF7A8FEADF81C0087
:1018B000207EFFF7CDFEADF81E000120ADF8200020
:1018C0000020ADF82200ADF824004846FFF73DFEA9
:1018D000074613E000080140000C0140002C0140C5
:1018E00000040040000800404C0000200000F0BF51
:1018F00044000020000052400000F03F07A903F020
:101900008EF94846FFF741FEC0B28DF8080000206E
:101910008DF809008DF80A0001208DF80B0002A84F
:1019200001F049FD4846FFF710FEE24988420DD11B
:1019300019208DF8080000208DF809008DF80A00A4
:1019400001208DF80B0002A801F035FD4846FFF795
:101950002BFE80B240F001074846FFF7F6FD8046B7
:101960000122394603F03FFA4846FFF7EEFD0746ED
:10197000012103F01DFA4846FFF7E7FD0746012164
:1019800003F0F0FC0BB0BDE8F08F30B505460C4617
:101990002846FFF770FE046130BD30B505460C46A1
:1019A0002846FFF768FE446130BDC3490860AFF2C6
:1019B0002D21C14A1268C2F880130021BE4A126864
:1019C00082F88C13AFF23D01BB4A1268C2F884134F
:1019D000AFF23901B84A1268C2F88813704701465D
:1019E000B64800EB0110007800F08000704710B599
:1019F00004462046FFF73FFE0146006A496A10BDD3
:101A00002DE9F04F87B00646AC4800EB061400EB1A
:101A1000061000F10409A94800EB061000F1080ABD
:101A2000A64800EB061000F10C0B3046FFF78DFDC9
:101A300005903046FFF71FFE0546287E08B90120B5
:101A400000E00020297E022901D1012100E00021CF
:101A5000084306D00020ADF810000220ADF81200B7
:101A600005E00020ADF812000220ADF8100020784B
:101A700010F0800F76D10121059803F062FCC0B10F
:101A8000207800F04000218801F48071084310D0D4
:101A9000207800F03F003F2808D1206840F0800007
:101AA000206000218648C5E9081002E02068401C3B
:101AB00020603046FFF778FD87B23946059803F07D
:101AC00040FC00284ED0207810F0400F4BD0287EEC
:101AD000022801D1012000E00020297E032901D144
:101AE000012100E00021084312D0206820F04000CE
:101AF0002060206840F4807020603046FFF711FEBF
:101B0000217801F03F0100EB0140CAF8000024E019
:101B1000206840F0800020603046FFF702FE217808
:101B200001F03F0100EB0140CAF80000DAF80010B4
:101B3000D9F80020881A05F076FCCDE90201D5E934
:101B400002733A4605F07DFBC5E90801286910B12A
:101B500028462969884700202060BDF810103046CB
:101B6000FFF7A5FD61E0208810F4807F4DD030465E
:101B7000FFF7D7FD0746207800F03F0007EB004055
:101B8000CBF80000BDF812103046FFF790FDDBF8EF
:101B90000010D9F80020881A05F045FCCDE90201B3
:101BA000D5E90201CDE90001DDE9022305F049FB99
:101BB000C5E90801DAF80010D9F80020881A05F004
:101BC00032FCCDE90201D5E90201CDE90001DDE9F0
:101BD000022305F036FBC5E90C01D5E90801CDE982
:101BE0000201D5E90C01CDE90001DDE9022305F090
:101BF0009AFBC5E90A01286910B128462969884776
:101C0000C9F80070402020600FE0002020603046BE
:101C1000FFF787FDC9F80000206840F04000206011
:101C2000BDF812103046FFF742FD0022244BD5E9E3
:101C30000871384605F030FC0FD1686910B12846AC
:101C40006969884700202060BDF810103046FFF712
:101C50002EFD00211B48C5E908103046FFF7A4FC03
:101C600087B23946059803F07DFB07B0BDE8F08FD9
:101C700010B51548007810F0010F02D00020FFF7D2
:101C8000BFFE11480078C0F3400010B10120FFF7FB
:101C9000B7FE0D480078C0F3800010B10220FFF7B6
:101CA000AFFE09480078C0F3C00010B10320FFF771
:101CB000A7FE10BD002C01404C000020EC030020CA
:101CC00000408FC00000F0BF4400002008B5012193
:101CD0004FF0C05002F03FFB012002F06AF94FF4D0
:101CE000407002F0B4FA012002F0B7FA02F0EAFB09
:101CF00002F0F0FB02F097FB3E2002F0BDFB02F089
:101D0000E1FB002002F0ABFB02F0DCFB4FF6FF70C2
:101D10004449088002F0D6FB4FF6FF704149091D87
:101D2000088002F0CFFB0121022002F06FFB3D484A
:101D30001C38008800F002003A491C39088002F083
:101D4000C1FB02F079FB29208DF8000000208DF8FE
:101D500001008DF8020001208DF80300684601F0B3
:101D60002AFB03208DF8000000208DF801008DF87B
:101D7000020001208DF80300684601F01CFB08BD3D
:101D80002DE9F04107460C462648001F00882549EA
:101D90000839098800EB0140C51902F093FB02F0F5
:101DA00042FB2048001F00881E490839098800EBC3
:101DB00001461C49091F0E8002F084FB300C1949B2
:101DC0000839088002F07EFB280C1649088002F0D2
:101DD00079FB1449091D0D8002F074FB02F02CFB05
:101DE00011480460BDE8F0810E48001F00880D49CD
:101DF0000839098800EB0140704710B5022002F055
:101E00009DFB10BD10B5022002F088FB012808D10F
:101E1000022002F093FB0448006810B102480068F9
:101E2000804710BD20280040500000202DE9FC5FB5
:101E300004460D4616461F46DDE90C894FF00002A8
:101E400013462046294605F027FB0DD300221346F2
:101E50003046394605F020FB06D3002213464046A3
:101E6000494605F019FB01D2BDE8FC9FFC4800681B
:101E700030C0FB480068C0E90267F9480068C0E963
:101E80000489F7490968886A05F0CDFA0022F54B04
:101E9000CDE9000105F047FA82468B46F24830C092
:101EA00052465B463046394605F0CBF9EF4A03C24D
:101EB00052465B464046494605F035FAEC4A03C2B5
:101EC000E74800688069012817D1E7480CC800205E
:101ED000014605F0B0F9E44A03C2E4480CC800200A
:101EE000014605F0A8F9E14A03C2E1480CC8002008
:101EF000014605F0A0F9DE4A03C200BFB4E72DE9B0
:101F0000F0478246BAF1000F25DDD5490968886A95
:101F100005F089FA06460F46504605F073FA8046EA
:101F200032463B4605F0FFF904460D4622462B4655
:101F3000CE4903C905F085F9CC4A03C222462B4697
:101F4000CB4903C905F0EFF9C94A03C2C448006888
:101F5000C0F828A000BFBDE8F0872DE9F05F044677
:101F60000D4616461F4632463B462046294605F09A
:101F7000A7FA01D8BDE8F09FB9480068C0E90C4550
:101F8000B7480068C0E90E67B548006890F840009F
:101F9000002850D0B2480068D0E90E83B0480068ED
:101FA000016AD1E900A14246504605F089FA09D2FA
:101FB000AB480068D0E90E10A94A1268126AC2E95B
:101FC000001016E0A6480068D0E90C83A448006819
:101FD000016AD1E900A14246504605F05DFA08D2F7
:101FE0009F480068D0E90C109D4A1268126AC2E945
:101FF00000109B480068D0E90E8342469D4903C902
:1020000005F05EFA07D296480068D0E90E10994AAA
:10201000C2E900100FE092480068D0E90C83424604
:10202000944903C905F038FA05D28D480168D1E911
:102030000C01904A03C200BF9CE770B58848006855
:10204000016A03C98B4A03C285480068C069D0E9A8
:102050000010894AC2E9001081480068D0E90E43A7
:102060002246844903C905F02BFA07D27C48006850
:10207000D0E90E107F4AC2E9001010E078480068ED
:10208000D0E90C4322467B4903C905F005FA06D284
:1020900073480068D0E90C10764AC2E9001070BDA0
:1020A00070B50446012C00D100E0002005466C48C4
:1020B000006890F8400008B9012000E00020A84224
:1020C00001D1FFF7BAFF6648006880F8405070BD44
:1020D000634B1B68D861624B1B681962604B1B68BD
:1020E0005A62704710B504465D48006890F8400099
:1020F000E0B15B4800688069A04217D05A480CC81C
:102100000020014605F097F8574A03C257480CC80B
:102110000020014605F08FF8544A03C254480CC809
:102120000020014605F087F8514A03C24C48006878
:10213000846110BD2DE9F04F89B04948006890F8DE
:10214000400018B9002009B0BDE8F08FFFF74CFE41
:1021500082464A490968AAEB010B41480068806A37
:1021600058457CD83E480068C069C0C83C480068F3
:10217000416A03C932463B46CDE9040105F05BF8EC
:10218000CDE906013949DDE9062303C905F059F80F
:10219000CDE9040137480CC8049804F0ABFF354A78
:1021A00003C22F480168D1E90E0102460B46CDE972
:1021B0000401304903C905F083F906D228480168B3
:1021C000D1E90E012B4A03C212E025480168D1E98A
:1021D0000C0102460B46CDE90401264903C905F06E
:1021E0005BF905D21E480168D1E90C01214A03C2FE
:1021F00021480CC83046394605F01DF8804689460E
:1022000042464B461A4903C905F01BF8CDE90401C3
:102210001549DDE9062303C905F013F8CDE90001EE
:1022200014480CC8009804F065FFCDE90201DDE90F
:10223000042305F000F804460D4609480068C16B08
:10224000806B02460B46CDE904012046294605F085
:1022500037F915D202480068D0E90E4521E02BE09D
:102260008800002000408F4070000020780000208F
:10227000800000206000002068000020580000203E
:102280003A480168D1E90C02CDE904020246204631
:102290002946059B05F000F903D234480068D0E9CF
:1022A0000C4532480068006A30C03148C0C031482F
:1022B000C0F800A0012046E7002044E72DE9FC5FBC
:1022C00004460D4616461F46DDE90EABDDE90C89D6
:1022D0002648C0F800B00068C0F828A032463B4647
:1022E00020462946CDE90089FFF7A0FDAFF2BB10DB
:1022F0001E4909684864AFF2CB401C490968C864AC
:10230000AFF21F2019490968C865AFF23B20174991
:1023100009688864AFF27720144909688865AFF2CC
:10232000C530124909684865AFF22D400F49096868
:10233000086500200D490968886101200B4909687A
:1023400081F8400000210C48084A1268C2E90E10CA
:102350000A48064A1268C2E90C10FFF745FDA0EBD7
:102360000A0004490860BDE8FC9F000088000020C6
:10237000680000205800002000E06F4000E06FC0BF
:1023800001460A2901DA042070470820FCE70146CB
:102390000A2901DAFE487047FE48FCE70146102989
:1023A0002FD2DFE801F0080B0E111416181A1C1EAC
:1023B00020222426282B4FF4807070474FF40070A1
:1023C000FBE74FF48060F8E74FF40060F5E7012089
:1023D000F3E70220F1E70420EFE70820EDE74020D3
:1023E000EBE78020E9E70120E7E70220E5E740206E
:1023F000E3E78020E1E74FF48070DEE74FF4007000
:10240000DBE7FF20D9E70146042901DAE2487047FB
:10241000082902DA4FF08040F9E70C2901DADF4899
:10242000F5E7DF48F3E70146042902DA4FF40060DC
:102430007047082901DA0120FAE70C2901DA0220A5
:10244000F6E70420F4E770B504460D462046FFF792
:10245000DAFF0646E11704EB91718910B4EB8101B4
:1024600004D12946304602F084F925E0601EC117E8
:1024700000EB91718910B0EB810104D129463046FF
:1024800002F0B9F918E0A01EC11700EB9171891094
:10249000B0EB810104D12946304602F0F9F90BE096
:1024A000E01EC11700EB91718910B0EB810103D1DF
:1024B0002946304602F037FA70BD70B504460D4625
:1024C0002046FFF7A0FF0646E11704EB9171891043
:1024D000B4EB810104D12946304602F099FD25E094
:1024E000601EC11700EB91718910B0EB810104D11E
:1024F0002946304602F095FD18E0A01EC11700EBFA
:1025000091718910B0EB810104D12946304602F067
:1025100095FD0BE0E01EC11700EB91718910B0EB47
:10252000810103D12946304602F091FD70BD00B50E
:102530000346187AFFF767FF02469748824202D1A6
:102540000020984900BDB2F1804F02D1002095498A
:10255000F8E79248824202D100209349F2E790487E
:10256000824202D100208F49ECE700200146E9E7D2
:1025700000B50346187AFFF746FF024686488242B6
:1025800002D10020894900BDB2F1804F02D1002064
:102590008649F8E78148824202D100208449F2E767
:1025A0007F48824202D100208049ECE700200146AA
:1025B000E9E72DE9F04F87B082468B46584604F094
:1025C00058FF06460F46DAF8000004F052FFCDE946
:1025D00000015046FFF7CCFF8046DDE9002304F000
:1025E000A2FE32463B46CDE9020104F02AFE044633
:1025F00004F026FF80B205909AF80800FFF703FF69
:1026000004909AF80800C11700EB91718910B0EBA3
:10261000810108D19AF80800FFF7F5FE04460599F4
:1026200002F05EFE37E09AF80810481EC11700EB72
:1026300091718910B0EB810108D19AF80800FFF779
:10264000E2FE0446059902F04DFE24E09AF80810D7
:10265000881EC11700EB91718910B0EB810108D180
:102660009AF80800FFF7CFFE0446059902F03CFEF9
:1026700011E09AF80810C81EC11700EB917189107B
:10268000B0EB810107D19AF80800FFF7BCFE0446C1
:10269000059902F02BFE07B0BDE8F08F2DE9F04F51
:1026A0008DB00446207AFFF7BEFE8146B9F5006F73
:1026B00004D10121484601F041FE03E001214846D2
:1026C00001F049FE207AFFF75BFE0546012101F08B
:1026D00035FE207AFFF762FEADF82C0018208DF849
:1026E0002F0003208DF82E00207AFFF750FE0546BC
:1026F0000BA901F007FB206804F0BBFE82468B4665
:102700002046FFF735FF054652465B4604F00BFEB8
:10271000074604F095FE80B2ADF824002046FFF78E
:1027200006FF07460022204B04F085FD054604F015
:1027300087FE80B2ADF820000020ADF82600ADF88D
:102740002200207AFFF75FFE054608A901F0D4FFBA
:10275000207AFFF758FE1049884206D16020ADF874
:1027600010000020ADF8140002E06020ADF8100069
:102770000120ADF81200606804F07BFE82468B46B3
:10278000206804F076FE05460E46204612E0000062
:1027900000080140000C0140002C014000040040F2
:1027A00000080040000052400000F03F80842E41AD
:1027B000882A9141FFF7DCFE07462A46334604F09B
:1027C000B2FD52465B46CDE9000104F03AFDCDE989
:1027D000020104F035FE80B2ADF816000020ADF81D
:1027E0001800207A04A9FFF72EFE207AFFF70BFECF
:1027F0000546012102F0DCFA207AFFF704FE7A494F
:10280000884202D1012102F0DFFA207AFFF7FBFDB6
:102810000546002102F0CCFB207A0021FFF74DFE97
:102820000DB0BDE8F08F2DE9FC4781468A460024B3
:1028300044E004EB44006D49096801EB8000007A34
:10284000484539D104EB44006849096841F820A0A3
:1028500004EB4401654A126852F8210004F009FEB5
:1028600005460E4604EB4401604A126802EB810003
:10287000FFF77EFE07462A46334604F054FDCDE9B5
:10288000000104F0DDFD82B24846FFF7BCFD828501
:1028900004EB4402554B1B6803EB8202516804EBC6
:1028A0004402524B1B6803EB8200FFF782FE48464E
:1028B000FFF7A9FD00218184601CC4B24B48006869
:1028C00090F8C000A042B4DCBDE8FC8770B50546B6
:1028D0000E46002400BF1AE004EB44004349096897
:1028E00001EB8000007AA8420FD104EB44003F497D
:1028F000096801EB8000466004EB44013B4A126822
:1029000002EB81003146FFF754FE601CC4B2374829
:10291000006890F8C000A042DEDC70BD2DE9F041F7
:1029200004460E46174600250CE005EB45002F49EE
:10293000096801EB8000007AA04201D1BDE8F08176
:10294000681CC5B22948006890F8C000A842ECDCB9
:102950002648006890F8C00000EB40002349096851
:1029600041F820602148006890F8C00000EB40006A
:102970001E49096801EB800047601C48006890F818
:10298000C00000EB40001949096801EB80000472A7
:102990001649096891F8C01001EB4101134A126809
:1029A00002EB8100FFF77AFE1048006890F8C00043
:1029B000401C0E49096881F8C00000BFBEE70B4902
:1029C00008600021094A126882F8C010AFF2B30112
:1029D00040F8C41FAFF20B114160AFF2B511816036
:1029E000A0F1C40070470000002C01408C000020C2
:1029F000014600BF704770B504460D4600BF402138
:102A0000224802F05DFE0028F9D0E1B21F4802F032
:102A1000E9FD204670BD10B586B00446012144F2A0
:102A2000040001F08BFC194802F0A0FC4FF4007088
:102A3000ADF8140003208DF8160018208DF817004B
:102A400005A9134801F05EF94FF48060ADF8140059
:102A500004208DF8170005A90D4801F053F90194E1
:102A60000020ADF80800ADF80A00ADF80C00ADF894
:102A700010000C20ADF80E0001A9044802F0B9FCCA
:102A80000121024802F041FD06B010BD00380140AE
:102A90000008014010B586B004460121480401F049
:102AA0005AFC0121042001F049FC574802F05EFC69
:102AB0000420ADF8140003208DF8160018208DF8BE
:102AC000170005A9514801F01DF90820ADF81400C0
:102AD00004208DF8170005A94C4801F013F9019462
:102AE0000020ADF80800ADF80A00ADF80C00ADF814
:102AF00010000C20ADF80E0001A9434802F079FC4B
:102B00000121414802F001FD06B010BD10B5044698
:102B100000BF40213C4802F0D3FD0028F9D02146F7
:102B2000394802F05FFD10BD70B50446002504E091
:102B300029466D1C605CFFF7E9FF605D0028F7D156
:102B400070BD70B50446002504E029466D1C605C2C
:102B5000FFF7DCFF605D0028F7D10A20FFF7D6FF02
:102B600070BD0FB410B5B4B0002437A80090C921CF
:102B700001A8009B369A05F095FB06E02146621CF1
:102B8000D4B201AA505CFFF7C1FFC82C03DA01A838
:102B9000005D0028F2D10020009034B010BC5DF838
:102BA00014FB10B500BF2021174802F089FD002852
:102BB000F9D01548001D0088C0B210BD0FB430B563
:102BC000B5B000250EE0FFF7ECFF04460D2C01D058
:102BD0000A2C03D1002002A9485504E028466D1CA8
:102BE00002A90C54EFE700BF39A8019002A8019A8E
:102BF000389904F00FFA054600200190284635B0B8
:102C000030BC5DF814FB00000044004000080140A7
:102C100070490A680968491C6E4B19606E49885CE6
:102C200019460968322907DB00211A4611606B49F1
:102C300009683231694A1160704770B506460D4621
:102C40006749096848688047A84200DA70BD0024D7
:102C500015E0604801680068401C5E4A10605E48EC
:102C6000405C305510460068322807DB00201146D2
:102C700008605A480068323058490860641CAC4209
:102C8000E7DB00BFE2E75748016F57480068323082
:102C9000401A524909684F4A12681144401A3228B2
:102CA00001D3002070470120FCE74E48016F4E48D9
:102CB00000683230411A49480068464A1268104498
:102CC000081A704700B58DB00121084601F029FBB4
:102CD00044486C3000F000FE444802903E480390A7
:102CE000002004903220059000200690802007905C
:102CF00000200890099020200A90C0010B9000202D
:102D00000C9002A937486C3000F088FE01220221A5
:102D100034486C3000F0B9FE012240213348001FD6
:102D200002F024FC10208DF8040000208DF805002E
:102D30008DF8060001208DF8070001A800F03BFB8C
:102D4000012128486C3000F094FE0DB000BD2348EE
:102D50000068204909680844704721490860AFF2BB
:102D6000B5011F4A12685160AFF2E5011C4A1268B2
:102D70001161AFF263111A4A12689160AFF2451106
:102D8000174A1268D160AFF2C301154A1268116088
:102D9000AFF24501124A12685161704770B505469D
:102DA0000C462046FFF7D9FF2846FFF773FE206840
:102DB000804770BD10B54FF4001000F093FE40B195
:102DC000094800683230084908604FF4001000F0EC
:102DD0009CFE10BD90000020EC0400209400002018
:102DE0009C000020000002409800002004440040A5
:102DF00070490A680968491C6E4B19606E49885C05
:102E000019460968322907DB00211A4611606B490F
:102E100009683231694A1160704770B506460D463F
:102E20006749096848688047A84200DA70BD0024F5
:102E300015E0604801680068401C5E4A10605E480A
:102E4000405C305510460068322807DB00201146F0
:102E500008605A480068323058490860641CAC4227
:102E6000E7DB00BFE2E75748C16D574800683230E2
:102E7000401A524909684F4A12681144401A3228D0
:102E800001D3002070470120FCE74E48C16D4E4839
:102E900000683230411A49480068464A12681044B6
:102EA000081A704700B58DB00121084601F039FAC3
:102EB0004448583000F010FD444802903E480390CA
:102EC000002004903220059000200690802007907A
:102ED00000200890099020200A90C0010B9000204B
:102EE0000C9002A93748583000F098FD01220221C9
:102EF0003448583000F0C9FD012240213348001FFA
:102F000002F034FB0F208DF8040000208DF805003E
:102F10008DF8060001208DF8070001A800F04BFA9B
:102F200001212848583000F0A4FD0DB000BD234811
:102F30000068204909680844704721490860AFF2D9
:102F4000B5011F4A12685160AFF2E5011C4A1268D0
:102F50001161AFF263111A4A12689160AFF2451124
:102F6000174A1268D160AFF2C301154A12681160A6
:102F7000AFF24501124A12685161704770B50546BB
:102F80000C462046FFF7D9FF2846FFF744FD20688E
:102F9000804770BD10B54FF4003000F0A3FD40B184
:102FA000094800683230084908604FF4003000F0EA
:102FB000ACFD10BDA00000201E050020A4000020D4
:102FC000AC00002000000240A800002004380140AE
:102FD00008B50220ADF8000018208DF8030003208A
:102FE0008DF802006946754800F08CFE0C20ADF8A3
:102FF000000010208DF8030003208DF802006946C0
:103000006E4800F07FFE08BD30B587B004460D461F
:10301000ADF81450ADF810400020ADF81600ADF832
:10302000120004A94FF0804001F066FB01218807DF
:1030300002F084F901221146900701F0D4FE7020BD
:10304000ADF800000120ADF80200BDF8140000EB5F
:10305000D0714910ADF806100020ADF8080069469F
:103060004FF0804001F0C7FB0821C80601F0D9FFEE
:103070000121880701F09CFF07B030BD10B5012188
:103080003D2001F05BF90121072001F064F910BD3A
:1030900008B51C208DF8000000208DF801008DF887
:1030A000020001208DF80300684600F084F908BD95
:1030B00010B50821414800F0D2FE10BD10B5042122
:1030C0003E4800F0CCFE10BD10B504213B4800F096
:1030D000C4FE10BD2DE9F04704468946FFF7CEFF38
:1030E000FFF776FF14B1FFF7EFFF01E0FFF7E6FF10
:1030F000FFF7DEFF484604F096F907463A460B46CE
:1031000000202F4904F00FF9054604F099F91FFA41
:1031100080FA51464720FFF777FFFFF7B9FFBDE878
:10312000F08710B50446274804600121880701F0A4
:103130003FFE10BD10B50821204800F08EFE10BDE6
:103140002048006808B9012070470020FCE71E49AC
:10315000086070472DE9F0410446204604F063F909
:1031600005462A460B460020154904F0DCF80746C0
:1031700004F066F94FF080418885BDE8F08110B514
:103180000121880702F0DDF8B0B10121880702F0C3
:10319000E9F80C480068401E0A49086008460068C3
:1031A00050B900214FF0804001F002FE064800684F
:1031B00010B105480068804710BD000000080140BC
:1031C00080842E41B4000020B00000200146564803
:1031D000814201D1C0147047B1F1804F01D101206B
:1031E000F9E75248814201D10220F4E75048814278
:1031F00001D10420EFE70020EDE701464A48814273
:1032000001D119207047B1F1804F01D11C20F9E79D
:103210004648814201D11D20F4E74548814201D151
:103220001E20EFE70020EDE7014611B1012905D18D
:1032300002E041F61F4070474720FCE70020FAE714
:10324000024612B1012A0AD106E001EB81000123F6
:10325000C3EB400080B27047481E80B2FBE70020FD
:10326000F9E72DE9FF4106460F4614463048FFF7BF
:10327000ADFF0546B5F5006F04D10121284601F0E8
:103280005DF803E00121284601F065F83946304633
:10329000FFF7D6FFADF808003046FFF7C5FFADF8E1
:1032A00004000020ADF80A00ADF8060001A920488E
:1032B00001F022FA1E48FFF7A0FFC0B28DF800000F
:1032C00000208DF801008DF8020001208DF8030028
:1032D000684600F070F801221146154801F083FDA0
:1032E0000121134802F03EF8124804600121104801
:1032F00001F05EFDBDE8FF810F480068704710B522
:103300000C48006810B10B48006880470A48006804
:10331000401C0949086006481030008820F0010070
:1033200003491031088010BD002C0140000400400A
:1033300000080040B8000020BC0000202DE9F0414A
:103340000446A06910F8028C25686768B8F1030F7D
:1033500009D0B8F1040F0AD0B8F1050F0AD0B8F1BE
:10336000060F0CD109E03878A847064607E0A847C1
:10337000064604E03878A84701E0A84700BF00BF30
:1033800026600020BDE8F0810648804706480047D7
:10339000FEE7FEE7FEE7FEE7FEE7FEE7FEE7FEE705
:1033A000FEE7FEE7F1010008ED00000831490143A6
:1033B000314A1160704770B5002100230F22C47894
:1033C0000CB32D4C246804F4E064C4F5E064210AD5
:1033D000C1F10403CA40447804FA03F1847814402C
:1033E00021430901254C0678A155047804F01F05F6
:1033F0000124AC4005786D114FF0E02606EB850501
:10340000C5F8004109E0047804F01F050124AC4030
:103410001B4D0678761145F8264070BD194A0A40C2
:103420000243154B1B1F1A60704739B1124A121D17
:1034300012680243104B1B1D1A6006E00E4A121D53
:10344000126882430C4B1B1D1A607047042808D178
:103450004FF0E021096941F004014FF0E0221161D1
:1034600007E04FF0E021096921F004014FF0E0226C
:10347000116170470000FA050CED00E000E400E087
:1034800080E100E080FFFF1F10B50446FA48844247
:1034900008D10121401500F06BFF0021601500F0FC
:1034A00067FF17E0F548844208D10121001500F0BC
:1034B0005FFF0021201500F05BFF0BE0F048844225
:1034C00008D10121C80300F053FF00214FF4004050
:1034D00000F04EFF10BD30B50246002000235068BA
:1034E000E84C20400D790C6844EA052420435060E4
:1034F0009068E54C2040D1E902542C434D7944EAD0
:10350000450420439060D06A20F470000C7C641E57
:10351000E4B2234340EA0350D06230BD0021016091
:10352000017141718160C16001210174704721B155
:10353000826842F00102826003E0826822F00102A8
:103540008260704721B1826842F48072826003E039
:10355000826822F480728260704710B50023CBB27B
:103560001AB144681C43446002E044689C434460D0
:1035700010BD816841F0080181607047014600205C
:103580008A6812F0080F01D0012000E00020704787
:10359000816841F0040181607047014600208A681B
:1035A00012F0040F01D0012000E00020704721B18B
:1035B000826842F4A002826003E0826822F4A002E2
:1035C00082607047014600208A6812F4800F01D0A3
:1035D000012000E00020704710B50A4600210023BA
:1035E000416821F46041531E41EA4331416010BDFE
:1035F00021B1426842F40062426003E0426822F472
:10360000006242607047F0B504460D46002000217C
:10361000092D11DDE068A5F10A0606EB460707262D
:1036200006FA07F18843A5F10A0606EB460603FAF7
:1036300006F10843E0600CE0206905EB450707262A
:1036400006FA07F1884305EB450603FA06F108433D
:103650002061072A0FDA606B561E06EB86071F26CD
:1036600006FA07F18843561E06EB860605FA06F1B0
:103670000843606322E00D2A0FDA206BD61F06EBA9
:1036800086071F2606FA07F18843D61F06EB860633
:1036900005FA06F10843206310E0E06AA2F10D0686
:1036A00006EB86071F2606FA07F18843A2F10D06EE
:1036B00006EB860605FA06F10843E062F0BD21B18B
:1036C000826842F48012826003E0826822F48012F1
:1036D000826070470146C86C80B2704766484C30C3
:1036E0000068704721B1426842F48062426003E0A2
:1036F000426822F480624260704721B1426842F41D
:103700008052426003E0426822F480524260704777
:103710000A460021816821F4E0411143816070472D
:1037200021B1826842F40042826003E0826822F4A0
:1037300000428260704721B1826842F402128260C6
:1037400003E0826822F40212826070470146002082
:103750008A6812F4001F01D0012000E000207047A9
:10376000F0B504461546002000220026092911DD87
:10377000E068A1F10A0707EB470C072707FA0CF2EC
:103780009043A1F10A0707EB470703FA07F210433A
:10379000E0600CE0206901EB410C072707FA0CF20E
:1037A000904301EB410703FA07F210432061A06B3D
:1037B000C0F30156EF1C06F1010CA7EB0C0707EB59
:1037C000870C1F2707FA0CF29043EF1C06F1010C3F
:1037D000A7EB0C0707EB870701FA07F21043A0637A
:1037E000F0BD10B50A4600210023816B21F4401181
:1037F000531E41EA0351816310BD08B500230093B5
:103800000090009B0B440093009B1A6008BD08B514
:10381000024600200090009201F12800009B18440D
:1038200000900098006880B208BD0A4600214168F7
:10383000164B1940114341607047416282627047E4
:103840000A460021416821F01F0111434160704781
:1038500040B109490831096841F40001064A0832BB
:10386000116007E004490831096821F40001024AA7
:103870000832116070470000002401400028014018
:10388000003C0140FFFEF0FFFDF7F1FFFFFD3FFFB1
:103890000246002013680B4201D0012000E0002006
:1038A0007047CA430260704770B50246002000238B
:1038B00000240B125568CEB205EA060415681D42B5
:1038C00002D00CB1012000E0002070BD00220A12DD
:1038D000D34303607047000001684FF6FE72114049
:1038E00001600021016041608160C1608C498842B3
:1038F00008D18B490839496841F00F01884A083AD4
:1039000051608AE086491431884208D184490839D7
:10391000496841F0F001824A083A51607DE08049EF
:103920002831884208D17E490839496841F47061DC
:103930007B4A083A516070E079493C31884208D1AD
:1039400077490839496841F47041754A083A51602D
:1039500063E073495031884208D171490839496898
:1039600041F470216E4A083A516056E06C49643166
:10397000884208D16A490839496841F47001684AA7
:10398000083A516049E066497831884208D1644973
:103990000839496841F07061614A083A51603CE079
:1039A0006049884206D1011F096841F00F01021FDA
:1039B000116032E05B491431884208D15949091F2E
:1039C000096841F0F001574A121F116025E055497E
:1039D0002831884208D15349091F096841F47061B0
:1039E000504A121F116018E04E493C31884208D1FC
:1039F0004C49091F096841F470414A4A121F11607D
:103A00000BE048495031884207D14649091F0968EF
:103A100041F47021434A121F1160704710B5002213
:103A2000026847F6F0739A430C6A8B6823430C696B
:103A300023434C6923438C692343CC6923434C6A59
:103A400023438C6A23431A430260CB6843600B68AC
:103A500083604B68C36010BD0021016041608160DC
:103A6000C160016141618161C16101624162816244
:103A7000704721B1026842F00102026004E002686E
:103A80004FF6FE731A40026070471AB103680B4389
:103A9000036002E003688B43036070474160704736
:103AA0000146486880B2704701460020002211F0AC
:103AB000805F03D01B4B083B1A6802E0184B083BA1
:103AC0001A680A4201D0012000E00020704710F07F
:103AD000805F03D01349091F086002E010490839CC
:103AE0004860704701460020002211F0805F03D03B
:103AF0000C4B083B1A6802E0094B083B1A680A4263
:103B000001D0012000E00020704710F0805F03D05A
:103B10000449091F086002E00149083948607047FC
:103B20000800024008040240002044490860091DC2
:103B30000860091D0860091D086041483F491431AB
:103B40000860704700213D498279002A3AD00A4630
:103B5000126803689A430B461A600A1D12680368CC
:103B60009A430B1D1A60027911440A6803681A43CC
:103B70000A60324A0832126803689A432F4B0833AE
:103B80001A601A1D126803689A432C4B0C331A6092
:103B90004279102A0ED11A1F126803681A43274B64
:103BA00008331A601A1D126803681A43234B0C333A
:103BB0001A600DE02149427911440A6803681A43EA
:103BC0000A6005E0027911440A6803689A430A60B2
:103BD00070470021016001710C2141710021817148
:103BE00070471649103109680143144A10321160B8
:103BF000704701460020114A143212680A4201D06F
:103C0000012000E0002070470C4914310860704723
:103C1000014600200022094B1B6803EA0102074B02
:103C200014331B680B4202D00AB1012000E00020CF
:103C300070470249143108607047000000040140D9
:103C4000FFFF0F0010B50446CA48844208D1012185
:103C5000042000F08DFB0021042000F089FB46E0E9
:103C6000C548844208D10121082000F081FB0021D1
:103C7000082000F07DFB3AE0C048844208D10121D1
:103C8000102000F075FB0021102000F071FB2EE0E9
:103C9000BB48844208D10121202000F069FB0021AB
:103CA000202000F065FB22E0B648844208D10121C3
:103CB000402000F05DFB0021402000F059FB16E0A1
:103CC000B148844208D10121802000F051FB00213D
:103CD000802000F04DFB0AE0AC48844207D101216E
:103CE000801500F045FB0021A01500F041FB10BD40
:103CF00010B50121084600F03BFB0021012000F037
:103D000037FB10BD2DE9F0410246002500260020BA
:103D100000230024002791F803C00CF00F0591F850
:103D200003C01CF0100F03D091F802C04CEA050547
:103D300091F800C0BCF1000F31D0146800202BE0D6
:103D40004FF0010C0CFA00F3B1F800C00CEA0306C6
:103D50009E4220D183004FF00F0C0CFA03F7BC43B6
:103D600005FA03FC4CEA040491F803C0BCF1280FE7
:103D700006D14FF0010C0CFA00FCC2F814C00AE0A6
:103D800091F803C0BCF1480F05D14FF0010C0CFABB
:103D900000FCC2F810C0401C0828D1D31460B1F850
:103DA00000C0BCF1FF0F34DD546800202EE000F1AC
:103DB000080C4FF0010808FA0CF3B1F800C00CEA47
:103DC00003069E4221D183004FF00F0C0CFA03F73B
:103DD000BC4305FA03FC4CEA040491F803C0BCF1AF
:103DE000280F05D100F1080C08FA0CF8C2F814806D
:103DF00091F803C0BCF1480F07D100F1080C4FF057
:103E0000010808FA0CF8C2F81080401C0828CED32C
:103E10005460BDE8F0814FF6FF710180022181708E
:103E20000421C17070470246002093680B4201D004
:103E3000012000E0002070470146886880B270478A
:103E400002460020D3680B4201D0012000E0002090
:103E500070470146C86880B2704701617047416190
:103E600070470AB1016100E041617047C16070476D
:103E70004FF480320A438261816182618269826982
:103E8000704702460020424B18684FF68073184076
:103E900040EA021008433E4B186070473D49C86134
:103EA0007047F0B50A46002300240021002500F0E9
:103EB0000046B6F1004F02D1354EF16901E0344EB3
:103EC0007168C0F3034583B200F44016B6F5401F95
:103ED00008D121F070612E4E766826F070662C4F66
:103EE0007E6012E000F48016B6F5801F06D103262E
:103EF00006FA05F4A14341F0706106E0460D360173
:103F000003FA06F6B14341F0706122B1460D360165
:103F100003FA06F6314300F00046B6F1004F02D135
:103F20001B4EF16101E01A4E7160F0BD30B5002208
:103F30008B071C0F0F2303FA04F2154B08338C1068
:103F400053F824309343124C08348D1044F8253034
:103F500023468C1053F824308C07240F00FA04F405
:103F600023430B4C08348D1044F8253030BD0A49EA
:103F70000860704700080140000C0140001001403B
:103F80000014014000180140001C014000200140C5
:103F90000000014000002042DC00204210B5012159
:103FA000080700F0F2F900214FF0805000F0EDF921
:103FB00010BD2949086270472749086170470146CA
:103FC0000020264A106820F0E00008431060704787
:103FD00023490860704710B5024600201F4B18683F
:103FE00020F00300104318601E4B1B6843F00403CD
:103FF0001C4C2360012901D130BF00E020BF194BC8
:104000001B6823F00403174C236010BD134800689D
:1040100040F00400114908600846006840F00200C2
:1040200008601048006840F004000E49086000BFB6
:1040300000BF30BF704701460020084A52680A425C
:1040400001D0012000E0002070470449096841EADE
:104050008001024A1160704700000E42007000406B
:10406000A0000E4210ED00E0DD48006840F00100C5
:10407000DB49086008464068DA490840D84948608A
:1040800008460068D8490840D549086008460068D5
:1040900020F4802008600846406820F4FE00486054
:1040A0004FF41F0088607047CD49096821F48031C2
:1040B000CB4A11601146096821F480211160B0F5E6
:1040C000803F03D0B0F5802F0ED106E0C4490968C7
:1040D00041F48031C24A116007E0C149096841F4E6
:1040E000A021BF4A116000E000BF00BF704710B5BB
:1040F00001460022002300204A11012A02D1B84CB7
:10410000236806E0022A02D1B54C236A01E0B44CD0
:10411000636A01F01F02012494401C4201D0012077
:1041200000E0002010BD38B50020009000240025DC
:1041300000BF3120FFF7DBFF05460098401C0090D0
:104140000098B0F5A06F01D0002DF2D03120FFF71C
:10415000CEFF08B1012400E00024204638BD01460E
:1041600000209F4A106820F0F80040EAC10010606B
:1041700070479E490860704702460020984B586877
:1041800020F47C1042EA01031843954B58607047B5
:1041900096490866704701460020914A506820F011
:1041A00003000843506070478D48406800F00C00E1
:1041B0007047014600208A4A506820F0F00008430A
:1041C0005060704701460020854A506820F4E06046
:1041D00008435060704701460020814A506820F42F
:1041E000605040EAC1005060704729B17C4A527A61
:1041F00002437B4B5A7204E0794A527A8243784BED
:104200005A7270477A490860704701460020744A24
:10421000506820F440400843506070470021754AC0
:1042200011706F4A82F82010012802D0042808D1AA
:1042300003E001216F4A117004E005216D4A1170FD
:1042400000E000BF00BF70476B49086070476449D9
:10425000096A0143624A116270476749443908603C
:10426000704730B500210022002400235C4D6D68AA
:1042700005F00C0121B1042905D0082923D105E05E
:104280005E4D056022E05D4D05601FE0544D6D6898
:1042900005F47012524D6D6805F48034022505EB6B
:1042A00092421CB9564D554305600BE04C4D6D686C
:1042B00015F4003F03D0524D5543056002E04F4DC9
:1042C0005543056002E04D4D056000BF00BF444D01
:1042D0006D6805F0F00109094A4D6B5C0568DD4029
:1042E00045603F4D6D6805F4E061090A454D6B5C22
:1042F0004568DD4085603A4D6D6805F46051C90A36
:10430000404D6B5C4568DD40C560354D6D6805F41A
:104310004041890B3C4D6B5CC568B5FBF3F505610D
:1043200030BD29B12E4A526902432D4B5A6104E037
:104330002B4A526982432A4B5A61704729B1284A55
:1043400092690243264B9A6104E0254A92698243AE
:10435000234B9A61704729B1214AD2690243204B0D
:10436000DA6104E01E4AD26982431D4BDA6170476C
:1043700029B11B4AD2680243194BDA6004E0184A9B
:10438000D2688243164BDA60704729B1144A126929
:104390000243134B1A6104E0114A12698243104B25
:1043A0001A61704714494039086070470F49C86462
:1043B00070470B49C87170470948406A40F08070E7
:1043C00007494862704701460020054A92680A4240
:1043D00001D0012000E00020704701498872704739
:1043E000001002400000FFF8FFFFF6FE000042420E
:1043F000D8004242201002408004424200127A005B
:1044000000093D00C0000020D000002029B14F4A23
:10441000128802434D4B1A8004E04C4A12888243B2
:104420004A4B1A8070474948001D008840F0100030
:104430004649091D088070474448001D00884FF612
:10444000EF7108404149091D0880704700213F482D
:104450001C300188001F008841EA0040704700B509
:104460000246FFF7E0FF100C384918310880091D9B
:104470000A80FFF7E1FF00BD00B50246FFF7D3FF5A
:10448000C2F30340314908310880091D0A80FFF753
:10449000D3FF00BD00B50246FFF7C5FF100C2B4946
:1044A00020310880091D0A80FFF7C6FF00BD0020EB
:1044B0002649103109880907080B24491431098855
:1044C0000843704700BF2148001D008810F0200FEE
:1044D000F9D070471D48001D00884FF6F77108405D
:1044E0001A49091D088000BF1848001D008810F0F7
:1044F000080FF9D0704701460020144A121D128897
:104500000A4201D0012000E0002070470F49091D38
:10451000098881430D4A121D118070470146002011
:104520000A4A121D12880A40D0B2084A12880A426A
:1045300002D008B1012000E0002070470349091DA6
:1045400009888143014A121D1180704700280040EC
:1045500010B50446FE48844208D10121C014FFF77B
:1045600007FF0021E014FFF703FFC4E0B4F1804F20
:1045700008D101210846FFF708FF00210120FFF7BD
:1045800004FFB8E0F348844208D101210220FFF77C
:10459000FCFE00210220FFF7F8FEACE0EE4884426A
:1045A00008D101210420FFF7F0FE00210420FFF7CD
:1045B000ECFEA0E0E948844208D101210820FFF781
:1045C000E4FE00210820FFF7E0FE94E0E448844286
:1045D00008D101211020FFF7D8FE00211020FFF79D
:1045E000D4FE88E0DF48844208D101212020FFF773
:1045F000CCFE00212020FFF7C8FE7CE0DA48844290
:1046000008D101214014FFF7B3FE00216014FFF729
:10461000AFFE70E0D548844209D10121C804FFF7FC
:10462000A7FE00214FF40020FFF7A2FE63E0D04870
:10463000844209D101210805FFF79AFE00214FF4B9
:104640008010FFF795FE56E0CA48844209D1012147
:104650004805FFF78DFE00214FF40010FFF788FE9C
:1046600049E0C548844208D101214020FFF78DFE72
:1046700000214020FFF789FE3DE0C048844208D178
:1046800001218020FFF781FE00218020FFF77DFEC1
:1046900031E0BB48844208D101218015FFF775FE47
:1046A0000021A015FFF771FE25E0B648844209D12C
:1046B00001210804FFF75CFE00214FF48030FFF772
:1046C00057FE18E0B048844209D101214804FFF7A1
:1046D0004FFE00214FF40030FFF74AFE0BE0AB48DD
:1046E000844208D101218804FFF742FE00214FF4E3
:1046F0008020FFF73DFE10BD00220288944B9842B7
:104700000ED0994B98420BD0B0F1804F08D0914B0E
:10471000984205D0904B984202D0904B984204D1D9
:104720004FF68F731A404B881A438D4B984207D02F
:104730008C4B984204D04FF6FF431A40CB881A4363
:1047400002808B8883850B880385814B98420BD030
:10475000854B984208D08B4B984205D08A4B9842A3
:1047600002D08A4B984201D10B7A038601238382BF
:10477000704770B5002400220023058C4FF6FE76AA
:1047800035400584028C8388048B4FF68F752C404E
:10479000B51E2C400D882C43751E2A400D892A43D6
:1047A0004D882A436A4DA8420BD06F4DA84208D0CD
:1047B000744DA84205D0744DA84202D0734DA84252
:1047C00013D14FF6F7752A404D892A434FF6FB75F2
:1047D0002A408D882A434FF6FF652B404FF6FF5540
:1047E0002B408D892B43CD892B4383800483CD8837
:1047F0008586028470BD70B5002400220023058CDC
:104800004FF6EF7635400584028C8388048B48F69A
:10481000FF752C404FF6FF452C400D884FF6FF7674
:1048200006EA05252C434FF6DF752A400D8906EA76
:1048300005152A434D8806EA05152A43444DA8422A
:1048400002D0494DA8421DD14FF67F752A404D89AF
:104850004FF6FF7606EA05152A434FF6BF752A4044
:104860008D8806EA05152A434FF6FF352B404FF297
:10487000FF752B408D8906EA85052B43CD8906EA15
:1048800085052B4383800483CD880587028470BD12
:1048900070B5002400220023058C4FF6FF663540DA
:1048A0000584028C8388848B4FF68F752C404FF6DD
:1048B000FC752C400D882C434FF6FF552A400D897E
:1048C0004FF6FF7606EA05252A434D8806EA0525B8
:1048D0002A431F4DA84202D0234DA8421DD14FF2BA
:1048E000FF752A404D894FF6FF7606EA05252A43D3
:1048F0004FF6FF352A408D8806EA05252A434EF6F5
:10490000FF752B404DF6FF752B408D8906EA051586
:104910002B43CD8906EA05152B4383808483CD88FC
:104920008587028470BD70B5002200230024058CA9
:104930004EF6FF7635400584038C8488828B48F6DA
:10494000FF752A404FF6FF452A400D8820E0000001
:10495000002C01400004004000080040000C004012
:10496000001000400014004000340140004C0140A1
:10497000005001400054014000180040001C00405D
:104980000020004000400140004401400048014038
:104990004FF6FF7606EA05252A434DF6FF752B40B4
:1049A0000D8906EA05352B434D8806EA05352B436C
:1049B000FA4DA84202D0FA4DA84208D14BF6FF7535
:1049C0002C408D894FF6FF7606EA85152C438480AE
:1049D0008283CD88A0F84050038470BD828B4FF253
:1049E000FF331A408283828B4FF6FF7303EA012361
:1049F0001A4382837047F0B50C4615460022002109
:104A00000026078C4EF6FF7C07EA0C070784828B92
:104A1000018C4FF6FF7707EA043640F6FF473A402D
:104A20004FF6FF7707EA05273A434FF6FF7707EA85
:104A300003373A43D94FB8420ED0D94FB8420BD0C2
:104A4000B0F1804F08D0D74FB84205D0D64FB8420A
:104A500002D0D64FB84206D14DF6FF77394046F422
:104A60008057394305E047F6FF57394044F48057F3
:104A7000394382830184F0BD828B4FF6F3731A4071
:104A80008283828B0A4382837047F0B50C461546B9
:104A9000002200210026078C4FF6FF6C07EA0C0766
:104AA0000784828B018C4FF6FF7707EA04264FF6C6
:104AB0000C773A404FF6FF7707EA03172F433A4344
:104AC000B64FB8420ED0B64FB8420BD0B0F1804FBF
:104AD00008D0B44FB84205D0B34FB84202D0B34F5C
:104AE000B84206D14FF6FF57394046F48077394334
:104AF00005E04FF2FF57394044F480773943828311
:104B00000184F0BD028B4FF2FF331A400283028B07
:104B10004FF6FF7303EA01231A4302837047F0B58F
:104B20000C461546002200210026078C4FF6EF7C2C
:104B300007EA0C070784028B018C4FF6FF7707EA20
:104B4000041640F6FF473A404FF6FF7707EA03376F
:104B50003A434FF6FF7707EA05273A438F4FB842AB
:104B60000ED08F4FB8420BD0B0F1804F08D08D4F90
:104B7000B84205D08C4FB84202D08C4FB84206D113
:104B80004FF6DF77394046F01007394305E04FF61E
:104B90005F77394044F01007394302830184F0BD48
:104BA000028B4FF6F3731A400283028B0A4302838F
:104BB0007047F0B50C46154600220021068C4FF6D2
:104BC000FE773E400684028B018C4FF60C76324015
:104BD0007E1C06EA03162E433243704EB0420ED0BE
:104BE0006F4EB0420BD0B0F1804F08D06D4EB04246
:104BF00005D06D4EB04202D06C4EB04206D14FF699
:104C0000FD76314044F00106314305E04FF6F5767C
:104C1000314044F00106314302830184F0BD70B598
:104C200005460C465D4885420ED05D4885420BD056
:104C3000B5F1804F08D05B48854205D05A4885427F
:104C400002D05A48854200D100E000BF208850B908
:104C50002389A28861882846FFF7ABFFE1882846B0
:104C6000FFF79EFF25E0208804280AD12389A28827
:104C700061882846FFF753FFE1882846FFF742FF87
:104C800017E0208808280AD12389A288618828464D
:104C9000FFF7FBFEE1882846FFF7EEFE09E02389D7
:104CA000A28861882846FFF7A6FEE1882846FFF71C
:104CB00095FE70BD2DE9F04105460C460026012702
:104CC000608808B9022600E00026A088012801D1EA
:104CD000022700E001272088A0B92389A2886188E3
:104CE0002846FFF766FFE1882846FFF759FF23892A
:104CF0003A4631462846FFF712FFE1882846FFF77B
:104D000001FF13E02389A28861882846FFF707FF87
:104D1000E1882846FFF7F6FE23893A4631462846C1
:104D2000FFF747FFE1882846FFF73AFFBDE8F0812B
:104D30000A884B881A438B881A43CB881A430B89FD
:104D40001A434B891A438B891A43A0F844207047B1
:104D50004FF6FF71818000210180C1804180017286
:104D600070470021018041808180C18001814181A3
:104D70008181C181704700210180418001218180B2
:104D80000021C18001817047002101804180818024
:104D9000C18001814181818170470000002C014068
:104DA000003401400004004000080040000C0040B6
:104DB00021B1028842F00102028004E002884FF62D
:104DC000FE731A400280704731B1B0F8442042F4BB
:104DD0000042A0F8442005E0B0F84420C2F30E02DF
:104DE000A0F8442070471AB183890B43838102E005
:104DF00083898B43838170478182704741EA020334
:104E0000A0F8483070471AB183890B43838102E0D0
:104E100083898B438381704701894FF6F872114073
:104E2000018170470A46002101894FF68F731940AE
:104E300011430181704730B504460D46294620468E
:104E4000FFF7F0FF208940F00700208130BD2DE9F9
:104E5000F04104460D4616461F46602D06D13B46DE
:104E6000012231462046FFF75AFE05E03B4601226B
:104E700031462046FFF79DFE29462046FFF7D2FF28
:104E8000208940F007002081BDE8F08130B50C4654
:104E900000210189C9B24FF6FF7505EA03251543C4
:104EA00025432943018130BD2DE9F04105460E46D9
:104EB00017469846002443463A4631462846FFF7AF
:104EC000E5FF2C894FF6F870044044F007044FF6D4
:104ED0008F70044044F070042C81BDE8F081F0B57F
:104EE00004460D4616461F463B4632462946204696
:104EF000FFF7CCFF208940F480402081F0BD018580
:104F0000828270470A46002101884FF68F7319404C
:104F1000114301807047F0B50C4615461E4600212E
:104F2000002200230189028B038C4FF6F877394069
:104F300021434FF6FC473A4040F201173A434FF6FF
:104F4000DD773B404FF6FF7707EA06172F433B43D9
:104F5000018102830384F0BD0A460021018B4FF6D4
:104F60008F7319401143018370470A460021018B5A
:104F700048F6FF7319404FF6FF7303EA0223194303
:104F8000018370470A460021818B4FF68F731940C9
:104F90001143818370470A460021818B48F6FF73D5
:104FA00019404FF6FF7303EA0223194381837047C8
:104FB00021B1028842F08002028004E002884FF6AC
:104FC0007F731A400280704721B1828842F0040248
:104FD000828004E082884FF6FB731A40828070471B
:104FE00021B1828842F00802828004E082884FF674
:104FF000F7731A408280704721B1828842F0010223
:10500000828004E082884FF6FE731A4082807047E7
:105010000A460021018B4FF6F773194011430183B3
:1050200070470A460021018B4FF2FF7319404FF67B
:10503000FF7303EA02231943018370470A460021E4
:10504000818B4FF6F77319401143818370470A46ED
:105050000021818B4FF2FF7319404FF6FF7303EA73
:1050600002231943818370470A460021018B4FF6C2
:10507000FB7319401143018370470A460021018BDD
:105080004FF6FF3319404FF6FF7303EA022319432B
:10509000018370470A460021818B4FF6FB7319404C
:1050A0001143818370470A460021818B4FF6FF33FD
:1050B00019404FF6FF7303EA0223194381837047B7
:1050C0000A460021018B4FF67F731940114301837B
:1050D00070470A460021018BC1F30E014FF6FF73A2
:1050E00003EA02231943018370470A460021818B9A
:1050F0004FF67F7319401143818370470A460021A0
:10510000818BC1F30E014FF6FF7303EA02231943AB
:10511000818370470A460021018C4FF6FD731940C8
:105120001143018470470A460021018C4FF6F77342
:1051300019401143018470470A460021018C4FF643
:10514000DF7319404FF6FF7303EA0213194301841A
:1051500070470A460021018C4FF67F7319404FF6C5
:10516000FF7303EA02131943018470470A460021C2
:10517000018C4FF6FF5319404FF6FF7303EA0223E9
:105180001943018470470A460021018C4FF2FF73D6
:1051900019404FF6FF7303EA022319430184704755
:1051A0000A460021018C4DF6FF7319404FF6FF733C
:1051B00003EA023319430184704730B50023012408
:1051C0008C40A3B2048C9C430484048C02FA01F545
:1051D000ADB22C43048430BD30B5002304248C4090
:1051E000A3B2048C9C430484048C02FA01F5ADB292
:1051F0002C43048430BD70B50346002000241846BB
:10520000183001258D40ACB21D8CA5431D8409B119
:10521000082909D100EB6100056825F070050560DB
:105220000568154305600EE00D1FC5F34E052844C3
:10523000056825F4E045056005684FF6FF7606EA47
:1052400002263543056070BD21B1028842F002029A
:10525000028004E002884FF6FD731A400280704716
:1052600021B1028842F00402028004E002884FF675
:10527000FB731A400280704721B1828842F080029D
:10528000828004E082884FF67F731A4082807047E4
:1052900002884FF6F7731A40028002880A430280A0
:1052A000704782884FF68F731A40828082880A4343
:1052B0008280704702894FF6F8731A400281028992
:1052C0000A430281704702894FF67F731A400281B8
:1052D00002890A4302817047818470478185704743
:1052E000818670470187704781877047A0F840101A
:1052F000704702884FF6FF431A40028002880A4333
:10530000028070470146888E70470146088F7047BB
:105310000146888F70470146B1F84000704701464A
:10532000888C70470146088D704702460020138A1A
:105330000B4201D0012000E000207047CA430282E6
:10534000704730B50246002000230024158A05EA84
:105350000103958905EA010413B10CB1012000E0B5
:10536000002030BDCA4302827047000010B50446D9
:10537000FB48844209D101218803FEF7F9FF00218F
:105380004FF48040FEF7F4FF32E0F648844209D142
:1053900001214804FEF7F9FF00214FF40030FEF729
:1053A000F4FF25E0F048844209D101218804FEF78A
:1053B000ECFF00214FF48020FEF7E7FF18E0EB48F8
:1053C000844209D10121C804FEF7DFFF00214FF418
:1053D0000020FEF7DAFF0BE0E548844208D1012106
:1053E0000805FEF7D2FF00214FF48010FEF7CDFF35
:1053F00010BD2DE9F04786B005460E460024A246B2
:1054000000BFA1460027B08900B100BF2F462C8AFB
:105410004CF6FF700440F08804432C82AC894EF6B1
:10542000F3100440B088318908437189084304436C
:10543000AC81AC8A4FF6FF400440B0890443AC8293
:1054400001A8FEF70EFFC648874202D1DDF810A082
:1054500001E0DDF80CA0A88910F4004F08D00AEB99
:10546000CA0000EB0A1031684900B0FBF1F807E010
:105470000AEBCA0000EB0A1031688900B0FBF1F8B2
:105480006420B8FBF0F004012009642101FB1089BD
:10549000A88910F4004F08D0322000EBC900B0FBFF
:1054A000F1F000F00700044308E0322000EB09109F
:1054B0006421B0FBF1F000F00F0004432C8106B032
:1054C000BDE8F0874FF41651016000218180C18052
:1054D00001810C21418100218181704710B5024674
:1054E0000020108A4FF2FF0318400B884C8823439A
:1054F0008C882343CC8823431843108210BD00219D
:10550000018041808180C180704721B1828942F44D
:105510000052828104E082894DF6FF731A40828135
:105520007047F0B503460024002600250020A1F5B1
:1055300010676A3F00D100BF1846C1F3421401F062
:105540001F06012707FA06F5012C01D10C3004E0F3
:10555000022C01D1103000E014301AB107682F433B
:10556000076002E00768AF430760F0BD1AB1838AA5
:105570000B43838202E0838A8B4383827047028AD3
:105580004FF6F0731A400282028A0A430282704781
:1055900082894FF2FF731A40828182890A43828195
:1055A000704721B1828942F00202828104E082893F
:1055B0004FF6FD731A4082817047028A4FF6DF73FF
:1055C0001A400282028A0A430282704721B1028A8B
:1055D00042F48042028204E0028A4BF6FF731A40D2
:1055E00002827047C1F308028280704701468888B2
:1055F000C0F308007047818941F001018181704743
:10560000028BD2B20283028B42EA012202837047EC
:10561000028B02F47F420283028B0A4302837047AB
:1056200021B1828A42F02002828204E0828A4FF60F
:10563000DF731A408282704721B1828A42F01002E1
:10564000828204E0828A4FF6EF731A4082827047AA
:1056500021B1828A42F00802828204E0828A4FF6F7
:10566000F7731A408282704721B1828942F4004266
:10567000828103E08289C2F30E028281704721B1E8
:10568000828A42F40062828204E0828A4FF2FF73CF
:105690001A4082827047828A4FF6FB731A408282D8
:1056A000828A0A438282704721B1828A42F00202D2
:1056B000828204E0828A4FF6FD731A40828270472C
:1056C00002460020B1F5007F00D100BF13880B42D5
:1056D00001D0012000E00020704701F40072B2F513
:1056E000007F00D100BFCA430280704770B50246F8
:1056F0000024002300250020A1F510666A3E00D199
:1057000000BFC1F3421501F01F03012606FA03F39F
:10571000012D02D19689334006E0022D02D1168A6E
:10572000334001E0968A33400C12012606FA04F455
:105730001688344013B10CB1012000E0002070BD88
:1057400010B500220023A1F510646A3C00D100BF0F
:105750000A1201249440A3B2DC43048010BD00006F
:10576000003801400044004000480040004C004028
:105770000050004038B50446022304221C21D020EA
:10578000009400F0E5FB38BD38B50446022304223E
:105790001B21D020009400F0DBFB38BD38B5044657
:1057A000032302226B21D020009400F0D1FB38BDEE
:1057B00010B50446234606226B21D02000F0EDFBF5
:1057C00010BD10B50020FFF7F3FF0120FFF7E6FF43
:1057D0000020FFF7D9FF0020FFF7CCFF10BD10B568
:1057E0004FF480638A4AD114104600F054F9FFF751
:1057F000E8FF10BD10B500247521D02000F08EFB0D
:105800000446204610BD70B50024002500263B212B
:10581000D02000F083FB05463C21D02000F07EFB29
:10582000064646EA052004B2204670BD70B5002445
:10583000002500263D21D02000F070FB05463E21CA
:10584000D02000F06BFB064646EA052004B2204655
:1058500070BD70B50024002500263F21D02000F047
:105860005DFB05464021D02000F058FB064646EA85
:10587000052004B2204670BD70B500240025002626
:105880004321D02000F04AFB05464421D02000F0FF
:1058900045FB064646EA052004B2204670BD70B5B9
:1058A0000024002500264521D02000F037FB0546C6
:1058B0004621D02000F032FB064646EA052004B21D
:1058C000204670BD70B50024002500264721D02059
:1058D00000F024FB05464821D02000F01FFB0646BF
:1058E00046EA052004B2204670BD70B500240025AC
:1058F00000264121D02000F011FB05464221D02096
:1059000000F00CFB064646EA052004B2204670BDB6
:1059100010B50446FFF777FF2080FFF79AFF6080FD
:10592000FFF784FFA080FFF7A7FFE080FFF7CAFF23
:105930002081FFF7B4FF608110BD2DE9F0470446D8
:10594000FFF761FF814601F05DFD07460022314B04
:1059500001F0E9FC054600222F4B01F06CFCC4E984
:105960000001FFF776FF814601F04CFD074600225B
:10597000284B01F0D8FC05460022284B01F05BFCC7
:10598000C4E90201FFF752FF814601F03BFD0746E3
:105990000022204B01F0C7FC05460022134601F00F
:1059A0004AFCC4E90401FFF767FF814601F02AFDC4
:1059B00007461B4A1B4B01F044FC05461A4A1B4B89
:1059C00001F039FCC4E90601FFF77CFF814601F0D4
:1059D00019FD0746124A134B01F033FC0546144AE1
:1059E000144B01F028FCC4E90801FFF758FF814679
:1059F00001F008FD07460A4A0A4B01F022FC054661
:105A00000D4A0E4B01F017FCC4E90A01BDE8F0870E
:105A1000000C01400000D0400010B33F0020C1BF87
:105A2000F8432A4B7F76213FB5C10CFC561A89BF3B
:105A3000835751D768A6ACBFD6829B236B4885BFDE
:105A400001460022F848814201D1042221E0F648B3
:105A5000814201D104221CE0F448814201D1082294
:105A600017E0F348814201D1102212E0F14881424F
:105A700001D120220DE0F048814201D1402208E00E
:105A8000EE48814201D1802203E0ED48814200D1FD
:105A9000821590B270472DE9F84307460C4615462B
:105AA0001E464FF00008C1463846FFF7C9FF804642
:105AB0002846FFF7C5FF814601214046FEF73EFC20
:105AC00001214846FEF73AFCADF8004003208DF86E
:105AD000020014208DF8030069463846FEF712F9DB
